{
  "contractName": "AddressSet",
  "abi": [
    {
      "constant": false,
      "inputs": [
        {
          "name": "self",
          "type": "AddressSet.Set storage"
        },
        {
          "name": "other",
          "type": "address"
        }
      ],
      "name": "insert",
      "outputs": [],
      "payable": false,
      "stateMutability": "nonpayable",
      "type": "function",
      "signature": "0x989779e9"
    },
    {
      "constant": false,
      "inputs": [
        {
          "name": "self",
          "type": "AddressSet.Set storage"
        },
        {
          "name": "other",
          "type": "address"
        }
      ],
      "name": "remove",
      "outputs": [],
      "payable": false,
      "stateMutability": "nonpayable",
      "type": "function",
      "signature": "0x8c9d1e41"
    },
    {
      "constant": true,
      "inputs": [
        {
          "name": "self",
          "type": "AddressSet.Set storage"
        },
        {
          "name": "other",
          "type": "address"
        }
      ],
      "name": "contains",
      "outputs": [
        {
          "name": "",
          "type": "bool"
        }
      ],
      "payable": false,
      "stateMutability": "view",
      "type": "function",
      "signature": "0x3412d5f2"
    },
    {
      "constant": true,
      "inputs": [
        {
          "name": "self",
          "type": "AddressSet.Set storage"
        }
      ],
      "name": "length",
      "outputs": [
        {
          "name": "",
          "type": "uint256"
        }
      ],
      "payable": false,
      "stateMutability": "view",
      "type": "function",
      "signature": "0xc6756c73"
    }
  ],
  "bytecode": "0x6103c1610030600b82828239805160001a6073146000811461002057610022565bfe5b5030600052607381538281f3fe7300000000000000000000000000000000000000003014608060405260043610610072577c010000000000000000000000000000000000000000000000000000000060003504633412d5f281146100775780638c9d1e41146100b7578063989779e9146100f2578063c6756c731461012b575b600080fd5b6100a36004803603604081101561008d57600080fd5b5080359060200135600160a060020a031661015a565b604080519115158252519081900360200190f35b8180156100c357600080fd5b506100f0600480360360408110156100da57600080fd5b5080359060200135600160a060020a03166101ef565b005b8180156100fe57600080fd5b506100f06004803603604081101561011557600080fd5b5080359060200135600160a060020a0316610332565b6101486004803603602081101561014157600080fd5b5035610391565b60408051918252519081900360200190f35b600160a060020a03811660009081526001830160205260408120548110801561019e5750600160a060020a0382166000908152600184016020526040902054835410155b80156101e85750600160a060020a038216600081815260018501602052604090205484548591600019019081106101d157fe5b600091825260209091200154600160a060020a0316145b9392505050565b6101f9828261015a565b1561032e5781600161020a82610391565b0381548110151561021757fe5b6000918252602080832090910154600160a060020a0384811684526001860190925260409092205484549190921691849160001990910190811061025757fe5b6000918252602080832091909101805473ffffffffffffffffffffffffffffffffffffffff1916600160a060020a03948516179055918316815260018401918290526040812054845490929190859060001985019081106102b457fe5b6000918252602080832090910154600160a060020a03908116845283820194909452604092830182209490945591841682526001850190925290812055815482908015156102fe57fe5b6000828152602090208101600019908101805473ffffffffffffffffffffffffffffffffffffffff191690550190555b5050565b61033c828261015a565b151561032e578154600180820180855560008581526020808220909401805473ffffffffffffffffffffffffffffffffffffffff1916600160a060020a03969096169586179055938452930190526040902055565b549056fea165627a7a7230582058d1afd60de3c24ae011379ff347a61da3afec79720248168393a350826489fd0029",
  "source": "pragma solidity ^0.5.0;\r\n\r\n/// @title An implementation of the set data structure for addresses.\r\n/// @author Noah Zinsmeister\r\n/// @dev O(1) insertion, removal, contains, and length functions.\r\nlibrary AddressSet {\r\n    struct Set {\r\n        address[] members;\r\n        mapping(address => uint) memberIndices;\r\n    }\r\n\r\n    /// @dev Inserts an element into a set. If the element already exists in the set, the function is a no-op.\r\n    /// @param self The set to insert into.\r\n    /// @param other The element to insert.\r\n    function insert(Set storage self, address other) public {\r\n        if (!contains(self, other)) {\r\n            self.memberIndices[other] = self.members.push(other);\r\n        }\r\n    }\r\n\r\n    /// @dev Removes an element from a set. If the element does not exist in the set, the function is a no-op.\r\n    /// @param self The set to remove from.\r\n    /// @param other The element to remove.\r\n    function remove(Set storage self, address other) public {\r\n        if (contains(self, other)) {\r\n            // replace other with the last element\r\n            self.members[self.memberIndices[other] - 1] = self.members[length(self) - 1];\r\n            // reflect this change in the indices\r\n            self.memberIndices[self.members[self.memberIndices[other] - 1]] = self.memberIndices[other];\r\n            delete self.memberIndices[other];\r\n            // remove the last element\r\n            self.members.pop();\r\n        }\r\n    }\r\n\r\n    /// @dev Checks set membership.\r\n    /// @param self The set to check membership in.\r\n    /// @param other The element to check membership of.\r\n    /// @return true if the element is in the set, false otherwise.\r\n    function contains(Set storage self, address other) public view returns (bool) {\r\n        return ( // solium-disable-line operator-whitespace\r\n            self.memberIndices[other] > 0 && \r\n            self.members.length >= self.memberIndices[other] && \r\n            self.members[self.memberIndices[other] - 1] == other\r\n        );\r\n    }\r\n\r\n    /// @dev Returns the number of elements in a set.\r\n    /// @param self The set to check the length of.\r\n    /// @return The number of elements in the set.\r\n    function length(Set storage self) public view returns (uint) {\r\n        return self.members.length;\r\n    }\r\n}\r\n",
  "sourcePath": "C:\\Users\\Juan\\Documents\\JL\\ETHER\\HYDRO\\hst\\contracts\\_testing\\AddressSet\\AddressSet.sol",
  "compiler": {
    "name": "solc",
    "version": "0.5.4+commit.9549d8ff.Emscripten.clang"
  },
  "schemaVersion": "3.0.6",
  "updatedAt": "2019-04-18T18:42:03.966Z",
  "devdoc": {
    "details": "O(1) insertion, removal, contains, and length functions.",
    "methods": {
      "contains(AddressSet.Set storage,address)": {
        "return": "true if the element is in the set, false otherwise."
      },
      "insert(AddressSet.Set storage,address)": {
        "params": {
          "other": "The element to insert."
        }
      },
      "length(AddressSet.Set storage)": {
        "return": "The number of elements in the set."
      },
      "remove(AddressSet.Set storage,address)": {
        "params": {
          "other": "The element to remove."
        }
      }
    }
  },
  "userdoc": {
    "methods": {}
  }
}