{
  "contractName": "ClientRaindrop",
  "abi": [
    {
      "constant": true,
      "inputs": [],
      "name": "hydroStakeUser",
      "outputs": [
        {
          "name": "",
          "type": "uint256"
        }
      ],
      "payable": false,
      "stateMutability": "view",
      "type": "function"
    },
    {
      "constant": true,
      "inputs": [],
      "name": "hydroStakeDelegatedUser",
      "outputs": [
        {
          "name": "",
          "type": "uint256"
        }
      ],
      "payable": false,
      "stateMutability": "view",
      "type": "function"
    },
    {
      "constant": false,
      "inputs": [],
      "name": "renounceOwnership",
      "outputs": [],
      "payable": false,
      "stateMutability": "nonpayable",
      "type": "function"
    },
    {
      "constant": true,
      "inputs": [],
      "name": "callOnAddition",
      "outputs": [
        {
          "name": "",
          "type": "bool"
        }
      ],
      "payable": false,
      "stateMutability": "view",
      "type": "function"
    },
    {
      "constant": true,
      "inputs": [],
      "name": "snowflakeDescription",
      "outputs": [
        {
          "name": "",
          "type": "string"
        }
      ],
      "payable": false,
      "stateMutability": "view",
      "type": "function"
    },
    {
      "constant": true,
      "inputs": [],
      "name": "snowflakeName",
      "outputs": [
        {
          "name": "",
          "type": "string"
        }
      ],
      "payable": false,
      "stateMutability": "view",
      "type": "function"
    },
    {
      "constant": true,
      "inputs": [],
      "name": "owner",
      "outputs": [
        {
          "name": "",
          "type": "address"
        }
      ],
      "payable": false,
      "stateMutability": "view",
      "type": "function"
    },
    {
      "constant": true,
      "inputs": [],
      "name": "callOnRemoval",
      "outputs": [
        {
          "name": "",
          "type": "bool"
        }
      ],
      "payable": false,
      "stateMutability": "view",
      "type": "function"
    },
    {
      "constant": true,
      "inputs": [],
      "name": "isOwner",
      "outputs": [
        {
          "name": "",
          "type": "bool"
        }
      ],
      "payable": false,
      "stateMutability": "view",
      "type": "function"
    },
    {
      "constant": false,
      "inputs": [
        {
          "name": "newOwner",
          "type": "address"
        }
      ],
      "name": "transferOwnership",
      "outputs": [],
      "payable": false,
      "stateMutability": "nonpayable",
      "type": "function"
    },
    {
      "constant": true,
      "inputs": [],
      "name": "snowflakeAddress",
      "outputs": [
        {
          "name": "",
          "type": "address"
        }
      ],
      "payable": false,
      "stateMutability": "view",
      "type": "function"
    },
    {
      "inputs": [
        {
          "name": "snowflakeAddress",
          "type": "address"
        },
        {
          "name": "oldClientRaindropAddress",
          "type": "address"
        },
        {
          "name": "_hydroStakeUser",
          "type": "uint256"
        },
        {
          "name": "_hydroStakeDelegatedUser",
          "type": "uint256"
        }
      ],
      "payable": false,
      "stateMutability": "nonpayable",
      "type": "constructor"
    },
    {
      "anonymous": false,
      "inputs": [
        {
          "indexed": true,
          "name": "ein",
          "type": "uint256"
        },
        {
          "indexed": false,
          "name": "hydroID",
          "type": "string"
        },
        {
          "indexed": false,
          "name": "userAddress",
          "type": "address"
        }
      ],
      "name": "HydroIDClaimed",
      "type": "event"
    },
    {
      "anonymous": false,
      "inputs": [
        {
          "indexed": true,
          "name": "ein",
          "type": "uint256"
        },
        {
          "indexed": false,
          "name": "hydroID",
          "type": "string"
        },
        {
          "indexed": false,
          "name": "userAddress",
          "type": "address"
        }
      ],
      "name": "HydroIDDestroyed",
      "type": "event"
    },
    {
      "anonymous": false,
      "inputs": [
        {
          "indexed": true,
          "name": "previousOwner",
          "type": "address"
        },
        {
          "indexed": true,
          "name": "newOwner",
          "type": "address"
        }
      ],
      "name": "OwnershipTransferred",
      "type": "event"
    },
    {
      "constant": false,
      "inputs": [
        {
          "name": "snowflakeAddress",
          "type": "address"
        }
      ],
      "name": "setSnowflakeAddress",
      "outputs": [],
      "payable": false,
      "stateMutability": "nonpayable",
      "type": "function"
    },
    {
      "constant": false,
      "inputs": [
        {
          "name": "oldClientRaindropAddress",
          "type": "address"
        }
      ],
      "name": "setOldClientRaindropAddress",
      "outputs": [],
      "payable": false,
      "stateMutability": "nonpayable",
      "type": "function"
    },
    {
      "constant": false,
      "inputs": [
        {
          "name": "_hydroStakeUser",
          "type": "uint256"
        },
        {
          "name": "_hydroStakeDelegatedUser",
          "type": "uint256"
        }
      ],
      "name": "setStakes",
      "outputs": [],
      "payable": false,
      "stateMutability": "nonpayable",
      "type": "function"
    },
    {
      "constant": false,
      "inputs": [
        {
          "name": "_address",
          "type": "address"
        },
        {
          "name": "casedHydroId",
          "type": "string"
        }
      ],
      "name": "signUp",
      "outputs": [],
      "payable": false,
      "stateMutability": "nonpayable",
      "type": "function"
    },
    {
      "constant": false,
      "inputs": [
        {
          "name": "ein",
          "type": "uint256"
        },
        {
          "name": "",
          "type": "uint256"
        },
        {
          "name": "extraData",
          "type": "bytes"
        }
      ],
      "name": "onAddition",
      "outputs": [
        {
          "name": "",
          "type": "bool"
        }
      ],
      "payable": false,
      "stateMutability": "nonpayable",
      "type": "function"
    },
    {
      "constant": true,
      "inputs": [
        {
          "name": "casedHydroID",
          "type": "string"
        },
        {
          "name": "_address",
          "type": "address"
        }
      ],
      "name": "checkForOldHydroID",
      "outputs": [],
      "payable": false,
      "stateMutability": "view",
      "type": "function"
    },
    {
      "constant": false,
      "inputs": [
        {
          "name": "ein",
          "type": "uint256"
        },
        {
          "name": "",
          "type": "bytes"
        }
      ],
      "name": "onRemoval",
      "outputs": [
        {
          "name": "",
          "type": "bool"
        }
      ],
      "payable": false,
      "stateMutability": "nonpayable",
      "type": "function"
    },
    {
      "constant": true,
      "inputs": [
        {
          "name": "uncasedHydroID",
          "type": "string"
        }
      ],
      "name": "hydroIDAvailable",
      "outputs": [
        {
          "name": "available",
          "type": "bool"
        }
      ],
      "payable": false,
      "stateMutability": "view",
      "type": "function"
    },
    {
      "constant": true,
      "inputs": [
        {
          "name": "uncasedHydroID",
          "type": "string"
        }
      ],
      "name": "hydroIDDestroyed",
      "outputs": [
        {
          "name": "destroyed",
          "type": "bool"
        }
      ],
      "payable": false,
      "stateMutability": "view",
      "type": "function"
    },
    {
      "constant": true,
      "inputs": [
        {
          "name": "uncasedHydroID",
          "type": "string"
        }
      ],
      "name": "hydroIDActive",
      "outputs": [
        {
          "name": "active",
          "type": "bool"
        }
      ],
      "payable": false,
      "stateMutability": "view",
      "type": "function"
    },
    {
      "constant": true,
      "inputs": [
        {
          "name": "ein",
          "type": "uint256"
        }
      ],
      "name": "getDetails",
      "outputs": [
        {
          "name": "_address",
          "type": "address"
        },
        {
          "name": "casedHydroID",
          "type": "string"
        }
      ],
      "payable": false,
      "stateMutability": "view",
      "type": "function"
    },
    {
      "constant": true,
      "inputs": [
        {
          "name": "_address",
          "type": "address"
        }
      ],
      "name": "getDetails",
      "outputs": [
        {
          "name": "ein",
          "type": "uint256"
        },
        {
          "name": "casedHydroID",
          "type": "string"
        }
      ],
      "payable": false,
      "stateMutability": "view",
      "type": "function"
    },
    {
      "constant": true,
      "inputs": [
        {
          "name": "uncasedHydroID",
          "type": "string"
        }
      ],
      "name": "getDetails",
      "outputs": [
        {
          "name": "ein",
          "type": "uint256"
        },
        {
          "name": "_address",
          "type": "address"
        },
        {
          "name": "casedHydroID",
          "type": "string"
        }
      ],
      "payable": false,
      "stateMutability": "view",
      "type": "function"
    }
  ],
  "bytecode": "0x60806040523480156200001157600080fd5b5060405160808062002d1b833981018060405260808110156200003357600080fd5b50805160208083015160408085015160609095015181518083018352600f81527f436c69656e74205261696e64726f700000000000000000000000000000000000818601528251608081019093526044808452959693959394919390929162002cd79083013960008054600160a060020a031916331780825560405188926001928392600160a060020a039190911691907f8be0079c531659141344cd1fd0a4f28419497f9722a3daafe3b4186f6b6457e0908290a38451620000fe90600190602088019062000591565b5083516200011490600290602087019062000591565b506200012983640100000000620001ce810204565b6003805491151575010000000000000000000000000000000000000000000260a860020a60ff0219931515740100000000000000000000000000000000000000000260a060020a60ff02199093169290921792909216179055506200019b9150859050640100000000620001ce810204565b620001af8364010000000062000351810204565b620001c4828264010000000062000392810204565b5050505062000633565b620001e16401000000006200053e810204565b1515620001ed57600080fd5b6200020681640100000000620021d46200055082021704565b600081905080600160a060020a03166375d7e4bd6040518163ffffffff167c0100000000000000000000000000000000000000000000000000000000028152600401602060405180830381600087803b1580156200026357600080fd5b505af115801562000278573d6000803e3d6000fd5b505050506040513d60208110156200028f57600080fd5b505160048054600160a060020a031916600160a060020a03928316178155604080517fa759ee6f00000000000000000000000000000000000000000000000000000000815290519284169263a759ee6f928281019260209291908290030181600087803b1580156200030057600080fd5b505af115801562000315573d6000803e3d6000fd5b505050506040513d60208110156200032c57600080fd5b505160058054600160a060020a031916600160a060020a039092169190911790555050565b620003646401000000006200053e810204565b15156200037057600080fd5b60068054600160a060020a031916600160a060020a0392909216919091179055565b620003a56401000000006200053e810204565b1515620003b157600080fd5b692f0eadc32162377800008211156200042b57604080517f08c379a000000000000000000000000000000000000000000000000000000000815260206004820152601260248201527f5374616b6520697320746f6f20686967682e0000000000000000000000000000604482015290519081900360640190fd5b600781905560048054604080517f18160ddd0000000000000000000000000000000000000000000000000000000081529051606493600160a060020a03909316926318160ddd92808201926020929091829003018186803b1580156200049057600080fd5b505afa158015620004a5573d6000803e3d6000fd5b505050506040513d6020811015620004bc57600080fd5b5051811515620004c857fe5b048111156200053857604080517f08c379a000000000000000000000000000000000000000000000000000000000815260206004820152601260248201527f5374616b6520697320746f6f20686967682e0000000000000000000000000000604482015290519081900360640190fd5b60085550565b600054600160a060020a031633145b90565b620005636401000000006200053e810204565b15156200056f57600080fd5b60038054600160a060020a031916600160a060020a0392909216919091179055565b828054600181600116156101000203166002900490600052602060002090601f016020900481019282601f10620005d457805160ff191683800117855562000604565b8280016001018555821562000604579182015b8281111562000604578251825591602001919060010190620005e7565b506200061292915062000616565b5090565b6200054d91905b808211156200061257600081556001016200061d565b61269480620006436000396000f3fe608060405234801561001057600080fd5b506004361061015c5760003560e060020a9004806390bfaf40116100c7578063b93a89f711610080578063b93a89f71461087d578063bb3f9cdd146108ee578063c979b05a14610911578063e2a3b18b14610937578063f2fde38b146109dd578063f9f451b814610a035761015c565b806390bfaf401461046b5780639182621a1461051d578063996df2ad146105ca578063a76c74b21461067b578063aad9afbb14610721578063b531ff12146107c75761015c565b806376acf1b61161011957806376acf1b61461038c5780637c9348261461040957806388cdab941461042f5780638da5cb5b146104375780638f06492d1461045b5780638f32d59b146104635761015c565b80631328fd8f1461016157806330289c611461029f57806333a9711d1461034457806352b7493b1461035e578063715018a6146103665780637179025114610370575b600080fd5b6102076004803603602081101561017757600080fd5b81019060208101813564010000000081111561019257600080fd5b8201836020820111156101a457600080fd5b803590602001918460018302840111640100000000831117156101c657600080fd5b91908080601f016020809104026020016040519081016040528093929190818152602001838380828437600092019190915250929550610a0b945050505050565b6040518084815260200183600160a060020a0316600160a060020a0316815260200180602001828103825283818151815260200191508051906020019080838360005b8381101561026257818101518382015260200161024a565b50505050905090810190601f16801561028f5780820380516001836020036101000a031916815260200191505b5094505050505060405180910390f35b6102c5600480360360208110156102b557600080fd5b5035600160a060020a0316610b49565b6040518083815260200180602001828103825283818151815260200191508051906020019080838360005b838110156103085781810151838201526020016102f0565b50505050905090810190601f1680156103355780820380516001836020036101000a031916815260200191505b50935050505060405180910390f35b61034c610c12565b60408051918252519081900360200190f35b61034c610c18565b61036e610c1e565b005b610378610c7b565b604080519115158252519081900360200190f35b610394610c9c565b6040805160208082528351818301528351919283929083019185019080838360005b838110156103ce5781810151838201526020016103b6565b50505050905090810190601f1680156103fb5780820380516001836020036101000a031916815260200191505b509250505060405180910390f35b61036e6004803603602081101561041f57600080fd5b5035600160a060020a0316610d27565b610394610d5c565b61043f610db6565b60408051600160a060020a039092168252519081900360200190f35b610378610dc6565b610378610de8565b6103786004803603606081101561048157600080fd5b8135916020810135918101906060810160408201356401000000008111156104a857600080fd5b8201836020820111156104ba57600080fd5b803590602001918460018302840111640100000000831117156104dc57600080fd5b91908080601f016020809104026020016040519081016040528093929190818152602001838380828437600092019190915250929550610df9945050505050565b6103786004803603604081101561053357600080fd5b8135919081019060408101602082013564010000000081111561055557600080fd5b82018360208201111561056757600080fd5b8035906020019184600183028401116401000000008311171561058957600080fd5b91908080601f01602080910402602001604051908101604052809392919081815260200183838082843760009201919091525092955061108d945050505050565b61036e600480360360408110156105e057600080fd5b8101906020810181356401000000008111156105fb57600080fd5b82018360208201111561060d57600080fd5b8035906020019184600183028401116401000000008311171561062f57600080fd5b91908080601f01602080910402602001604051908101604052809392919081815260200183838082843760009201919091525092955050509035600160a060020a031691506112619050565b6103786004803603602081101561069157600080fd5b8101906020810181356401000000008111156106ac57600080fd5b8201836020820111156106be57600080fd5b803590602001918460018302840111640100000000831117156106e057600080fd5b91908080601f0160208091040260200160405190810160405280939291908181526020018383808284376000920191909152509295506114f8945050505050565b6103786004803603602081101561073757600080fd5b81019060208101813564010000000081111561075257600080fd5b82018360208201111561076457600080fd5b8035906020019184600183028401116401000000008311171561078657600080fd5b91908080601f016020809104026020016040519081016040528093929190818152602001838380828437600092019190915250929550611580945050505050565b61036e600480360360408110156107dd57600080fd5b600160a060020a03823516919081019060408101602082013564010000000081111561080857600080fd5b82018360208201111561081a57600080fd5b8035906020019184600183028401116401000000008311171561083c57600080fd5b91908080601f016020809104026020016040519081016040528093929190818152602001838380828437600092019190915250929550611600945050505050565b61089a6004803603602081101561089357600080fd5b503561176f565b6040518083600160a060020a0316600160a060020a031681526020018060200182810382528381815181526020019150805190602001908083836000838110156103085781810151838201526020016102f0565b61036e6004803603604081101561090457600080fd5b5080359060200135611802565b61036e6004803603602081101561092757600080fd5b5035600160a060020a031661196e565b6103786004803603602081101561094d57600080fd5b81019060208101813564010000000081111561096857600080fd5b82018360208201111561097a57600080fd5b8035906020019184600183028401116401000000008311171561099c57600080fd5b91908080601f016020809104026020016040519081016040528093929190818152602001838380828437600092019190915250929550611ab6945050505050565b61036e600480360360208110156109f357600080fd5b5035600160a060020a0316611b36565b61043f611b55565b60008060606000610a90610a1e86611b64565b6040516020018082805190602001908083835b60208310610a505780518252601f199092019160209182019101610a31565b6001836020036101000a03801982511681845116808217855250505050505090500191505060405160208183030381529060405280519060200120611be9565b80546001808301546002808501805460408051602061010097841615979097026000190190921693909304601f81018690048602820186019093528281529596509394600160a060020a039092169392839190830182828015610b345780601f10610b0957610100808354040283529160200191610b34565b820191906000526020600020905b815481529060010190602001808311610b1757829003601f168201915b50505050509050935093509350509193909250565b600160a060020a0381166000908152600b60205260408120546060908290610b7090611be9565b8054600280830180546040805160206001841615610100026000190190931694909404601f810183900483028501830190915280845294955092939092839190830182828015610c015780601f10610bd657610100808354040283529160200191610c01565b820191906000526020600020905b815481529060010190602001808311610be457829003601f168201915b505050505090509250925050915091565b60075481565b60085481565b610c26610de8565b1515610c3157600080fd5b60008054604051600160a060020a03909116907f8be0079c531659141344cd1fd0a4f28419497f9722a3daafe3b4186f6b6457e0908390a360008054600160a060020a0319169055565b60035474010000000000000000000000000000000000000000900460ff1681565b6002805460408051602060018416156101000260001901909316849004601f81018490048402820184019092528181529291830182828015610d1f5780601f10610cf457610100808354040283529160200191610d1f565b820191906000526020600020905b815481529060010190602001808311610d0257829003601f168201915b505050505081565b610d2f610de8565b1515610d3a57600080fd5b60068054600160a060020a031916600160a060020a0392909216919091179055565b60018054604080516020600284861615610100026000190190941693909304601f81018490048402820184019092528181529291830182828015610d1f5780601f10610cf457610100808354040283529160200191610d1f565b600054600160a060020a03165b90565b6003547501000000000000000000000000000000000000000000900460ff1681565b600054600160a060020a0316331490565b600354600090600160a060020a03163314610e485760405160e560020a62461bcd0281526004018080602001828103825260218152602001806125f26021913960400191505060405180910390fd5b60085460048054604080517f70a082310000000000000000000000000000000000000000000000000000000081523293810184905290519293928392600160a060020a0316916370a08231916024808301926020929190829003018186803b158015610eb357600080fd5b505afa158015610ec7573d6000803e3d6000fd5b505050506040513d6020811015610edd57600080fd5b50511015610f1f5760405160e560020a62461bcd0281526004018080602001828103825260228152602001806126136022913960400191505060405180910390fd5b60006060858060200190516040811015610f3857600080fd5b815160208301805191939283019291640100000000811115610f5957600080fd5b82016020810184811115610f6c57600080fd5b8151640100000000811182820187101715610f8657600080fd5b505092919050505091509150600560009054906101000a9004600160a060020a0316600160a060020a03166353a9698a89336040518363ffffffff1660e060020a0281526004018083815260200182600160a060020a0316600160a060020a031681526020019250505060206040518083038186803b15801561100857600080fd5b505afa15801561101c573d6000803e3d6000fd5b505050506040513d602081101561103257600080fd5b505115156110745760405160e560020a62461bcd02815260040180806020018281038252602f815260200180612511602f913960400191505060405180910390fd5b61107f888284611c5c565b506001979650505050505050565b600354600090600160a060020a031633146110dc5760405160e560020a62461bcd0281526004018080602001828103825260218152602001806125f26021913960400191505060405180910390fd5b6000838152600a60205260409020546110f481612198565b15156110fc57fe5b6000818152600960209081526040918290206001808201548451600160a060020a03909116938101849052848152600292830180546000199381161561010002939093019092169290920493820184905287937fdc4955845bee1c570feb327eb524548814e95acb6f1d1e6f60d55eead530339d9391929081906060820190859080156111ca5780601f1061119f576101008083540402835291602001916111ca565b820191906000526020600020905b8154815290600101906020018083116111ad57829003601f168201915b5050935050505060405180910390a260008181526009602081815260408084206001810154600160a060020a03168552600b8352818520859055888552600a835290842084905584845291905261122691600290910190612421565b600090815260096020526040902060018082018054600160a060020a03191690556003909101805461ff001916610100179055905092915050565b6006546040517fd35e656b000000000000000000000000000000000000000000000000000000008152602060048201818152855160248401528551600094600160a060020a03169363d35e656b938893928392604401918501908083838b5b838110156112d85781810151838201526020016112c0565b50505050905090810190601f1680156113055780820380516001836020036101000a031916815260200191505b509250505060206040518083038186803b15801561132257600080fd5b505afa158015611336573d6000803e3d6000fd5b505050506040513d602081101561134c57600080fd5b5051905080156114f3576006546040517f4bff5009000000000000000000000000000000000000000000000000000000008152602060048201818152865160248401528651600094600160a060020a031693634bff5009938993928392604401918501908083838b5b838110156113cd5781810151838201526020016113b5565b50505050905090810190601f1680156113fa5780820380516001836020036101000a031916815260200191505b509250505060006040518083038186803b15801561141757600080fd5b505afa15801561142b573d6000803e3d6000fd5b505050506040513d6000823e601f3d908101601f19168201604090815281101561145457600080fd5b81019080805164010000000081111561146c57600080fd5b8201602081018481111561147f57600080fd5b815164010000000081118282018710171561149957600080fd5b5050506020015192505050600160a060020a03838116908216146114f15760405160e560020a62461bcd0281526004018080602001828103825260348152602001806126356034913960400191505060405180910390fd5b505b505050565b600061157861150683611b64565b6040516020018082805190602001908083835b602083106115385780518252601f199092019160209182019101611519565b6001836020036101000a03801982511681845116808217855250505050505090500191505060405160208183030381529060405280519060200120612198565b90505b919050565b600061157861158e83611b64565b6040516020018082805190602001908083835b602083106115c05780518252601f1990920191602091820191016115a1565b6001836020036101000a038019825116818451168082178552505050505050905001915050604051602081830303815290604052805190602001206121bb565b60075460048054604080517f70a082310000000000000000000000000000000000000000000000000000000081523393810184905290519293928392600160a060020a0316916370a08231916024808301926020929190829003018186803b15801561166b57600080fd5b505afa15801561167f573d6000803e3d6000fd5b505050506040513d602081101561169557600080fd5b505110156116d75760405160e560020a62461bcd0281526004018080602001828103825260228152602001806126136022913960400191505060405180910390fd5b600554604080517f05c62c2f00000000000000000000000000000000000000000000000000000000815233600482015290516114f192600160a060020a0316916305c62c2f916024808301926020929190829003018186803b15801561173c57600080fd5b505afa158015611750573d6000803e3d6000fd5b505050506040513d602081101561176657600080fd5b50518486611c5c565b6000818152600a6020526040812054606090829061178c90611be9565b6001818101546002808401805460408051602061010097841615979097026000190190921693909304601f8101869004860282018601909352828152949550600160a060020a03909216939192839190830182828015610c015780601f10610bd657610100808354040283529160200191610c01565b61180a610de8565b151561181557600080fd5b692f0eadc3216237780000821115611877576040805160e560020a62461bcd02815260206004820152601260248201527f5374616b6520697320746f6f20686967682e0000000000000000000000000000604482015290519081900360640190fd5b600781905560048054604080517f18160ddd0000000000000000000000000000000000000000000000000000000081529051606493600160a060020a03909316926318160ddd92808201926020929091829003018186803b1580156118db57600080fd5b505afa1580156118ef573d6000803e3d6000fd5b505050506040513d602081101561190557600080fd5b505181151561191057fe5b04811115611968576040805160e560020a62461bcd02815260206004820152601260248201527f5374616b6520697320746f6f20686967682e0000000000000000000000000000604482015290519081900360640190fd5b60085550565b611976610de8565b151561198157600080fd5b61198a816121d4565b600081905080600160a060020a03166375d7e4bd6040518163ffffffff1660e060020a028152600401602060405180830381600087803b1580156119cd57600080fd5b505af11580156119e1573d6000803e3d6000fd5b505050506040513d60208110156119f757600080fd5b505160048054600160a060020a031916600160a060020a03928316178155604080517fa759ee6f00000000000000000000000000000000000000000000000000000000815290519284169263a759ee6f928281019260209291908290030181600087803b158015611a6757600080fd5b505af1158015611a7b573d6000803e3d6000fd5b505050506040513d6020811015611a9157600080fd5b505160058054600160a060020a031916600160a060020a039092169190911790555050565b6000611578611ac483611b64565b6040516020018082805190602001908083835b60208310611af65780518252601f199092019160209182019101611ad7565b6001836020036101000a03801982511681845116808217855250505050505090500191505060405160208183030381529060405280519060200120612209565b611b3e610de8565b1515611b4957600080fd5b611b5281612226565b50565b600354600160a060020a031681565b60608160005b8151811015611be257611b9c8282815181101515611b8457fe5b90602001015160f860020a900460f860020a02612296565b8282815181101515611baa57fe5b9060200101907effffffffffffffffffffffffffffffffffffffffffffffffffffffffffffff1916908160001a905350600101611b6a565b5092915050565b6000611bf482612198565b1515611c4a576040805160e560020a62461bcd02815260206004820152601660248201527f487964726f4944206973206e6f74206163746976652e00000000000000000000604482015290519081900360640190fd5b50600090815260096020526040902090565b60028251118015611c6e575060218251105b1515611cc4576040805160e560020a62461bcd02815260206004820152601b60248201527f487964726f49442068617320696e76616c6964206c656e6774682e0000000000604482015290519081900360640190fd5b600554604080517fd4b1cdcc000000000000000000000000000000000000000000000000000000008152600481018690523060248201529051600160a060020a039092169163d4b1cdcc91604480820192602092909190829003018186803b158015611d2f57600080fd5b505afa158015611d43573d6000803e3d6000fd5b505050506040513d6020811015611d5957600080fd5b50511515611d9b5760405160e560020a62461bcd0281526004018080602001828103825260298152602001806125c96029913960400191505060405180910390fd5b600554604080517fa687662d00000000000000000000000000000000000000000000000000000000815260048101869052600160a060020a0384811660248301529151919092169163a687662d916044808301926020929190829003018186803b158015611e0857600080fd5b505afa158015611e1c573d6000803e3d6000fd5b505050506040513d6020811015611e3257600080fd5b50511515611e745760405160e560020a62461bcd02815260040180806020018281038252603f815260200180612540603f913960400191505060405180910390fd5b611e7e8282611261565b6000611ea1611e9c611e97611e928661234d565b612372565b612398565b611b64565b6040516020018082805190602001908083835b60208310611ed35780518252601f199092019160209182019101611eb4565b6001836020036101000a038019825116818451168082178552505050505050905001915050604051602081830303815290604052805190602001209050611f19816121bb565b1515611f6f576040805160e560020a62461bcd02815260206004820152601760248201527f487964726f494420697320756e617661696c61626c652e000000000000000000604482015290519081900360640190fd5b6000848152600a602052604090205415611fbd5760405160e560020a62461bcd0281526004018080602001828103825260238152602001806125a66023913960400191505060405180910390fd5b600160a060020a0382166000908152600b6020526040902054156120155760405160e560020a62461bcd02815260040180806020018281038252602781526020018061257f6027913960400191505060405180910390fd5b6040805160a081018252858152600160a060020a03848116602080840191825283850188815260016060860181905260006080870181905288815260098452969096208551815592519583018054600160a060020a03191696909416959095179092559251805192939261208f9260028501920190612465565b506060828101516003909201805460809094015115156101000261ff001993151560ff1990951694909417929092169290921790556000858152600a60209081526040808320859055600160a060020a038616808452600b8352818420869055815180840191909152818152875191810191909152865188947f2036b1dad46d67484fb64d7b2041768b0c1d63e534f4b59a6fb46c1b08493df49489948994938493840192918701918190849084905b8381101561215757818101518382015260200161213f565b50505050905090810190601f1680156121845780820380516001836020036101000a031916815260200191505b50935050505060405180910390a250505050565b60006121a3826121bb565b15801561157857506121b482612209565b1592915050565b60009081526009602052604090206003015460ff161590565b6121dc610de8565b15156121e757600080fd5b60038054600160a060020a031916600160a060020a0392909216919091179055565b600090815260096020526040902060030154610100900460ff1690565b600160a060020a038116151561223b57600080fd5b60008054604051600160a060020a03808516939216917f8be0079c531659141344cd1fd0a4f28419497f9722a3daafe3b4186f6b6457e091a360008054600160a060020a031916600160a060020a0392909216919091179055565b60007f41000000000000000000000000000000000000000000000000000000000000007fff0000000000000000000000000000000000000000000000000000000000000083161080159061232c57507f5a000000000000000000000000000000000000000000000000000000000000007fff00000000000000000000000000000000000000000000000000000000000000831611155b15612349578160f860020a900460200160f860020a02905061157b565b5090565b6123556124df565b506040805180820190915281518152602082810190820152919050565b61237a6124df565b50604080518082019091528151815260208083015190820152919050565b60608082600001516040519080825280601f01601f1916602001820160405280156123ca576020820181803883390190505b5090506000602082019050611be281856020015186600001515b60208110612403578151835260209283019290910190601f19016123e4565b905182516020929092036101000a6000190180199091169116179052565b50805460018160011615610100020316600290046000825580601f106124475750611b52565b601f016020900490600052602060002090810190611b5291906124f6565b828054600181600116156101000203166002900490600052602060002090601f016020900481019282601f106124a657805160ff19168380011785556124d3565b828001600101855582156124d3579182015b828111156124d35782518255916020019190600101906124b8565b506123499291506124f6565b604080518082019091526000808252602082015290565b610dc391905b8082111561234957600081556001016124fc56fe536e6f77666c616b65206973206e6f7420612050726f766964657220666f7220746865207061737365642045494e2e546865207061737365642061646472657373206973206e6f74206173736f6369617465642077697468207468652063616c6c696e67204964656e746974792e4164647265737320697320616c7265616479206d617070656420746f206120487964726f49442e45494e20697320616c7265616479206d617070656420746f206120487964726f49442e546865207061737365642045494e20686173206e6f74207365742074686973207265736f6c7665722e446964206e6f74206f726967696e6174652066726f6d20536e6f77666c616b652e496e73756666696369656e74207374616b656420485944524f2062616c616e63652e5468697320487964726f20494420697320616c726561647920636c61696d656420627920616e6f7468657220616464726573732ea165627a7a72305820dac8737d0688289b45aa1a28d9640e76cd1a4a1d5891b0c80b5b5847f3ad07830029412072656769737472792074686174206c696e6b732045494e7320746f20487964726f49447320746f20706f77657220436c69656e74205261696e64726f70204d46412e",
  "source": "pragma solidity ^0.5.0;\r\n\r\nimport \"./StringUtils.sol\";\r\nimport \"./OldClientRaindropInterface.sol\";\r\nimport \"../../SnowflakeResolver.sol\";\r\nimport \"../../interfaces/IdentityRegistryInterface.sol\";\r\nimport \"../../interfaces/HydroInterface.sol\";\r\nimport \"../../interfaces/SnowflakeInterface.sol\";\r\n\r\ncontract ClientRaindrop is SnowflakeResolver {\r\n    // attach the StringUtils library\r\n    using StringUtils for string;\r\n    using StringUtils for StringUtils.slice;\r\n\r\n    // other SCs\r\n    HydroInterface private hydroToken;\r\n    IdentityRegistryInterface private identityRegistry;\r\n    OldClientRaindropInterface private oldClientRaindrop;\r\n\r\n    // staking requirements\r\n    uint public hydroStakeUser;\r\n    uint public hydroStakeDelegatedUser;\r\n\r\n    // User account template\r\n    struct User {\r\n        uint ein;\r\n        address _address;\r\n        string casedHydroID;\r\n        bool initialized;\r\n        bool destroyed;\r\n    }\r\n\r\n    // Mapping from uncased hydroID hashes to users\r\n    mapping (bytes32 => User) private userDirectory;\r\n    // Mapping from EIN to uncased hydroID hashes\r\n    mapping (uint => bytes32) private einDirectory;\r\n    // Mapping from address to uncased hydroID hashes\r\n    mapping (address => bytes32) private addressDirectory;\r\n\r\n    constructor(\r\n        address snowflakeAddress, address oldClientRaindropAddress, uint _hydroStakeUser, uint _hydroStakeDelegatedUser\r\n    )\r\n        SnowflakeResolver(\r\n            \"Client Raindrop\", \"A registry that links EINs to HydroIDs to power Client Raindrop MFA.\",\r\n            snowflakeAddress,\r\n            true, true\r\n        )\r\n        public\r\n    {\r\n        setSnowflakeAddress(snowflakeAddress);\r\n        setOldClientRaindropAddress(oldClientRaindropAddress);\r\n        setStakes(_hydroStakeUser, _hydroStakeDelegatedUser);\r\n    }\r\n\r\n    // Requires an address to have a minimum number of Hydro\r\n    modifier requireStake(address _address, uint stake) {\r\n        require(hydroToken.balanceOf(_address) >= stake, \"Insufficient staked HYDRO balance.\");\r\n        _;\r\n    }\r\n\r\n    // set the snowflake address, and hydro token + identity registry contract wrappers\r\n    function setSnowflakeAddress(address snowflakeAddress) public onlyOwner() {\r\n        super.setSnowflakeAddress(snowflakeAddress);\r\n\r\n        SnowflakeInterface snowflake = SnowflakeInterface(snowflakeAddress);\r\n        hydroToken = HydroInterface(snowflake.hydroTokenAddress());\r\n        identityRegistry = IdentityRegistryInterface(snowflake.identityRegistryAddress());\r\n    }\r\n\r\n    // set the old client raindrop address\r\n    function setOldClientRaindropAddress(address oldClientRaindropAddress) public onlyOwner() {\r\n        oldClientRaindrop = OldClientRaindropInterface(oldClientRaindropAddress);\r\n    }\r\n\r\n    // set minimum hydro balances required for sign ups\r\n    function setStakes(uint _hydroStakeUser, uint _hydroStakeDelegatedUser) public onlyOwner() {\r\n        // <= the airdrop amount\r\n        require(_hydroStakeUser <= 222222 * 10**18, \"Stake is too high.\");\r\n        hydroStakeUser = _hydroStakeDelegatedUser;\r\n\r\n        // <= 1% of total supply\r\n        require(_hydroStakeDelegatedUser <= hydroToken.totalSupply() / 100, \"Stake is too high.\");\r\n        hydroStakeDelegatedUser = _hydroStakeDelegatedUser;\r\n    }\r\n\r\n    // function for users calling signup for themselves\r\n    function signUp(address _address, string memory casedHydroId) public requireStake(msg.sender, hydroStakeUser) {\r\n        _signUp(identityRegistry.getEIN(msg.sender), casedHydroId, _address);\r\n    }\r\n\r\n    // function for users signing up through the snowflake provider\r\n    function onAddition(uint ein, uint, bytes memory extraData)\r\n        // solium-disable-next-line security/no-tx-origin\r\n        public senderIsSnowflake() requireStake(tx.origin, hydroStakeDelegatedUser) returns (bool)\r\n    {\r\n        (address _address, string memory casedHydroID) = abi.decode(extraData, (address, string));\r\n        require(identityRegistry.isProviderFor(ein, msg.sender), \"Snowflake is not a Provider for the passed EIN.\");\r\n        _signUp(ein, casedHydroID, _address);\r\n     \r\n        return true;\r\n    }\r\n\r\n    // Common internal logic for all user signups\r\n    function _signUp(uint ein, string memory casedHydroID, address _address) internal {\r\n        require(bytes(casedHydroID).length > 2 && bytes(casedHydroID).length < 33, \"HydroID has invalid length.\");\r\n        require(identityRegistry.isResolverFor(ein, address(this)), \"The passed EIN has not set this resolver.\");\r\n        require(\r\n            identityRegistry.isAssociatedAddressFor(ein, _address),\r\n            \"The passed address is not associated with the calling Identity.\"\r\n        );\r\n        checkForOldHydroID(casedHydroID, _address);\r\n\r\n        bytes32 uncasedHydroIDHash = keccak256(abi.encodePacked(casedHydroID.toSlice().copy().toString().lower()));\r\n        // check conditions specific to this resolver\r\n        require(hydroIDAvailable(uncasedHydroIDHash), \"HydroID is unavailable.\");\r\n        require(einDirectory[ein] == bytes32(0), \"EIN is already mapped to a HydroID.\");\r\n        require(addressDirectory[_address] == bytes32(0), \"Address is already mapped to a HydroID.\");\r\n\r\n        // update mappings\r\n        userDirectory[uncasedHydroIDHash] = User(ein, _address, casedHydroID, true, false);\r\n        einDirectory[ein] = uncasedHydroIDHash;\r\n        addressDirectory[_address] = uncasedHydroIDHash;\r\n\r\n        emit HydroIDClaimed(ein, casedHydroID, _address);\r\n    }\r\n\r\n    function checkForOldHydroID(string memory casedHydroID, address _address) public view {\r\n        bool usernameTaken = oldClientRaindrop.userNameTaken(casedHydroID);\r\n        if (usernameTaken) {\r\n            (, address takenAddress) = oldClientRaindrop.getUserByName(casedHydroID);\r\n            require(_address == takenAddress, \"This Hydro ID is already claimed by another address.\");\r\n        }\r\n    }\r\n\r\n    function onRemoval(uint ein, bytes memory) public senderIsSnowflake() returns (bool) {\r\n        bytes32 uncasedHydroIDHash = einDirectory[ein];\r\n        assert(uncasedHydroIDHashActive(uncasedHydroIDHash));\r\n\r\n        emit HydroIDDestroyed(\r\n            ein, userDirectory[uncasedHydroIDHash].casedHydroID, userDirectory[uncasedHydroIDHash]._address\r\n        );\r\n\r\n        delete addressDirectory[userDirectory[uncasedHydroIDHash]._address];\r\n        delete einDirectory[ein];\r\n        delete userDirectory[uncasedHydroIDHash].casedHydroID;\r\n        delete userDirectory[uncasedHydroIDHash]._address;\r\n        userDirectory[uncasedHydroIDHash].destroyed = true;\r\n\r\n        return true;\r\n    }\r\n\r\n\r\n    // returns whether a given hydroID is available\r\n    function hydroIDAvailable(string memory uncasedHydroID) public view returns (bool available) {\r\n        return hydroIDAvailable(keccak256(abi.encodePacked(uncasedHydroID.lower())));\r\n    }\r\n\r\n    // Returns a bool indicating whether a given uncasedHydroIDHash is available\r\n    function hydroIDAvailable(bytes32 uncasedHydroIDHash) private view returns (bool) {\r\n        return !userDirectory[uncasedHydroIDHash].initialized;\r\n    }\r\n\r\n    // returns whether a given hydroID is destroyed\r\n    function hydroIDDestroyed(string memory uncasedHydroID) public view returns (bool destroyed) {\r\n        return hydroIDDestroyed(keccak256(abi.encodePacked(uncasedHydroID.lower())));\r\n    }\r\n\r\n    // Returns a bool indicating whether a given hydroID is destroyed\r\n    function hydroIDDestroyed(bytes32 uncasedHydroIDHash) private view returns (bool) {\r\n        return userDirectory[uncasedHydroIDHash].destroyed;\r\n    }\r\n\r\n    // returns whether a given hydroID is active\r\n    function hydroIDActive(string memory uncasedHydroID) public view returns (bool active) {\r\n        return uncasedHydroIDHashActive(keccak256(abi.encodePacked(uncasedHydroID.lower())));\r\n    }\r\n\r\n    // Returns a bool indicating whether a given hydroID is active\r\n    function uncasedHydroIDHashActive(bytes32 uncasedHydroIDHash) private view returns (bool) {\r\n        return !hydroIDAvailable(uncasedHydroIDHash) && !hydroIDDestroyed(uncasedHydroIDHash);\r\n    }\r\n\r\n\r\n    // Returns details by uncased hydroID\r\n    function getDetails(string memory uncasedHydroID) public view\r\n        returns (uint ein, address _address, string memory casedHydroID)\r\n    {\r\n        User storage user = getDetails(keccak256(abi.encodePacked(uncasedHydroID.lower())));\r\n        return (user.ein, user._address, user.casedHydroID);\r\n    }\r\n\r\n    // Returns details by EIN\r\n    function getDetails(uint ein) public view returns (address _address, string memory casedHydroID) {\r\n        User storage user = getDetails(einDirectory[ein]);\r\n        return (user._address, user.casedHydroID);\r\n    }\r\n\r\n    // Returns details by address\r\n    function getDetails(address _address) public view returns (uint ein, string memory casedHydroID) {\r\n        User storage user = getDetails(addressDirectory[_address]);\r\n        return (user.ein, user.casedHydroID);\r\n    }\r\n\r\n    // common logic for all getDetails\r\n    function getDetails(bytes32 uncasedHydroIDHash) private view returns (User storage) {\r\n        require(uncasedHydroIDHashActive(uncasedHydroIDHash), \"HydroID is not active.\");\r\n        return userDirectory[uncasedHydroIDHash];\r\n    }\r\n\r\n    // Events for when a user signs up for Raindrop Client and when their account is deleted\r\n    event HydroIDClaimed(uint indexed ein, string hydroID, address userAddress);\r\n    event HydroIDDestroyed(uint indexed ein, string hydroID, address userAddress);\r\n}\r\n",
  "sourcePath": "C:/Users/Juan/Documents/JL/ETHER/HYDRO/hst/contracts/resolvers/ClientRaindrop/ClientRaindrop.sol",
  "compiler": {
    "name": "solc",
    "version": "0.5.4+commit.9549d8ff.Emscripten.clang"
  },
  "schemaVersion": "3.0.6",
  "updatedAt": "2019-04-18T14:32:52.850Z",
  "devdoc": {
    "methods": {
      "isOwner()": {
        "return": "true if `msg.sender` is the owner of the contract.\r"
      },
      "owner()": {
        "return": "the address of the owner.\r"
      },
      "renounceOwnership()": {
        "details": "Allows the current owner to relinquish control of the contract.\r"
      },
      "transferOwnership(address)": {
        "details": "Allows the current owner to transfer control of the contract to a newOwner.\r",
        "params": {
          "newOwner": "The address to transfer ownership to.\r"
        }
      }
    }
  },
  "userdoc": {
    "methods": {
      "renounceOwnership()": {
        "notice": "Renouncing to ownership will leave the contract without an owner.\r It will not be possible to call the functions with the `onlyOwner`\r modifier anymore.\r"
      }
    }
  }
}