{
  "contractName": "HSTEscrow",
  "abi": [
    {
      "constant": true,
      "inputs": [],
      "name": "hydroTokenAddress",
      "outputs": [
        {
          "name": "",
          "type": "address"
        }
      ],
      "payable": false,
      "stateMutability": "view",
      "type": "function"
    },
    {
      "constant": true,
      "inputs": [],
      "name": "hydroCapitalReceiverAddress",
      "outputs": [
        {
          "name": "",
          "type": "address"
        }
      ],
      "payable": false,
      "stateMutability": "view",
      "type": "function"
    },
    {
      "constant": true,
      "inputs": [],
      "name": "issuingEndingTimestamp",
      "outputs": [
        {
          "name": "",
          "type": "uint256"
        }
      ],
      "payable": false,
      "stateMutability": "view",
      "type": "function"
    },
    {
      "constant": true,
      "inputs": [],
      "name": "hydroToken",
      "outputs": [
        {
          "name": "",
          "type": "address"
        }
      ],
      "payable": false,
      "stateMutability": "view",
      "type": "function"
    },
    {
      "constant": true,
      "inputs": [],
      "name": "hydroSecurityTokenAddress",
      "outputs": [
        {
          "name": "",
          "type": "address"
        }
      ],
      "payable": false,
      "stateMutability": "view",
      "type": "function"
    },
    {
      "constant": true,
      "inputs": [],
      "name": "totalHydroCapitalization",
      "outputs": [
        {
          "name": "",
          "type": "uint256"
        }
      ],
      "payable": false,
      "stateMutability": "view",
      "type": "function"
    },
    {
      "inputs": [
        {
          "name": "_issuingEndingTimestamp",
          "type": "uint256"
        },
        {
          "name": "_hydroSecurityTokenAddress",
          "type": "address"
        },
        {
          "name": "_totalHydroCapitalization",
          "type": "uint256"
        },
        {
          "name": "_hydroCapitalReceiver",
          "type": "address"
        }
      ],
      "payable": false,
      "stateMutability": "nonpayable",
      "type": "constructor"
    },
    {
      "constant": false,
      "inputs": [],
      "name": "releaseCollectedCapital",
      "outputs": [
        {
          "name": "",
          "type": "uint8"
        }
      ],
      "payable": false,
      "stateMutability": "nonpayable",
      "type": "function"
    }
  ],
  "bytecode": "0x608060405234801561001057600080fd5b5060405160808061068b8339810180604052608081101561003057600080fd5b508051602082015160408301516060909301519192909142841161009f576040517f08c379a00000000000000000000000000000000000000000000000000000000081526004018080602001828103825260248152602001806106366024913960400191505060405180910390fd5b600160a060020a038316151561011657604080517f08c379a000000000000000000000000000000000000000000000000000000000815260206004820152601e60248201527f596f75206d757374207365742074686520746f6b656e20616464726573730000604482015290519081900360640190fd5b6000821161016f576040517f08c379a000000000000000000000000000000000000000000000000000000000815260040180806020018281038252603181526020018061065a6031913960400191505060405180910390fd5b600160a060020a03811615156101e657604080517f08c379a000000000000000000000000000000000000000000000000000000000815260206004820152601f60248201527f596f75206d757374207365742061206361706974616c20726563656976657200604482015290519081900360640190fd5b60009384556001805433600160a060020a03199182161790915560048054909116600160a060020a039092169190911790555061040c9182915061022a90396000f3fe608060405234801561001057600080fd5b506004361061009a576000357c010000000000000000000000000000000000000000000000000000000090048063c58a4d7011610078578063c58a4d70146100e5578063cb8b8ab1146100ed578063daa37d1c146100f5578063f80ed3e2146101135761009a565b806375d7e4bd1461009f578063840cec81146100c3578063b5a5da38146100cb575b600080fd5b6100a761011b565b60408051600160a060020a039092168252519081900360200190f35b6100a761012a565b6100d3610139565b60408051918252519081900360200190f35b6100a761013f565b6100a761014e565b6100fd61015d565b6040805160ff9092168252519081900360200190f35b6100d3610359565b600254600160a060020a031681565b600454600160a060020a031681565b60005481565b600554600160a060020a031681565b600154600160a060020a031681565b600154600090600160a060020a031633146101c3576040517f08c379a00000000000000000000000000000000000000000000000000000000081526004018080602001828103825260458152602001806103606045913960600191505060405180910390fd5b60005442101561021e576040517f08c379a000000000000000000000000000000000000000000000000000000000815260040180806020018281038252603c8152602001806103a5603c913960400191505060405180910390fd5b600554604080517f70a082310000000000000000000000000000000000000000000000000000000081523060048201529051600092600160a060020a0316916370a08231916024808301926020929190829003018186803b15801561028257600080fd5b505afa158015610296573d6000803e3d6000fd5b505050506040513d60208110156102ac57600080fd5b505160055460048054604080517fa9059cbb000000000000000000000000000000000000000000000000000000008152600160a060020a039283169381019390935260248301859052519394509091169163a9059cbb916044808201926020929091908290030181600087803b15801561032557600080fd5b505af1158015610339573d6000803e3d6000fd5b505050506040513d602081101561034f57600080fd5b5060009250505090565b6003548156fe546869732066756e6374696f6e2063616e206f6e6c7920626520657865637574656420627920746865206f726967696e616c20487964726f5365637572697479546f6b656e596f752063616e206f6e6c792072656c656173652066756e64732061667465722074686520746f6b656e2069737375696e672068617320656e646564a165627a7a72305820562c3cbb390c1000ea6aa1a064bb0579793931ab4320973681cfb238df8ebeea002954686520746f6b656e2069737375696e67206d75737420656e64206166746572206e6f7754686520746f74616c206361706974616c697a6174696f6e206d757374206265206c6172676572207468616e207a65726f",
  "source": "pragma solidity ^0.5.0;\r\n\r\nimport '../interfaces/HydroInterface.sol';\r\n//import '../HydroSecuritiesToken.sol';\r\n\r\n/**\r\n * @title HydroEscrow\r\n * @notice Stores HYDRO inside as an escrow for HST issuing. This contracts stores any funds sent by the token creator and the funds that users pay to participate in the issuing. It distributes any refunds, and the corresponding dividends and interests to their receivers.\r\n * @author Fatima Castiglione Maldonado <castiglionemaldonado@gmail.com>\r\n */\r\ncontract HSTEscrow {\r\n    uint256 public issuingEndingTimestamp;\r\n    address public hydroSecurityTokenAddress;\r\n    address public hydroTokenAddress;\r\n    uint256 public totalHydroCapitalization;\r\n    address payable public hydroCapitalReceiverAddress;\r\n    HydroInterface public hydroToken;\r\n    // HydroSecuritiesToken public hydroSecuritiesToken;\r\n\r\n\r\n    modifier onlyHydroSecurityToken() {\r\n        require(msg.sender == hydroSecurityTokenAddress, 'This function can only be executed by the original HydroSecurityToken');\r\n        _;\r\n    }\r\n\r\n    /**\r\n    * @notice Constructor\r\n    * @dev    For the escrow to work properly, you need to set this variables.\r\n    * @param  _issuingEndingTimestamp Time+Date when token issuing must stop\r\n    * @param  _hydroSecurityTokenAddress The address of the token being issued\r\n    * @param  _totalHydroCapitalization Total capitalization accepted, measured in Hydro\r\n    * @param  _hydroCapitalReceiver The address of the capital receiver account\r\n    */\r\n    constructor(uint256 _issuingEndingTimestamp, address _hydroSecurityTokenAddress, uint256 _totalHydroCapitalization, address payable _hydroCapitalReceiver) public {\r\n        require(_issuingEndingTimestamp > now, 'The token issuing must end after now');\r\n        require(_hydroSecurityTokenAddress != address(0), 'You must set the token address');\r\n        require(_totalHydroCapitalization > 0, 'The total capitalization must be larger than zero');\r\n        require(_hydroCapitalReceiver != address(0), 'You must set a capital receiver');\r\n        issuingEndingTimestamp = _issuingEndingTimestamp;\r\n        hydroSecurityTokenAddress = msg.sender;\r\n        // hydroSecuritiesToken = HydroSecuritiesToken(_hydroSecurityTokenAddress);\r\n        hydroCapitalReceiverAddress = _hydroCapitalReceiver;\r\n    }\r\n\r\n    /**\r\n    * @notice Send the collected capital to the capital receiver\r\n    * @return uint8 The reason code: 0 means success.\r\n    */\r\n    function releaseCollectedCapital() public onlyHydroSecurityToken returns(uint8) {\r\n        require(now >= issuingEndingTimestamp, 'You can only release funds after the token issuing has ended');\r\n        uint256 hydroInsideThisContract = hydroToken.balanceOf(address(this));\r\n        hydroToken.transfer(hydroCapitalReceiverAddress, hydroInsideThisContract);\r\n        return(0);\r\n    }\r\n}\r\n",
  "sourcePath": "C:/Users/Juan/Documents/JL/ETHER/HYDRO/hst/contracts/components/HSTEscrow.sol",
  "compiler": {
    "name": "solc",
    "version": "0.5.4+commit.9549d8ff.Emscripten.clang"
  },
  "schemaVersion": "3.0.6",
  "updatedAt": "2019-04-18T14:32:09.971Z",
  "devdoc": {
    "author": "Fatima Castiglione Maldonado <castiglionemaldonado@gmail.com>\r",
    "methods": {
      "constructor": {
        "details": "For the escrow to work properly, you need to set this variables.\r",
        "params": {
          "_hydroCapitalReceiver": "The address of the capital receiver account\r",
          "_hydroSecurityTokenAddress": "The address of the token being issued\r",
          "_issuingEndingTimestamp": "Time+Date when token issuing must stop\r",
          "_totalHydroCapitalization": "Total capitalization accepted, measured in Hydro\r"
        }
      },
      "releaseCollectedCapital()": {
        "return": "uint8 The reason code: 0 means success.\r"
      }
    },
    "title": "HydroEscrow\r"
  },
  "userdoc": {
    "methods": {
      "constructor": "Constructor\r",
      "releaseCollectedCapital()": {
        "notice": "Send the collected capital to the capital receiver\r"
      }
    },
    "notice": "Stores HYDRO inside as an escrow for HST issuing. This contracts stores any funds sent by the token creator and the funds that users pay to participate in the issuing. It distributes any refunds, and the corresponding dividends and interests to their receivers.\r"
  }
}