{
  "contractName": "HSTInterestPayer",
  "abi": [
    {
      "constant": true,
      "inputs": [],
      "name": "version",
      "outputs": [
        {
          "name": "",
          "type": "string"
        }
      ],
      "payable": false,
      "stateMutability": "view",
      "type": "function"
    },
    {
      "constant": true,
      "inputs": [],
      "name": "initialDate",
      "outputs": [
        {
          "name": "",
          "type": "uint256"
        }
      ],
      "payable": false,
      "stateMutability": "view",
      "type": "function"
    },
    {
      "constant": true,
      "inputs": [],
      "name": "tokenSpender",
      "outputs": [
        {
          "name": "",
          "type": "address"
        }
      ],
      "payable": false,
      "stateMutability": "view",
      "type": "function"
    },
    {
      "constant": true,
      "inputs": [],
      "name": "rootAddress",
      "outputs": [
        {
          "name": "",
          "type": "address"
        }
      ],
      "payable": false,
      "stateMutability": "view",
      "type": "function"
    },
    {
      "constant": true,
      "inputs": [
        {
          "name": "",
          "type": "uint256"
        }
      ],
      "name": "yearlyInterest",
      "outputs": [
        {
          "name": "",
          "type": "uint256"
        }
      ],
      "payable": false,
      "stateMutability": "view",
      "type": "function"
    },
    {
      "constant": true,
      "inputs": [],
      "name": "Owner",
      "outputs": [
        {
          "name": "",
          "type": "address"
        }
      ],
      "payable": false,
      "stateMutability": "view",
      "type": "function"
    },
    {
      "constant": true,
      "inputs": [],
      "name": "locked",
      "outputs": [
        {
          "name": "",
          "type": "bool"
        }
      ],
      "payable": false,
      "stateMutability": "view",
      "type": "function"
    },
    {
      "constant": true,
      "inputs": [
        {
          "name": "",
          "type": "address"
        }
      ],
      "name": "lastFortnightPayed",
      "outputs": [
        {
          "name": "",
          "type": "uint256"
        }
      ],
      "payable": false,
      "stateMutability": "view",
      "type": "function"
    },
    {
      "constant": true,
      "inputs": [],
      "name": "tokenAdd",
      "outputs": [
        {
          "name": "",
          "type": "address"
        }
      ],
      "payable": false,
      "stateMutability": "view",
      "type": "function"
    },
    {
      "constant": true,
      "inputs": [],
      "name": "token",
      "outputs": [
        {
          "name": "",
          "type": "address"
        }
      ],
      "payable": false,
      "stateMutability": "view",
      "type": "function"
    },
    {
      "inputs": [],
      "payable": false,
      "stateMutability": "nonpayable",
      "type": "constructor"
    },
    {
      "anonymous": false,
      "inputs": [
        {
          "indexed": false,
          "name": "batchAmount",
          "type": "uint256"
        },
        {
          "indexed": false,
          "name": "batchAge",
          "type": "uint256"
        },
        {
          "indexed": false,
          "name": "totalAmount",
          "type": "uint256"
        }
      ],
      "name": "Batch",
      "type": "event"
    },
    {
      "anonymous": false,
      "inputs": [
        {
          "indexed": false,
          "name": "message",
          "type": "string"
        }
      ],
      "name": "Message",
      "type": "event"
    },
    {
      "constant": false,
      "inputs": [],
      "name": "payInterests",
      "outputs": [],
      "payable": false,
      "stateMutability": "nonpayable",
      "type": "function"
    },
    {
      "constant": true,
      "inputs": [
        {
          "name": "_address",
          "type": "address"
        },
        {
          "name": "_index",
          "type": "uint256"
        }
      ],
      "name": "getBatch",
      "outputs": [
        {
          "name": "_quant",
          "type": "uint256"
        },
        {
          "name": "_age",
          "type": "uint256"
        }
      ],
      "payable": false,
      "stateMutability": "view",
      "type": "function"
    },
    {
      "constant": true,
      "inputs": [
        {
          "name": "_address",
          "type": "address"
        }
      ],
      "name": "getFirstBatch",
      "outputs": [
        {
          "name": "_quant",
          "type": "uint256"
        },
        {
          "name": "_age",
          "type": "uint256"
        }
      ],
      "payable": false,
      "stateMutability": "view",
      "type": "function"
    },
    {
      "constant": true,
      "inputs": [],
      "name": "fortnightsFromLast",
      "outputs": [
        {
          "name": "_fortnights",
          "type": "uint256"
        }
      ],
      "payable": false,
      "stateMutability": "view",
      "type": "function"
    },
    {
      "constant": false,
      "inputs": [],
      "name": "lock",
      "outputs": [],
      "payable": false,
      "stateMutability": "nonpayable",
      "type": "function"
    },
    {
      "constant": false,
      "inputs": [],
      "name": "unLock",
      "outputs": [],
      "payable": false,
      "stateMutability": "nonpayable",
      "type": "function"
    },
    {
      "constant": false,
      "inputs": [
        {
          "name": "_owner",
          "type": "address"
        }
      ],
      "name": "changeOwner",
      "outputs": [],
      "payable": false,
      "stateMutability": "nonpayable",
      "type": "function"
    },
    {
      "constant": false,
      "inputs": [
        {
          "name": "_root",
          "type": "address"
        }
      ],
      "name": "changeRoot",
      "outputs": [],
      "payable": false,
      "stateMutability": "nonpayable",
      "type": "function"
    },
    {
      "constant": false,
      "inputs": [
        {
          "name": "_token",
          "type": "address"
        },
        {
          "name": "_to",
          "type": "address"
        },
        {
          "name": "_value",
          "type": "uint256"
        }
      ],
      "name": "sendToken",
      "outputs": [
        {
          "name": "",
          "type": "bool"
        }
      ],
      "payable": false,
      "stateMutability": "nonpayable",
      "type": "function"
    }
  ],
  "bytecode": "0x60c0604052600460808190527f76312e300000000000000000000000000000000000000000000000000000000060a090815261003e9160009190610118565b50600f60055534801561005057600080fd5b5060028054600160a060020a031990811633908117909255600980548216909217909155600380548216739da0d98c9d051c594038eb3267fbd0faf3da9e481790556004805490911673ad50caca8cd726600840e745d0ae6b6e78861dbc179055426007556008805460018181018355600083905260467ff3f7a9fe364faab93b216da50a3214154f22a0a2b415b23a84c8169e8b636ee39283015582548082018455603290830155825480820184556014908301558254908101909255600a9101556101b3565b828054600181600116156101000203166002900490600052602060002090601f016020900481019282601f1061015957805160ff1916838001178555610186565b82800160010185558215610186579182015b8281111561018657825182559160200191906001019061016b565b50610192929150610196565b5090565b6101b091905b80821115610192576000815560010161019c565b90565b610f14806101c26000396000f3fe608060405234801561001057600080fd5b506004361061013e576000357c010000000000000000000000000000000000000000000000000000000090048063aaa2b8c8116100ca578063dccbb14b1161008e578063dccbb14b14610364578063e29f99f01461036c578063ed10e33c14610374578063f83d08ba1461037c578063fc0c546a146103845761013e565b8063aaa2b8c814610309578063ae06d6bf14610311578063b4a99a4e1461032e578063cf30901214610336578063daa95d6d1461033e5761013e565b806360c75d681161011157806360c75d681461024c578063945ade9214610291578063a226150814610299578063a6f9dae1146102bd578063a903fb65146102e35761013e565b80631262d6be146101435780632fdcfbd21461015d5780634a7902d2146101a757806354fd4d50146101cf575b600080fd5b61014b61038c565b60408051918252519081900360200190f35b6101936004803603606081101561017357600080fd5b50600160a060020a03813581169160208101359091169060400135610400565b604080519115158252519081900360200190f35b6101cd600480360360208110156101bd57600080fd5b5035600160a060020a03166104fd565b005b6101d7610578565b6040805160208082528351818301528351919283929083019185019080838360005b838110156102115781810151838201526020016101f9565b50505050905090810190601f16801561023e5780820380516001836020036101000a031916815260200191505b509250505060405180910390f35b6102786004803603604081101561026257600080fd5b50600160a060020a038135169060200135610606565b6040805192835260208301919091528051918290030190f35b61014b6106b1565b6102a16106b7565b60408051600160a060020a039092168252519081900360200190f35b6101cd600480360360208110156102d357600080fd5b5035600160a060020a03166106c6565b610278600480360360208110156102f957600080fd5b5035600160a060020a0316610741565b6102a16107e4565b61014b6004803603602081101561032757600080fd5b50356107f3565b6102a1610812565b610193610821565b61014b6004803603602081101561035457600080fd5b5035600160a060020a0316610842565b6101cd610854565b6102a16109f1565b6101cd610a00565b6101cd610a6c565b6102a1610aef565b60006005546103a56103a042600754610afe565b610b13565b8115156103ae57fe5b0490506103fb816005546103ec6103a06006600033600160a060020a0316600160a060020a0316815260200190815260200160002054600754610afe565b8115156103f557fe5b04610afe565b905090565b600254600090600160a060020a0316331461044f5760405160e560020a62461bcd028152600401808060200182810382526027815260200180610ec26027913960400191505060405180910390fd5b604080517fa9059cbb000000000000000000000000000000000000000000000000000000008152600160a060020a038581166004830152602482018590529151869283169163a9059cbb9160448083019260209291908290030181600087803b1580156104bb57600080fd5b505af11580156104cf573d6000803e3d6000fd5b505050506040513d60208110156104e557600080fd5b505115156104f257600080fd5b506001949350505050565b600254600160a060020a031633146105495760405160e560020a62461bcd028152600401808060200182810382526027815260200180610ec26027913960400191505060405180910390fd5b6001805473ffffffffffffffffffffffffffffffffffffffff1916600160a060020a0392909216919091179055565b6000805460408051602060026001851615610100026000190190941693909304601f810184900484028201840190925281815292918301828280156105fe5780601f106105d3576101008083540402835291602001916105fe565b820191906000526020600020905b8154815290600101906020018083116105e157829003601f168201915b505050505081565b600954604080517f60c75d68000000000000000000000000000000000000000000000000000000008152600160a060020a03858116600483015260248201859052825160009485949216926360c75d68926044808301939192829003018186803b15801561067357600080fd5b505afa158015610687573d6000803e3d6000fd5b505050506040513d604081101561069d57600080fd5b508051602090910151909590945092505050565b60075481565b600454600160a060020a031681565b600254600160a060020a031633146107125760405160e560020a62461bcd028152600401808060200182810382526027815260200180610ec26027913960400191505060405180910390fd5b6002805473ffffffffffffffffffffffffffffffffffffffff1916600160a060020a0392909216919091179055565b600954604080517fa903fb65000000000000000000000000000000000000000000000000000000008152600160a060020a0384811660048301528251600094859492169263a903fb65926024808301939192829003018186803b1580156107a757600080fd5b505afa1580156107bb573d6000803e3d6000fd5b505050506040513d60408110156107d157600080fd5b5080516020909101519092509050915091565b600154600160a060020a031681565b600880548290811061080157fe5b600091825260209091200154905081565b600254600160a060020a031681565b60025474010000000000000000000000000000000000000000900460ff1681565b60066020526000908152604090205481565b61085c61038c565b15156108c7576040805160208082526013908201527f3020666f72746e696768747320706173736564000000000000000000000000008183015290517f51a7f65c6325882f237d4aeb43228179cfad48b868511d508e24b4437a8191379181900360600190a16109ef565b60006108d233610b22565b905080151561092c577f51a7f65c6325882f237d4aeb43228179cfad48b868511d508e24b4437a819137604051808060200182810382526031815260200180610e916031913960400191505060405180910390a1506109ef565b3360008181526006602090815260408083204290556009546004805483517f23b872dd000000000000000000000000000000000000000000000000000000008152600160a060020a039182169281019290925260248201969096526044810187905291519416936323b872dd93606480840194938390030190829087803b1580156109b657600080fd5b505af11580156109ca573d6000803e3d6000fd5b505050506040513d60208110156109e057600080fd5b505115156109ed57600080fd5b505b565b600354600160a060020a031681565b600254600160a060020a03163314610a4c5760405160e560020a62461bcd028152600401808060200182810382526027815260200180610ec26027913960400191505060405180910390fd5b6002805474ff000000000000000000000000000000000000000019169055565b600254600160a060020a03163314610ab85760405160e560020a62461bcd028152600401808060200182810382526027815260200180610ec26027913960400191505060405180910390fd5b6002805474ff0000000000000000000000000000000000000000191674010000000000000000000000000000000000000000179055565b600954600160a060020a031681565b80820382811115610b0d575060005b92915050565b6018603c80830404045b919050565b600954604080517ffc14ed15000000000000000000000000000000000000000000000000000000008152600160a060020a03848116600483015291516000938493849384938493849384938493919092169163fc14ed15916024808301926020929190829003018186803b158015610b9957600080fd5b505afa158015610bad573d6000803e3d6000fd5b505050506040513d6020811015610bc357600080fd5b505190505b600954604080517fe968f3ee000000000000000000000000000000000000000000000000000000008152600160a060020a038c811660048301529151919092169163e968f3ee916024808301926020929190829003018186803b158015610c2e57600080fd5b505afa158015610c42573d6000803e3d6000fd5b505050506040513d6020811015610c5857600080fd5b5051811015610d8757600954604080517f60c75d68000000000000000000000000000000000000000000000000000000008152600160a060020a038c811660048301526024820185905282519316926360c75d6892604480840193919291829003018186803b158015610cca57600080fd5b505afa158015610cde573d6000803e3d6000fd5b505050506040513d6040811015610cf457600080fd5b5080516020909101519093509150610d0b82610db5565b94506064670de0b6b3a7640000848702040493506000851115610d2d57948201945b958301957f9355fbbf96ef33ef233ab42a95703e9bb7196062f5f03a5576f3e19dea1089a083610d606103a04286610afe565b604080519283526020830191909152818101879052519081900360600190a1600101610bc8565b50680821ab0d44149800008510610da657859650505050505050610b1d565b60009650505050505050610b1d565b600080610dc56103a04285610afe565b90505b606a8110610dd95760661901610dc8565b6003811015610dec576000915050610b1d565b605b811115610dff576000915050610b1d565b600060055482811515610e0e57fe5b0490506000610e1b61038c565b905080821115610e29578091505b600061016d610e3b6007544203610b13565b811515610e4457fe5b0490506003811115610e54575060035b601883600883815481101515610e6657fe5b9060005260206000200154670de0b6b3a76400000202811515610e8557fe5b04969550505050505056fe546865726520617265206e6f7420656e6f75676820746f6b656e73207769746820696e7465726573747320746f207061794e6f742063616c6c65642066726f6d20536563757469727920546f6b656e20636f6e7472616374a165627a7a72305820a63a05d00fa57cb225e2632ca847fdd7f57c1d30fc01a0d8a837110166ac7bc70029",
  "source": "pragma solidity ^0.5.0;\r\n\r\n/*********************************************************************************\r\n *********************************************************************************\r\n *\r\n * Name of the project: JeiCoin Swapper\r\n * Ethernity.live \r\n *\r\n *********************************************************************************\r\n ********************************************************************************/\r\n\r\n /* ERC20 contract interface */\r\n\r\ncontract ERC20Basic {\r\n    uint256 public totalSupply;\r\n    function balanceOf(address who) view public returns (uint256);\r\n    function transfer(address to, uint256 value) public returns (bool);\r\n    function transferFrom(address _from, address _to, uint256 _value) public returns(bool);\r\n    event Transfer(address indexed from, address indexed to, uint256 value);\r\n}\r\n\r\ncontract TokenWithDates {\r\n    function getBatch(address _address , uint _batch) public view returns(uint _quant,uint _age);\r\n    function getFirstBatch(address _address) public view returns(uint _quant,uint _age);\r\n    function resetBatches(address _address) public;\r\n    function transferFrom(address _from, address _to, uint256 _value) public returns(bool);\r\n    mapping(address => uint) public maxIndex; \r\n    mapping(address => uint) public minIndex;\r\n    uint8 public decimals;\r\n}\r\n\r\n// JeiCoin Swapper\r\n\r\ncontract HSTInterestPayer {\r\n\r\n    string public version = \"v1.0\";\r\n    address public rootAddress;\r\n    address public Owner;\r\n    bool public locked;\r\n    address public tokenAdd;\r\n    address public tokenSpender;\r\n    uint fortNight = 15;\r\n    mapping(address => uint) public lastFortnightPayed;\r\n    uint public initialDate;\r\n    uint[] public yearlyInterest;\r\n    TokenWithDates public token;\r\n\r\n    // Modifiers\r\n\r\n    modifier onlyOwner() {\r\n        require( msg.sender == Owner, \"Not called from Secutiry Token contract\");\r\n        _;\r\n    }\r\n\r\n    // Events\r\n\r\n    event Batch(uint batchAmount , uint batchAge , uint totalAmount);\r\n    event Message(string message);\r\n\r\n\r\n    // Contract constructor\r\n    constructor() public {  \r\n        Owner = msg.sender;        \r\n\r\n        token = TokenWithDates(msg.sender);\r\n        \r\n        // Addresses\r\n        tokenAdd = address(0x9da0D98c9d051c594038eb3267fBd0FAf3Da9e48);\r\n        tokenSpender = address(0xAd50cACa8cD726600840E745D0AE6B6E78861dBc);\r\n\r\n        initialDate = now;\r\n\r\n        yearlyInterest.push(70); // Yearly interest for first year: 70%\r\n        yearlyInterest.push(50); // For second year: 50%\r\n        yearlyInterest.push(20); // And so on: 20%\r\n        yearlyInterest.push(10); // 10%\r\n    }\r\n\r\n\r\n    // Main function to pay interests\r\n    function payInterests() public {\r\n        if (fortnightsFromLast() == 0) { // Check for a fortnight passed\r\n            emit Message(\"0 fortnights passed\");\r\n            return;\r\n        }\r\n        uint amountToPay = calculateInterest(msg.sender);\r\n        if (amountToPay == 0) {\r\n            emit Message(\"There are not enough tokens with interests to pay\");\r\n            return;\r\n            }\r\n        // Success\r\n        lastFortnightPayed[msg.sender] = now;\r\n        require(token.transferFrom(tokenSpender, msg.sender, amountToPay));\r\n    }\r\n\r\n    // Getters from token\r\n\r\n    function getBatch(address _address , uint _index) public view returns (uint _quant , uint _age) {\r\n        return (token.getBatch(_address,_index));\r\n    }\r\n\r\n    function getFirstBatch(address _address) public view returns (uint _quant , uint _age) {\r\n        return (token.getFirstBatch(_address));\r\n    }\r\n\r\n    // Private functions\r\n\r\n    // Calculates total interest to pay, by checking all batches. Called by main function\r\n    function calculateInterest(address _address) private returns (uint _amount) {\r\n        uint totalAmount = 0; // Total amount to pay\r\n        uint tokenCounted; // Valid tokens counted\r\n        uint intBatch; // interest for each batch in percentage\r\n        uint batchInterest; // Interests for each batch in absolute value\r\n        uint batchAmount;\r\n        uint batchDate;\r\n        for (uint i = token.minIndex(_address); i < token.maxIndex(_address); i++) {\r\n            ( batchAmount , batchDate) = token.getBatch(_address,i); // Get batch data\r\n            intBatch = interest(batchDate); // Calculate interest of this batch\r\n            batchInterest = batchAmount * intBatch / 1 ether / 100; // Apply interest to the batch amount\r\n            if (intBatch > 0) tokenCounted += batchAmount; // Count valid tokens (those with interests)\r\n            totalAmount += batchInterest; // Count total to pay\r\n            emit Batch(\r\n                batchAmount,\r\n                secToDays(softSub(now,batchDate)),\r\n                batchInterest\r\n                );\r\n        }\r\n        // Only pays if there are 150 valid tokens or more\r\n        if ( tokenCounted >= 150 ether ) return totalAmount; else return 0;\r\n    }\r\n\r\n    // Sub-function to calculate interest of each batch. Called by calculateInterest for each batch found\r\n    function interest(uint _batchDate) private view returns (uint _interest) {\r\n        uint _age = secToDays(softSub(now,_batchDate)); // Calculate age in days\r\n        while ( _age >= 106 ) { // If it has more than 3 months + 12 days + 3 (eligible to be paid again)\r\n            _age = _age - 103; // Rest every cycle of 91 + 12\r\n        }\r\n        if (_age < 3 ) return 0;\r\n        if (_age > 91) return 0;\r\n        // uint _months = _age / 30; \r\n        uint _tokenFortnights = _age / fortNight;\r\n        uint _fortnightsFromLast = fortnightsFromLast();\r\n        if ( _tokenFortnights > _fortnightsFromLast ) _tokenFortnights = _fortnightsFromLast;\r\n        uint yearsNow = secToDays(now - initialDate) / 365; // years from initial date\r\n        if (yearsNow > 3) yearsNow = 3;\r\n        _interest = 1 ether * yearlyInterest[yearsNow] * _tokenFortnights / 24 ; // Prorated interest to a fortnight, per each fortnight of token\r\n    }\r\n\r\n    function secToDays(uint _time) private pure returns(uint _days) {\r\n        return _time / 60 / 60 / 24; // Days\r\n        // return (_time / 60); // Minutes\r\n    }\r\n\r\n    function fortnightsFromLast() public view returns(uint _fortnights) {\r\n        // Fortnights from launching\r\n        _fortnights = secToDays(softSub(now,initialDate)) / fortNight;\r\n        // Fortnights since last payment (now from launching - last payment from launching)\r\n        _fortnights = softSub(_fortnights, secToDays(softSub(lastFortnightPayed[msg.sender],initialDate)) / fortNight);\r\n    }\r\n\r\n    // Safe math\r\n    function safeAdd(uint x, uint y) private pure returns (uint z) {\r\n        require((z = x + y) >= x);\r\n    }\r\n    // Returns 0 if operation overflows\r\n    function softSub(uint x, uint y) private pure returns (uint z) {\r\n        z = x - y;\r\n        if (z > x ) z = 0;\r\n    }\r\n\r\n    // Admin functions\r\n\r\n    function lock() onlyOwner public {\r\n        locked = true;\r\n    }\r\n\r\n    function unLock() onlyOwner public {\r\n        locked = false;\r\n    }\r\n\r\n    function changeOwner(address _owner) onlyOwner public {\r\n        Owner = _owner;\r\n    }\r\n\r\n    function changeRoot(address _root) onlyOwner public {\r\n        rootAddress = _root;\r\n    }\r\n\r\n    // To send ERC20 tokens sent accidentally\r\n    function sendToken(address _token,address _to , uint _value) onlyOwner public returns(bool) {\r\n        ERC20Basic Token = ERC20Basic(_token);\r\n        require(Token.transfer(_to, _value));\r\n        return true;\r\n    }\r\n}",
  "sourcePath": "C:/Users/Juan/Documents/JL/ETHER/HYDRO/hst/contracts/components/HSTInterestPayer.sol",
  "compiler": {
    "name": "solc",
    "version": "0.5.4+commit.9549d8ff.Emscripten.clang"
  },
  "schemaVersion": "3.0.6",
  "updatedAt": "2019-04-18T14:32:10.012Z",
  "devdoc": {
    "methods": {}
  },
  "userdoc": {
    "methods": {}
  }
}