{
  "contractName": "HydrogenKYC",
  "abi": [
    {
      "constant": false,
      "inputs": [],
      "name": "renounceOwnership",
      "outputs": [],
      "payable": false,
      "stateMutability": "nonpayable",
      "type": "function"
    },
    {
      "constant": true,
      "inputs": [],
      "name": "callOnAddition",
      "outputs": [
        {
          "name": "",
          "type": "bool"
        }
      ],
      "payable": false,
      "stateMutability": "view",
      "type": "function"
    },
    {
      "constant": true,
      "inputs": [],
      "name": "snowflakeDescription",
      "outputs": [
        {
          "name": "",
          "type": "string"
        }
      ],
      "payable": false,
      "stateMutability": "view",
      "type": "function"
    },
    {
      "constant": true,
      "inputs": [],
      "name": "snowflakeName",
      "outputs": [
        {
          "name": "",
          "type": "string"
        }
      ],
      "payable": false,
      "stateMutability": "view",
      "type": "function"
    },
    {
      "constant": true,
      "inputs": [],
      "name": "owner",
      "outputs": [
        {
          "name": "",
          "type": "address"
        }
      ],
      "payable": false,
      "stateMutability": "view",
      "type": "function"
    },
    {
      "constant": true,
      "inputs": [],
      "name": "callOnRemoval",
      "outputs": [
        {
          "name": "",
          "type": "bool"
        }
      ],
      "payable": false,
      "stateMutability": "view",
      "type": "function"
    },
    {
      "constant": true,
      "inputs": [],
      "name": "isOwner",
      "outputs": [
        {
          "name": "",
          "type": "bool"
        }
      ],
      "payable": false,
      "stateMutability": "view",
      "type": "function"
    },
    {
      "constant": false,
      "inputs": [
        {
          "name": "newOwner",
          "type": "address"
        }
      ],
      "name": "transferOwnership",
      "outputs": [],
      "payable": false,
      "stateMutability": "nonpayable",
      "type": "function"
    },
    {
      "constant": true,
      "inputs": [],
      "name": "snowflakeAddress",
      "outputs": [
        {
          "name": "",
          "type": "address"
        }
      ],
      "payable": false,
      "stateMutability": "view",
      "type": "function"
    },
    {
      "inputs": [
        {
          "name": "snowflakeAddress",
          "type": "address"
        }
      ],
      "payable": false,
      "stateMutability": "nonpayable",
      "type": "constructor"
    },
    {
      "anonymous": false,
      "inputs": [
        {
          "indexed": true,
          "name": "identityNode",
          "type": "bytes32"
        },
        {
          "indexed": false,
          "name": "identityNodeAddress",
          "type": "address"
        },
        {
          "indexed": false,
          "name": "identityNodePlaintext",
          "type": "string"
        },
        {
          "indexed": false,
          "name": "extraData",
          "type": "bytes"
        }
      ],
      "name": "HydrogenKYCNewIdentityNode",
      "type": "event"
    },
    {
      "anonymous": false,
      "inputs": [
        {
          "indexed": true,
          "name": "identityNode",
          "type": "bytes32"
        },
        {
          "indexed": false,
          "name": "extraData",
          "type": "bytes"
        }
      ],
      "name": "HydrogenKYCUpdateIdentityNode",
      "type": "event"
    },
    {
      "anonymous": false,
      "inputs": [
        {
          "indexed": false,
          "name": "ein",
          "type": "uint256"
        }
      ],
      "name": "HydrogenKYCSignUp",
      "type": "event"
    },
    {
      "anonymous": false,
      "inputs": [
        {
          "indexed": true,
          "name": "ein",
          "type": "uint256"
        },
        {
          "indexed": true,
          "name": "identityNode",
          "type": "bytes32"
        }
      ],
      "name": "HydrogenKYCIdentityNodeAdded",
      "type": "event"
    },
    {
      "anonymous": false,
      "inputs": [
        {
          "indexed": true,
          "name": "ein",
          "type": "uint256"
        },
        {
          "indexed": true,
          "name": "identityNode",
          "type": "bytes32"
        }
      ],
      "name": "HydrogenKYCIdentityNodeRevoked",
      "type": "event"
    },
    {
      "anonymous": false,
      "inputs": [
        {
          "indexed": false,
          "name": "ein",
          "type": "uint256"
        }
      ],
      "name": "HydrogenKYCRemoval",
      "type": "event"
    },
    {
      "anonymous": false,
      "inputs": [
        {
          "indexed": true,
          "name": "previousOwner",
          "type": "address"
        },
        {
          "indexed": true,
          "name": "newOwner",
          "type": "address"
        }
      ],
      "name": "OwnershipTransferred",
      "type": "event"
    },
    {
      "constant": false,
      "inputs": [
        {
          "name": "snowflakeAddress",
          "type": "address"
        }
      ],
      "name": "setSnowflakeAddress",
      "outputs": [],
      "payable": false,
      "stateMutability": "nonpayable",
      "type": "function"
    },
    {
      "constant": false,
      "inputs": [
        {
          "name": "identityNodePlaintext",
          "type": "string"
        },
        {
          "name": "extraData",
          "type": "bytes"
        }
      ],
      "name": "newIdentityNode",
      "outputs": [],
      "payable": false,
      "stateMutability": "nonpayable",
      "type": "function"
    },
    {
      "constant": false,
      "inputs": [
        {
          "name": "identityNodePlaintext",
          "type": "string"
        },
        {
          "name": "extraData",
          "type": "bytes"
        }
      ],
      "name": "updateIdentityNode",
      "outputs": [],
      "payable": false,
      "stateMutability": "nonpayable",
      "type": "function"
    },
    {
      "constant": false,
      "inputs": [
        {
          "name": "ein",
          "type": "uint256"
        },
        {
          "name": "",
          "type": "uint256"
        },
        {
          "name": "extraData",
          "type": "bytes"
        }
      ],
      "name": "onAddition",
      "outputs": [
        {
          "name": "",
          "type": "bool"
        }
      ],
      "payable": false,
      "stateMutability": "nonpayable",
      "type": "function"
    },
    {
      "constant": false,
      "inputs": [
        {
          "name": "identityNode",
          "type": "bytes32"
        }
      ],
      "name": "addIdentityNode",
      "outputs": [],
      "payable": false,
      "stateMutability": "nonpayable",
      "type": "function"
    },
    {
      "constant": false,
      "inputs": [
        {
          "name": "ein",
          "type": "uint256"
        },
        {
          "name": "identityNode",
          "type": "bytes32"
        }
      ],
      "name": "addIdentityNode",
      "outputs": [],
      "payable": false,
      "stateMutability": "nonpayable",
      "type": "function"
    },
    {
      "constant": false,
      "inputs": [
        {
          "name": "identityNode",
          "type": "bytes32"
        }
      ],
      "name": "revokeIdentityNode",
      "outputs": [],
      "payable": false,
      "stateMutability": "nonpayable",
      "type": "function"
    },
    {
      "constant": false,
      "inputs": [
        {
          "name": "ein",
          "type": "uint256"
        },
        {
          "name": "identityNode",
          "type": "bytes32"
        }
      ],
      "name": "revokeIdentityNode",
      "outputs": [],
      "payable": false,
      "stateMutability": "nonpayable",
      "type": "function"
    },
    {
      "constant": false,
      "inputs": [
        {
          "name": "ein",
          "type": "uint256"
        },
        {
          "name": "",
          "type": "bytes"
        }
      ],
      "name": "onRemoval",
      "outputs": [
        {
          "name": "",
          "type": "bool"
        }
      ],
      "payable": false,
      "stateMutability": "nonpayable",
      "type": "function"
    }
  ],
  "bytecode": "0x60806040523480156200001157600080fd5b5060405160208062001780833981018060405260208110156200003357600080fd5b5051604080518082018252600c81527f487964726f67656e204b5943000000000000000000000000000000000000000060208281019190915282518084018452601d81527f506572666f726d204b5943207468726f75676820487964726f67656e2e0000009181019190915260008054600160a060020a031916331780825593519293919285926001928392600160a060020a0392909216917f8be0079c531659141344cd1fd0a4f28419497f9722a3daafe3b4186f6b6457e0908290a3845162000106906001906020880190620002e3565b5083516200011c906002906020870190620002e3565b506200013183640100000000620001aa810204565b6003805491151575010000000000000000000000000000000000000000000260a860020a60ff0219931515740100000000000000000000000000000000000000000260a060020a60ff0219909316929092179290921617905550620001a39150829050640100000000620001aa810204565b5062000385565b620001bd64010000000062000290810204565b1515620001c957600080fd5b620001e28164010000000062001188620002a282021704565b600081905080600160a060020a031663a759ee6f6040518163ffffffff167c0100000000000000000000000000000000000000000000000000000000028152600401602060405180830381600087803b1580156200023f57600080fd5b505af115801562000254573d6000803e3d6000fd5b505050506040513d60208110156200026b57600080fd5b505160048054600160a060020a031916600160a060020a039092169190911790555050565b600054600160a060020a031633145b90565b620002b564010000000062000290810204565b1515620002c157600080fd5b60038054600160a060020a031916600160a060020a0392909216919091179055565b828054600181600116156101000203166002900490600052602060002090601f016020900481019282601f106200032657805160ff191683800117855562000356565b8280016001018555821562000356579182015b828111156200035657825182559160200191906001019062000339565b506200036492915062000368565b5090565b6200029f91905b808211156200036457600081556001016200036f565b6113eb80620003956000396000f3fe608060405234801561001057600080fd5b5060043610610133576000357c01000000000000000000000000000000000000000000000000000000009004806390bfaf40116100bf578063dc31679c1161008e578063dc31679c14610509578063ea56174814610526578063f2fde38b14610549578063f9f451b81461056f578063fb4d9c411461057757610133565b806390bfaf40146103615780639182621a14610413578063a6822fe0146104c0578063c979b05a146104e357610133565b806376acf1b61161010657806376acf1b6146102a857806388cdab94146103255780638da5cb5b1461032d5780638f06492d146103515780638f32d59b1461035957610133565b80632324e3291461013857806345e72bc214610157578063715018a614610284578063717902511461028c575b600080fd5b6101556004803603602081101561014e57600080fd5b50356106a4565b005b6101556004803603604081101561016d57600080fd5b81019060208101813564010000000081111561018857600080fd5b82018360208201111561019a57600080fd5b803590602001918460018302840111640100000000831117156101bc57600080fd5b91908080601f016020809104026020016040519081016040528093929190818152602001838380828437600092019190915250929594936020810193503591505064010000000081111561020f57600080fd5b82018360208201111561022157600080fd5b8035906020019184600183028401116401000000008311171561024357600080fd5b91908080601f016020809104026020016040519081016040528093929190818152602001838380828437600092019190915250929550610742945050505050565b6101556108fd565b610294610967565b604080519115158252519081900360200190f35b6102b0610988565b6040805160208082528351818301528351919283929083019185019080838360005b838110156102ea5781810151838201526020016102d2565b50505050905090810190601f1680156103175780820380516001836020036101000a031916815260200191505b509250505060405180910390f35b6102b0610a13565b610335610a6d565b60408051600160a060020a039092168252519081900360200190f35b610294610a7c565b610294610a9e565b6102946004803603606081101561037757600080fd5b81359160208101359181019060608101604082013564010000000081111561039e57600080fd5b8201836020820111156103b057600080fd5b803590602001918460018302840111640100000000831117156103d257600080fd5b91908080601f016020809104026020016040519081016040528093929190818152602001838380828437600092019190915250929550610aaf945050505050565b6102946004803603604081101561042957600080fd5b8135919081019060408101602082013564010000000081111561044b57600080fd5b82018360208201111561045d57600080fd5b8035906020019184600183028401116401000000008311171561047f57600080fd5b91908080601f016020809104026020016040519081016040528093929190818152602001838380828437600092019190915250929550610b61945050505050565b610155600480360360408110156104d657600080fd5b5080359060200135610bec565b610155600480360360208110156104f957600080fd5b5035600160a060020a0316610ccf565b6101556004803603602081101561051f57600080fd5b5035610da3565b6101556004803603604081101561053c57600080fd5b5080359060200135610e3e565b6101556004803603602081101561055f57600080fd5b5035600160a060020a0316610f1d565b610335610f39565b6101556004803603604081101561058d57600080fd5b8101906020810181356401000000008111156105a857600080fd5b8201836020820111156105ba57600080fd5b803590602001918460018302840111640100000000831117156105dc57600080fd5b91908080601f016020809104026020016040519081016040528093929190818152602001838380828437600092019190915250929594936020810193503591505064010000000081111561062f57600080fd5b82018360208201111561064157600080fd5b8035906020019184600183028401116401000000008311171561066357600080fd5b91908080601f016020809104026020016040519081016040528093929190818152602001838380828437600092019190915250929550610f48945050505050565b60048054604080517f05c62c2f00000000000000000000000000000000000000000000000000000000815233938101939093525161073f92600160a060020a03909216916305c62c2f916024808301926020929190829003018186803b15801561070d57600080fd5b505afa158015610721573d6000803e3d6000fd5b505050506040513d602081101561073757600080fd5b505182611082565b50565b600033836040516020018083600160a060020a0316600160a060020a03166c0100000000000000000000000002815260140182805190602001908083835b6020831061079f5780518252601f199092019160209182019101610780565b6001836020036101000a03801982511681845116808217855250505050505090500192505050604051602081830303815290604052805190602001209050807f8fac23f4b75ad025cb8e4cdd8ee8a861606af00a7025e8f89d491967cc26c8e23385856040518084600160a060020a0316600160a060020a031681526020018060200180602001838103835285818151815260200191508051906020019080838360005b8381101561085b578181015183820152602001610843565b50505050905090810190601f1680156108885780820380516001836020036101000a031916815260200191505b50838103825284518152845160209182019186019080838360005b838110156108bb5781810151838201526020016108a3565b50505050905090810190601f1680156108e85780820380516001836020036101000a031916815260200191505b509550505050505060405180910390a2505050565b610905610a9e565b151561091057600080fd5b60008054604051600160a060020a03909116907f8be0079c531659141344cd1fd0a4f28419497f9722a3daafe3b4186f6b6457e0908390a36000805473ffffffffffffffffffffffffffffffffffffffff19169055565b60035474010000000000000000000000000000000000000000900460ff1681565b6002805460408051602060018416156101000260001901909316849004601f81018490048402820184019092528181529291830182828015610a0b5780601f106109e057610100808354040283529160200191610a0b565b820191906000526020600020905b8154815290600101906020018083116109ee57829003601f168201915b505050505081565b60018054604080516020600284861615610100026000190190941693909304601f81018490048402820184019092528181529291830182828015610a0b5780601f106109e057610100808354040283529160200191610a0b565b600054600160a060020a031690565b6003547501000000000000000000000000000000000000000000900460ff1681565b600054600160a060020a0316331490565b600354600090600160a060020a03163314610afe5760405160e560020a62461bcd02815260040180806020018281038252602181526020018061139f6021913960400191505060405180910390fd5b6040805185815290517f212541345a26e06faa443c5dc197a6a0e201382821833dec69fa0900b37fda6b9181900360200190a16000828060200190516020811015610b4857600080fd5b50519050610b568582610bec565b506001949350505050565b600354600090600160a060020a03163314610bb05760405160e560020a62461bcd02815260040180806020018281038252602181526020018061139f6021913960400191505060405180910390fd5b6040805184815290517f886e58a9b32e978a5a5d0ea164d618d65040a20efcda65dce63fc4128db87f159181900360200190a150600192915050565b60048054604080517f53a9698a00000000000000000000000000000000000000000000000000000000815292830185905233602484015251600160a060020a03909116916353a9698a916044808301926020929190829003018186803b158015610c5557600080fd5b505afa158015610c69573d6000803e3d6000fd5b505050506040513d6020811015610c7f57600080fd5b50511515610cc15760405160e560020a62461bcd02815260040180806020018281038252602f81526020018061134e602f913960400191505060405180910390fd5b610ccb8282611082565b5050565b610cd7610a9e565b1515610ce257600080fd5b610ceb81611188565b600081905080600160a060020a031663a759ee6f6040518163ffffffff167c0100000000000000000000000000000000000000000000000000000000028152600401602060405180830381600087803b158015610d4757600080fd5b505af1158015610d5b573d6000803e3d6000fd5b505050506040513d6020811015610d7157600080fd5b50516004805473ffffffffffffffffffffffffffffffffffffffff1916600160a060020a039092169190911790555050565b60048054604080517f05c62c2f00000000000000000000000000000000000000000000000000000000815233938101939093525161073f92600160a060020a03909216916305c62c2f916024808301926020929190829003018186803b158015610e0c57600080fd5b505afa158015610e20573d6000803e3d6000fd5b505050506040513d6020811015610e3657600080fd5b5051826111ca565b60048054604080517f53a9698a00000000000000000000000000000000000000000000000000000000815292830185905233602484015251600160a060020a03909116916353a9698a916044808301926020929190829003018186803b158015610ea757600080fd5b505afa158015610ebb573d6000803e3d6000fd5b505050506040513d6020811015610ed157600080fd5b50511515610f135760405160e560020a62461bcd02815260040180806020018281038252602f81526020018061134e602f913960400191505060405180910390fd5b610ccb82826111ca565b610f25610a9e565b1515610f3057600080fd5b61073f816112d0565b600354600160a060020a031681565b600033836040516020018083600160a060020a0316600160a060020a03166c0100000000000000000000000002815260140182805190602001908083835b60208310610fa55780518252601f199092019160209182019101610f86565b6001836020036101000a03801982511681845116808217855250505050505090500192505050604051602081830303815290604052805190602001209050807f19ba6871c2c861afd727b9b1bd273006ef58743d38a4eb17aeb94052a3496006836040518080602001828103825283818151815260200191508051906020019080838360005b8381101561104357818101518382015260200161102b565b50505050905090810190601f1680156110705780820380516001836020036101000a031916815260200191505b509250505060405180910390a2505050565b60048054604080517fd4b1cdcc00000000000000000000000000000000000000000000000000000000815292830185905230602484015251600160a060020a039091169163d4b1cdcc916044808301926020929190829003018186803b1580156110eb57600080fd5b505afa1580156110ff573d6000803e3d6000fd5b505050506040513d602081101561111557600080fd5b505115156111575760405160e560020a62461bcd02815260040180806020018281038252602281526020018061137d6022913960400191505060405180910390fd5b604051819083907fa776ccdbd0bf64abef3bb3a9fad4e73034d9bd67b0887b8df63e79e0a1e0894190600090a35050565b611190610a9e565b151561119b57600080fd5b6003805473ffffffffffffffffffffffffffffffffffffffff1916600160a060020a0392909216919091179055565b60048054604080517fd4b1cdcc00000000000000000000000000000000000000000000000000000000815292830185905230602484015251600160a060020a039091169163d4b1cdcc916044808301926020929190829003018186803b15801561123357600080fd5b505afa158015611247573d6000803e3d6000fd5b505050506040513d602081101561125d57600080fd5b5051151561129f5760405160e560020a62461bcd02815260040180806020018281038252602281526020018061137d6022913960400191505060405180910390fd5b604051819083907f4fc9ffd8fd98153d94381025720ba2a255576a9feee0e2b208e2ae2c387a705390600090a35050565b600160a060020a03811615156112e557600080fd5b60008054604051600160a060020a03808516939216917f8be0079c531659141344cd1fd0a4f28419497f9722a3daafe3b4186f6b6457e091a36000805473ffffffffffffffffffffffffffffffffffffffff1916600160a060020a039290921691909117905556fe536e6f77666c616b65206973206e6f7420612050726f766964657220666f7220746865207061737365642045494e2e5468652045494e20686173206e6f74207365742074686973207265736f6c7665722e446964206e6f74206f726967696e6174652066726f6d20536e6f77666c616b652ea165627a7a7230582078c777130820e59e9f0ede86a7dc0c85a07ee411437987a62e63d5d81de1b6610029",
  "source": "pragma solidity ^0.5.0;\r\n\r\nimport \"../SnowflakeResolver.sol\";\r\nimport \"../interfaces/IdentityRegistryInterface.sol\";\r\nimport \"../interfaces/SnowflakeInterface.sol\";\r\n\r\ncontract HydrogenKYC is SnowflakeResolver {\r\n    IdentityRegistryInterface identityRegistry;\r\n\r\n    constructor (address snowflakeAddress)\r\n        SnowflakeResolver(\"Hydrogen KYC\", \"Perform KYC through Hydrogen.\", snowflakeAddress, true, true) public\r\n    {\r\n        setSnowflakeAddress(snowflakeAddress);\r\n    }\r\n\r\n    // set the snowflake address and identity registry contract wrappers\r\n    function setSnowflakeAddress(address snowflakeAddress) public onlyOwner() {\r\n        super.setSnowflakeAddress(snowflakeAddress);\r\n\r\n        SnowflakeInterface snowflake = SnowflakeInterface(snowflakeAddress);\r\n        identityRegistry = IdentityRegistryInterface(snowflake.identityRegistryAddress());\r\n    }\r\n\r\n    // allows identity nodes to declare themselves\r\n    function newIdentityNode (string memory identityNodePlaintext, bytes memory extraData) public {\r\n        bytes32 identityNode = keccak256(abi.encodePacked(msg.sender, identityNodePlaintext));\r\n        emit HydrogenKYCNewIdentityNode(identityNode, msg.sender, identityNodePlaintext, extraData);\r\n    }\r\n\r\n    // allows identity nodes to update their extraData\r\n    function updateIdentityNode (string memory identityNodePlaintext, bytes memory extraData) public {\r\n        bytes32 identityNode = keccak256(abi.encodePacked(msg.sender, identityNodePlaintext));\r\n        emit HydrogenKYCUpdateIdentityNode(identityNode, extraData);\r\n    }\r\n\r\n    // implement addition function\r\n    function onAddition(uint ein, uint, bytes memory extraData) public senderIsSnowflake() returns (bool) {\r\n        emit HydrogenKYCSignUp(ein);\r\n        (bytes32 identityNode) = abi.decode(extraData, (bytes32));\r\n        addIdentityNode(ein, identityNode);\r\n        return true;\r\n    }\r\n\r\n    // declares an identity node for the sender's EIN\r\n    function addIdentityNode(bytes32 identityNode) public {\r\n        _addIdentityNode(identityRegistry.getEIN(msg.sender), identityNode);\r\n    }\r\n\r\n    // allows providers to declare an identity node for the sender's EIN\r\n    function addIdentityNode(uint ein, bytes32 identityNode) public {\r\n        require(identityRegistry.isProviderFor(ein, msg.sender), \"Snowflake is not a Provider for the passed EIN.\");\r\n        _addIdentityNode(ein, identityNode);\r\n    }\r\n\r\n    function _addIdentityNode (uint ein, bytes32 identityNode) private {\r\n        require(identityRegistry.isResolverFor(ein, address(this)), \"The EIN has not set this resolver.\");\r\n        emit HydrogenKYCIdentityNodeAdded(ein, identityNode);\r\n    }\r\n\r\n    // revokes an identity node for the sender's EIN\r\n    function revokeIdentityNode(bytes32 identityNode) public {\r\n        _revokeIdentityNode(identityRegistry.getEIN(msg.sender), identityNode);\r\n    }\r\n\r\n    // allows providers to revoke an identity node for the sender's EIN\r\n    function revokeIdentityNode(uint ein, bytes32 identityNode) public {\r\n        require(identityRegistry.isProviderFor(ein, msg.sender), \"Snowflake is not a Provider for the passed EIN.\");\r\n        _revokeIdentityNode(ein, identityNode);\r\n    }\r\n\r\n    function _revokeIdentityNode (uint ein, bytes32 identityNode) private {\r\n        require(identityRegistry.isResolverFor(ein, address(this)), \"The EIN has not set this resolver.\");\r\n        emit HydrogenKYCIdentityNodeRevoked(ein, identityNode);\r\n    }\r\n\r\n    // implement removal function\r\n    function onRemoval(uint ein, bytes memory) public senderIsSnowflake() returns (bool) {\r\n        emit HydrogenKYCRemoval(ein);\r\n        return true;\r\n    }\r\n\r\n    event HydrogenKYCNewIdentityNode(\r\n        bytes32 indexed identityNode, address identityNodeAddress, string identityNodePlaintext, bytes extraData\r\n    );\r\n    event HydrogenKYCUpdateIdentityNode(bytes32 indexed identityNode, bytes extraData);\r\n\r\n    event HydrogenKYCSignUp(uint ein);\r\n    event HydrogenKYCIdentityNodeAdded(uint indexed ein, bytes32 indexed identityNode);\r\n    event HydrogenKYCIdentityNodeRevoked(uint indexed ein, bytes32 indexed identityNode);\r\n    event HydrogenKYCRemoval(uint ein);\r\n}\r\n",
  "sourcePath": "C:/Users/Juan/Documents/JL/ETHER/HYDRO/hst/contracts/resolvers/HydrogenKYC.sol",
  "compiler": {
    "name": "solc",
    "version": "0.5.4+commit.9549d8ff.Emscripten.clang"
  },
  "schemaVersion": "3.0.6",
  "updatedAt": "2019-04-18T14:32:10.050Z",
  "devdoc": {
    "methods": {
      "isOwner()": {
        "return": "true if `msg.sender` is the owner of the contract.\r"
      },
      "owner()": {
        "return": "the address of the owner.\r"
      },
      "renounceOwnership()": {
        "details": "Allows the current owner to relinquish control of the contract.\r"
      },
      "transferOwnership(address)": {
        "details": "Allows the current owner to transfer control of the contract to a newOwner.\r",
        "params": {
          "newOwner": "The address to transfer ownership to.\r"
        }
      }
    }
  },
  "userdoc": {
    "methods": {
      "renounceOwnership()": {
        "notice": "Renouncing to ownership will leave the contract without an owner.\r It will not be possible to call the functions with the `onlyOwner`\r modifier anymore.\r"
      }
    }
  }
}