{
  "contractName": "HydroToken",
  "abi": [
    {
      "constant": true,
      "inputs": [],
      "name": "raindropAddress",
      "outputs": [
        {
          "name": "",
          "type": "address"
        }
      ],
      "payable": false,
      "stateMutability": "view",
      "type": "function",
      "signature": "0x03960631"
    },
    {
      "constant": true,
      "inputs": [],
      "name": "name",
      "outputs": [
        {
          "name": "",
          "type": "string"
        }
      ],
      "payable": false,
      "stateMutability": "view",
      "type": "function",
      "signature": "0x06fdde03"
    },
    {
      "constant": true,
      "inputs": [],
      "name": "totalSupply",
      "outputs": [
        {
          "name": "",
          "type": "uint256"
        }
      ],
      "payable": false,
      "stateMutability": "view",
      "type": "function",
      "signature": "0x18160ddd"
    },
    {
      "constant": true,
      "inputs": [
        {
          "name": "",
          "type": "address"
        }
      ],
      "name": "balances",
      "outputs": [
        {
          "name": "",
          "type": "uint256"
        }
      ],
      "payable": false,
      "stateMutability": "view",
      "type": "function",
      "signature": "0x27e235e3"
    },
    {
      "constant": true,
      "inputs": [],
      "name": "decimals",
      "outputs": [
        {
          "name": "",
          "type": "uint8"
        }
      ],
      "payable": false,
      "stateMutability": "view",
      "type": "function",
      "signature": "0x313ce567"
    },
    {
      "constant": true,
      "inputs": [
        {
          "name": "",
          "type": "address"
        },
        {
          "name": "",
          "type": "address"
        }
      ],
      "name": "allowed",
      "outputs": [
        {
          "name": "",
          "type": "uint256"
        }
      ],
      "payable": false,
      "stateMutability": "view",
      "type": "function",
      "signature": "0x5c658165"
    },
    {
      "constant": false,
      "inputs": [],
      "name": "renounceOwnership",
      "outputs": [],
      "payable": false,
      "stateMutability": "nonpayable",
      "type": "function",
      "signature": "0x715018a6"
    },
    {
      "constant": true,
      "inputs": [],
      "name": "owner",
      "outputs": [
        {
          "name": "",
          "type": "address"
        }
      ],
      "payable": false,
      "stateMutability": "view",
      "type": "function",
      "signature": "0x8da5cb5b"
    },
    {
      "constant": true,
      "inputs": [],
      "name": "isOwner",
      "outputs": [
        {
          "name": "",
          "type": "bool"
        }
      ],
      "payable": false,
      "stateMutability": "view",
      "type": "function",
      "signature": "0x8f32d59b"
    },
    {
      "constant": true,
      "inputs": [],
      "name": "symbol",
      "outputs": [
        {
          "name": "",
          "type": "string"
        }
      ],
      "payable": false,
      "stateMutability": "view",
      "type": "function",
      "signature": "0x95d89b41"
    },
    {
      "constant": false,
      "inputs": [
        {
          "name": "newOwner",
          "type": "address"
        }
      ],
      "name": "transferOwnership",
      "outputs": [],
      "payable": false,
      "stateMutability": "nonpayable",
      "type": "function",
      "signature": "0xf2fde38b"
    },
    {
      "inputs": [],
      "payable": false,
      "stateMutability": "nonpayable",
      "type": "constructor",
      "signature": "constructor"
    },
    {
      "anonymous": false,
      "inputs": [
        {
          "indexed": true,
          "name": "_from",
          "type": "address"
        },
        {
          "indexed": true,
          "name": "_to",
          "type": "address"
        },
        {
          "indexed": false,
          "name": "_amount",
          "type": "uint256"
        }
      ],
      "name": "Transfer",
      "type": "event",
      "signature": "0xddf252ad1be2c89b69c2b068fc378daa952ba7f163c4a11628f55a4df523b3ef"
    },
    {
      "anonymous": false,
      "inputs": [
        {
          "indexed": true,
          "name": "_owner",
          "type": "address"
        },
        {
          "indexed": true,
          "name": "_spender",
          "type": "address"
        },
        {
          "indexed": false,
          "name": "_amount",
          "type": "uint256"
        }
      ],
      "name": "Approval",
      "type": "event",
      "signature": "0x8c5be1e5ebec7d5bd14f71427d1e84f3dd0314c0f7b2291e5b200ac8c7c3b925"
    },
    {
      "anonymous": false,
      "inputs": [
        {
          "indexed": true,
          "name": "_burner",
          "type": "address"
        },
        {
          "indexed": false,
          "name": "_amount",
          "type": "uint256"
        }
      ],
      "name": "Burn",
      "type": "event",
      "signature": "0xcc16f5dbb4873280815c1ee09dbd06736cffcc184412cf7a71a0fdb75d397ca5"
    },
    {
      "anonymous": false,
      "inputs": [
        {
          "indexed": true,
          "name": "previousOwner",
          "type": "address"
        },
        {
          "indexed": true,
          "name": "newOwner",
          "type": "address"
        }
      ],
      "name": "OwnershipTransferred",
      "type": "event",
      "signature": "0x8be0079c531659141344cd1fd0a4f28419497f9722a3daafe3b4186f6b6457e0"
    },
    {
      "constant": false,
      "inputs": [
        {
          "name": "_to",
          "type": "address"
        },
        {
          "name": "_amount",
          "type": "uint256"
        }
      ],
      "name": "transfer",
      "outputs": [
        {
          "name": "success",
          "type": "bool"
        }
      ],
      "payable": false,
      "stateMutability": "nonpayable",
      "type": "function",
      "signature": "0xa9059cbb"
    },
    {
      "constant": false,
      "inputs": [
        {
          "name": "_from",
          "type": "address"
        },
        {
          "name": "_to",
          "type": "address"
        },
        {
          "name": "_amount",
          "type": "uint256"
        }
      ],
      "name": "transferFrom",
      "outputs": [
        {
          "name": "success",
          "type": "bool"
        }
      ],
      "payable": false,
      "stateMutability": "nonpayable",
      "type": "function",
      "signature": "0x23b872dd"
    },
    {
      "constant": true,
      "inputs": [
        {
          "name": "_owner",
          "type": "address"
        }
      ],
      "name": "balanceOf",
      "outputs": [
        {
          "name": "balance",
          "type": "uint256"
        }
      ],
      "payable": false,
      "stateMutability": "view",
      "type": "function",
      "signature": "0x70a08231"
    },
    {
      "constant": false,
      "inputs": [
        {
          "name": "_spender",
          "type": "address"
        },
        {
          "name": "_amount",
          "type": "uint256"
        }
      ],
      "name": "approve",
      "outputs": [
        {
          "name": "success",
          "type": "bool"
        }
      ],
      "payable": false,
      "stateMutability": "nonpayable",
      "type": "function",
      "signature": "0x095ea7b3"
    },
    {
      "constant": false,
      "inputs": [
        {
          "name": "_spender",
          "type": "address"
        },
        {
          "name": "_value",
          "type": "uint256"
        },
        {
          "name": "_extraData",
          "type": "bytes"
        }
      ],
      "name": "approveAndCall",
      "outputs": [
        {
          "name": "success",
          "type": "bool"
        }
      ],
      "payable": false,
      "stateMutability": "nonpayable",
      "type": "function",
      "signature": "0xcae9ca51"
    },
    {
      "constant": false,
      "inputs": [
        {
          "name": "_value",
          "type": "uint256"
        }
      ],
      "name": "burn",
      "outputs": [],
      "payable": false,
      "stateMutability": "nonpayable",
      "type": "function",
      "signature": "0x42966c68"
    },
    {
      "constant": true,
      "inputs": [
        {
          "name": "_owner",
          "type": "address"
        },
        {
          "name": "_spender",
          "type": "address"
        }
      ],
      "name": "allowance",
      "outputs": [
        {
          "name": "remaining",
          "type": "uint256"
        }
      ],
      "payable": false,
      "stateMutability": "view",
      "type": "function",
      "signature": "0xdd62ed3e"
    },
    {
      "constant": false,
      "inputs": [
        {
          "name": "_raindrop",
          "type": "address"
        }
      ],
      "name": "setRaindropAddress",
      "outputs": [],
      "payable": false,
      "stateMutability": "nonpayable",
      "type": "function",
      "signature": "0xb302ea1e"
    },
    {
      "constant": false,
      "inputs": [
        {
          "name": "_value",
          "type": "uint256"
        },
        {
          "name": "_challenge",
          "type": "uint256"
        },
        {
          "name": "_partnerId",
          "type": "uint256"
        }
      ],
      "name": "authenticate",
      "outputs": [],
      "payable": false,
      "stateMutability": "nonpayable",
      "type": "function",
      "signature": "0x053011b7"
    },
    {
      "constant": false,
      "inputs": [
        {
          "name": "_addressList",
          "type": "address[]"
        },
        {
          "name": "_amounts",
          "type": "uint256[]"
        }
      ],
      "name": "setBalances",
      "outputs": [],
      "payable": false,
      "stateMutability": "nonpayable",
      "type": "function",
      "signature": "0xb7e39b4f"
    }
  ],
  "bytecode": "0x60c0604052600560808190527f487964726f00000000000000000000000000000000000000000000000000000060a090815261003e916001919061011e565b506002805460ff191660121790556040805180820190915260058082527f485944524f00000000000000000000000000000000000000000000000000000060209092019182526100909160039161011e565b5060058054600160a060020a03191690553480156100ad57600080fd5b5060008054600160a060020a0319163317808255604051600160a060020a039190911691907f8be0079c531659141344cd1fd0a4f28419497f9722a3daafe3b4186f6b6457e0908290a36b23e6e54c4381ee57e2bc00006004819055336000908152600660205260409020556101b9565b828054600181600116156101000203166002900490600052602060002090601f016020900481019282601f1061015f57805160ff191683800117855561018c565b8280016001018555821561018c579182015b8281111561018c578251825591602001919060010190610171565b5061019892915061019c565b5090565b6101b691905b8082111561019857600081556001016101a2565b90565b610ea480620001c96000396000f3fe608060405234801561001057600080fd5b5060043610610154576000357c01000000000000000000000000000000000000000000000000000000009004806370a08231116100d5578063a9059cbb11610099578063a9059cbb1461038a578063b302ea1e146103b6578063b7e39b4f146103dc578063cae9ca5114610503578063dd62ed3e146105be578063f2fde38b146105ec57610154565b806370a0823114610344578063715018a61461036a5780638da5cb5b146103725780638f32d59b1461037a57806395d89b411461038257610154565b806323b872dd1161011c57806323b872dd1461027f57806327e235e3146102b5578063313ce567146102db57806342966c68146102f95780635c6581651461031657610154565b80630396063114610159578063053011b71461017d57806306fdde03146101a8578063095ea7b31461022557806318160ddd14610265575b600080fd5b610161610612565b60408051600160a060020a039092168252519081900360200190f35b6101a66004803603606081101561019357600080fd5b5080359060208101359060400135610621565b005b6101b06106cc565b6040805160208082528351818301528351919283929083019185019080838360005b838110156101ea5781810151838201526020016101d2565b50505050905090810190601f1680156102175780820380516001836020036101000a031916815260200191505b509250505060405180910390f35b6102516004803603604081101561023b57600080fd5b50600160a060020a038135169060200135610759565b604080519115158252519081900360200190f35b61026d6107fb565b60408051918252519081900360200190f35b6102516004803603606081101561029557600080fd5b50600160a060020a03813581169160208101359091169060400135610801565b61026d600480360360208110156102cb57600080fd5b5035600160a060020a0316610871565b6102e3610883565b6040805160ff9092168252519081900360200190f35b6101a66004803603602081101561030f57600080fd5b503561088c565b61026d6004803603604081101561032c57600080fd5b50600160a060020a038135811691602001351661093a565b61026d6004803603602081101561035a57600080fd5b5035600160a060020a0316610957565b6101a6610972565b6101616109dc565b6102516109eb565b6101b06109fc565b610251600480360360408110156103a057600080fd5b50600160a060020a038135169060200135610a57565b6101a6600480360360208110156103cc57600080fd5b5035600160a060020a0316610a6d565b6101a6600480360360408110156103f257600080fd5b81019060208101813564010000000081111561040d57600080fd5b82018360208201111561041f57600080fd5b8035906020019184602083028401116401000000008311171561044157600080fd5b919080806020026020016040519081016040528093929190818152602001838360200280828437600092019190915250929594936020810193503591505064010000000081111561049157600080fd5b8201836020820111156104a357600080fd5b803590602001918460208302840111640100000000831117156104c557600080fd5b919080806020026020016040519081016040528093929190818152602001838360200280828437600092019190915250929550610aaf945050505050565b6102516004803603606081101561051957600080fd5b600160a060020a038235169160208101359181019060608101604082013564010000000081111561054957600080fd5b82018360208201111561055b57600080fd5b8035906020019184600183028401116401000000008311171561057d57600080fd5b91908080601f016020809104026020016040519081016040528093929190818152602001838380828437600092019190915250929550610b61945050505050565b61026d600480360360408110156105d457600080fd5b50600160a060020a0381358116916020013516610c7f565b6101a66004803603602081101561060257600080fd5b5035600160a060020a0316610caa565b600554600160a060020a031681565b600554604080517fc68ae6170000000000000000000000000000000000000000000000000000000081523360048201526024810186905260448101859052606481018490529051600160a060020a0390921691829163c68ae61791608480830192600092919082900301818387803b15801561069c57600080fd5b505af11580156106b0573d6000803e3d6000fd5b505050506106c6336106c06109dc565b86610cc9565b50505050565b60018054604080516020600284861615610100026000190190941693909304601f810184900484028201840190925281815292918301828280156107515780601f1061072657610100808354040283529160200191610751565b820191906000526020600020905b81548152906001019060200180831161073457829003601f168201915b505050505081565b60008115806107895750336000908152600760209081526040808320600160a060020a0387168452909152902054155b151561079457600080fd5b336000818152600760209081526040808320600160a060020a03881680855290835292819020869055805186815290519293927f8c5be1e5ebec7d5bd14f71427d1e84f3dd0314c0f7b2291e5b200ac8c7c3b925929181900390910190a350600192915050565b60045481565b600160a060020a038316600090815260076020908152604080832033845290915281205482111561083157600080fd5b600160a060020a0384166000908152600760209081526040808320338452909152902080548390039055610866848484610cc9565b5060015b9392505050565b60066020526000908152604090205481565b60025460ff1681565b6108946109eb565b151561089f57600080fd5b336000908152600660205260409020548111156108bb57600080fd5b336000908152600660205260409020546108db908263ffffffff610dd416565b336000908152600660205260409020556004546108fe908263ffffffff610dd416565b60045560408051828152905133917fcc16f5dbb4873280815c1ee09dbd06736cffcc184412cf7a71a0fdb75d397ca5919081900360200190a250565b600760209081526000928352604080842090915290825290205481565b600160a060020a031660009081526006602052604090205490565b61097a6109eb565b151561098557600080fd5b60008054604051600160a060020a03909116907f8be0079c531659141344cd1fd0a4f28419497f9722a3daafe3b4186f6b6457e0908390a36000805473ffffffffffffffffffffffffffffffffffffffff19169055565b600054600160a060020a031690565b600054600160a060020a0316331490565b6003805460408051602060026001851615610100026000190190941693909304601f810184900484028201840190925281815292918301828280156107515780601f1061072657610100808354040283529160200191610751565b6000610a64338484610cc9565b50600192915050565b610a756109eb565b1515610a8057600080fd5b6005805473ffffffffffffffffffffffffffffffffffffffff1916600160a060020a0392909216919091179055565b610ab76109eb565b1515610ac257600080fd5b8051825114610ad057600080fd5b60005b8251811015610b5c57600660008483815181101515610aee57fe5b6020908102909101810151600160a060020a031682528101919091526040016000205415610b1b57600080fd5b610b538382815181101515610b2c57fe5b906020019060200201518383815181101515610b4457fe5b90602001906020020151610a57565b50600101610ad3565b505050565b600083610b6e8185610759565b15610c77576040517f8f4ffcb10000000000000000000000000000000000000000000000000000000081523360048201818152602483018790523060448401819052608060648501908152875160848601528751600160a060020a03871695638f4ffcb195948b94938b939192909160a490910190602085019080838360005b83811015610c06578181015183820152602001610bee565b50505050905090810190601f168015610c335780820380516001836020036101000a031916815260200191505b5095505050505050600060405180830381600087803b158015610c5557600080fd5b505af1158015610c69573d6000803e3d6000fd5b50505050600191505061086a565b509392505050565b600160a060020a03918216600090815260076020908152604080832093909416825291909152205490565b610cb26109eb565b1515610cbd57600080fd5b610cc681610de9565b50565b600160a060020a03821615801590610cea5750600160a060020a0382163014155b1515610cf557600080fd5b600160a060020a038316600090815260066020526040902054811115610d1a57600080fd5b600160a060020a038316600090815260066020526040902054610d43908263ffffffff610dd416565b600160a060020a038085166000908152600660205260408082209390935590841681522054610d78908263ffffffff610e6616565b600160a060020a0380841660008181526006602090815260409182902094909455805185815290519193928716927fddf252ad1be2c89b69c2b068fc378daa952ba7f163c4a11628f55a4df523b3ef92918290030190a3505050565b600082821115610de357600080fd5b50900390565b600160a060020a0381161515610dfe57600080fd5b60008054604051600160a060020a03808516939216917f8be0079c531659141344cd1fd0a4f28419497f9722a3daafe3b4186f6b6457e091a36000805473ffffffffffffffffffffffffffffffffffffffff1916600160a060020a0392909216919091179055565b60008282018381101561086a57600080fdfea165627a7a723058201641577cebc8f169b6438b44d0fcfe165d4fbf0a5efe9f9376f8591a2e6bc9730029",
  "source": "pragma solidity ^0.5.0;\r\n\r\nimport \"../zeppelin/ownership/Ownable.sol\";\r\nimport \"../zeppelin/math/SafeMath.sol\";\r\n\r\ninterface Raindrop {\r\n    function authenticate(address _sender, uint _value, uint _challenge, uint _partnerId) external;\r\n}\r\n\r\ninterface tokenRecipient {\r\n    function receiveApproval(address _from, uint256 _value, address _token, bytes calldata _extraData) external;\r\n}\r\n\r\ncontract HydroToken is Ownable {\r\n    using SafeMath for uint256;\r\n\r\n    string public name = \"Hydro\";          // The token's name\r\n    uint8 public decimals = 18;            // Number of decimals of the smallest unit\r\n    string public symbol = \"HYDRO\";        // An identifier\r\n    uint public totalSupply;\r\n    address public raindropAddress = address(0);\r\n\r\n    mapping (address => uint256) public balances;\r\n    // `allowed` tracks any extra transfer rights as in all ERC20 tokens\r\n    mapping (address => mapping (address => uint256)) public allowed;\r\n\r\n    ////////////////\r\n    // Constructor\r\n    ////////////////\r\n\r\n    /// @notice Constructor to create a HydroToken\r\n    constructor() public {\r\n        totalSupply = 11111111111 * 10**18;\r\n        // Give the creator all initial tokens\r\n        balances[msg.sender] = totalSupply;\r\n    }\r\n\r\n\r\n    ///////////////////\r\n    // ERC20 Methods\r\n    ///////////////////\r\n\r\n    /// @notice Send `_amount` tokens to `_to` from `msg.sender`\r\n    /// @param _to The address of the recipient\r\n    /// @param _amount The amount of tokens to be transferred\r\n    /// @return Whether the transfer was successful or not\r\n    function transfer(address _to, uint256 _amount) public returns (bool success) {\r\n        doTransfer(msg.sender, _to, _amount);\r\n        return true;\r\n    }\r\n\r\n    /// @notice Send `_amount` tokens to `_to` from `_from` on the condition it\r\n    ///  is approved by `_from`\r\n    /// @param _from The address holding the tokens being transferred\r\n    /// @param _to The address of the recipient\r\n    /// @param _amount The amount of tokens to be transferred\r\n    /// @return True if the transfer was successful\r\n    function transferFrom(address _from, address _to, uint256 _amount) public returns (bool success) {\r\n        // The standard ERC 20 transferFrom functionality\r\n        require(allowed[_from][msg.sender] >= _amount);\r\n        allowed[_from][msg.sender] -= _amount;\r\n        doTransfer(_from, _to, _amount);\r\n        return true;\r\n    }\r\n\r\n    /// @dev This is the actual transfer function in the token contract, it can\r\n    ///  only be called by other functions in this contract.\r\n    /// @param _from The address holding the tokens being transferred\r\n    /// @param _to The address of the recipient\r\n    /// @param _amount The amount of tokens to be transferred\r\n    /// @return True if the transfer was successful\r\n    function doTransfer(address _from, address _to, uint _amount\r\n    ) internal {\r\n        // Do not allow transfer to 0x0 or the token contract itself\r\n        require((_to != address(0)) && (_to != address(this)));\r\n        require(_amount <= balances[_from]);\r\n        balances[_from] = balances[_from].sub(_amount);\r\n        balances[_to] = balances[_to].add(_amount);\r\n        emit Transfer(_from, _to, _amount);\r\n    }\r\n\r\n    /// @return The balance of `_owner`\r\n    function balanceOf(address _owner) public view returns (uint256 balance) {\r\n        return balances[_owner];\r\n    }\r\n\r\n    /// @notice `msg.sender` approves `_spender` to spend `_amount` tokens on\r\n    ///  its behalf. This is a modified version of the ERC20 approve function\r\n    ///  to be a little bit safer\r\n    /// @param _spender The address of the account able to transfer the tokens\r\n    /// @param _amount The amount of tokens to be approved for transfer\r\n    /// @return True if the approval was successful\r\n    function approve(address _spender, uint256 _amount) public returns (bool success) {\r\n        // To change the approve amount you first have to reduce the addresses`\r\n        //  allowance to zero by calling `approve(_spender,0)` if it is not\r\n        //  already 0 to mitigate the race condition described here:\r\n        //  https://github.com/ethereum/EIPs/issues/20#issuecomment-263524729\r\n        require((_amount == 0) || (allowed[msg.sender][_spender] == 0));\r\n\r\n        allowed[msg.sender][_spender] = _amount;\r\n        emit Approval(msg.sender, _spender, _amount);\r\n        return true;\r\n    }\r\n\r\n    function approveAndCall(address _spender, uint256 _value, bytes memory _extraData) public returns (bool success) {\r\n        tokenRecipient spender = tokenRecipient(_spender);\r\n        if (approve(_spender, _value)) {\r\n            spender.receiveApproval(msg.sender, _value, address(this), _extraData);\r\n            return true;\r\n        }\r\n    }\r\n\r\n    function burn(uint256 _value) public onlyOwner {\r\n        require(balances[msg.sender] >= _value);\r\n        balances[msg.sender] = balances[msg.sender].sub(_value);\r\n        totalSupply = totalSupply.sub(_value);\r\n        emit Burn(msg.sender, _value);\r\n    }\r\n\r\n    /// @dev This function makes it easy to read the `allowed[]` map\r\n    /// @param _owner The address of the account that owns the token\r\n    /// @param _spender The address of the account able to transfer the tokens\r\n    /// @return Amount of remaining tokens of _owner that _spender is allowed\r\n    ///  to spend\r\n    function allowance(address _owner, address _spender\r\n    ) public view returns (uint256 remaining) {\r\n        return allowed[_owner][_spender];\r\n    }\r\n\r\n    function setRaindropAddress(address _raindrop) public onlyOwner {\r\n        raindropAddress = _raindrop;\r\n    }\r\n\r\n    function authenticate(uint _value, uint _challenge, uint _partnerId) public {\r\n        Raindrop raindrop = Raindrop(raindropAddress);\r\n        raindrop.authenticate(msg.sender, _value, _challenge, _partnerId);\r\n        doTransfer(msg.sender, owner(), _value);\r\n    }\r\n\r\n    function setBalances(address[] memory _addressList, uint[] memory _amounts) public onlyOwner {\r\n        require(_addressList.length == _amounts.length);\r\n        for (uint i = 0; i < _addressList.length; i++) {\r\n            require(balances[_addressList[i]] == 0);\r\n            transfer(_addressList[i], _amounts[i]);\r\n        }\r\n    }\r\n\r\n    event Transfer(\r\n        address indexed _from,\r\n        address indexed _to,\r\n        uint256 _amount\r\n    );\r\n\r\n    event Approval(\r\n        address indexed _owner,\r\n        address indexed _spender,\r\n        uint256 _amount\r\n    );\r\n\r\n    event Burn(\r\n        address indexed _burner,\r\n        uint256 _amount\r\n    );\r\n\r\n}\r\n",
  "sourcePath": "C:/Users/Juan/Documents/JL/ETHER/HYDRO/hst/contracts/_testing/HydroToken.sol",
  "compiler": {
    "name": "solc",
    "version": "0.5.4+commit.9549d8ff.Emscripten.clang"
  },
  "schemaVersion": "3.0.6",
  "updatedAt": "2019-04-18T14:32:52.741Z",
  "devdoc": {
    "methods": {
      "approve(address,uint256)": {
        "return": "True if the approval was successful"
      },
      "balanceOf(address)": {
        "return": "The balance of `_owner`"
      },
      "isOwner()": {
        "return": "true if `msg.sender` is the owner of the contract.\r"
      },
      "owner()": {
        "return": "the address of the owner.\r"
      },
      "renounceOwnership()": {
        "details": "Allows the current owner to relinquish control of the contract.\r"
      },
      "transfer(address,uint256)": {
        "return": "Whether the transfer was successful or not"
      },
      "transferFrom(address,address,uint256)": {
        "return": "True if the transfer was successful"
      },
      "transferOwnership(address)": {
        "details": "Allows the current owner to transfer control of the contract to a newOwner.\r",
        "params": {
          "newOwner": "The address to transfer ownership to.\r"
        }
      }
    }
  },
  "userdoc": {
    "methods": {
      "allowance(address,address)": {
        "notice": "to spend"
      },
      "constructor": "Constructor to create a HydroToken",
      "renounceOwnership()": {
        "notice": "Renouncing to ownership will leave the contract without an owner.\r It will not be possible to call the functions with the `onlyOwner`\r modifier anymore.\r"
      }
    }
  }
}