{
  "contractName": "IdentityRegistry",
  "abi": [
    {
      "constant": true,
      "inputs": [],
      "name": "recoveryTimeout",
      "outputs": [
        {
          "name": "",
          "type": "uint256"
        }
      ],
      "payable": false,
      "stateMutability": "view",
      "type": "function",
      "signature": "0x14d8b821"
    },
    {
      "constant": true,
      "inputs": [],
      "name": "signatureTimeout",
      "outputs": [
        {
          "name": "",
          "type": "uint256"
        }
      ],
      "payable": false,
      "stateMutability": "view",
      "type": "function",
      "signature": "0x5437b67c"
    },
    {
      "constant": true,
      "inputs": [
        {
          "name": "_address",
          "type": "address"
        },
        {
          "name": "messageHash",
          "type": "bytes32"
        },
        {
          "name": "v",
          "type": "uint8"
        },
        {
          "name": "r",
          "type": "bytes32"
        },
        {
          "name": "s",
          "type": "bytes32"
        }
      ],
      "name": "isSigned",
      "outputs": [
        {
          "name": "",
          "type": "bool"
        }
      ],
      "payable": false,
      "stateMutability": "pure",
      "type": "function",
      "signature": "0x8677ebe8"
    },
    {
      "constant": true,
      "inputs": [],
      "name": "nextEIN",
      "outputs": [
        {
          "name": "",
          "type": "uint256"
        }
      ],
      "payable": false,
      "stateMutability": "view",
      "type": "function",
      "signature": "0xa1707e7b"
    },
    {
      "constant": true,
      "inputs": [],
      "name": "maxAssociatedAddresses",
      "outputs": [
        {
          "name": "",
          "type": "uint256"
        }
      ],
      "payable": false,
      "stateMutability": "view",
      "type": "function",
      "signature": "0xab9a8538"
    },
    {
      "anonymous": false,
      "inputs": [
        {
          "indexed": true,
          "name": "initiator",
          "type": "address"
        },
        {
          "indexed": true,
          "name": "ein",
          "type": "uint256"
        },
        {
          "indexed": false,
          "name": "recoveryAddress",
          "type": "address"
        },
        {
          "indexed": false,
          "name": "associatedAddress",
          "type": "address"
        },
        {
          "indexed": false,
          "name": "providers",
          "type": "address[]"
        },
        {
          "indexed": false,
          "name": "resolvers",
          "type": "address[]"
        },
        {
          "indexed": false,
          "name": "delegated",
          "type": "bool"
        }
      ],
      "name": "IdentityCreated",
      "type": "event",
      "signature": "0xe541733a4670852051762d3cdb7d9123bea21d01e252aa39ca403c8d0f5ab66c"
    },
    {
      "anonymous": false,
      "inputs": [
        {
          "indexed": true,
          "name": "initiator",
          "type": "address"
        },
        {
          "indexed": true,
          "name": "ein",
          "type": "uint256"
        },
        {
          "indexed": false,
          "name": "approvingAddress",
          "type": "address"
        },
        {
          "indexed": false,
          "name": "addedAddress",
          "type": "address"
        },
        {
          "indexed": false,
          "name": "delegated",
          "type": "bool"
        }
      ],
      "name": "AssociatedAddressAdded",
      "type": "event",
      "signature": "0x1e0c87f4d9edce88868577315152d327d02ff25d2cb9384cd6ee609a9f56b64e"
    },
    {
      "anonymous": false,
      "inputs": [
        {
          "indexed": true,
          "name": "initiator",
          "type": "address"
        },
        {
          "indexed": true,
          "name": "ein",
          "type": "uint256"
        },
        {
          "indexed": false,
          "name": "removedAddress",
          "type": "address"
        },
        {
          "indexed": false,
          "name": "delegated",
          "type": "bool"
        }
      ],
      "name": "AssociatedAddressRemoved",
      "type": "event",
      "signature": "0x04095b6a64a9a32bafa887e731a82f91cdec3bf819389deea6aa34a488034f7d"
    },
    {
      "anonymous": false,
      "inputs": [
        {
          "indexed": true,
          "name": "initiator",
          "type": "address"
        },
        {
          "indexed": true,
          "name": "ein",
          "type": "uint256"
        },
        {
          "indexed": false,
          "name": "provider",
          "type": "address"
        },
        {
          "indexed": false,
          "name": "delegated",
          "type": "bool"
        }
      ],
      "name": "ProviderAdded",
      "type": "event",
      "signature": "0xd2af86288d6ec28d93c5459bdc5a21da89b340c28ad430327e40139c1178986f"
    },
    {
      "anonymous": false,
      "inputs": [
        {
          "indexed": true,
          "name": "initiator",
          "type": "address"
        },
        {
          "indexed": true,
          "name": "ein",
          "type": "uint256"
        },
        {
          "indexed": false,
          "name": "provider",
          "type": "address"
        },
        {
          "indexed": false,
          "name": "delegated",
          "type": "bool"
        }
      ],
      "name": "ProviderRemoved",
      "type": "event",
      "signature": "0xe41b11c1b8e658dea501b4a432bd3f7b3e6db83ef57ac16c52e5f288edeffec4"
    },
    {
      "anonymous": false,
      "inputs": [
        {
          "indexed": true,
          "name": "initiator",
          "type": "address"
        },
        {
          "indexed": true,
          "name": "ein",
          "type": "uint256"
        },
        {
          "indexed": false,
          "name": "resolvers",
          "type": "address"
        },
        {
          "indexed": false,
          "name": "delegated",
          "type": "bool"
        }
      ],
      "name": "ResolverAdded",
      "type": "event",
      "signature": "0x8d2c0379f93ea94639b25aaf145689b0db73ba107f5b9972bbd6238d7b0440ac"
    },
    {
      "anonymous": false,
      "inputs": [
        {
          "indexed": true,
          "name": "initiator",
          "type": "address"
        },
        {
          "indexed": true,
          "name": "ein",
          "type": "uint256"
        },
        {
          "indexed": false,
          "name": "resolvers",
          "type": "address"
        },
        {
          "indexed": false,
          "name": "delegated",
          "type": "bool"
        }
      ],
      "name": "ResolverRemoved",
      "type": "event",
      "signature": "0x35f17668a4aadc48b2952cd27f0c5017b357497a1f20cedf4713d91d019a63a8"
    },
    {
      "anonymous": false,
      "inputs": [
        {
          "indexed": true,
          "name": "initiator",
          "type": "address"
        },
        {
          "indexed": true,
          "name": "ein",
          "type": "uint256"
        },
        {
          "indexed": false,
          "name": "oldRecoveryAddress",
          "type": "address"
        },
        {
          "indexed": false,
          "name": "newRecoveryAddress",
          "type": "address"
        },
        {
          "indexed": false,
          "name": "delegated",
          "type": "bool"
        }
      ],
      "name": "RecoveryAddressChangeTriggered",
      "type": "event",
      "signature": "0xd9d54f9caf1bb2f4f815d22df297e7b73291ee08a95df2d47b0b03378ebe7c5d"
    },
    {
      "anonymous": false,
      "inputs": [
        {
          "indexed": true,
          "name": "initiator",
          "type": "address"
        },
        {
          "indexed": true,
          "name": "ein",
          "type": "uint256"
        },
        {
          "indexed": false,
          "name": "oldAssociatedAddresses",
          "type": "address[]"
        },
        {
          "indexed": false,
          "name": "newAssociatedAddress",
          "type": "address"
        }
      ],
      "name": "RecoveryTriggered",
      "type": "event",
      "signature": "0x2fe95fbd211d0471c596b1f81d913d1389d5d1ddeb2bdd96143acc651aa3b02e"
    },
    {
      "anonymous": false,
      "inputs": [
        {
          "indexed": true,
          "name": "initiator",
          "type": "address"
        },
        {
          "indexed": true,
          "name": "ein",
          "type": "uint256"
        },
        {
          "indexed": false,
          "name": "recoveryAddress",
          "type": "address"
        },
        {
          "indexed": false,
          "name": "resolversReset",
          "type": "bool"
        }
      ],
      "name": "IdentityDestroyed",
      "type": "event",
      "signature": "0x1807cc67f627d55c0a797a6c603fa124978caf5bb45c1748329489fd0185b9ef"
    },
    {
      "constant": true,
      "inputs": [
        {
          "name": "ein",
          "type": "uint256"
        }
      ],
      "name": "identityExists",
      "outputs": [
        {
          "name": "",
          "type": "bool"
        }
      ],
      "payable": false,
      "stateMutability": "view",
      "type": "function",
      "signature": "0x5b5aed3a"
    },
    {
      "constant": true,
      "inputs": [
        {
          "name": "_address",
          "type": "address"
        }
      ],
      "name": "hasIdentity",
      "outputs": [
        {
          "name": "",
          "type": "bool"
        }
      ],
      "payable": false,
      "stateMutability": "view",
      "type": "function",
      "signature": "0x237f1a21"
    },
    {
      "constant": true,
      "inputs": [
        {
          "name": "_address",
          "type": "address"
        }
      ],
      "name": "getEIN",
      "outputs": [
        {
          "name": "ein",
          "type": "uint256"
        }
      ],
      "payable": false,
      "stateMutability": "view",
      "type": "function",
      "signature": "0x05c62c2f"
    },
    {
      "constant": true,
      "inputs": [
        {
          "name": "ein",
          "type": "uint256"
        },
        {
          "name": "_address",
          "type": "address"
        }
      ],
      "name": "isAssociatedAddressFor",
      "outputs": [
        {
          "name": "",
          "type": "bool"
        }
      ],
      "payable": false,
      "stateMutability": "view",
      "type": "function",
      "signature": "0xa687662d"
    },
    {
      "constant": true,
      "inputs": [
        {
          "name": "ein",
          "type": "uint256"
        },
        {
          "name": "provider",
          "type": "address"
        }
      ],
      "name": "isProviderFor",
      "outputs": [
        {
          "name": "",
          "type": "bool"
        }
      ],
      "payable": false,
      "stateMutability": "view",
      "type": "function",
      "signature": "0x53a9698a"
    },
    {
      "constant": true,
      "inputs": [
        {
          "name": "ein",
          "type": "uint256"
        },
        {
          "name": "resolver",
          "type": "address"
        }
      ],
      "name": "isResolverFor",
      "outputs": [
        {
          "name": "",
          "type": "bool"
        }
      ],
      "payable": false,
      "stateMutability": "view",
      "type": "function",
      "signature": "0xd4b1cdcc"
    },
    {
      "constant": true,
      "inputs": [
        {
          "name": "ein",
          "type": "uint256"
        }
      ],
      "name": "getIdentity",
      "outputs": [
        {
          "name": "recoveryAddress",
          "type": "address"
        },
        {
          "name": "associatedAddresses",
          "type": "address[]"
        },
        {
          "name": "providers",
          "type": "address[]"
        },
        {
          "name": "resolvers",
          "type": "address[]"
        }
      ],
      "payable": false,
      "stateMutability": "view",
      "type": "function",
      "signature": "0x85e3f058"
    },
    {
      "constant": false,
      "inputs": [
        {
          "name": "recoveryAddress",
          "type": "address"
        },
        {
          "name": "associatedAddress",
          "type": "address"
        },
        {
          "name": "providers",
          "type": "address[]"
        },
        {
          "name": "resolvers",
          "type": "address[]"
        },
        {
          "name": "v",
          "type": "uint8"
        },
        {
          "name": "r",
          "type": "bytes32"
        },
        {
          "name": "s",
          "type": "bytes32"
        },
        {
          "name": "timestamp",
          "type": "uint256"
        }
      ],
      "name": "createIdentityDelegated",
      "outputs": [
        {
          "name": "ein",
          "type": "uint256"
        }
      ],
      "payable": false,
      "stateMutability": "nonpayable",
      "type": "function",
      "signature": "0x14fb5646"
    },
    {
      "constant": false,
      "inputs": [
        {
          "name": "recoveryAddress",
          "type": "address"
        },
        {
          "name": "providers",
          "type": "address[]"
        },
        {
          "name": "resolvers",
          "type": "address[]"
        }
      ],
      "name": "createIdentity",
      "outputs": [
        {
          "name": "ein",
          "type": "uint256"
        }
      ],
      "payable": false,
      "stateMutability": "nonpayable",
      "type": "function",
      "signature": "0x268e8970"
    },
    {
      "constant": false,
      "inputs": [
        {
          "name": "approvingAddress",
          "type": "address"
        },
        {
          "name": "addressToAdd",
          "type": "address"
        },
        {
          "name": "v",
          "type": "uint8[2]"
        },
        {
          "name": "r",
          "type": "bytes32[2]"
        },
        {
          "name": "s",
          "type": "bytes32[2]"
        },
        {
          "name": "timestamp",
          "type": "uint256[2]"
        }
      ],
      "name": "addAssociatedAddressDelegated",
      "outputs": [],
      "payable": false,
      "stateMutability": "nonpayable",
      "type": "function",
      "signature": "0xab5f6781"
    },
    {
      "constant": false,
      "inputs": [
        {
          "name": "approvingAddress",
          "type": "address"
        },
        {
          "name": "addressToAdd",
          "type": "address"
        },
        {
          "name": "v",
          "type": "uint8"
        },
        {
          "name": "r",
          "type": "bytes32"
        },
        {
          "name": "s",
          "type": "bytes32"
        },
        {
          "name": "timestamp",
          "type": "uint256"
        }
      ],
      "name": "addAssociatedAddress",
      "outputs": [],
      "payable": false,
      "stateMutability": "nonpayable",
      "type": "function",
      "signature": "0x3aedf3c9"
    },
    {
      "constant": false,
      "inputs": [
        {
          "name": "addressToRemove",
          "type": "address"
        },
        {
          "name": "v",
          "type": "uint8"
        },
        {
          "name": "r",
          "type": "bytes32"
        },
        {
          "name": "s",
          "type": "bytes32"
        },
        {
          "name": "timestamp",
          "type": "uint256"
        }
      ],
      "name": "removeAssociatedAddressDelegated",
      "outputs": [],
      "payable": false,
      "stateMutability": "nonpayable",
      "type": "function",
      "signature": "0xdd9ad9ed"
    },
    {
      "constant": false,
      "inputs": [],
      "name": "removeAssociatedAddress",
      "outputs": [],
      "payable": false,
      "stateMutability": "nonpayable",
      "type": "function",
      "signature": "0x3b4656a1"
    },
    {
      "constant": false,
      "inputs": [
        {
          "name": "ein",
          "type": "uint256"
        },
        {
          "name": "providers",
          "type": "address[]"
        }
      ],
      "name": "addProvidersFor",
      "outputs": [],
      "payable": false,
      "stateMutability": "nonpayable",
      "type": "function",
      "signature": "0x960b11f5"
    },
    {
      "constant": false,
      "inputs": [
        {
          "name": "providers",
          "type": "address[]"
        }
      ],
      "name": "addProviders",
      "outputs": [],
      "payable": false,
      "stateMutability": "nonpayable",
      "type": "function",
      "signature": "0x7d079951"
    },
    {
      "constant": false,
      "inputs": [
        {
          "name": "ein",
          "type": "uint256"
        },
        {
          "name": "providers",
          "type": "address[]"
        }
      ],
      "name": "removeProvidersFor",
      "outputs": [],
      "payable": false,
      "stateMutability": "nonpayable",
      "type": "function",
      "signature": "0x06c93c36"
    },
    {
      "constant": false,
      "inputs": [
        {
          "name": "providers",
          "type": "address[]"
        }
      ],
      "name": "removeProviders",
      "outputs": [],
      "payable": false,
      "stateMutability": "nonpayable",
      "type": "function",
      "signature": "0x232e7d83"
    },
    {
      "constant": false,
      "inputs": [
        {
          "name": "ein",
          "type": "uint256"
        },
        {
          "name": "resolvers",
          "type": "address[]"
        }
      ],
      "name": "addResolversFor",
      "outputs": [],
      "payable": false,
      "stateMutability": "nonpayable",
      "type": "function",
      "signature": "0x010887dc"
    },
    {
      "constant": false,
      "inputs": [
        {
          "name": "resolvers",
          "type": "address[]"
        }
      ],
      "name": "addResolvers",
      "outputs": [],
      "payable": false,
      "stateMutability": "nonpayable",
      "type": "function",
      "signature": "0xe846fd91"
    },
    {
      "constant": false,
      "inputs": [
        {
          "name": "ein",
          "type": "uint256"
        },
        {
          "name": "resolvers",
          "type": "address[]"
        }
      ],
      "name": "removeResolversFor",
      "outputs": [],
      "payable": false,
      "stateMutability": "nonpayable",
      "type": "function",
      "signature": "0x5726f660"
    },
    {
      "constant": false,
      "inputs": [
        {
          "name": "resolvers",
          "type": "address[]"
        }
      ],
      "name": "removeResolvers",
      "outputs": [],
      "payable": false,
      "stateMutability": "nonpayable",
      "type": "function",
      "signature": "0xb8a5c2a6"
    },
    {
      "constant": false,
      "inputs": [
        {
          "name": "ein",
          "type": "uint256"
        },
        {
          "name": "newRecoveryAddress",
          "type": "address"
        }
      ],
      "name": "triggerRecoveryAddressChangeFor",
      "outputs": [],
      "payable": false,
      "stateMutability": "nonpayable",
      "type": "function",
      "signature": "0x2501faa5"
    },
    {
      "constant": false,
      "inputs": [
        {
          "name": "newRecoveryAddress",
          "type": "address"
        }
      ],
      "name": "triggerRecoveryAddressChange",
      "outputs": [],
      "payable": false,
      "stateMutability": "nonpayable",
      "type": "function",
      "signature": "0x1bfe3508"
    },
    {
      "constant": false,
      "inputs": [
        {
          "name": "ein",
          "type": "uint256"
        },
        {
          "name": "newAssociatedAddress",
          "type": "address"
        },
        {
          "name": "v",
          "type": "uint8"
        },
        {
          "name": "r",
          "type": "bytes32"
        },
        {
          "name": "s",
          "type": "bytes32"
        },
        {
          "name": "timestamp",
          "type": "uint256"
        }
      ],
      "name": "triggerRecovery",
      "outputs": [],
      "payable": false,
      "stateMutability": "nonpayable",
      "type": "function",
      "signature": "0x8e1bb633"
    },
    {
      "constant": false,
      "inputs": [
        {
          "name": "ein",
          "type": "uint256"
        },
        {
          "name": "firstChunk",
          "type": "address[]"
        },
        {
          "name": "lastChunk",
          "type": "address[]"
        },
        {
          "name": "resetResolvers",
          "type": "bool"
        }
      ],
      "name": "triggerDestruction",
      "outputs": [],
      "payable": false,
      "stateMutability": "nonpayable",
      "type": "function",
      "signature": "0xfa57b576"
    }
  ],
  "bytecode": "0x608060405260016002556032600355620151806004556212750060075534801561002857600080fd5b506138f7806100386000396000f3fe608060405234801561001057600080fd5b50600436106101de5760003560e060020a900480635b5aed3a11610108578063a687662d116100a6578063d4b1cdcc11610075578063d4b1cdcc14610d2a578063dd9ad9ed14610d56578063e846fd9114610d97578063fa57b57614610e3a576101de565b8063a687662d14610b73578063ab5f678114610b9f578063ab9a853814610c7f578063b8a5c2a614610c87576101de565b80638677ebe8116100e25780638677ebe814610a395780638e1bb63314610a7a578063960b11f514610ac1578063a1707e7b14610b6b576101de565b80635b5aed3a146108655780637d0799511461088257806385e3f05814610925576101de565b8063237f1a21116101805780633b4656a11161014f5780633b4656a11461077f57806353a9698a146107875780635437b67c146107b35780635726f660146107bb576101de565b8063237f1a21146105975780632501faa5146105d1578063268e8970146105fd5780633aedf3c914610734576101de565b806314d8b821116101bc57806314d8b8211461037157806314fb5646146103795780631bfe3508146104ce578063232e7d83146104f4576101de565b8063010887dc146101e357806305c62c2f1461028f57806306c93c36146102c7575b600080fd5b61028d600480360360408110156101f957600080fd5b8135919081019060408101602082013564010000000081111561021b57600080fd5b82018360208201111561022d57600080fd5b8035906020019184602083028401116401000000008311171561024f57600080fd5b919080806020026020016040519081016040528093929190818152602001838360200280828437600092019190915250929550610f6a945050505050565b005b6102b5600480360360208110156102a557600080fd5b5035600160a060020a0316610fc6565b60408051918252519081900360200190f35b61028d600480360360408110156102dd57600080fd5b813591908101906040810160208201356401000000008111156102ff57600080fd5b82018360208201111561031157600080fd5b8035906020019184602083028401116401000000008311171561033357600080fd5b9190808060200260200160405190810160405280939291908181526020018383602002808284376000920191909152509295506110c4945050505050565b6102b561111b565b6102b5600480360361010081101561039057600080fd5b600160a060020a0382358116926020810135909116918101906060810160408201356401000000008111156103c457600080fd5b8201836020820111156103d657600080fd5b803590602001918460208302840111640100000000831117156103f857600080fd5b919080806020026020016040519081016040528093929190818152602001838360200280828437600092019190915250929594936020810193503591505064010000000081111561044857600080fd5b82018360208201111561045a57600080fd5b8035906020019184602083028401116401000000008311171561047c57600080fd5b9190808060200260200160405190810160405280939291908181526020018383602002808284376000920191909152509295505060ff8335169350505060208101359060408101359060600135611121565b61028d600480360360208110156104e457600080fd5b5035600160a060020a0316611307565b61028d6004803603602081101561050a57600080fd5b81019060208101813564010000000081111561052557600080fd5b82018360208201111561053757600080fd5b8035906020019184602083028401116401000000008311171561055957600080fd5b91908080602002602001604051908101604052809392919081815260200183836020028082843760009201919091525092955061131e945050505050565b6105bd600480360360208110156105ad57600080fd5b5035600160a060020a0316611332565b604080519115158252519081900360200190f35b61028d600480360360408110156105e757600080fd5b5080359060200135600160a060020a031661135a565b6102b56004803603606081101561061357600080fd5b600160a060020a03823516919081019060408101602082013564010000000081111561063e57600080fd5b82018360208201111561065057600080fd5b8035906020019184602083028401116401000000008311171561067257600080fd5b91908080602002602001604051908101604052809392919081815260200183836020028082843760009201919091525092959493602081019350359150506401000000008111156106c257600080fd5b8201836020820111156106d457600080fd5b803590602001918460208302840111640100000000831117156106f657600080fd5b9190808060200260200160405190810160405280939291908181526020018383602002808284376000920191909152509295506113b1945050505050565b61028d600480360360c081101561074a57600080fd5b50600160a060020a03813581169160208101359091169060ff6040820135169060608101359060808101359060a001356113c9565b61028d611689565b6105bd6004803603604081101561079d57600080fd5b5080359060200135600160a060020a03166116e1565b6102b561179a565b61028d600480360360408110156107d157600080fd5b813591908101906040810160208201356401000000008111156107f357600080fd5b82018360208201111561080557600080fd5b8035906020019184602083028401116401000000008311171561082757600080fd5b9190808060200260200160405190810160405280939291908181526020018383602002808284376000920191909152509295506117a0945050505050565b6105bd6004803603602081101561087b57600080fd5b50356117f7565b61028d6004803603602081101561089857600080fd5b8101906020810181356401000000008111156108b357600080fd5b8201836020820111156108c557600080fd5b803590602001918460208302840111640100000000831117156108e757600080fd5b91908080602002602001604051908101604052809392919081815260200183836020028082843760009201919091525092955061180c945050505050565b6109426004803603602081101561093b57600080fd5b5035611820565b6040518085600160a060020a0316600160a060020a03168152602001806020018060200180602001848103845287818151815260200191508051906020019060200280838360005b838110156109a257818101518382015260200161098a565b50505050905001848103835286818151815260200191508051906020019060200280838360005b838110156109e15781810151838201526020016109c9565b50505050905001848103825285818151815260200191508051906020019060200280838360005b83811015610a20578181015183820152602001610a08565b5050505090500197505050505050505060405180910390f35b6105bd600480360360a0811015610a4f57600080fd5b50600160a060020a038135169060208101359060ff60408201351690606081013590608001356119d5565b61028d600480360360c0811015610a9057600080fd5b50803590600160a060020a036020820135169060ff6040820135169060608101359060808101359060a00135611a01565b61028d60048036036040811015610ad757600080fd5b81359190810190604081016020820135640100000000811115610af957600080fd5b820183602082011115610b0b57600080fd5b80359060200191846020830284011164010000000083111715610b2d57600080fd5b919080806020026020016040519081016040528093929190818152602001838360200280828437600092019190915250929550611efd945050505050565b6102b5611f54565b6105bd60048036036040811015610b8957600080fd5b5080359060200135600160a060020a0316611f5a565b61028d6004803603610140811015610bb657600080fd5b604080518082018252600160a060020a03843581169460208101359091169381019290916080830191808401906002908390839080828437600092019190915250506040805180820182529295949381810193925090600290839083908082843760009201919091525050604080518082018252929594938181019392509060029083908390808284376000920191909152505060408051808201825292959493818101939250906002908390839080828437600092019190915250919450611fe09350505050565b6102b561231e565b61028d60048036036020811015610c9d57600080fd5b810190602081018135640100000000811115610cb857600080fd5b820183602082011115610cca57600080fd5b80359060200191846020830284011164010000000083111715610cec57600080fd5b919080806020026020016040519081016040528093929190818152602001838360200280828437600092019190915250929550612324945050505050565b6105bd60048036036040811015610d4057600080fd5b5080359060200135600160a060020a0316612338565b61028d600480360360a0811015610d6c57600080fd5b50600160a060020a038135169060ff60208201351690604081013590606081013590608001356123be565b61028d60048036036020811015610dad57600080fd5b810190602081018135640100000000811115610dc857600080fd5b820183602082011115610dda57600080fd5b80359060200191846020830284011164010000000083111715610dfc57600080fd5b919080806020026020016040519081016040528093929190818152602001838360200280828437600092019190915250929550612559945050505050565b61028d60048036036080811015610e5057600080fd5b81359190810190604081016020820135640100000000811115610e7257600080fd5b820183602082011115610e8457600080fd5b80359060200191846020830284011164010000000083111715610ea657600080fd5b9190808060200260200160405190810160405280939291908181526020018383602002808284376000920191909152509295949360208101935035915050640100000000811115610ef657600080fd5b820183602082011115610f0857600080fd5b80359060200191846020830284011164010000000083111715610f2a57600080fd5b919080806020026020016040519081016040528093929190818152602001838360200280828437600092019190915250929550505050351515905061256d565b81610f7581336116e1565b1515610fb55760405160e560020a62461bcd02815260040180806020018281038252602d81526020018061369e602d913960400191505060405180910390fd5b610fc1838360016127b6565b505050565b600081600180610fd583611332565b15151481610ffc576060604051908101604052806032815260200161380760329139611017565b60606040519081016040528060388152602001613839603891395b9015156110a55760405160e560020a62461bcd0281526004018080602001828103825283818151815260200191508051906020019080838360005b8381101561106a578181015183820152602001611052565b50505050905090810190601f1680156110975780820380516001836020036101000a031916815260200191505b509250505060405180910390fd5b50505050600160a060020a031660009081526001602052604090205490565b816110cf81336116e1565b151561110f5760405160e560020a62461bcd02815260040180806020018281038252602d81526020018061369e602d913960400191505060405180910390fd5b610fc1838360016128e9565b60075481565b6000818042101580156111375750600454810142105b151561117b576040805160e560020a62461bcd0281526020600482015260176024820152600080516020613701833981519152604482015290519081900360640190fd5b6112a789601960f860020a02600060f860020a02308e8e8e8e8b6040516020018089600160f860020a031916600160f860020a031916815260010188600160f860020a031916600160f860020a031916815260010187600160a060020a0316600160a060020a0316606060020a0281526014018061372160359139606060020a600160a060020a038089168202603584015287160260498201528451605d909101906020808701910280838360005b8381101561124257818101518382015260200161122a565b50505050905001838051906020019060200280838360005b8381101561127257818101518382015260200161125a565b5050505090500182815260200198505050505050505050604051602081830303815290604052805190602001208888886119d5565b15156112eb576040805160e560020a62461bcd0281526020600482015260126024820152600080516020613625833981519152604482015290519081900360640190fd5b6112f98a8a8a8a6001612a15565b9a9950505050505050505050565b61131b61131333610fc6565b826000612c2a565b50565b61131b61132a33610fc6565b8260006128e9565b600160a060020a038116600090815260016020526040812054611354906117f7565b92915050565b8161136581336116e1565b15156113a55760405160e560020a62461bcd02815260040180806020018281038252602d81526020018061369e602d913960400191505060405180910390fd5b610fc183836001612c2a565b60006113c1843385856000612a15565b949350505050565b808042101580156113dd5750600454810142105b1515611421576040805160e560020a62461bcd0281526020600482015260176024820152600080516020613701833981519152604482015290519081900360640190fd5b33600160a060020a038816148080611441575033600160a060020a038816145b15156114815760405160e560020a62461bcd02815260040180806020018281038252603281526020018061389a6032913960400191505060405180910390fd5b600061148c89610fc6565b90506115e28261149c578961149e565b885b60f860020a601902600030866114cd57606060405190810160405280602f815260200161357f602f91396114e8565b60606040519081016040528060298152602001613871602991395b868e8b6040516020018088600160f860020a031916600160f860020a031916815260010187600160f860020a031916600160f860020a031916815260010186600160a060020a0316600160a060020a0316606060020a02815260140185805190602001908083835b6020831061156f5780518252601f199092019160209182019101611550565b6001836020036101000a03801982511681845116808217855250505050505090500184815260200183600160a060020a0316600160a060020a0316606060020a028152601401828152602001975050505050505050604051602081830303815290604052805190602001208989896119d5565b1515611626576040805160e560020a62461bcd0281526020600482015260126024820152600080516020613625833981519152604482015290519081900360640190fd5b6116308189612d57565b60408051600160a060020a038b811682528a1660208201526000818301529051829133917f1e0c87f4d9edce88868577315152d327d02ff25d2cb9384cd6ee609a9f56b64e9181900360600190a3505050505050505050565b600061169433610fc6565b90506116a08133612fb5565b6040805133808252600060208301528251849391927f04095b6a64a9a32bafa887e731a82f91cdec3bf819389deea6aa34a488034f7d92908290030190a350565b60008281526020818152604080832081517f3412d5f200000000000000000000000000000000000000000000000000000000815260039091016004820152600160a060020a0385166024820152905173__AddressSet____________________________92633412d5f29260448082019391829003018186803b15801561176757600080fd5b505af415801561177b573d6000803e3d6000fd5b505050506040513d602081101561179157600080fd5b50519392505050565b60045481565b816117ab81336116e1565b15156117eb5760405160e560020a62461bcd02815260040180806020018281038252602d81526020018061369e602d913960400191505060405180910390fd5b610fc18383600161306e565b60006002548210801561135457505060001090565b61131b61181833610fc6565b82600061319a565b6000606080606084611831816117f7565b1515611887576040805160e560020a62461bcd02815260206004820152601c60248201527f546865206964656e7469747920646f6573206e6f742065786973742e00000000604482015290519081900360640190fd5b6000868152602081815260409182902080546001820180548551818602810186019096528086529294600160a060020a03909216939092600386019260058701929091859183018282801561190557602002820191906000526020600020905b8154600160a060020a031681526001909101906020018083116118e7575b505050505092508180548060200260200160405190810160405280929190818152602001828054801561196157602002820191906000526020600020905b8154600160a060020a03168152600190910190602001808311611943575b50505050509150808054806020026020016040519081016040528092919081815260200182805480156119bd57602002820191906000526020600020905b8154600160a060020a0316815260019091019060200180831161199f575b50505050509050955095509550955050509193509193565b60006119e486868686866132c6565b806119f757506119f7868686868661334e565b9695505050505050565b85611a0b816117f7565b1515611a61576040805160e560020a62461bcd02815260206004820152601c60248201527f546865206964656e7469747920646f6573206e6f742065786973742e00000000604482015290519081900360640190fd5b85600080611a6e83611332565b15151481611a95576060604051908101604052806032815260200161380760329139611ab0565b60606040519081016040528060388152602001613839603891395b901515611b025760405160e560020a62461bcd0281526004018080602001828103825283818151815260200191508051906020019080838360008381101561106a578181015183820152602001611052565b5083804210158015611b175750600454810142105b1515611b5b576040805160e560020a62461bcd0281526020600482015260176024820152600080516020613701833981519152604482015290519081900360640190fd5b611b648a613409565b1515611bba576040805160e560020a62461bcd02815260206004820152601c60248201527f43616e6e6f742074726967676572207265636f76657279207965742e00000000604482015290519081900360640190fd5b60008a8152602081905260409020611bd18b613422565b15611c26578054600160a060020a03163314611c215760405160e560020a62461bcd0281526004018080602001828103825260378152602001806135ae6037913960400191505060405180910390fd5b611c81565b60008b815260056020526040902060010154600160a060020a03163314611c815760405160e560020a62461bcd0281526004018080602001828103825260408152602001806135e56040913960400191505060405180910390fd5b611d4d8a601960f860020a02600060f860020a02308f8f8c6040516020018087600160f860020a031916600160f860020a031916815260010186600160f860020a031916600160f860020a031916815260010185600160a060020a0316600160a060020a0316606060020a028152601401806136cb6036913960360184815260200183600160a060020a0316600160a060020a0316606060020a0281526014018281526020019650505050505050604051602081830303815290604052805190602001208b8b8b6119d5565b1515611d91576040805160e560020a62461bcd0281526020600482015260126024820152600080516020613625833981519152604482015290519081900360640190fd5b604080519081016040528042815260200182600101600001604051602001808280548015611de857602002820191906000526020600020905b8154600160a060020a03168152600190910190602001808311611dca575b505091505060405160208183030381529060405280519060200120815250600660008d815260200190815260200160002060008201518160000155602082015181600101559050508a33600160a060020a03167f2fe95fbd211d0471c596b1f81d913d1389d5d1ddeb2bdd96143acc651aa3b02e836001016000018d604051808060200183600160a060020a0316600160a060020a031681526020018281038252848181548152602001915080548015611ecb57602002820191906000526020600020905b8154600160a060020a03168152600190910190602001808311611ead575b5050935050505060405180910390a3611ee68133600061343b565b611ef08b8b612d57565b5050505050505050505050565b81611f0881336116e1565b1515611f485760405160e560020a62461bcd02815260040180806020018281038252602d81526020018061369e602d913960400191505060405180910390fd5b610fc18383600161319a565b60025481565b60008281526020818152604080832081517f3412d5f200000000000000000000000000000000000000000000000000000000815260019091016004820152600160a060020a0385166024820152905173__AddressSet____________________________92633412d5f29260448082019391829003018186803b15801561176757600080fd5b8051428111801590611ff55750600454810142105b1515612039576040805160e560020a62461bcd0281526020600482015260176024820152600080516020613701833981519152604482015290519081900360640190fd5b60208201514281118015906120515750600454810142105b1515612095576040805160e560020a62461bcd0281526020600482015260176024820152600080516020613701833981519152604482015290519081900360640190fd5b60006120a089610fc6565b90506121848960f860020a601902600030858d8a84602090810291909101516040517fff0000000000000000000000000000000000000000000000000000000000000080891693820193845287166021820152606060020a600160a060020a038716026022820152909190603601602f61357f8239602f0184815260200183600160a060020a0316600160a060020a0316606060020a02815260140182815260200196505050505050506040516020818303038152906040528051906020012089600060028110151561216f57fe5b602002015189518960005b60200201516119d5565b15156121c45760405160e560020a62461bcd0281526004018080602001828103825260298152602001806137566029913960400191505060405180910390fd5b60208481015160405160f860020a60190292810183815260006021830181905230606060020a8102602285015261227b958e9590949293919288928792916036016029613871823960290184815260200183600160a060020a0316600160a060020a0316606060020a02815260140182815260200196505050505050506040516020818303038152906040528051906020012089600160028110151561226657fe5b6020020151896001602002015189600161217a565b15156122bb5760405160e560020a62461bcd0281526004018080602001828103825260268152602001806136456026913960400191505060405180910390fd5b6122c58189612d57565b60408051600160a060020a038b811682528a1660208201526001818301529051829133917f1e0c87f4d9edce88868577315152d327d02ff25d2cb9384cd6ee609a9f56b64e9181900360600190a3505050505050505050565b60035481565b61131b61233033610fc6565b82600161306e565b60008281526020818152604080832081517f3412d5f200000000000000000000000000000000000000000000000000000000815260059091016004820152600160a060020a0385166024820152905173__AddressSet____________________________92633412d5f29260448082019391829003018186803b15801561176757600080fd5b808042101580156123d25750600454810142105b1515612416576040805160e560020a62461bcd0281526020600482015260176024820152600080516020613701833981519152604482015290519081900360640190fd5b600061242187610fc6565b60405160f860020a6019026020820181815260006021840181905230606060020a810260228601529495506124ba948c9491929091879186918b9190603601603361366b823960330184815260200183600160a060020a0316600160a060020a0316606060020a0281526014018281526020019650505050505050604051602081830303815290604052805190602001208888886119d5565b15156124fe576040805160e560020a62461bcd0281526020600482015260126024820152600080516020613625833981519152604482015290519081900360640190fd5b6125088188612fb5565b60408051600160a060020a0389168152600160208201528151839233927f04095b6a64a9a32bafa887e731a82f91cdec3bf819389deea6aa34a488034f7d929081900390910190a350505050505050565b61131b61256533610fc6565b8260006127b6565b83612577816117f7565b15156125cd576040805160e560020a62461bcd02815260206004820152601c60248201527f546865206964656e7469747920646f6573206e6f742065786973742e00000000604482015290519081900360640190fd5b6125d685613409565b156126155760405160e560020a62461bcd02815260040180806020018281038252602981526020018061377f6029913960400191505060405180910390fd5b600085815260208190526040902061262b6134f5565b60206040519081016040528033600160a060020a0316600160a060020a03168152509050600660008881526020019081526020016000206001015486828760405160200180848051906020019060200280838360005b83811015612699578181015183820152602001612681565b5050505090500183600160200280838360005b838110156126c45781810151838201526020016126ac565b50505050905001828051906020019060200280838360005b838110156126f45781810151838201526020016126dc565b505050509050019350505050604051602081830303815290604052805190602001201415156127575760405160e560020a62461bcd02815260040180806020018281038252605f8152602001806137a8605f913960600191505060405180910390fd5b815460408051600160a060020a03909216825285151560208301528051899233927f1807cc67f627d55c0a797a6c603fa124978caf5bb45c1748329489fd0185b9ef92918290030190a36127ad8260008661343b565b50505050505050565b6000838152602081905260408120905b83518110156128e2578160050173__AddressSet____________________________63989779e9909186848151811015156127fd57fe5b906020019060200201516040518363ffffffff1660e060020a0281526004018083815260200182600160a060020a0316600160a060020a031681526020019250505060006040518083038186803b15801561285757600080fd5b505af415801561286b573d6000803e3d6000fd5b505050508433600160a060020a03167f8d2c0379f93ea94639b25aaf145689b0db73ba107f5b9972bbd6238d7b0440ac86848151811015156128a957fe5b602090810290910181015160408051600160a060020a0390921682528815159282019290925281519081900390910190a36001016127c6565b5050505050565b6000838152602081905260408120905b83518110156128e2578160030173__AddressSet____________________________638c9d1e419091868481518110151561293057fe5b906020019060200201516040518363ffffffff1660e060020a0281526004018083815260200182600160a060020a0316600160a060020a031681526020019250505060006040518083038186803b15801561298a57600080fd5b505af415801561299e573d6000803e3d6000fd5b505050508433600160a060020a03167fe41b11c1b8e658dea501b4a432bd3f7b3e6db83ef57ac16c52e5f288edeffec486848151811015156129dc57fe5b602090810290910181015160408051600160a060020a0390921682528815159282019290925281519081900390910190a36001016128f9565b6000848180612a2383611332565b15151481612a4a576060604051908101604052806032815260200161380760329139612a65565b60606040519081016040528060388152602001613839603891395b901515612ab75760405160e560020a62461bcd0281526004018080602001828103825283818151815260200191508051906020019080838360008381101561106a578181015183820152602001611052565b5060028054600181019091556000818152602081905260409020805473ffffffffffffffffffffffffffffffffffffffff1916600160a060020a038b16178155612b01828a612d57565b612b0c82898861319a565b612b178288886127b6565b8133600160a060020a03167fe541733a4670852051762d3cdb7d9123bea21d01e252aa39ca403c8d0f5ab66c8c8c8c8c8c6040518086600160a060020a0316600160a060020a0316815260200185600160a060020a0316600160a060020a03168152602001806020018060200184151515158152602001838103835286818151815260200191508051906020019060200280838360005b83811015612bc6578181015183820152602001612bae565b50505050905001838103825285818151815260200191508051906020019060200280838360005b83811015612c05578181015183820152602001612bed565b5050505090500197505050505050505060405180910390a35098975050505050505050565b6000838152602081905260409020612c4184613422565b1515612c815760405160e560020a62461bcd02815260040180806020018281038252603081526020018061354f6030913960400191505060405180910390fd5b6040805180820182524281528254600160a060020a0390811660208084019182526000898152600582528590209351845590516001909301805473ffffffffffffffffffffffffffffffffffffffff19169383169390931790925583548351908216815290861691810191909152831515818301529051859133917fd9d54f9caf1bb2f4f815d22df297e7b73291ee08a95df2d47b0b03378ebe7c5d916060908290030190a3805473ffffffffffffffffffffffffffffffffffffffff1916600160a060020a0393909316929092179091555050565b80600080612d6483611332565b15151481612d8b576060604051908101604052806032815260200161380760329139612da6565b60606040519081016040528060388152602001613839603891395b901515612df85760405160e560020a62461bcd0281526004018080602001828103825283818151815260200191508051906020019080838360008381101561106a578181015183820152602001611052565b506003546000858152602081815260409182902082517fc6756c7300000000000000000000000000000000000000000000000000000000815260019091016004820152915173__AddressSet____________________________9263c6756c73926024808301939192829003018186803b158015612e7557600080fd5b505af4158015612e89573d6000803e3d6000fd5b505050506040513d6020811015612e9f57600080fd5b505110612ef6576040805160e560020a62461bcd02815260206004820152601360248201527f546f6f206d616e79206164647265737365732e00000000000000000000000000604482015290519081900360640190fd5b60008481526020819052604080822081517f989779e900000000000000000000000000000000000000000000000000000000815260019091016004820152600160a060020a0386166024820152905173__AddressSet____________________________9263989779e99260448082019391829003018186803b158015612f7c57600080fd5b505af4158015612f90573d6000803e3d6000fd5b505050600160a060020a03909316600090815260016020526040902093909355505050565b60008281526020819052604080822081517f8c9d1e4100000000000000000000000000000000000000000000000000000000815260019091016004820152600160a060020a0384166024820152905173__AddressSet____________________________92638c9d1e419260448082019391829003018186803b15801561303b57600080fd5b505af415801561304f573d6000803e3d6000fd5b50505050600160a060020a031660009081526001602052604081205550565b6000838152602081905260408120905b83518110156128e2578160050173__AddressSet____________________________638c9d1e41909186848151811015156130b557fe5b906020019060200201516040518363ffffffff1660e060020a0281526004018083815260200182600160a060020a0316600160a060020a031681526020019250505060006040518083038186803b15801561310f57600080fd5b505af4158015613123573d6000803e3d6000fd5b505050508433600160a060020a03167f35f17668a4aadc48b2952cd27f0c5017b357497a1f20cedf4713d91d019a63a8868481518110151561316157fe5b602090810290910181015160408051600160a060020a0390921682528815159282019290925281519081900390910190a360010161307e565b6000838152602081905260408120905b83518110156128e2578160030173__AddressSet____________________________63989779e9909186848151811015156131e157fe5b906020019060200201516040518363ffffffff1660e060020a0281526004018083815260200182600160a060020a0316600160a060020a031681526020019250505060006040518083038186803b15801561323b57600080fd5b505af415801561324f573d6000803e3d6000fd5b505050508433600160a060020a03167fd2af86288d6ec28d93c5459bdc5a21da89b340c28ad430327e40139c1178986f868481518110151561328d57fe5b602090810290910181015160408051600160a060020a0390921682528815159282019290925281519081900390910190a36001016131aa565b600085600160a060020a031660018686868660405160008152602001604052604051808581526020018460ff1660ff1681526020018381526020018281526020019450505050506020604051602081039080840390855afa15801561332f573d6000803e3d6000fd5b50505060206040510351600160a060020a031614905095945050505050565b604080518082018252601c8082527f19457468657265756d205369676e6564204d6573736167653a0a333200000000602080840191825293516000946133fe938b9386938c9301918291908083835b602083106133bc5780518252601f19909201916020918201910161339d565b51815160209384036101000a600019018019909216911617905292019384525060408051808503815293820190528251920191909120915088905087876132c6565b979650505050505050565b6007546000918252600660205260409091205401421190565b6007546000918252600560205260409091205401421190565b60005b600184015481101561348c5760018481018054600091908490811061345f57fe5b6000918252602080832090910154600160a060020a0316835282019290925260400181205560010161343e565b5060018301600061349d8282613514565b50506003830160006134af8282613514565b505080156134ca576005830160006134c78282613514565b50505b50815473ffffffffffffffffffffffffffffffffffffffff1916600160a060020a0391909116179055565b6020604051908101604052806001906020820280388339509192915050565b508054600082559060005260206000209081019061131b919061354b91905b808211156135475760008155600101613533565b5090565b9056fe43616e6e6f7420747269676765722061206368616e676520696e207265636f766572792061646472657373207965742e4920617574686f72697a6520616464696e672074686973206164647265737320746f206d79204964656e746974792e4f6e6c79207468652063757272656e74207265636f7665727920616464726573732063616e2074726967676572207265636f766572792e4f6e6c792074686520726563656e746c792072656d6f766564207265636f7665727920616464726573732063616e2074726967676572207265636f766572792e5065726d697373696f6e2064656e6965642e00000000000000000000000000005065726d697373696f6e2064656e6965642066726f6d206164647265737320746f206164642e4920617574686f72697a652072656d6f76696e67207468697320616464726573732066726f6d206d79204964656e746974792e546865206964656e7469747920686173206e6f742073657420746865207061737365642070726f76696465722e4920617574686f72697a65206265696e6720616464656420746f2074686973204964656e7469747920766961207265636f766572792e54696d657374616d70206973206e6f742076616c69642e0000000000000000004920617574686f72697a6520746865206372656174696f6e206f6620616e204964656e74697479206f6e206d7920626568616c662e5065726d697373696f6e2064656e6965642066726f6d20617070726f76696e6720616464726573732e5265636f7665727920686173206e6f7420726563656e746c79206265656e207472696767657265642e43616e6e6f742064657374726f7920616e2045494e2066726f6d20616e2061646472657373207468617420776173206e6f7420726563656e746c792072656d6f7665642066726f6d20736169642045494e20766961207265636f766572792e5468652070617373656420616464726573732068617320616e206964656e74697479206275742073686f756c64206e6f742e54686520706173736564206164647265737320646f6573206e6f74206861766520616e206964656e74697479206275742073686f756c642e4920617574686f72697a65206265696e6720616464656420746f2074686973204964656e746974792e4f6e65206f7220626f7468206f6620746865207061737365642061646472657373657320617265206d616c666f726d65642ea165627a7a7230582095639e99124082622d7e495eb6edd3007cd18239d5173c074cf4835a7a59fd140029",
  "source": "pragma solidity ^0.5.0;\r\n\r\nimport \"./SignatureVerifier.sol\";\r\nimport \"./AddressSet/AddressSet.sol\";\r\n\r\n/// @title The ERC-1484 Identity Registry.\r\n/// @author Noah Zinsmeister\r\n/// @author Andy Chorlian\r\ncontract IdentityRegistry is SignatureVerifier {\r\n    using AddressSet for AddressSet.Set;\r\n\r\n\r\n    // Identity Data Structure and Parameters //////////////////////////////////////////////////////////////////////////\r\n\r\n    struct Identity {\r\n        address recoveryAddress;\r\n        AddressSet.Set associatedAddresses;\r\n        AddressSet.Set providers;\r\n        AddressSet.Set resolvers;\r\n    }\r\n\r\n    mapping (uint => Identity) private identityDirectory;\r\n    mapping (address => uint) private associatedAddressDirectory;\r\n\r\n    uint public nextEIN = 1;\r\n    uint public maxAssociatedAddresses = 50;\r\n\r\n\r\n    // Signature Timeout ///////////////////////////////////////////////////////////////////////////////////////////////\r\n\r\n    uint public signatureTimeout = 1 days;\r\n\r\n    /// @dev Enforces that the passed timestamp is within signatureTimeout seconds of now.\r\n    /// @param timestamp The timestamp to check the validity of.\r\n    modifier ensureSignatureTimeValid(uint timestamp) {\r\n        require(\r\n            // solium-disable-next-line security/no-block-members\r\n            block.timestamp >= timestamp && block.timestamp < timestamp + signatureTimeout, \"Timestamp is not valid.\"\r\n        );\r\n        _;\r\n    }\r\n\r\n\r\n    // Recovery Address Change Logging /////////////////////////////////////////////////////////////////////////////////\r\n\r\n    struct RecoveryAddressChange {\r\n        uint timestamp;\r\n        address oldRecoveryAddress;\r\n    }\r\n\r\n    mapping (uint => RecoveryAddressChange) private recoveryAddressChangeLogs;\r\n\r\n\r\n    // Recovery Logging ////////////////////////////////////////////////////////////////////////////////////////////////\r\n\r\n    struct Recovery {\r\n        uint timestamp;\r\n        bytes32 hashedOldAssociatedAddresses;\r\n    }\r\n\r\n    mapping (uint => Recovery) private recoveryLogs;\r\n\r\n\r\n    // Recovery Timeout ////////////////////////////////////////////////////////////////////////////////////////////////\r\n\r\n    uint public recoveryTimeout = 2 weeks;\r\n\r\n    /// @dev Checks if the passed EIN has changed their recovery address within recoveryTimeout seconds of now.\r\n    function canChangeRecoveryAddress(uint ein) private view returns (bool) {\r\n        // solium-disable-next-line security/no-block-members\r\n        return block.timestamp > recoveryAddressChangeLogs[ein].timestamp + recoveryTimeout;\r\n    }\r\n\r\n    /// @dev Checks if the passed EIN has recovered within recoveryTimeout seconds of now.\r\n    function canRecover(uint ein) private view returns (bool) {\r\n        // solium-disable-next-line security/no-block-members\r\n        return block.timestamp > recoveryLogs[ein].timestamp + recoveryTimeout;\r\n    }\r\n\r\n\r\n    // Identity View Functions /////////////////////////////////////////////////////////////////////////////////////////\r\n\r\n    /// @notice Checks if the passed EIN exists.\r\n    /// @dev Does not throw.\r\n    /// @param ein The EIN to check the existence of.\r\n    /// @return true if the passed EIN exists, false otherwise.\r\n    function identityExists(uint ein) public view returns (bool) {\r\n        return ein < nextEIN && ein > 0;\r\n    }\r\n\r\n    /// @dev Ensures that the passed EIN exists.\r\n    /// @param ein The EIN to check the existence of.\r\n    modifier _identityExists(uint ein) {\r\n        require(identityExists(ein), \"The identity does not exist.\");\r\n        _;\r\n    }\r\n\r\n    /// @notice Checks if the passed address is associated with an Identity.\r\n    /// @dev Does not throw.\r\n    /// @param _address The address to check.\r\n    /// @return true if the passed address is associated with an Identity, false otherwise.\r\n    function hasIdentity(address _address) public view returns (bool) {\r\n        return identityExists(associatedAddressDirectory[_address]);\r\n    }\r\n\r\n    /// @dev Ensures that the passed address is or is not associated with an Identity.\r\n    /// @param _address The address to check.\r\n    /// @param check If true, ensures that the address has an Identity, if false, vice versa.\r\n    /// @return true if the associated status is equal to check, false otherwise.\r\n    modifier _hasIdentity(address _address, bool check) {\r\n        require(\r\n            hasIdentity(_address) == check,\r\n            check ?\r\n                \"The passed address does not have an identity but should.\" :\r\n                \"The passed address has an identity but should not.\"\r\n        );\r\n        _;\r\n    }\r\n\r\n    /// @notice Gets the EIN associated with the passed address.\r\n    /// @dev Throws if the address is not associated with an Identity.\r\n    /// @param _address The address to check.\r\n    /// @return The associated EIN.\r\n    function getEIN(address _address) public view _hasIdentity(_address, true) returns (uint ein) {\r\n        return associatedAddressDirectory[_address];\r\n    }\r\n\r\n    /// @notice Checks whether the passed EIN is associated with the passed address.\r\n    /// @dev Does not throw.\r\n    /// @param ein The EIN to check.\r\n    /// @param _address The address to check.\r\n    /// @return true if the passed address is associated with the passed EIN, false otherwise.\r\n    function isAssociatedAddressFor(uint ein, address _address) public view returns (bool) {\r\n        return identityDirectory[ein].associatedAddresses.contains(_address);\r\n    }\r\n\r\n    /// @notice Checks whether the passed provider is set for the passed EIN.\r\n    /// @dev Does not throw.\r\n    /// @param ein The EIN to check.\r\n    /// @param provider The provider to check.\r\n    /// @return true if the provider is set for the passed EIN, false otherwise.\r\n    function isProviderFor(uint ein, address provider) public view returns (bool) {\r\n        return identityDirectory[ein].providers.contains(provider);\r\n    }\r\n\r\n    /// @dev Ensures that the msg.sender is a provider for the passed EIN.\r\n    /// @param ein The EIN to check.\r\n    modifier _isProviderFor(uint ein) {\r\n        require(isProviderFor(ein, msg.sender), \"The identity has not set the passed provider.\");\r\n        _;\r\n    }\r\n\r\n    /// @notice Checks whether the passed resolver is set for the passed EIN.\r\n    /// @dev Does not throw.\r\n    /// @param ein The EIN to check.\r\n    /// @param resolver The resolver to check.\r\n    /// @return true if the resolver is set for the passed EIN, false otherwise.\r\n    function isResolverFor(uint ein, address resolver) public view returns (bool) {\r\n        return identityDirectory[ein].resolvers.contains(resolver);\r\n    }\r\n\r\n    /// @notice Gets all identity-related information for the passed EIN.\r\n    /// @dev Throws if the passed EIN does not exist.\r\n    /// @param ein The EIN to get information for.\r\n    /// @return All the information for the Identity denominated by the passed EIN.\r\n    function getIdentity(uint ein) public view _identityExists(ein)\r\n        returns (\r\n            address recoveryAddress,\r\n            address[] memory associatedAddresses, address[] memory providers, address[] memory resolvers\r\n        )\r\n    {\r\n        Identity storage _identity = identityDirectory[ein];\r\n\r\n        return (\r\n            _identity.recoveryAddress,\r\n            _identity.associatedAddresses.members,\r\n            _identity.providers.members,\r\n            _identity.resolvers.members\r\n        );\r\n    }\r\n\r\n\r\n    // Identity Management Functions ///////////////////////////////////////////////////////////////////////////////////\r\n\r\n    /// @notice Create an new Identity for the transaction sender.\r\n    /// @dev Sets the msg.sender as the only associatedAddress.\r\n    /// @param recoveryAddress A recovery address to set for the new Identity.\r\n    /// @param providers A list of providers to set for the new Identity.\r\n    /// @param resolvers A list of resolvers to set for the new Identity.\r\n    /// @return The EIN of the new Identity.\r\n    function createIdentity(address recoveryAddress, address[] memory providers, address[] memory resolvers)\r\n        public returns (uint ein)\r\n    {\r\n        return createIdentity(recoveryAddress, msg.sender, providers, resolvers, false);\r\n    }\r\n\r\n    /// @notice Allows creation of a new Identity for the passed associatedAddress.\r\n    /// @param recoveryAddress A recovery address to set for the new Identity.\r\n    /// @param associatedAddress An associated address to set for the new Identity (must have produced the signature).\r\n    /// @param providers A list of providers to set for the new Identity.\r\n    /// @param resolvers A list of resolvers to set for the new Identity.\r\n    /// @param v The v component of the signature.\r\n    /// @param r The r component of the signature.\r\n    /// @param s The s component of the signature.\r\n    /// @param timestamp The timestamp of the signature.\r\n    /// @return The EIN of the new Identity.\r\n    function createIdentityDelegated(\r\n        address recoveryAddress, address associatedAddress, address[] memory providers, address[] memory resolvers,\r\n        uint8 v, bytes32 r, bytes32 s, uint timestamp\r\n    )\r\n        public ensureSignatureTimeValid(timestamp) returns (uint ein)\r\n    {\r\n        require(\r\n            isSigned(\r\n                associatedAddress,\r\n                keccak256(\r\n                    abi.encodePacked(\r\n                        byte(0x19), byte(0), address(this),\r\n                        \"I authorize the creation of an Identity on my behalf.\",\r\n                        recoveryAddress, associatedAddress, providers, resolvers, timestamp\r\n                    )\r\n                ),\r\n                v, r, s\r\n            ),\r\n            \"Permission denied.\"\r\n        );\r\n\r\n        return createIdentity(recoveryAddress, associatedAddress, providers, resolvers, true);\r\n    }\r\n\r\n    /// @dev Common logic for all identity creation.\r\n    function createIdentity(\r\n        address recoveryAddress,\r\n        address associatedAddress, address[] memory providers, address[] memory resolvers, bool delegated\r\n    )\r\n        private _hasIdentity(associatedAddress, false) returns (uint)\r\n    {\r\n        uint ein = nextEIN++;\r\n        Identity storage _identity = identityDirectory[ein];\r\n\r\n        _identity.recoveryAddress = recoveryAddress;\r\n        addAssociatedAddress(ein, associatedAddress);\r\n        addProviders(ein, providers, delegated);\r\n        addResolvers(ein, resolvers, delegated);\r\n\r\n        emit IdentityCreated(msg.sender, ein, recoveryAddress, associatedAddress, providers, resolvers, delegated);\r\n\r\n        return ein;\r\n    }\r\n\r\n\r\n    /// @notice Allows an associated address to add another associated address to its Identity.\r\n    /// @param approvingAddress An associated address for an Identity.\r\n    /// @param addressToAdd A new address to set for the Identity of the sender.\r\n    /// @param v The v component of the signature.\r\n    /// @param r The r component of the signature.\r\n    /// @param s The s component of the signature.\r\n    /// @param timestamp The timestamp of the signature.\r\n    function addAssociatedAddress(\r\n        address approvingAddress, address addressToAdd, uint8 v, bytes32 r, bytes32 s, uint timestamp\r\n    )\r\n        public ensureSignatureTimeValid(timestamp)\r\n    {\r\n        bool fromApprovingAddress = msg.sender == approvingAddress;\r\n        require(\r\n            fromApprovingAddress || msg.sender == addressToAdd, \"One or both of the passed addresses are malformed.\"\r\n        );\r\n\r\n        uint ein = getEIN(approvingAddress);\r\n\r\n        require(\r\n            isSigned(\r\n                fromApprovingAddress ? addressToAdd : approvingAddress,\r\n                keccak256(\r\n                    abi.encodePacked(\r\n                        byte(0x19), byte(0), address(this),\r\n                        fromApprovingAddress ?\r\n                            \"I authorize being added to this Identity.\" :\r\n                            \"I authorize adding this address to my Identity.\",\r\n                        ein, addressToAdd, timestamp\r\n                    )\r\n                ),\r\n                v, r, s\r\n            ),\r\n            \"Permission denied.\"\r\n        );\r\n\r\n        addAssociatedAddress(ein, addressToAdd);\r\n\r\n        emit AssociatedAddressAdded(msg.sender, ein, approvingAddress, addressToAdd, false);\r\n    }\r\n\r\n    /// @notice Allows addition of an associated address to an Identity.\r\n    /// @dev The first signature must be that of the approvingAddress.\r\n    /// @param approvingAddress An associated address for an Identity.\r\n    /// @param addressToAdd A new address to set for the Identity of approvingAddress.\r\n    /// @param v The v component of the signatures.\r\n    /// @param r The r component of the signatures.\r\n    /// @param s The s component of the signatures.\r\n    /// @param timestamp The timestamp of the signatures.\r\n    function addAssociatedAddressDelegated(\r\n        address approvingAddress, address addressToAdd,\r\n        uint8[2] memory v, bytes32[2] memory r, bytes32[2] memory s, uint[2] memory timestamp\r\n    )\r\n        public ensureSignatureTimeValid(timestamp[0]) ensureSignatureTimeValid(timestamp[1])\r\n    {\r\n        uint ein = getEIN(approvingAddress);\r\n\r\n        require(\r\n            isSigned(\r\n                approvingAddress,\r\n                keccak256(\r\n                    abi.encodePacked(\r\n                        byte(0x19), byte(0), address(this),\r\n                        \"I authorize adding this address to my Identity.\",\r\n                        ein, addressToAdd, timestamp[0]\r\n                    )\r\n                ),\r\n                v[0], r[0], s[0]\r\n            ),\r\n            \"Permission denied from approving address.\"\r\n        );\r\n        require(\r\n            isSigned(\r\n                addressToAdd,\r\n                keccak256(\r\n                    abi.encodePacked(\r\n                        byte(0x19), byte(0), address(this),\r\n                        \"I authorize being added to this Identity.\",\r\n                        ein, addressToAdd, timestamp[1]\r\n                    )\r\n                ),\r\n                v[1], r[1], s[1]\r\n            ),\r\n            \"Permission denied from address to add.\"\r\n        );\r\n\r\n        addAssociatedAddress(ein, addressToAdd);\r\n\r\n        emit AssociatedAddressAdded(msg.sender, ein, approvingAddress, addressToAdd, true);\r\n    }\r\n\r\n    /// @dev Common logic for all address addition.\r\n    function addAssociatedAddress(uint ein, address addressToAdd) private _hasIdentity(addressToAdd, false) {\r\n        require(\r\n            identityDirectory[ein].associatedAddresses.length() < maxAssociatedAddresses, \"Too many addresses.\"\r\n        );\r\n\r\n        identityDirectory[ein].associatedAddresses.insert(addressToAdd);\r\n        associatedAddressDirectory[addressToAdd] = ein;\r\n    }\r\n\r\n    /// @notice Allows an associated address to remove itself from its Identity.\r\n    function removeAssociatedAddress() public {\r\n        uint ein = getEIN(msg.sender);\r\n\r\n        removeAssociatedAddress(ein, msg.sender);\r\n\r\n        emit AssociatedAddressRemoved(msg.sender, ein, msg.sender, false);\r\n    }\r\n\r\n    /// @notice Allows removal of an associated address from an Identity.\r\n    /// @param addressToRemove An associated address to remove from its Identity.\r\n    /// @param v The v component of the signature.\r\n    /// @param r The r component of the signature.\r\n    /// @param s The s component of the signature.\r\n    /// @param timestamp The timestamp of the signature.\r\n    function removeAssociatedAddressDelegated(address addressToRemove, uint8 v, bytes32 r, bytes32 s, uint timestamp)\r\n        public ensureSignatureTimeValid(timestamp)\r\n    {\r\n        uint ein = getEIN(addressToRemove);\r\n\r\n        require(\r\n            isSigned(\r\n                addressToRemove,\r\n                keccak256(\r\n                    abi.encodePacked(\r\n                        byte(0x19), byte(0), address(this),\r\n                        \"I authorize removing this address from my Identity.\",\r\n                        ein, addressToRemove, timestamp\r\n                    )\r\n                ),\r\n                v, r, s\r\n            ),\r\n            \"Permission denied.\"\r\n        );\r\n\r\n        removeAssociatedAddress(ein, addressToRemove);\r\n\r\n        emit AssociatedAddressRemoved(msg.sender, ein, addressToRemove, true);\r\n    }\r\n\r\n    /// @dev Common logic for all address removal.\r\n    function removeAssociatedAddress(uint ein, address addressToRemove) private {\r\n        identityDirectory[ein].associatedAddresses.remove(addressToRemove);\r\n        delete associatedAddressDirectory[addressToRemove];\r\n    }\r\n\r\n\r\n    /// @notice Allows an associated address to add providers to its Identity.\r\n    /// @param providers A list of providers.\r\n    function addProviders(address[] memory providers) public {\r\n        addProviders(getEIN(msg.sender), providers, false);\r\n    }\r\n\r\n    /// @notice Allows providers to add providers to an Identity.\r\n    /// @param ein The EIN to add providers to.\r\n    /// @param providers A list of providers.\r\n    function addProvidersFor(uint ein, address[] memory providers) public _isProviderFor(ein) {\r\n        addProviders(ein, providers, true);\r\n    }\r\n\r\n    /// @dev Common logic for all provider adding.\r\n    function addProviders(uint ein, address[] memory providers, bool delegated) private {\r\n        Identity storage _identity = identityDirectory[ein];\r\n        for (uint i; i < providers.length; i++) {\r\n            _identity.providers.insert(providers[i]);\r\n            emit ProviderAdded(msg.sender, ein, providers[i], delegated);\r\n        }\r\n    }\r\n\r\n    /// @notice Allows an associated address to remove providers from its Identity.\r\n    /// @param providers A list of providers.\r\n    function removeProviders(address[] memory providers) public {\r\n        removeProviders(getEIN(msg.sender), providers, false);\r\n    }\r\n\r\n    /// @notice Allows providers to remove providers to an Identity.\r\n    /// @param ein The EIN to remove providers from.\r\n    /// @param providers A list of providers.\r\n    function removeProvidersFor(uint ein, address[] memory providers) public _isProviderFor(ein) {\r\n        removeProviders(ein, providers, true);\r\n    }\r\n\r\n    /// @dev Common logic for all provider removal.\r\n    function removeProviders(uint ein, address[] memory providers, bool delegated) private {\r\n        Identity storage _identity = identityDirectory[ein];\r\n        for (uint i; i < providers.length; i++) {\r\n            _identity.providers.remove(providers[i]);\r\n            emit ProviderRemoved(msg.sender, ein, providers[i], delegated);\r\n        }\r\n    }\r\n\r\n    /// @notice Allows an associated address to add resolvers to its Identity.\r\n    /// @param resolvers A list of resolvers.\r\n    function addResolvers(address[] memory resolvers) public {\r\n        addResolvers(getEIN(msg.sender), resolvers, false);\r\n    }\r\n\r\n    /// @notice Allows providers to add resolvers to an Identity.\r\n    /// @param ein The EIN to add resolvers to.\r\n    /// @param resolvers A list of resolvers.\r\n    function addResolversFor(uint ein, address[] memory resolvers) public _isProviderFor(ein) {\r\n        addResolvers(ein, resolvers, true);\r\n    }\r\n\r\n    /// @dev Common logic for all resolver adding.\r\n    function addResolvers(uint ein, address[] memory resolvers, bool delegated) private {\r\n        Identity storage _identity = identityDirectory[ein];\r\n        for (uint i; i < resolvers.length; i++) {\r\n            _identity.resolvers.insert(resolvers[i]);\r\n            emit ResolverAdded(msg.sender, ein, resolvers[i], delegated);\r\n        }\r\n    }\r\n\r\n    /// @notice Allows an associated address to remove resolvers from its Identity.\r\n    /// @param resolvers A list of resolvers.\r\n    function removeResolvers(address[] memory resolvers) public {\r\n        removeResolvers(getEIN(msg.sender), resolvers, true);\r\n    }\r\n\r\n    /// @notice Allows providers to remove resolvers from an Identity.\r\n    /// @param ein The EIN to remove resolvers from.\r\n    /// @param resolvers A list of resolvers.\r\n    function removeResolversFor(uint ein, address[] memory resolvers) public _isProviderFor(ein) {\r\n        removeResolvers(ein, resolvers, true);\r\n    }\r\n\r\n    /// @dev Common logic for all resolver removal.\r\n    function removeResolvers(uint ein, address[] memory resolvers, bool delegated) private {\r\n        Identity storage _identity = identityDirectory[ein];\r\n        for (uint i; i < resolvers.length; i++) {\r\n            _identity.resolvers.remove(resolvers[i]);\r\n            emit ResolverRemoved(msg.sender, ein, resolvers[i], delegated);\r\n        }\r\n    }\r\n\r\n\r\n    // Recovery Management Functions ///////////////////////////////////////////////////////////////////////////////////\r\n\r\n    /// @notice Allows an associated address to change the recovery address for its Identity.\r\n    /// @dev Recovery addresses can be changed at most once every recoveryTimeout seconds.\r\n    /// @param newRecoveryAddress A recovery address to set for the sender's EIN.\r\n    function triggerRecoveryAddressChange(address newRecoveryAddress) public {\r\n        triggerRecoveryAddressChange(getEIN(msg.sender), newRecoveryAddress, false);\r\n    }\r\n\r\n    /// @notice Allows providers to change the recovery address for an Identity.\r\n    /// @dev Recovery addresses can be changed at most once every recoveryTimeout seconds.\r\n    /// @param ein The EIN to set the recovery address of.\r\n    /// @param newRecoveryAddress A recovery address to set for the passed EIN.\r\n    function triggerRecoveryAddressChangeFor(uint ein, address newRecoveryAddress) public _isProviderFor(ein) {\r\n        triggerRecoveryAddressChange(ein, newRecoveryAddress, true);\r\n    }\r\n\r\n    /// @dev Common logic for all recovery address changes.\r\n    function triggerRecoveryAddressChange(uint ein, address newRecoveryAddress, bool delegated) private {\r\n        Identity storage _identity = identityDirectory[ein];\r\n\r\n        require(canChangeRecoveryAddress(ein), \"Cannot trigger a change in recovery address yet.\");\r\n\r\n         // solium-disable-next-line security/no-block-members\r\n        recoveryAddressChangeLogs[ein] = RecoveryAddressChange(block.timestamp, _identity.recoveryAddress);\r\n\r\n        emit RecoveryAddressChangeTriggered(msg.sender, ein, _identity.recoveryAddress, newRecoveryAddress, delegated);\r\n\r\n        _identity.recoveryAddress = newRecoveryAddress;\r\n    }\r\n\r\n    /// @notice Allows recovery addresses to trigger the recovery process for an Identity.\r\n    /// @dev msg.sender must be current recovery address, or the old one if it was changed recently.\r\n    /// @param ein The EIN to trigger recovery for.\r\n    /// @param newAssociatedAddress A recovery address to set for the passed EIN.\r\n    /// @param v The v component of the signature.\r\n    /// @param r The r component of the signature.\r\n    /// @param s The s component of the signature.\r\n    /// @param timestamp The timestamp of the signature.\r\n    function triggerRecovery(uint ein, address newAssociatedAddress, uint8 v, bytes32 r, bytes32 s, uint timestamp)\r\n        public _identityExists(ein) _hasIdentity(newAssociatedAddress, false) ensureSignatureTimeValid(timestamp)\r\n    {\r\n        require(canRecover(ein), \"Cannot trigger recovery yet.\");\r\n        Identity storage _identity = identityDirectory[ein];\r\n\r\n        // ensure the sender is the recovery address/old recovery address if there's been a recent change\r\n        if (canChangeRecoveryAddress(ein)) {\r\n            require(\r\n                msg.sender == _identity.recoveryAddress, \"Only the current recovery address can trigger recovery.\"\r\n            );\r\n        } else {\r\n            require(\r\n                msg.sender == recoveryAddressChangeLogs[ein].oldRecoveryAddress,\r\n                \"Only the recently removed recovery address can trigger recovery.\"\r\n            );\r\n        }\r\n\r\n        require(\r\n            isSigned(\r\n                newAssociatedAddress,\r\n                keccak256(\r\n                    abi.encodePacked(\r\n                        byte(0x19), byte(0), address(this),\r\n                        \"I authorize being added to this Identity via recovery.\",\r\n                        ein, newAssociatedAddress, timestamp\r\n                    )\r\n                ),\r\n                v, r, s\r\n            ),\r\n            \"Permission denied.\"\r\n        );\r\n\r\n        // log the old associated addresses to facilitate destruction if necessary\r\n        recoveryLogs[ein] = Recovery(\r\n            block.timestamp, // solium-disable-line security/no-block-members\r\n            keccak256(abi.encodePacked(_identity.associatedAddresses.members))\r\n        );\r\n\r\n        emit RecoveryTriggered(msg.sender, ein, _identity.associatedAddresses.members, newAssociatedAddress);\r\n\r\n        // remove identity data, and add the new address as the sole associated address\r\n        resetIdentityData(_identity, msg.sender, false);\r\n        addAssociatedAddress(ein, newAssociatedAddress);\r\n    }\r\n\r\n    /// @notice Allows associated addresses recently removed via recovery to permanently disable their old Identity.\r\n    /// @param ein The EIN to trigger destruction of.\r\n    /// @param firstChunk The array of addresses before the msg.sender in the pre-recovery associated addresses array.\r\n    /// @param lastChunk The array of addresses after the msg.sender in the pre-recovery associated addresses array.\r\n    /// @param resetResolvers true if the destroyer wants resolvers to be removed, false otherwise.\r\n    function triggerDestruction(uint ein, address[] memory firstChunk, address[] memory lastChunk, bool resetResolvers)\r\n        public _identityExists(ein)\r\n    {\r\n        require(!canRecover(ein), \"Recovery has not recently been triggered.\");\r\n        Identity storage _identity = identityDirectory[ein];\r\n\r\n        // ensure that the msg.sender was an old associated address for the referenced identity\r\n        address payable[1] memory middleChunk = [msg.sender];\r\n        require(\r\n            keccak256(\r\n                abi.encodePacked(firstChunk, middleChunk, lastChunk)\r\n            ) == recoveryLogs[ein].hashedOldAssociatedAddresses,\r\n            \"Cannot destroy an EIN from an address that was not recently removed from said EIN via recovery.\"\r\n        );\r\n\r\n        emit IdentityDestroyed(msg.sender, ein, _identity.recoveryAddress, resetResolvers);\r\n\r\n        resetIdentityData(_identity, address(0), resetResolvers);\r\n    }\r\n\r\n    /// @dev Common logic for clearing the data of an Identity.\r\n    function resetIdentityData(Identity storage identity, address newRecoveryAddress, bool resetResolvers) private {\r\n        for (uint i; i < identity.associatedAddresses.members.length; i++) {\r\n            delete associatedAddressDirectory[identity.associatedAddresses.members[i]];\r\n        }\r\n        delete identity.associatedAddresses;\r\n        delete identity.providers;\r\n        if (resetResolvers) delete identity.resolvers;\r\n        identity.recoveryAddress = newRecoveryAddress;\r\n    }\r\n\r\n\r\n    // Events //////////////////////////////////////////////////////////////////////////////////////////////////////////\r\n\r\n    event IdentityCreated(\r\n        address indexed initiator, uint indexed ein,\r\n        address recoveryAddress, address associatedAddress, address[] providers, address[] resolvers, bool delegated\r\n    );\r\n    event AssociatedAddressAdded(\r\n        address indexed initiator, uint indexed ein, address approvingAddress, address addedAddress, bool delegated\r\n    );\r\n    event AssociatedAddressRemoved(address indexed initiator, uint indexed ein, address removedAddress, bool delegated);\r\n    event ProviderAdded(address indexed initiator, uint indexed ein, address provider, bool delegated);\r\n    event ProviderRemoved(address indexed initiator, uint indexed ein, address provider, bool delegated);\r\n    event ResolverAdded(address indexed initiator, uint indexed ein, address resolvers, bool delegated);\r\n    event ResolverRemoved(address indexed initiator, uint indexed ein, address resolvers, bool delegated);\r\n    event RecoveryAddressChangeTriggered(\r\n        address indexed initiator, uint indexed ein,\r\n        address oldRecoveryAddress, address newRecoveryAddress, bool delegated\r\n    );\r\n    event RecoveryTriggered(\r\n        address indexed initiator, uint indexed ein, address[] oldAssociatedAddresses, address newAssociatedAddress\r\n    );\r\n    event IdentityDestroyed(address indexed initiator, uint indexed ein, address recoveryAddress, bool resolversReset);\r\n}\r\n",
  "sourcePath": "C:/Users/Juan/Documents/JL/ETHER/HYDRO/hst/contracts/_testing/IdentityRegistry.sol",
  "compiler": {
    "name": "solc",
    "version": "0.5.4+commit.9549d8ff.Emscripten.clang"
  },
  "schemaVersion": "3.0.6",
  "updatedAt": "2019-04-18T14:32:52.710Z",
  "devdoc": {
    "author": "Andy Chorlian",
    "methods": {
      "addAssociatedAddress(address,address,uint8,bytes32,bytes32,uint256)": {
        "params": {
          "timestamp": "The timestamp of the signature."
        }
      },
      "addAssociatedAddressDelegated(address,address,uint8[2],bytes32[2],bytes32[2],uint256[2])": {
        "params": {
          "timestamp": "The timestamp of the signatures."
        }
      },
      "addProviders(address[])": {
        "params": {
          "providers": "A list of providers."
        }
      },
      "addProvidersFor(uint256,address[])": {
        "params": {
          "providers": "A list of providers."
        }
      },
      "addResolvers(address[])": {
        "params": {
          "resolvers": "A list of resolvers."
        }
      },
      "addResolversFor(uint256,address[])": {
        "params": {
          "resolvers": "A list of resolvers."
        }
      },
      "createIdentity(address,address[],address[])": {
        "return": "The EIN of the new Identity."
      },
      "createIdentityDelegated(address,address,address[],address[],uint8,bytes32,bytes32,uint256)": {
        "return": "The EIN of the new Identity."
      },
      "getEIN(address)": {
        "return": "The associated EIN."
      },
      "getIdentity(uint256)": {
        "return": "All the information for the Identity denominated by the passed EIN."
      },
      "hasIdentity(address)": {
        "return": "true if the passed address is associated with an Identity, false otherwise."
      },
      "identityExists(uint256)": {
        "return": "true if the passed EIN exists, false otherwise."
      },
      "isAssociatedAddressFor(uint256,address)": {
        "return": "true if the passed address is associated with the passed EIN, false otherwise."
      },
      "isProviderFor(uint256,address)": {
        "return": "true if the provider is set for the passed EIN, false otherwise."
      },
      "isResolverFor(uint256,address)": {
        "return": "true if the resolver is set for the passed EIN, false otherwise."
      },
      "isSigned(address,bytes32,uint8,bytes32,bytes32)": {
        "return": "true if the signature can be verified, false otherwise."
      },
      "removeAssociatedAddressDelegated(address,uint8,bytes32,bytes32,uint256)": {
        "params": {
          "timestamp": "The timestamp of the signature."
        }
      },
      "removeProviders(address[])": {
        "params": {
          "providers": "A list of providers."
        }
      },
      "removeProvidersFor(uint256,address[])": {
        "params": {
          "providers": "A list of providers."
        }
      },
      "removeResolvers(address[])": {
        "params": {
          "resolvers": "A list of resolvers."
        }
      },
      "removeResolversFor(uint256,address[])": {
        "params": {
          "resolvers": "A list of resolvers."
        }
      },
      "triggerDestruction(uint256,address[],address[],bool)": {
        "params": {
          "resetResolvers": "true if the destroyer wants resolvers to be removed, false otherwise."
        }
      },
      "triggerRecovery(uint256,address,uint8,bytes32,bytes32,uint256)": {
        "params": {
          "timestamp": "The timestamp of the signature."
        }
      },
      "triggerRecoveryAddressChange(address)": {
        "params": {
          "newRecoveryAddress": "A recovery address to set for the sender's EIN."
        }
      },
      "triggerRecoveryAddressChangeFor(uint256,address)": {
        "params": {
          "newRecoveryAddress": "A recovery address to set for the passed EIN."
        }
      }
    }
  },
  "userdoc": {
    "methods": {
      "removeAssociatedAddress()": {
        "notice": "Allows an associated address to remove itself from its Identity."
      }
    }
  }
}