{
  "contractName": "KYCResolver",
  "abi": [
    {
      "constant": true,
      "inputs": [
        {
          "name": "",
          "type": "uint256"
        }
      ],
      "name": "rejectedEin",
      "outputs": [
        {
          "name": "",
          "type": "bool"
        }
      ],
      "payable": false,
      "stateMutability": "view",
      "type": "function"
    },
    {
      "inputs": [],
      "payable": false,
      "stateMutability": "nonpayable",
      "type": "constructor"
    },
    {
      "constant": true,
      "inputs": [
        {
          "name": "_ein",
          "type": "uint256"
        },
        {
          "name": "_amount",
          "type": "uint256"
        }
      ],
      "name": "isApproved",
      "outputs": [
        {
          "name": "",
          "type": "bool"
        }
      ],
      "payable": false,
      "stateMutability": "view",
      "type": "function"
    },
    {
      "constant": false,
      "inputs": [
        {
          "name": "_ein",
          "type": "uint256"
        }
      ],
      "name": "rejectEin",
      "outputs": [],
      "payable": false,
      "stateMutability": "nonpayable",
      "type": "function"
    },
    {
      "constant": false,
      "inputs": [
        {
          "name": "_ein",
          "type": "uint256"
        }
      ],
      "name": "approveEin",
      "outputs": [],
      "payable": false,
      "stateMutability": "nonpayable",
      "type": "function"
    }
  ],
  "bytecode": "0x608060405234801561001057600080fd5b5061019a806100206000396000f3fe608060405234801561001057600080fd5b5060043610610068577c01000000000000000000000000000000000000000000000000000000006000350463205b37ea811461006d578063541ffd3e1461008c57806378721835146100bd578063bf276511146100da575b600080fd5b61008a6004803603602081101561008357600080fd5b50356100fd565b005b6100a9600480360360208110156100a257600080fd5b5035610118565b604080519115158252519081900360200190f35b61008a600480360360208110156100d357600080fd5b503561012d565b6100a9600480360360408110156100f057600080fd5b5080359060200135610145565b6000908152602081905260409020805460ff19166001179055565b60006020819052908152604090205460ff1681565b6000908152602081905260409020805460ff19169055565b60008281526020819052604081205460ff161561016457506000610168565b5060015b9291505056fea165627a7a723058203d73b311b0915fc1dc400d85f774ed42b513638c9b7e920b834b9f0cbabd9fbf0029",
  "source": "pragma solidity ^0.5.0;\r\n\r\n\r\ncontract KYCResolver {\r\n\r\n\r\n\tmapping(uint256 => bool) public rejectedEin;\r\n\r\n\r\n    constructor() public {\r\n    }\r\n\r\n\r\n    function isApproved(uint256 _ein, uint256 _amount) external view returns (bool) {\r\n        if (rejectedEin[_ein]) return false;\r\n        return true;\r\n    }\r\n\r\n\r\n    function rejectEin(uint256 _ein) public {\r\n    \trejectedEin[_ein] = true;\r\n    }\r\n\r\n    function approveEin(uint256 _ein) public {\r\n        rejectedEin[_ein] = false;\r\n    }\r\n\r\n}\r\n",
  "sourcePath": "C:/Users/Juan/Documents/JL/ETHER/HYDRO/hst/contracts/samples/KYCResolver.sol",
  "compiler": {
    "name": "solc",
    "version": "0.5.4+commit.9549d8ff.Emscripten.clang"
  },
  "schemaVersion": "3.0.6",
  "updatedAt": "2019-04-18T14:32:10.066Z",
  "devdoc": {
    "methods": {}
  },
  "userdoc": {
    "methods": {}
  }
}