{
  "contractName": "MAIN_PARAMS",
  "abi": [
    {
      "constant": true,
      "inputs": [],
      "name": "escrowLimitPeriod",
      "outputs": [
        {
          "name": "",
          "type": "uint256"
        }
      ],
      "payable": false,
      "stateMutability": "view",
      "type": "function"
    },
    {
      "constant": true,
      "inputs": [],
      "name": "hydroPrice",
      "outputs": [
        {
          "name": "",
          "type": "uint256"
        }
      ],
      "payable": false,
      "stateMutability": "view",
      "type": "function"
    },
    {
      "constant": true,
      "inputs": [],
      "name": "lockEnds",
      "outputs": [
        {
          "name": "",
          "type": "uint256"
        }
      ],
      "payable": false,
      "stateMutability": "view",
      "type": "function"
    },
    {
      "constant": true,
      "inputs": [],
      "name": "MAIN_PARAMS_ready",
      "outputs": [
        {
          "name": "",
          "type": "bool"
        }
      ],
      "payable": false,
      "stateMutability": "view",
      "type": "function"
    },
    {
      "constant": true,
      "inputs": [],
      "name": "endDate",
      "outputs": [
        {
          "name": "",
          "type": "uint256"
        }
      ],
      "payable": false,
      "stateMutability": "view",
      "type": "function"
    },
    {
      "constant": true,
      "inputs": [],
      "name": "beginningDate",
      "outputs": [
        {
          "name": "",
          "type": "uint256"
        }
      ],
      "payable": false,
      "stateMutability": "view",
      "type": "function"
    },
    {
      "constant": true,
      "inputs": [],
      "name": "maxSupply",
      "outputs": [
        {
          "name": "",
          "type": "uint256"
        }
      ],
      "payable": false,
      "stateMutability": "view",
      "type": "function"
    },
    {
      "constant": true,
      "inputs": [],
      "name": "ethPrice",
      "outputs": [
        {
          "name": "",
          "type": "uint256"
        }
      ],
      "payable": false,
      "stateMutability": "view",
      "type": "function"
    }
  ],
  "bytecode": "0x608060405234801561001057600080fd5b5061016f806100206000396000f3fe608060405234801561001057600080fd5b50600436106100a5576000357c010000000000000000000000000000000000000000000000000000000090048063c24a0f8b11610078578063c24a0f8b146100f0578063c7ae003b146100f8578063d5abeb0114610100578063ff186b2e14610108576100a5565b80631d5313f1146100aa5780632d6e47f0146100c4578063377b7033146100cc5780635c216528146100d4575b600080fd5b6100b2610110565b60408051918252519081900360200190f35b6100b2610116565b6100b261011c565b6100dc610122565b604080519115158252519081900360200190f35b6100b261012b565b6100b2610131565b6100b2610137565b6100b261013d565b60075481565b60015481565b60045481565b60005460ff1681565b60055481565b60035481565b60065481565b6002548156fea165627a7a723058203dc0806fe2587047b36fcc5db556a3a97e2967f0ca0a9044722696196b9d34f50029",
  "source": "pragma solidity ^0.5.0;\r\n\r\n\r\n//import './components/SnowflakeOwnable.sol';\r\n//import './components/TokenWithDates.sol';\r\nimport './components/HSTServiceRegistry.sol';\r\nimport './interfaces/HydroInterface.sol';\r\nimport './interfaces/ResolverInterface.sol';\r\nimport './interfaces/IdentityRegistryInterface.sol';\r\n//import './interfaces/SnowflakeViaInterface.sol';\r\nimport './zeppelin/math/SafeMath.sol';\r\nimport './zeppelin/ownership/Ownable.sol';\r\n\r\n\r\n// For testing\r\n\r\n// Rinkeby testnet addresses\r\n// HydroToken: 0x4959c7f62051d6b2ed6eaed3aaee1f961b145f20\r\n// IdentityRegistry: 0xa7ba71305be9b2dfead947dc0e5730ba2abd28ea\r\n\r\n// TODO\r\n//\r\n// External pricer\r\n//\r\n// A global Registry with data of all Securities issued, to check for repeated ids or symbols\r\n//\r\n// Feature #15: Carried interest ?\r\n// Feature #16: Interest payout ?\r\n// Feature #17: Dividend payout ?\r\n\r\n\r\n/**\r\n * @title HSToken\r\n * @notice The Hydro Security Token is a system to allow people to create their own Security Tokens, \r\n *         related to their Snowflake identities and attached to external KYC, AML and other rules.\r\n * @author Juan Livingston <juanlivingston@gmail.com>\r\n */\r\n\r\ninterface Raindrop {\r\n    function authenticate(address _sender, uint _value, uint _challenge, uint _partnerId) external;\r\n}\r\n\r\ninterface tokenRecipient {\r\n    function receiveApproval(address _from, uint256 _value, address _token, bytes calldata _extraData) external;\r\n}\r\n\r\n/**\r\n* @dev We use contracts to store main variables, because Solidity can not handle so many individual variables\r\n*/\r\n\r\ncontract MAIN_PARAMS {\r\n    bool public MAIN_PARAMS_ready;\r\n\r\n    uint256 public hydroPrice;\r\n    uint256 public ethPrice;\r\n    uint256 public beginningDate;\r\n    uint256 public lockEnds; // Date of end of locking period\r\n    uint256 public endDate;\r\n    uint256 public maxSupply;\r\n    uint256 public escrowLimitPeriod;\r\n}\r\n\r\ncontract STO_FLAGS {\r\n    bool public STO_FLAGS_ready;\r\n\r\n    bool public LIMITED_OWNERSHIP; \r\n    bool public PERIOD_LOCKED;  // Locked period active or inactive\r\n    bool public PERC_OWNERSHIP_TYPE; // is ownership percentage limited type\r\n    bool public HYDRO_AMOUNT_TYPE; // is Hydro amount limited\r\n    bool public ETH_AMOUNT_TYPE; // is Ether amount limited\r\n    bool public HYDRO_ALLOWED; // Is Hydro allowed to purchase\r\n    bool public ETH_ALLOWED; // Is Ether allowed for purchase\r\n    bool public KYC_RESTRICTED; \r\n    bool public AML_RESTRICTED;\r\n    bool public WHITELIST_RESTRICTED;\r\n    bool public BLACKLIST_RESTRICTED;\r\n}\r\n\r\ncontract STO_PARAMS {\r\n    bool public STO_PARAMS_ready;\r\n    // @param percAllowedTokens Where 100% = 1 ether, 50% = 0.5 ether\r\n    uint256 public percAllowedTokens; // considered if PERC_OWNERSHIP_TYPE\r\n    uint256 public hydroAllowed; // considered if HYDRO_AMOUNT_TYPE\r\n    uint256 public ethAllowed; // considered if ETH_AMOUNT_TYPE\r\n    uint256 public lockPeriod; // in days\r\n    uint256 public minInvestors;\r\n    uint256 public maxInvestors;\r\n}\r\n\r\n\r\ncontract HSToken is MAIN_PARAMS, STO_FLAGS, STO_PARAMS {\r\n\r\n    using SafeMath for uint256;\r\n    \r\n    enum Stage {\r\n        SETUP, PRELAUNCH, ACTIVE, FINALIZED\r\n    }\r\n\r\n    // For date analysis\r\n    struct Batch {\r\n        uint initial; // Initial quantity received in a batch. Not modified in the future\r\n        uint quantity; // Current quantity of tokens in a batch.\r\n        uint age; // Creation of the batch (timestamp)\r\n    }\r\n\r\n    struct Investor {\r\n        bool exist;\r\n        uint256 etherSent;\r\n        uint256 hydroSent;\r\n    }\r\n\r\n    bool public exists; // Flag to deactivate it\r\n    bool locked; // Locked token transfers\r\n    uint256 public registerDate; // Date of creation of token\r\n\t// Main parameters\r\n\tuint256 public id; // Unique HSToken id\r\n\tbytes32 public name;\r\n\tstring public description;\r\n\tstring public symbol;\r\n    uint8 public decimals;\r\n    address payable public Owner;\r\n    uint256 public einOwner;\r\n\r\n    // State Memory\r\n    Stage public stage; // SETUP, PRELAUNCH, ACTIVE, FINALIZED\r\n    bool legalApproved;\r\n    uint256 public issuedTokens;\r\n    uint256 public burnedTokens;\r\n    uint256 public hydroReceived;\r\n    uint256 public ethReceived;\r\n    uint256 public investorsQuantity;\r\n    uint256 hydrosReleased; // Quantity of Hydros released by owner\r\n    uint256 ethersReleased; // idem form Ethers\r\n\r\n \t// Links to Modules\r\n\t// address public RegistryRules;\r\n    address public raindropAddress;\r\n\r\n\t// Links to Registries\r\n    address[3] public KYCResolverArray;\r\n    address[3] public AMLResolverArray;\r\n    address[3] public LegalResolverArray;\r\n    uint8 KYCResolverQ;\r\n    uint8 AMLResolverQ;\r\n    uint8 LegalResolverQ;\r\n    mapping(address => uint8) KYCResolver;\r\n    mapping(address => uint8) AMLResolver;\r\n    mapping(address => uint8) LegalResolver;\r\n\r\n    // address InterestSolver;\r\n\r\n    // Mappings\r\n    mapping(uint256 => bool) public whitelist;\r\n    mapping(uint256 => bool) public blacklist;\r\n    mapping(uint256 => bool) public freezed;\r\n\r\n    mapping(address => uint256) public balance;\r\n    mapping (address => mapping (address => uint256)) public allowed;\r\n\r\n    mapping(uint256 => Investor) public investors;\r\n\r\n    // For date analysis and paying interests\r\n    mapping(address => uint) public maxIndex; // Index of last batch: points to the next one\r\n    mapping(address => uint) public minIndex; // Index of first batch\r\n    mapping(address => mapping(uint => Batch)) public batches; // Batches with quantities and ages\r\n\r\n    // Escrow contract's address => security number\r\n    // mapping(address => uint256) public escrowContracts;\r\n    // address[] public escrowContractsArray;\r\n\r\n    // Declaring interfaces\r\n    IdentityRegistryInterface public identityRegistry;\r\n    HydroInterface public hydroToken;\r\n    // HSTServiceRegistry public serviceRegistry;\r\n    // SnowflakeViaInterface public snowflakeVia;\r\n    // TokenWithDates private tokenWithDates;\r\n\r\n    event HydroSTCreated(\r\n        uint256 indexed id, \r\n        bytes32 name,\r\n        string symbol,\r\n        uint8 decimals,\r\n        uint256 einOwner\r\n        );\r\n\r\n    event Sell(address indexed _owner, uint256 _amount);\r\n\r\n    event Transfer(\r\n        address indexed _from,\r\n        address indexed _to,\r\n        uint256 _amount\r\n    );\r\n\r\n    event Approval(\r\n        address indexed _owner,\r\n        address indexed _spender,\r\n        uint256 _amount\r\n    );\r\n\r\n    // Feature #9 & #10\r\n    modifier isUnlocked() {\r\n        require(!locked, \"Token locked\");\r\n        if (PERIOD_LOCKED) require (now > lockEnds, \"Locked period active\");\r\n        _;\r\n    }\r\n\r\n    modifier isUnfreezed(address _from, address _to) {\r\n        require(!freezed[identityRegistry.getEIN(_to)], \"Target EIN is freezed\");\r\n        require(!freezed[identityRegistry.getEIN(_from)], \"Source EIN is freezed\");\r\n        _;\r\n    }\r\n\r\n    modifier onlyAtPreLaunch() {\r\n        require(stage == Stage.PRELAUNCH, \"Not in Prelaunch stage\");\r\n        require(beginningDate == 0 || beginningDate > now, \"Prelaunch time has passed\");\r\n    \t_;\r\n    }\r\n\r\n    modifier onlyActive() {\r\n        require(stage == Stage.ACTIVE, \"Not in active stage\");\r\n        require(endDate > now, \"Issuing stage finalized\");\r\n        _;\r\n    }\r\n\r\n    modifier onlyAdmin() {\r\n        // Check if EIN of sender is the same as einOwner\r\n        require(identityRegistry.getEIN(msg.sender) == einOwner, \"Only for admins\");\r\n        _;\r\n    }\r\n\r\n    modifier escrowReleased() {\r\n        require(escrowLimitPeriod < now, \"Escrow limit period is still active\");\r\n        require(legalApproved, \"Legal conditions are not met\");\r\n        _;\r\n    }\r\n\r\n    modifier onlyAtSetup() {\r\n        require(stage == Stage.SETUP, \"Stage is not setup\");\r\n        require(isSetupTime(), \"Setup time has expired\");\r\n        _;\r\n    }\r\n\r\n    constructor(\r\n        uint256 _id,\r\n        bytes32 _name,\r\n        string memory _description,\r\n        string memory _symbol,\r\n        uint8 _decimals,\r\n        address _HydroToken,\r\n        address _IdentityRegistry\r\n        // address _RaindropAddress\r\n    ) \r\n        public \r\n    {\r\n\r\n        id = _id; \r\n        name = _name;\r\n        description = _description;\r\n        symbol = _symbol;\r\n        decimals = _decimals;\r\n\r\n        exists = true;\r\n        registerDate = now;\r\n        // locked = true;\r\n\r\n        // State Memory\r\n        stage = Stage.SETUP;\r\n\r\n        // Links to Modules\r\n        // RegistryRules = 0x4959c7f62051D6b2ed6EaeD3AAeE1F961B145F20;\r\n        // InterestSolver = address(0x0);\r\n\r\n        hydroToken = HydroInterface(_HydroToken); // 0x4959c7f62051D6b2ed6EaeD3AAeE1F961B145F20\r\n        identityRegistry = IdentityRegistryInterface(_IdentityRegistry); // 0xa7ba71305bE9b2DFEad947dc0E5730BA2ABd28EA\r\n        // serviceRegistry = new HSTServiceRegistry();\r\n        // raindropAddress = _RaindropAddress;\r\n\r\n        Owner = msg.sender;\r\n        einOwner = identityRegistry.getEIN(Owner);\r\n\r\n        emit HydroSTCreated(id, name, symbol, decimals, einOwner);\r\n    }\r\n\r\n\r\n    // ADMIN SETUP FUNCTIONS\r\n\r\n\r\n    function set_MAIN_PARAMS(\r\n        uint256 _hydroPrice,\r\n        uint256 _ethPrice,\r\n        uint256 _beginningDate,\r\n        uint256 _lockEnds,\r\n        uint256 _endDate,\r\n        uint256 _maxSupply,\r\n        uint256 _escrowLimitPeriod\r\n    ) \r\n        onlyAdmin onlyAtSetup public  \r\n    {\r\n        // Validations\r\n        require(\r\n            (_hydroPrice > 0 || _ethPrice > 0) &&\r\n            (_beginningDate == 0 || _beginningDate > now) &&\r\n            (_lockEnds > _beginningDate && _lockEnds > now) &&\r\n            _endDate > _lockEnds &&\r\n            _maxSupply > 10000 &&\r\n            _escrowLimitPeriod > (10 * 24 * 60 * 60),\r\n            \"Incorrect input data\"\r\n        );\r\n        // Load values\r\n        hydroPrice = _hydroPrice;\r\n        ethPrice = _ethPrice;\r\n        beginningDate = _beginningDate;\r\n        lockEnds = _lockEnds; // Date of end of locking period\r\n        endDate = _endDate;\r\n        maxSupply = _maxSupply;\r\n        escrowLimitPeriod = _escrowLimitPeriod;\r\n        // Set flag\r\n        MAIN_PARAMS_ready = true;\r\n\r\n    }\r\n\r\n\r\n    function set_STO_FLAGS(\r\n        bool _LIMITED_OWNERSHIP, \r\n        bool _PERIOD_LOCKED,\r\n        bool _PERC_OWNERSHIP_TYPE,\r\n        bool _HYDRO_AMOUNT_TYPE,\r\n        bool _ETH_AMOUNT_TYPE,\r\n        bool _HYDRO_ALLOWED,\r\n        bool _ETH_ALLOWED,\r\n        bool _KYC_RESTRICTED, \r\n        bool _AML_RESTRICTED,\r\n        bool _WHITELIST_RESTRICTED,\r\n        bool _BLACKLIST_RESTRICTED\r\n    ) \r\n        onlyAdmin onlyAtSetup public \r\n    {\r\n        // Load values\r\n        LIMITED_OWNERSHIP = _LIMITED_OWNERSHIP; \r\n        PERIOD_LOCKED = _PERIOD_LOCKED;\r\n        PERC_OWNERSHIP_TYPE = _PERC_OWNERSHIP_TYPE;\r\n        HYDRO_AMOUNT_TYPE = _HYDRO_AMOUNT_TYPE;\r\n        ETH_AMOUNT_TYPE = _ETH_AMOUNT_TYPE;\r\n        HYDRO_ALLOWED = _HYDRO_ALLOWED;\r\n        ETH_ALLOWED = _ETH_ALLOWED;\r\n        KYC_RESTRICTED = _KYC_RESTRICTED; \r\n        AML_RESTRICTED = _AML_RESTRICTED;\r\n        WHITELIST_RESTRICTED = _WHITELIST_RESTRICTED;\r\n        BLACKLIST_RESTRICTED = _BLACKLIST_RESTRICTED;\r\n        // Set flag\r\n        STO_FLAGS_ready = true;\r\n    }\r\n\r\n    function set_STO_PARAMS(\r\n        uint256 _percAllowedTokens, \r\n        uint256 _hydroAllowed,\r\n        uint256 _ethAllowed,\r\n        uint256 _lockPeriod,\r\n        uint256 _minInvestors,\r\n        uint256 _maxInvestors\r\n    ) \r\n        onlyAdmin onlyAtSetup public \r\n    {\r\n        require(STO_FLAGS_ready, \"STO_FLAGS has not been sat\");\r\n\r\n        percAllowedTokens = _percAllowedTokens; \r\n        hydroAllowed = _hydroAllowed;\r\n        ethAllowed = _ethAllowed;\r\n        lockPeriod = _lockPeriod;\r\n        minInvestors = _minInvestors;\r\n        maxInvestors = _maxInvestors;\r\n        // Set flag\r\n        STO_PARAMS_ready = true;\r\n    }\r\n\r\n\r\n    function stagePrelaunch() \r\n        onlyAdmin onlyAtSetup public \r\n    {\r\n        require(MAIN_PARAMS_ready, \"MAIN_PARAMS not setted\");\r\n        require(STO_FLAGS_ready, \"STO_FLAGS not setted\");\r\n        require(STO_PARAMS_ready, \"STO_PARAMS not setted\");\r\n\r\n        if (beginningDate == 0) beginningDate = now;\r\n        stage = Stage.PRELAUNCH;\r\n    }\r\n\r\n    function stageActivate() \r\n        onlyAdmin onlyAtPreLaunch public \r\n    {\r\n        stage = Stage.ACTIVE;\r\n    }\r\n\r\n    // Feature #10: ADMIN FUNCTIONS\r\n\r\n\r\n    // Feature #9\r\n    function setLockupPeriod(uint256 _lockEnds)\r\n        onlyAdmin public \r\n    {\r\n        if (_lockEnds == 0) {\r\n            PERIOD_LOCKED = false;\r\n            }\r\n        PERIOD_LOCKED = true;\r\n        lockEnds = _lockEnds;\r\n    }\r\n\r\n\r\n    function lock() onlyAdmin public {\r\n        locked = true;\r\n    }\r\n\r\n    function unLock() onlyAdmin public {\r\n        locked = false;\r\n    }\r\n\r\n    function addWhitelist(uint256[] memory _einList) onlyAdmin public {\r\n        for (uint i = 0; i < _einList.length; i++) {\r\n          whitelist[_einList[i]] = true;\r\n        }\r\n    }\r\n\r\n    function addBlacklist(uint256[] memory _einList) onlyAdmin public {\r\n        for (uint i = 0; i < _einList.length; i++) {\r\n          blacklist[_einList[i]] = true;\r\n        }\r\n    }\r\n\r\n    function removeWhitelist(uint256[] memory _einList) onlyAdmin public {\r\n        for (uint i = 0; i < _einList.length; i++) {\r\n          whitelist[_einList[i]] = false;\r\n        }\r\n\r\n    }\r\n\r\n    function removeBlacklist(uint256[] memory _einList) onlyAdmin public {\r\n        for (uint i = 0; i < _einList.length; i++) {\r\n          blacklist[_einList[i]] = false;\r\n        }\r\n    }\r\n\r\n    function freeze(uint256[] memory _einList) onlyAdmin public {\r\n        for (uint i = 0; i < _einList.length; i++) {\r\n          freezed[_einList[i]] = true;\r\n        }\r\n    }\r\n\r\n    function unFreeze(uint256[] memory _einList) onlyAdmin public {\r\n        for (uint i = 0; i < _einList.length; i++) {\r\n          freezed[_einList[i]] = false;\r\n        }\r\n    }\r\n\r\n\r\n    // Only at Prelaunch functions: adding and removing resolvers\r\n\r\n    // Feature #3\r\n    function addKYCResolver(address _address) onlyAdmin onlyAtPreLaunch public {\r\n        require(KYCResolverQ < 2, \"There are already 3 resolvers for KYC\");\r\n        KYCResolverArray[KYCResolverQ] = _address;\r\n        KYCResolverQ ++;\r\n        //serviceRegistry.addService(address(this), bytes32(\"KYC\"), _address);\r\n    }\r\n    function removeKYCResolver(address _address) onlyAdmin onlyAtPreLaunch public {\r\n        require(KYCResolver[_address] != 0, \"Resolver does not exist\");\r\n        uint8 _number = KYCResolver[_address];\r\n        if (_number < 3) {\r\n            for (uint8 i = _number; i < 4; i++) {\r\n                KYCResolverArray[i-1] = KYCResolverArray[i];\r\n            }\r\n        }\r\n        KYCResolverArray[KYCResolverQ - 1] = address(0);\r\n        KYCResolverQ --;\r\n        KYCResolver[_address] = 0;\r\n        //serviceRegistry.replaceService(address(this), bytes32(\"KYC\"), _address,address(0)); \r\n    }\r\n\r\n    function addAMLResolver(address _address) onlyAdmin onlyAtPreLaunch public {\r\n        require(AMLResolverQ < 2, \"There are already 3 resolvers for AML\");\r\n        AMLResolverArray[AMLResolverQ] = _address;\r\n        AMLResolverQ ++;\r\n        //serviceRegistry.addService(address(this), bytes32(\"AML\"), _address);\r\n\r\n    }\r\n    function removeAMLResolver(address _address) onlyAdmin onlyAtPreLaunch public {\r\n        require(AMLResolver[_address] != 0, \"Resolver does not exist\");\r\n        uint8 _number = AMLResolver[_address];\r\n        if (_number < 3) {\r\n            for (uint8 i = _number; i < 4; i++) {\r\n                AMLResolverArray[i-1] = AMLResolverArray[i];\r\n            }\r\n        }\r\n        AMLResolverArray[AMLResolverQ - 1] = address(0);\r\n        AMLResolverQ --;\r\n        AMLResolver[_address] = 0;\r\n        //serviceRegistry.replaceService(address(this), bytes32(\"AML\"), _address,address(0)); \r\n    }\r\n\r\n    function addLegalResolver(address _address) onlyAdmin onlyAtPreLaunch public {\r\n        require(LegalResolverQ < 2, \"There are already 3 legal resolvers\");\r\n        LegalResolverArray[LegalResolverQ] = _address;\r\n        LegalResolverQ ++;\r\n        //serviceRegistry.addService(address(this), bytes32(\"LEGAL\"), _address);\r\n    }\r\n\r\n    function removeLegalResolver(address _address) onlyAdmin onlyAtPreLaunch public {\r\n        require(LegalResolver[_address] != 0, \"Resolver does not exist\");\r\n        uint8 _number = LegalResolver[_address];\r\n        if (_number < 3) {\r\n            for (uint8 i = _number; i < 4; i++) {\r\n                LegalResolverArray[i-1] = LegalResolverArray[i];\r\n            }\r\n        }\r\n        LegalResolverArray[LegalResolverQ - 1] = address(0);\r\n        LegalResolverQ --;\r\n        LegalResolver[_address] = 0;\r\n        //serviceRegistry.replaceService(address(this), bytes32(\"LEGAL\"), _address,address(0));\r\n    }\r\n\r\n\r\n\r\n\r\n    // Release gains. Only after escrow is released\r\n\r\n    // Retrieve tokens and ethers\r\n    function releaseHydroTokens() onlyAdmin escrowReleased public {\r\n        uint256 thisBalance = hydroToken.balanceOf(address(this));\r\n        require(thisBalance > 0, \"There are not HydroTokens in this account\");\r\n        hydrosReleased = hydrosReleased + thisBalance;\r\n        require(hydroToken.transfer(Owner, thisBalance));\r\n    }\r\n\r\n    function releaseEthers() onlyAdmin escrowReleased public {\r\n        require(address(this).balance > 0, \"There are not ethers in this account\");\r\n        ethersReleased = ethersReleased + address(this).balance;\r\n        require(Owner.send(address(this).balance));\r\n    }\r\n\r\n\r\n\r\n\r\n    // PUBLIC FUNCTIONS FOR INVESTORS -----------------------------------------------------------------\r\n\r\n\r\n    function buyTokens(string memory _coin, uint256 _amount) \r\n        onlyActive public payable \r\n        returns(bool) \r\n    {\r\n        uint256 total;\r\n        uint256 _ein = identityRegistry.getEIN(msg.sender);\r\n        bytes32 HYDRO = keccak256(abi.encode(\"HYDRO\"));\r\n        bytes32 ETH =  keccak256(abi.encode(\"ETH\"));\r\n        bytes32 coin = keccak256(abi.encode(_coin));\r\n\r\n        if (!investors[_ein].exist) {\r\n            investorsQuantity++;\r\n            investors[_ein].exist = true;\r\n            require(investorsQuantity <= maxInvestors || maxInvestors == 0, \"Maximum investors reached\");\r\n        }\r\n \r\n        require(stage == Stage.ACTIVE, \"Current stage is not active\");\r\n\r\n        // CHECKINGS (to be exported as  a contract)\r\n        // Coin allowance\r\n        if (coin == HYDRO) require(HYDRO_ALLOWED, \"Hydro is not allowed\");\r\n        if (coin == ETH) require(ETH_ALLOWED, \"Ether is not allowed\");\r\n        // Check for limits\r\n        if (HYDRO_AMOUNT_TYPE && coin == HYDRO) {\r\n            require(hydroReceived.add(_amount) <= hydroAllowed, \"Hydro amount exceeded\");\r\n        }\r\n        if (ETH_AMOUNT_TYPE && coin == ETH) {\r\n            require((ethReceived + msg.value) <= ethAllowed, \"Ether amount exceeded\");\r\n        }\r\n        // Check with KYC and AML providers\r\n        if (KYC_RESTRICTED && KYCResolverQ > 0) _checkKYC(msg.sender, _amount);\r\n        if (AML_RESTRICTED && AMLResolverQ > 0) _checkAML(msg.sender, _amount);\r\n\r\n        // Check with whitelist and blacklist\r\n        if (WHITELIST_RESTRICTED) _checkWhitelist(msg.sender);\r\n        if (BLACKLIST_RESTRICTED) _checkBlacklist(msg.sender);\r\n\r\n        // Calculate total\r\n        if (coin == HYDRO) {\r\n            total = _amount.mul(hydroPrice) / 1 ether;\r\n            investors[_ein].hydroSent = investors[_ein].hydroSent.add(_amount);\r\n            hydroReceived = hydroReceived.add(_amount);      \r\n        } else\r\n        if (coin == ETH) {\r\n            total = msg.value.mul(ethPrice) / 1 ether;\r\n            investors[_ein].etherSent += msg.value;\r\n            ethReceived = ethReceived + msg.value;\r\n        } else \r\n        revert(\"_coin should be ETH or HYDRO\");\r\n\r\n        // Check with maxSupply\r\n        require(issuedTokens.add(total) <= maxSupply, \"Max supply of Tokens is exceeded\");\r\n\r\n        // Check for ownership percentage \r\n        if (PERC_OWNERSHIP_TYPE) {\r\n            require ((issuedTokens.add(total).mul(1 ether) / maxSupply) < percAllowedTokens, \r\n                \"Perc ownership exceeded\");\r\n        }\r\n        // Transfer Hydrotokens from buyer to this contract\r\n        if (coin == HYDRO) {\r\n            require(hydroToken.transferFrom(msg.sender, address(this), _amount), \r\n                \"Hydro transfer was not possible\");\r\n        }\r\n\r\n        // _updateBatches(address(0), _to, _amount);\r\n        // Sell\r\n        _doSell(msg.sender, total);\r\n        emit Sell(msg.sender, total);\r\n        return true;\r\n    }\r\n\r\n\r\n    function claimInterests() \r\n        public pure \r\n        returns(bool) \r\n    {\r\n        //return(interestSolver(msg.sender));\r\n        return true;\r\n    }\r\n\r\n\r\n\r\n    // Token ERC-20 wrapper -----------------------------------------------------------\r\n\r\n    // Feature #11\r\n    function transfer(address _to, uint256 _amount) \r\n        isUnlocked isUnfreezed(msg.sender, _to) \r\n        public \r\n        returns(bool success) \r\n    {    \r\n        if (KYC_RESTRICTED) _checkKYC(_to, _amount);\r\n        if (AML_RESTRICTED) _checkAML(_to, _amount);\r\n        // _updateBatches(msg.sender, _to, _amount);\r\n        _doTransfer(msg.sender, _to, _amount);\r\n        return true;\r\n    }\r\n\r\n    // Feature #11\r\n    function transferFrom(address _from, address _to, uint256 _amount) \r\n        isUnlocked isUnfreezed(_from, _to) \r\n        public \r\n        returns(bool success) \r\n    { \r\n        allowed[_from][msg.sender] = allowed[_from][msg.sender].sub(_amount);\r\n        if (KYC_RESTRICTED) _checkKYC(_to, _amount);\r\n        if (AML_RESTRICTED) _checkAML(_to, _amount);\r\n        // _updateBatches(_from, _to, _amount);\r\n        _doTransfer(_from, _to, _amount);\r\n        return true;\r\n    }\r\n\r\n    function balanceOf(address _from) public view returns(uint256) {\r\n        return balance[_from];\r\n    }\r\n\r\n    function approve(address _spender, uint256 _amount) public returns(bool success) {\r\n        // To change the approve amount you first have to reduce the addresses`\r\n        //  allowance to zero by calling `approve(_spender,0)` if it is not\r\n        //  already 0 to mitigate the race condition described here:\r\n        //  https://github.com/ethereum/EIPs/issues/20#issuecomment-263524729\r\n        require((_amount == 0) || (allowed[msg.sender][_spender] == 0), \"Approved amount should be zero before changing it\");\r\n        allowed[msg.sender][_spender] = _amount;\r\n        emit Approval(msg.sender, _spender, _amount);\r\n        return true;\r\n    }\r\n\r\n    function approveAndCall(address _spender, uint256 _value, bytes memory _extraData) public returns (bool success) {\r\n        tokenRecipient spender = tokenRecipient(_spender);\r\n        if (approve(_spender, _value)) {\r\n            spender.receiveApproval(msg.sender, _value, address(this), _extraData);\r\n            return true;\r\n        }\r\n    }\r\n\r\n    function authenticate(uint _value, uint _challenge, uint _partnerId) public {\r\n        Raindrop raindrop = Raindrop(raindropAddress);\r\n        raindrop.authenticate(msg.sender, _value, _challenge, _partnerId);\r\n        _doTransfer(msg.sender, Owner, _value);\r\n    }\r\n\r\n\r\n    // PUBLIC GETTERS ----------------------------------------------------------------\r\n\r\n    function isLocked() public view returns(bool) {\r\n        if (locked) return true;\r\n        if (PERIOD_LOCKED && now < lockEnds) return true;\r\n        return false;\r\n    }\r\n\r\n    function isAlive() public view returns(bool) {\r\n        if (!exists) return false;\r\n        if (stage == Stage.SETUP && !isSetupTime()) return false;\r\n        return true;\r\n    }\r\n\r\n    function getStage() public view returns(string memory _stage) {\r\n        if (stage == Stage.FINALIZED || stage == Stage.ACTIVE && endDate < now) return \"FINALIZED\";\r\n        if (stage == Stage.ACTIVE || stage == Stage.PRELAUNCH && beginningDate > 0 && beginningDate > now) return \"ACTIVE\";\r\n        if (stage == Stage.PRELAUNCH) return \"PRELAUNCH\";\r\n        if (stage == Stage.SETUP && isSetupTime()) return \"SETUP\";\r\n        return \"TOKEN IS INACTIVE\";\r\n    }\r\n\r\n    // PRIVATE GETTERS\r\n\r\n    function isSetupTime() private view returns(bool) {\r\n        // 15 days to complete setup\r\n        return((now - registerDate) < (15 * 24 * 60 * 60));\r\n    }\r\n\r\n    function isPrelaunchTime() private view returns(bool) {\r\n        // 15 days to complete setup\r\n        return((now - registerDate) < (15 * 24 * 60 * 60));\r\n    }\r\n\r\n\r\n\r\n    // PRIVATE FUNCTIONS ----------------------------------------------------------\r\n\r\n     function _doSell(address _to, uint256 _amount) private {\r\n        issuedTokens = issuedTokens.add(_amount);\r\n        balance[_to] = balance[_to].add(_amount);\r\n    }\r\n\r\n    function _doTransfer(address _from, address _to, uint256 _amount) private {\r\n        balance[_to] = balance[_to].add(_amount);\r\n        balance[_from] = balance[_from].sub(_amount);\r\n        emit Transfer(_from, _to, _amount);\r\n    } \r\n\r\n    // Permissions checking\r\n\r\n    // Feature #8\r\n    function _checkKYC(address _to, uint256 _amount) private view {\r\n        uint256 einTo = identityRegistry.getEIN(_to);\r\n        for (uint8 i = 0; i < KYCResolverQ; i++) {\r\n            ResolverInterface resolver = ResolverInterface(KYCResolverArray[i]);\r\n            require(resolver.isApproved(einTo, _amount), \"KYC not approved\");\r\n        }\r\n    }\r\n    function _checkAML(address _to, uint256 _amount) private view {\r\n        uint256 einTo = identityRegistry.getEIN(_to);\r\n        for (uint8 i = 0; i < AMLResolverQ; i++) {\r\n            ResolverInterface resolver = ResolverInterface(AMLResolverArray[i]);\r\n            require(resolver.isApproved(einTo, _amount));\r\n        }\r\n    }\r\n\r\n    function _checkLegaL(address _to, uint256 _amount) private view {\r\n        uint256 einTo = identityRegistry.getEIN(_to);\r\n        for (uint8 i = 0; i < LegalResolverQ; i++) {\r\n            ResolverInterface resolver = ResolverInterface(LegalResolverArray[i]);\r\n            require(resolver.isApproved(einTo, _amount));\r\n        }\r\n    }\r\n\r\n    function _checkWhitelist(address _user) private view {\r\n        uint256 einUser = identityRegistry.getEIN(_user);\r\n        require(whitelist[einUser], \"EIN address not in whitelist\");\r\n    }\r\n\r\n    function _checkBlacklist(address _user) private view {\r\n        uint256 einUser = identityRegistry.getEIN(_user);\r\n        require(!blacklist[einUser], \"EIN address is blacklisted\");\r\n    }\r\n\r\n}\r\n",
  "sourcePath": "C:\\Users\\Juan\\Documents\\JL\\ETHER\\HYDRO\\hst\\contracts\\HSToken.sol",
  "compiler": {
    "name": "solc",
    "version": "0.5.4+commit.9549d8ff.Emscripten.clang"
  },
  "schemaVersion": "3.0.6",
  "updatedAt": "2019-04-18T18:42:03.588Z",
  "devdoc": {
    "details": "We use contracts to store main variables, because Solidity can not handle so many individual variables\r",
    "methods": {}
  },
  "userdoc": {
    "methods": {}
  }
}