{
  "contractName": "OldClientRaindrop",
  "abi": [
    {
      "constant": true,
      "inputs": [],
      "name": "minimumHydroStakeUser",
      "outputs": [
        {
          "name": "",
          "type": "uint256"
        }
      ],
      "payable": false,
      "stateMutability": "view",
      "type": "function"
    },
    {
      "constant": false,
      "inputs": [],
      "name": "renounceOwnership",
      "outputs": [],
      "payable": false,
      "stateMutability": "nonpayable",
      "type": "function"
    },
    {
      "constant": true,
      "inputs": [],
      "name": "hydroTokenAddress",
      "outputs": [
        {
          "name": "",
          "type": "address"
        }
      ],
      "payable": false,
      "stateMutability": "view",
      "type": "function"
    },
    {
      "constant": true,
      "inputs": [],
      "name": "owner",
      "outputs": [
        {
          "name": "",
          "type": "address"
        }
      ],
      "payable": false,
      "stateMutability": "view",
      "type": "function"
    },
    {
      "constant": true,
      "inputs": [],
      "name": "isOwner",
      "outputs": [
        {
          "name": "",
          "type": "bool"
        }
      ],
      "payable": false,
      "stateMutability": "view",
      "type": "function"
    },
    {
      "constant": true,
      "inputs": [],
      "name": "minimumHydroStakeDelegatedUser",
      "outputs": [
        {
          "name": "",
          "type": "uint256"
        }
      ],
      "payable": false,
      "stateMutability": "view",
      "type": "function"
    },
    {
      "constant": false,
      "inputs": [
        {
          "name": "newOwner",
          "type": "address"
        }
      ],
      "name": "transferOwnership",
      "outputs": [],
      "payable": false,
      "stateMutability": "nonpayable",
      "type": "function"
    },
    {
      "anonymous": false,
      "inputs": [
        {
          "indexed": false,
          "name": "casedUserName",
          "type": "string"
        },
        {
          "indexed": false,
          "name": "userAddress",
          "type": "address"
        }
      ],
      "name": "UserSignUp",
      "type": "event"
    },
    {
      "anonymous": false,
      "inputs": [
        {
          "indexed": false,
          "name": "casedUserName",
          "type": "string"
        }
      ],
      "name": "UserDeleted",
      "type": "event"
    },
    {
      "anonymous": false,
      "inputs": [
        {
          "indexed": true,
          "name": "previousOwner",
          "type": "address"
        },
        {
          "indexed": true,
          "name": "newOwner",
          "type": "address"
        }
      ],
      "name": "OwnershipTransferred",
      "type": "event"
    },
    {
      "constant": false,
      "inputs": [
        {
          "name": "casedUserName",
          "type": "string"
        },
        {
          "name": "userAddress",
          "type": "address"
        },
        {
          "name": "v",
          "type": "uint8"
        },
        {
          "name": "r",
          "type": "bytes32"
        },
        {
          "name": "s",
          "type": "bytes32"
        }
      ],
      "name": "signUpDelegatedUser",
      "outputs": [],
      "payable": false,
      "stateMutability": "nonpayable",
      "type": "function"
    },
    {
      "constant": false,
      "inputs": [
        {
          "name": "casedUserName",
          "type": "string"
        }
      ],
      "name": "signUpUser",
      "outputs": [],
      "payable": false,
      "stateMutability": "nonpayable",
      "type": "function"
    },
    {
      "constant": false,
      "inputs": [],
      "name": "deleteUser",
      "outputs": [],
      "payable": false,
      "stateMutability": "nonpayable",
      "type": "function"
    },
    {
      "constant": false,
      "inputs": [
        {
          "name": "_hydroTokenAddress",
          "type": "address"
        }
      ],
      "name": "setHydroTokenAddress",
      "outputs": [],
      "payable": false,
      "stateMutability": "nonpayable",
      "type": "function"
    },
    {
      "constant": false,
      "inputs": [
        {
          "name": "newMinimumHydroStakeUser",
          "type": "uint256"
        },
        {
          "name": "newMinimumHydroStakeDelegatedUser",
          "type": "uint256"
        }
      ],
      "name": "setMinimumHydroStakes",
      "outputs": [],
      "payable": false,
      "stateMutability": "nonpayable",
      "type": "function"
    },
    {
      "constant": true,
      "inputs": [
        {
          "name": "userName",
          "type": "string"
        }
      ],
      "name": "userNameTaken",
      "outputs": [
        {
          "name": "taken",
          "type": "bool"
        }
      ],
      "payable": false,
      "stateMutability": "view",
      "type": "function"
    },
    {
      "constant": true,
      "inputs": [
        {
          "name": "userName",
          "type": "string"
        }
      ],
      "name": "getUserByName",
      "outputs": [
        {
          "name": "casedUserName",
          "type": "string"
        },
        {
          "name": "userAddress",
          "type": "address"
        }
      ],
      "payable": false,
      "stateMutability": "view",
      "type": "function"
    },
    {
      "constant": true,
      "inputs": [
        {
          "name": "_address",
          "type": "address"
        }
      ],
      "name": "getUserByAddress",
      "outputs": [
        {
          "name": "casedUserName",
          "type": "string"
        }
      ],
      "payable": false,
      "stateMutability": "view",
      "type": "function"
    },
    {
      "constant": true,
      "inputs": [
        {
          "name": "_address",
          "type": "address"
        },
        {
          "name": "messageHash",
          "type": "bytes32"
        },
        {
          "name": "v",
          "type": "uint8"
        },
        {
          "name": "r",
          "type": "bytes32"
        },
        {
          "name": "s",
          "type": "bytes32"
        }
      ],
      "name": "isSigned",
      "outputs": [
        {
          "name": "",
          "type": "bool"
        }
      ],
      "payable": false,
      "stateMutability": "pure",
      "type": "function"
    }
  ],
  "bytecode": "0x6080604081905260008054600160a060020a0319163317808255600160a060020a0316917f8be0079c531659141344cd1fd0a4f28419497f9722a3daafe3b4186f6b6457e0908290a361198d806100576000396000f3fe608060405234801561001057600080fd5b506004361061011d576000357c01000000000000000000000000000000000000000000000000000000009004806385ba9a99116100b4578063ba75d0de11610083578063ba75d0de14610535578063bed7437f1461053d578063d35e656b14610563578063f2fde38b146106095761011d565b806385ba9a99146104ad5780638677ebe8146104d05780638da5cb5b146105255780638f32d59b1461052d5761011d565b80634bff5009116100f05780634bff5009146102af57806369c212f6146103e6578063715018a61461048157806375d7e4bd146104895761011d565b8063026ff05e146101225780632b45bcf91461012c5780632e5df0fe146101465780634500431014610209575b600080fd5b61012a61062f565b005b61013461080c565b60408051918252519081900360200190f35b61012a600480360360a081101561015c57600080fd5b81019060208101813564010000000081111561017757600080fd5b82018360208201111561018957600080fd5b803590602001918460018302840111640100000000831117156101ab57600080fd5b91908080601f01602080910402602001604051908101604052809392919081815260200183838082843760009201919091525092955050600160a060020a0383351693505060ff602083013516916040810135915060600135610812565b61012a6004803603602081101561021f57600080fd5b81019060208101813564010000000081111561023a57600080fd5b82018360208201111561024c57600080fd5b8035906020019184600183028401116401000000008311171561026e57600080fd5b91908080601f0160208091040260200160405190810160405280939291908181526020018383808284376000920191909152509295506109a2945050505050565b610355600480360360208110156102c557600080fd5b8101906020810181356401000000008111156102e057600080fd5b8201836020820111156102f257600080fd5b8035906020019184600183028401116401000000008311171561031457600080fd5b91908080601f016020809104026020016040519081016040528093929190818152602001838380828437600092019190915250929550610aa2945050505050565b604051808060200183600160a060020a0316600160a060020a03168152602001828103825284818151815260200191508051906020019080838360005b838110156103aa578181015183820152602001610392565b50505050905090810190601f1680156103d75780820380516001836020036101000a031916815260200191505b50935050505060405180910390f35b61040c600480360360208110156103fc57600080fd5b5035600160a060020a0316610c39565b6040805160208082528351818301528351919283929083019185019080838360005b8381101561044657818101518382015260200161042e565b50505050905090810190601f1680156104735780820380516001836020036101000a031916815260200191505b509250505060405180910390f35b61012a610d55565b610491610dbf565b60408051600160a060020a039092168252519081900360200190f35b61012a600480360360408110156104c357600080fd5b5080359060200135610dce565b610511600480360360a08110156104e657600080fd5b50600160a060020a038135169060208101359060ff6040820135169060608101359060800135610f3f565b604080519115158252519081900360200190f35b610491610f6b565b610511610f7b565b610134610f8c565b61012a6004803603602081101561055357600080fd5b5035600160a060020a0316610f92565b6105116004803603602081101561057957600080fd5b81019060208101813564010000000081111561059457600080fd5b8201836020820111156105a657600080fd5b803590602001918460018302840111640100000000831117156105c857600080fd5b91908080601f016020809104026020016040519081016040528093929190818152602001838380828437600092019190915250929550610fd4945050505050565b61012a6004803603602081101561061f57600080fd5b5035600160a060020a031661105f565b336000908152600560205260409020546106488161107e565b15156106885760405160e560020a62461bcd02815260040180806020018281038252602b815260200180611937602b913960400191505060405180910390fd5b60008181526004602090815260409182902080548351601f600260001961010060018616150201909316929092049182018490048402810184019094528084526060939283018282801561071d5780601f106106f25761010080835404028352916020019161071d565b820191906000526020600020905b81548152906001019060200180831161070057829003601f168201915b5050336000908152600560209081526040808320839055888352600490915281209495509250610751915083905082611824565b50600101805473ffffffffffffffffffffffffffffffffffffffff1916905560408051602080825283518183015283517f28f7ad4961343bc792aec8e7886fc38c6847f9cd253ec14a633ff3bed8370883938593928392918301919085019080838360005b838110156107ce5781810151838201526020016107b6565b50505050905090810190601f1680156107fb5780820380516001836020036101000a031916815260200191505b509250505060405180910390a15050565b60025481565b600354600154604080517f70a0823100000000000000000000000000000000000000000000000000000000815233600482018190529151919392600160a060020a031691839183916370a0823191602480820192602092909190829003018186803b15801561088057600080fd5b505afa158015610894573d6000803e3d6000fd5b505050506040513d60208110156108aa57600080fd5b50511015610902576040805160e560020a62461bcd02815260206004820152601b60248201527f496e73756666696369656e7420485944524f2062616c616e63652e0000000000604482015290519081900360640190fd5b61093887604051602001808061191460239139602301905060405160208183030381529060405280519060200120888888610f3f565b151561098e576040805160e560020a62461bcd02815260206004820152601260248201527f5065726d697373696f6e2064656e6965642e0000000000000000000000000000604482015290519081900360640190fd5b610998888861109e565b5050505050505050565b600254600154604080517f70a0823100000000000000000000000000000000000000000000000000000000815233600482018190529151919392600160a060020a031691839183916370a0823191602480820192602092909190829003018186803b158015610a1057600080fd5b505afa158015610a24573d6000803e3d6000fd5b505050506040513d6020811015610a3a57600080fd5b50511015610a92576040805160e560020a62461bcd02815260206004820152601b60248201527f496e73756666696369656e7420485944524f2062616c616e63652e0000000000604482015290519081900360640190fd5b610a9c843361109e565b50505050565b6060600080610ab0846113e6565b6040516020018082805190602001908083835b60208310610ae25780518252601f199092019160209182019101610ac3565b6001836020036101000a038019825116818451168082178552505050505050905001915050604051602081830303815290604052805190602001209050610b288161107e565b1515610b7e576040805160e560020a62461bcd02815260206004820152601460248201527f5573657220646f6573206e6f742065786973742e000000000000000000000000604482015290519081900360640190fd5b60008181526004602090815260409182902060018082015482548551600261010094831615949094026000190190911692909204601f81018590048502830185019095528482529193600160a060020a039092169290918491830182828015610c285780601f10610bfd57610100808354040283529160200191610c28565b820191906000526020600020905b815481529060010190602001808311610c0b57829003601f168201915b505050505091509250925050915091565b600160a060020a038116600090815260056020526040902054606090610c5e8161107e565b1515610cb4576040805160e560020a62461bcd02815260206004820152601460248201527f5573657220646f6573206e6f742065786973742e000000000000000000000000604482015290519081900360640190fd5b60008181526004602090815260409182902080548351601f600260001961010060018616150201909316929092049182018490048402810184019094528084529091830182828015610d475780601f10610d1c57610100808354040283529160200191610d47565b820191906000526020600020905b815481529060010190602001808311610d2a57829003601f168201915b50505050509150505b919050565b610d5d610f7b565b1515610d6857600080fd5b60008054604051600160a060020a03909116907f8be0079c531659141344cd1fd0a4f28419497f9722a3daafe3b4186f6b6457e0908390a36000805473ffffffffffffffffffffffffffffffffffffffff19169055565b600154600160a060020a031681565b610dd6610f7b565b1515610de157600080fd5b600154600160a060020a0316692f0eadc3216237780000831115610e4f576040805160e560020a62461bcd02815260206004820152601260248201527f5374616b6520697320746f6f20686967682e0000000000000000000000000000604482015290519081900360640190fd5b606481600160a060020a03166318160ddd6040518163ffffffff167c010000000000000000000000000000000000000000000000000000000002815260040160206040518083038186803b158015610ea657600080fd5b505afa158015610eba573d6000803e3d6000fd5b505050506040513d6020811015610ed057600080fd5b5051811515610edb57fe5b04821115610f33576040805160e560020a62461bcd02815260206004820152601260248201527f5374616b6520697320746f6f20686967682e0000000000000000000000000000604482015290519081900360640190fd5b50600291909155600355565b6000610f4e868686868661146b565b80610f615750610f6186868686866114f3565b9695505050505050565b600054600160a060020a03165b90565b600054600160a060020a0316331490565b60035481565b610f9a610f7b565b1515610fa557600080fd5b6001805473ffffffffffffffffffffffffffffffffffffffff1916600160a060020a0392909216919091179055565b600080610fe0836113e6565b6040516020018082805190602001908083835b602083106110125780518252601f199092019160209182019101610ff3565b6001836020036101000a0380198251168184511680821785525050505050509050019150506040516020818303038152906040528051906020012090506110588161107e565b9392505050565b611067610f7b565b151561107257600080fd5b61107b81611617565b50565b600090815260046020526040902060010154600160a060020a0316151590565b600160a060020a0381166000908152600560205260409020546110c09061107e565b15611115576040805160e560020a62461bcd02815260206004820152601b60248201527f4164647265737320616c726561647920726567697374657265642e0000000000604482015290519081900360640190fd5b8151601f1161116e576040805160e560020a62461bcd02815260206004820152601260248201527f557365726e616d6520746f6f206c6f6e672e0000000000000000000000000000604482015290519081900360640190fd5b81516003106111c7576040805160e560020a62461bcd02815260206004820152601360248201527f557365726e616d6520746f6f2073686f72742e00000000000000000000000000604482015290519081900360640190fd5b60006111ea6111e56111e06111db86611694565b6116b9565b6116df565b6113e6565b6040516020018082805190602001908083835b6020831061121c5780518252601f1990920191602091820191016111fd565b6001836020036101000a0380198251168184511680821785525050505050509050019150506040516020818303038152906040528051906020012090506112628161107e565b156112b7576040805160e560020a62461bcd02815260206004820152600f60248201527f557365726e616d652074616b656e2e0000000000000000000000000000000000604482015290519081900360640190fd5b604080518082018252848152600160a060020a0384166020808301919091526000848152600482529290922081518051929391926112f89284920190611868565b50602091820151600191909101805473ffffffffffffffffffffffffffffffffffffffff1916600160a060020a039283161790558316600081815260058352604080822085905580518085019390935280835286519083015285517fbfba570579dd015aeb3054b92f73b1704ea3990bff6ef0ad798dcc17ddf12e51938793879390928392606084019290870191908190849084905b838110156113a657818101518382015260200161138e565b50505050905090810190601f1680156113d35780820380516001836020036101000a031916815260200191505b50935050505060405180910390a1505050565b60608160005b81518110156114645761141e828281518110151561140657fe5b90602001015160f860020a900460f860020a0261172f565b828281518110151561142c57fe5b9060200101907effffffffffffffffffffffffffffffffffffffffffffffffffffffffffffff1916908160001a9053506001016113ec565b5092915050565b600085600160a060020a031660018686868660405160008152602001604052604051808581526020018460ff1660ff1681526020018381526020018281526020019450505050506020604051602081039080840390855afa1580156114d4573d6000803e3d6000fd5b50505060206040510351600160a060020a031614905095945050505050565b604080518082018252601c8082527f19457468657265756d205369676e6564204d6573736167653a0a33320000000060208084019182529351600094859385938b939092019182918083835b6020831061155e5780518252601f19909201916020918201910161153f565b51815160209384036101000a6000190180199092169116179052920193845250604080518085038152848301808352815191840191909120600090915281850180835281905260ff8c166060860152608085018b905260a085018a90529051909550600160a060020a038d16945060019360c08082019450601f19830192918290030190855afa1580156115f6573d6000803e3d6000fd5b50505060206040510351600160a060020a0316149250505095945050505050565b600160a060020a038116151561162c57600080fd5b60008054604051600160a060020a03808516939216917f8be0079c531659141344cd1fd0a4f28419497f9722a3daafe3b4186f6b6457e091a36000805473ffffffffffffffffffffffffffffffffffffffff1916600160a060020a0392909216919091179055565b61169c6118e2565b506040805180820190915281518152602082810190820152919050565b6116c16118e2565b50604080518082019091528151815260208083015190820152919050565b60608082600001516040519080825280601f01601f191660200182016040528015611711576020820181803883390190505b509050600060208201905061146481856020015186600001516117e6565b60007f41000000000000000000000000000000000000000000000000000000000000007fff000000000000000000000000000000000000000000000000000000000000008316108015906117c557507f5a000000000000000000000000000000000000000000000000000000000000007fff00000000000000000000000000000000000000000000000000000000000000831611155b156117e2578160f860020a900460200160f860020a029050610d50565b5090565b5b60208110611806578151835260209283019290910190601f19016117e7565b905182516020929092036101000a6000190180199091169116179052565b50805460018160011615610100020316600290046000825580601f1061184a575061107b565b601f01602090049060005260206000209081019061107b91906118f9565b828054600181600116156101000203166002900490600052602060002090601f016020900481019282601f106118a957805160ff19168380011785556118d6565b828001600101855582156118d6579182015b828111156118d65782518255916020019190600101906118bb565b506117e29291506118f9565b604080518082019091526000808252602082015290565b610f7891905b808211156117e257600081556001016118ff56fe437265617465205261696e64726f70436c69656e7420487964726f204163636f756e744e6f2075736572206173736f6369617465642077697468207468652073656e64657220616464726573732ea165627a7a723058205ab136dc4c24c1c1ad175c5b5f7bf9f50628f8d298a6493107251e324caff8ef0029",
  "source": "pragma solidity ^0.5.0;\r\n\r\nimport \"../zeppelin/ownership/Ownable.sol\";\r\nimport \"../resolvers/ClientRaindrop/StringUtils.sol\";\r\nimport \"../interfaces/HydroInterface.sol\";\r\n\r\ncontract OldClientRaindrop is Ownable {\r\n    // attach the StringUtils library\r\n    using StringUtils for string;\r\n    using StringUtils for StringUtils.slice;\r\n    // Events for when a user signs up for Raindrop Client and when their account is deleted\r\n    event UserSignUp(string casedUserName, address userAddress);\r\n    event UserDeleted(string casedUserName);\r\n\r\n    // Variables allowing this contract to interact with the Hydro token\r\n    address public hydroTokenAddress;\r\n    uint public minimumHydroStakeUser;\r\n    uint public minimumHydroStakeDelegatedUser;\r\n\r\n    // User account template\r\n    struct User {\r\n        string casedUserName;\r\n        address userAddress;\r\n    }\r\n\r\n    // Mapping from hashed uncased names to users (primary User directory)\r\n    mapping (bytes32 => User) internal userDirectory;\r\n    // Mapping from addresses to hashed uncased names (secondary directory for account recovery based on address)\r\n    mapping (address => bytes32) internal addressDirectory;\r\n\r\n    // Requires an address to have a minimum number of Hydro\r\n    modifier requireStake(address _address, uint stake) {\r\n        HydroInterface hydro = HydroInterface(hydroTokenAddress);\r\n        require(hydro.balanceOf(_address) >= stake, \"Insufficient HYDRO balance.\");\r\n        _;\r\n    }\r\n\r\n    // Allows applications to sign up users on their behalf iff users signed their permission\r\n    function signUpDelegatedUser(string memory casedUserName, address userAddress, uint8 v, bytes32 r, bytes32 s)\r\n        public\r\n        requireStake(msg.sender, minimumHydroStakeDelegatedUser)\r\n    {\r\n        require(\r\n            isSigned(userAddress, keccak256(abi.encodePacked(\"Create RaindropClient Hydro Account\")), v, r, s),\r\n            \"Permission denied.\"\r\n        );\r\n        _userSignUp(casedUserName, userAddress);\r\n    }\r\n\r\n    // Allows users to sign up with their own address\r\n    function signUpUser(string memory casedUserName) public requireStake(msg.sender, minimumHydroStakeUser) {\r\n        return _userSignUp(casedUserName, msg.sender);\r\n    }\r\n\r\n    // Allows users to delete their accounts\r\n    function deleteUser() public {\r\n        bytes32 uncasedUserNameHash = addressDirectory[msg.sender];\r\n        require(initialized(uncasedUserNameHash), \"No user associated with the sender address.\");\r\n\r\n        string memory casedUserName = userDirectory[uncasedUserNameHash].casedUserName;\r\n\r\n        delete addressDirectory[msg.sender];\r\n        delete userDirectory[uncasedUserNameHash];\r\n\r\n        emit UserDeleted(casedUserName);\r\n    }\r\n\r\n    // Allows the Hydro API to link to the Hydro token\r\n    function setHydroTokenAddress(address _hydroTokenAddress) public onlyOwner {\r\n        hydroTokenAddress = _hydroTokenAddress;\r\n    }\r\n\r\n    // Allows the Hydro API to set minimum hydro balances required for sign ups\r\n    function setMinimumHydroStakes(uint newMinimumHydroStakeUser, uint newMinimumHydroStakeDelegatedUser)\r\n        public onlyOwner\r\n    {\r\n        HydroInterface hydro = HydroInterface(hydroTokenAddress);\r\n        // <= the airdrop amount\r\n        require(newMinimumHydroStakeUser <= (222222 * 10**18), \"Stake is too high.\");\r\n        // <= 1% of total supply\r\n        require(newMinimumHydroStakeDelegatedUser <= (hydro.totalSupply() / 100), \"Stake is too high.\");\r\n        minimumHydroStakeUser = newMinimumHydroStakeUser;\r\n        minimumHydroStakeDelegatedUser = newMinimumHydroStakeDelegatedUser;\r\n    }\r\n\r\n    // Returns a bool indicating whether a given userName has been claimed (either exactly or as any case-variant)\r\n    function userNameTaken(string memory userName) public view returns (bool taken) {\r\n        bytes32 uncasedUserNameHash = keccak256(abi.encodePacked(userName.lower()));\r\n        return initialized(uncasedUserNameHash);\r\n    }\r\n\r\n    // Returns user details (including cased username) by any cased/uncased user name that maps to a particular user\r\n    function getUserByName(string memory userName) public view returns (string memory casedUserName, address userAddress) {\r\n        bytes32 uncasedUserNameHash = keccak256(abi.encodePacked(userName.lower()));\r\n        require(initialized(uncasedUserNameHash), \"User does not exist.\");\r\n\r\n        return (userDirectory[uncasedUserNameHash].casedUserName, userDirectory[uncasedUserNameHash].userAddress);\r\n    }\r\n\r\n    // Returns user details by user address\r\n    function getUserByAddress(address _address) public view returns (string memory casedUserName) {\r\n        bytes32 uncasedUserNameHash = addressDirectory[_address];\r\n        require(initialized(uncasedUserNameHash), \"User does not exist.\");\r\n\r\n        return userDirectory[uncasedUserNameHash].casedUserName;\r\n    }\r\n\r\n    // Checks whether the provided (v, r, s) signature was created by the private key associated with _address\r\n    function isSigned(address _address, bytes32 messageHash, uint8 v, bytes32 r, bytes32 s) public pure returns (bool) {\r\n        return (_isSigned(_address, messageHash, v, r, s) || _isSignedPrefixed(_address, messageHash, v, r, s));\r\n    }\r\n\r\n    // Checks unprefixed signatures\r\n    function _isSigned(address _address, bytes32 messageHash, uint8 v, bytes32 r, bytes32 s)\r\n        internal\r\n        pure\r\n        returns (bool)\r\n    {\r\n        return ecrecover(messageHash, v, r, s) == _address;\r\n    }\r\n\r\n    // Checks prefixed signatures (e.g. those created with web3.eth.sign)\r\n    function _isSignedPrefixed(address _address, bytes32 messageHash, uint8 v, bytes32 r, bytes32 s)\r\n        internal\r\n        pure\r\n        returns (bool)\r\n    {\r\n        bytes memory prefix = \"\\x19Ethereum Signed Message:\\n32\";\r\n        bytes32 prefixedMessageHash = keccak256(abi.encodePacked(prefix, messageHash));\r\n\r\n        return ecrecover(prefixedMessageHash, v, r, s) == _address;\r\n    }\r\n\r\n    // Common internal logic for all user signups\r\n    function _userSignUp(string memory casedUserName, address userAddress) internal {\r\n        require(!initialized(addressDirectory[userAddress]), \"Address already registered.\");\r\n\r\n        require(bytes(casedUserName).length < 31, \"Username too long.\");\r\n        require(bytes(casedUserName).length > 3, \"Username too short.\");\r\n\r\n        bytes32 uncasedUserNameHash = keccak256(abi.encodePacked(casedUserName.toSlice().copy().toString().lower()));\r\n        require(!initialized(uncasedUserNameHash), \"Username taken.\");\r\n\r\n        userDirectory[uncasedUserNameHash] = User(casedUserName, userAddress);\r\n        addressDirectory[userAddress] = uncasedUserNameHash;\r\n\r\n        emit UserSignUp(casedUserName, userAddress);\r\n    }\r\n\r\n    function initialized(bytes32 uncasedUserNameHash) internal view returns (bool) {\r\n        return userDirectory[uncasedUserNameHash].userAddress != address(0); // a sufficient initialization check\r\n    }\r\n}\r\n",
  "sourcePath": "C:/Users/Juan/Documents/JL/ETHER/HYDRO/hst/contracts/_testing/OldClientRaindrop.sol",
  "compiler": {
    "name": "solc",
    "version": "0.5.4+commit.9549d8ff.Emscripten.clang"
  },
  "schemaVersion": "3.0.6",
  "updatedAt": "2019-04-18T14:32:52.866Z",
  "devdoc": {
    "methods": {
      "isOwner()": {
        "return": "true if `msg.sender` is the owner of the contract.\r"
      },
      "owner()": {
        "return": "the address of the owner.\r"
      },
      "renounceOwnership()": {
        "details": "Allows the current owner to relinquish control of the contract.\r"
      },
      "transferOwnership(address)": {
        "details": "Allows the current owner to transfer control of the contract to a newOwner.\r",
        "params": {
          "newOwner": "The address to transfer ownership to.\r"
        }
      }
    }
  },
  "userdoc": {
    "methods": {
      "renounceOwnership()": {
        "notice": "Renouncing to ownership will leave the contract without an owner.\r It will not be possible to call the functions with the `onlyOwner`\r modifier anymore.\r"
      }
    }
  }
}