{
  "contractName": "SignatureVerifier",
  "abi": [
    {
      "constant": true,
      "inputs": [
        {
          "name": "_address",
          "type": "address"
        },
        {
          "name": "messageHash",
          "type": "bytes32"
        },
        {
          "name": "v",
          "type": "uint8"
        },
        {
          "name": "r",
          "type": "bytes32"
        },
        {
          "name": "s",
          "type": "bytes32"
        }
      ],
      "name": "isSigned",
      "outputs": [
        {
          "name": "",
          "type": "bool"
        }
      ],
      "payable": false,
      "stateMutability": "pure",
      "type": "function"
    }
  ],
  "bytecode": "0x608060405234801561001057600080fd5b50610263806100206000396000f3fe608060405234801561001057600080fd5b5060043610610047577c010000000000000000000000000000000000000000000000000000000060003504638677ebe8811461004c575b600080fd5b61009a600480360360a081101561006257600080fd5b5073ffffffffffffffffffffffffffffffffffffffff8135169060208101359060ff60408201351690606081013590608001356100ae565b604080519115158252519081900360200190f35b60006100bd86868686866100da565b806100d057506100d0868686868661017c565b9695505050505050565b60008573ffffffffffffffffffffffffffffffffffffffff1660018686868660405160008152602001604052604051808581526020018460ff1660ff1681526020018381526020018281526020019450505050506020604051602081039080840390855afa158015610150573d6000803e3d6000fd5b5050506020604051035173ffffffffffffffffffffffffffffffffffffffff1614905095945050505050565b604080518082018252601c8082527f19457468657265756d205369676e6564204d6573736167653a0a3332000000006020808401918252935160009461022c938b9386938c9301918291908083835b602083106101ea5780518252601f1990920191602091820191016101cb565b51815160209384036101000a600019018019909216911617905292019384525060408051808503815293820190528251920191909120915088905087876100da565b97965050505050505056fea165627a7a72305820cb3614694102440ff1f1b0682958e34ccb24b1ba549ad431138481d9371be4080029",
  "source": "pragma solidity ^0.5.0;\r\n\r\n/// @title Provides helper functions to determine the validity of passed signatures.\r\n/// @author Noah Zinsmeister\r\n/// @dev Supports both prefixed and un-prefixed signatures.\r\ncontract SignatureVerifier {\r\n    /// @notice Determines whether the passed signature of `messageHash` was made by the private key of `_address`.\r\n    /// @param _address The address that may or may not have signed the passed messageHash.\r\n    /// @param messageHash The messageHash that may or may not have been signed.\r\n    /// @param v The v component of the signature.\r\n    /// @param r The r component of the signature.\r\n    /// @param s The s component of the signature.\r\n    /// @return true if the signature can be verified, false otherwise.\r\n    function isSigned(address _address, bytes32 messageHash, uint8 v, bytes32 r, bytes32 s) public pure returns (bool) {\r\n        return _isSigned(_address, messageHash, v, r, s) || _isSignedPrefixed(_address, messageHash, v, r, s);\r\n    }\r\n\r\n    /// @dev Checks unprefixed signatures.\r\n    function _isSigned(address _address, bytes32 messageHash, uint8 v, bytes32 r, bytes32 s)\r\n        internal pure returns (bool)\r\n    {\r\n        return ecrecover(messageHash, v, r, s) == _address;\r\n    }\r\n\r\n    /// @dev Checks prefixed signatures.\r\n    function _isSignedPrefixed(address _address, bytes32 messageHash, uint8 v, bytes32 r, bytes32 s)\r\n        internal pure returns (bool)\r\n    {\r\n        bytes memory prefix = \"\\x19Ethereum Signed Message:\\n32\";\r\n        return _isSigned(_address, keccak256(abi.encodePacked(prefix, messageHash)), v, r, s);\r\n    }\r\n}\r\n",
  "sourcePath": "C:\\Users\\Juan\\Documents\\JL\\ETHER\\HYDRO\\hst\\contracts\\_testing\\SignatureVerifier.sol",
  "compiler": {
    "name": "solc",
    "version": "0.5.4+commit.9549d8ff.Emscripten.clang"
  },
  "schemaVersion": "3.0.6",
  "updatedAt": "2019-04-18T18:42:03.988Z",
  "devdoc": {
    "details": "Supports both prefixed and un-prefixed signatures.",
    "methods": {
      "isSigned(address,bytes32,uint8,bytes32,bytes32)": {
        "return": "true if the signature can be verified, false otherwise."
      }
    }
  },
  "userdoc": {
    "methods": {}
  }
}