{
  "contractName": "Snowflake",
  "abi": [
    {
      "constant": true,
      "inputs": [
        {
          "name": "",
          "type": "uint256"
        }
      ],
      "name": "signatureNonce",
      "outputs": [
        {
          "name": "",
          "type": "uint256"
        }
      ],
      "payable": false,
      "stateMutability": "view",
      "type": "function"
    },
    {
      "constant": true,
      "inputs": [],
      "name": "clientRaindropAddress",
      "outputs": [
        {
          "name": "",
          "type": "address"
        }
      ],
      "payable": false,
      "stateMutability": "view",
      "type": "function"
    },
    {
      "constant": true,
      "inputs": [],
      "name": "signatureTimeout",
      "outputs": [
        {
          "name": "",
          "type": "uint256"
        }
      ],
      "payable": false,
      "stateMutability": "view",
      "type": "function"
    },
    {
      "constant": false,
      "inputs": [],
      "name": "renounceOwnership",
      "outputs": [],
      "payable": false,
      "stateMutability": "nonpayable",
      "type": "function"
    },
    {
      "constant": true,
      "inputs": [],
      "name": "hydroTokenAddress",
      "outputs": [
        {
          "name": "",
          "type": "address"
        }
      ],
      "payable": false,
      "stateMutability": "view",
      "type": "function"
    },
    {
      "constant": true,
      "inputs": [],
      "name": "owner",
      "outputs": [
        {
          "name": "",
          "type": "address"
        }
      ],
      "payable": false,
      "stateMutability": "view",
      "type": "function"
    },
    {
      "constant": true,
      "inputs": [],
      "name": "isOwner",
      "outputs": [
        {
          "name": "",
          "type": "bool"
        }
      ],
      "payable": false,
      "stateMutability": "view",
      "type": "function"
    },
    {
      "constant": true,
      "inputs": [],
      "name": "identityRegistryAddress",
      "outputs": [
        {
          "name": "",
          "type": "address"
        }
      ],
      "payable": false,
      "stateMutability": "view",
      "type": "function"
    },
    {
      "constant": true,
      "inputs": [
        {
          "name": "",
          "type": "uint256"
        }
      ],
      "name": "deposits",
      "outputs": [
        {
          "name": "",
          "type": "uint256"
        }
      ],
      "payable": false,
      "stateMutability": "view",
      "type": "function"
    },
    {
      "constant": true,
      "inputs": [
        {
          "name": "",
          "type": "uint256"
        },
        {
          "name": "",
          "type": "address"
        }
      ],
      "name": "resolverAllowances",
      "outputs": [
        {
          "name": "",
          "type": "uint256"
        }
      ],
      "payable": false,
      "stateMutability": "view",
      "type": "function"
    },
    {
      "constant": false,
      "inputs": [
        {
          "name": "newOwner",
          "type": "address"
        }
      ],
      "name": "transferOwnership",
      "outputs": [],
      "payable": false,
      "stateMutability": "nonpayable",
      "type": "function"
    },
    {
      "inputs": [
        {
          "name": "_identityRegistryAddress",
          "type": "address"
        },
        {
          "name": "_hydroTokenAddress",
          "type": "address"
        }
      ],
      "payable": false,
      "stateMutability": "nonpayable",
      "type": "constructor"
    },
    {
      "anonymous": false,
      "inputs": [
        {
          "indexed": true,
          "name": "ein",
          "type": "uint256"
        },
        {
          "indexed": false,
          "name": "newProviders",
          "type": "address[]"
        },
        {
          "indexed": false,
          "name": "oldProviders",
          "type": "address[]"
        },
        {
          "indexed": false,
          "name": "approvingAddress",
          "type": "address"
        }
      ],
      "name": "SnowflakeProvidersUpgraded",
      "type": "event"
    },
    {
      "anonymous": false,
      "inputs": [
        {
          "indexed": true,
          "name": "ein",
          "type": "uint256"
        },
        {
          "indexed": true,
          "name": "resolver",
          "type": "address"
        },
        {
          "indexed": false,
          "name": "withdrawAllowance",
          "type": "uint256"
        }
      ],
      "name": "SnowflakeResolverAdded",
      "type": "event"
    },
    {
      "anonymous": false,
      "inputs": [
        {
          "indexed": true,
          "name": "ein",
          "type": "uint256"
        },
        {
          "indexed": true,
          "name": "resolver",
          "type": "address"
        },
        {
          "indexed": false,
          "name": "withdrawAllowance",
          "type": "uint256"
        }
      ],
      "name": "SnowflakeResolverAllowanceChanged",
      "type": "event"
    },
    {
      "anonymous": false,
      "inputs": [
        {
          "indexed": true,
          "name": "ein",
          "type": "uint256"
        },
        {
          "indexed": true,
          "name": "resolver",
          "type": "address"
        }
      ],
      "name": "SnowflakeResolverRemoved",
      "type": "event"
    },
    {
      "anonymous": false,
      "inputs": [
        {
          "indexed": true,
          "name": "from",
          "type": "address"
        },
        {
          "indexed": true,
          "name": "einTo",
          "type": "uint256"
        },
        {
          "indexed": false,
          "name": "amount",
          "type": "uint256"
        }
      ],
      "name": "SnowflakeDeposit",
      "type": "event"
    },
    {
      "anonymous": false,
      "inputs": [
        {
          "indexed": true,
          "name": "einFrom",
          "type": "uint256"
        },
        {
          "indexed": true,
          "name": "einTo",
          "type": "uint256"
        },
        {
          "indexed": false,
          "name": "amount",
          "type": "uint256"
        }
      ],
      "name": "SnowflakeTransfer",
      "type": "event"
    },
    {
      "anonymous": false,
      "inputs": [
        {
          "indexed": true,
          "name": "einFrom",
          "type": "uint256"
        },
        {
          "indexed": true,
          "name": "to",
          "type": "address"
        },
        {
          "indexed": false,
          "name": "amount",
          "type": "uint256"
        }
      ],
      "name": "SnowflakeWithdraw",
      "type": "event"
    },
    {
      "anonymous": false,
      "inputs": [
        {
          "indexed": true,
          "name": "resolverFrom",
          "type": "address"
        }
      ],
      "name": "SnowflakeTransferFrom",
      "type": "event"
    },
    {
      "anonymous": false,
      "inputs": [
        {
          "indexed": true,
          "name": "resolverFrom",
          "type": "address"
        }
      ],
      "name": "SnowflakeWithdrawFrom",
      "type": "event"
    },
    {
      "anonymous": false,
      "inputs": [
        {
          "indexed": true,
          "name": "resolverFrom",
          "type": "address"
        },
        {
          "indexed": true,
          "name": "einTo",
          "type": "uint256"
        }
      ],
      "name": "SnowflakeTransferFromVia",
      "type": "event"
    },
    {
      "anonymous": false,
      "inputs": [
        {
          "indexed": true,
          "name": "resolverFrom",
          "type": "address"
        },
        {
          "indexed": true,
          "name": "to",
          "type": "address"
        }
      ],
      "name": "SnowflakeWithdrawFromVia",
      "type": "event"
    },
    {
      "anonymous": false,
      "inputs": [
        {
          "indexed": true,
          "name": "resolverFrom",
          "type": "address"
        },
        {
          "indexed": true,
          "name": "via",
          "type": "address"
        },
        {
          "indexed": true,
          "name": "einTo",
          "type": "uint256"
        },
        {
          "indexed": false,
          "name": "amount",
          "type": "uint256"
        }
      ],
      "name": "SnowflakeTransferToVia",
      "type": "event"
    },
    {
      "anonymous": false,
      "inputs": [
        {
          "indexed": true,
          "name": "resolverFrom",
          "type": "address"
        },
        {
          "indexed": true,
          "name": "via",
          "type": "address"
        },
        {
          "indexed": true,
          "name": "to",
          "type": "address"
        },
        {
          "indexed": false,
          "name": "amount",
          "type": "uint256"
        }
      ],
      "name": "SnowflakeWithdrawToVia",
      "type": "event"
    },
    {
      "anonymous": false,
      "inputs": [
        {
          "indexed": true,
          "name": "ein",
          "type": "uint256"
        },
        {
          "indexed": true,
          "name": "resolver",
          "type": "address"
        },
        {
          "indexed": false,
          "name": "currentAllowance",
          "type": "uint256"
        },
        {
          "indexed": false,
          "name": "requestedWithdraw",
          "type": "uint256"
        }
      ],
      "name": "SnowflakeInsufficientAllowance",
      "type": "event"
    },
    {
      "anonymous": false,
      "inputs": [
        {
          "indexed": true,
          "name": "previousOwner",
          "type": "address"
        },
        {
          "indexed": true,
          "name": "newOwner",
          "type": "address"
        }
      ],
      "name": "OwnershipTransferred",
      "type": "event"
    },
    {
      "constant": false,
      "inputs": [
        {
          "name": "_identityRegistryAddress",
          "type": "address"
        },
        {
          "name": "_hydroTokenAddress",
          "type": "address"
        }
      ],
      "name": "setAddresses",
      "outputs": [],
      "payable": false,
      "stateMutability": "nonpayable",
      "type": "function"
    },
    {
      "constant": false,
      "inputs": [
        {
          "name": "_clientRaindropAddress",
          "type": "address"
        }
      ],
      "name": "setClientRaindropAddress",
      "outputs": [],
      "payable": false,
      "stateMutability": "nonpayable",
      "type": "function"
    },
    {
      "constant": false,
      "inputs": [
        {
          "name": "recoveryAddress",
          "type": "address"
        },
        {
          "name": "associatedAddress",
          "type": "address"
        },
        {
          "name": "providers",
          "type": "address[]"
        },
        {
          "name": "casedHydroId",
          "type": "string"
        },
        {
          "name": "v",
          "type": "uint8"
        },
        {
          "name": "r",
          "type": "bytes32"
        },
        {
          "name": "s",
          "type": "bytes32"
        },
        {
          "name": "timestamp",
          "type": "uint256"
        }
      ],
      "name": "createIdentityDelegated",
      "outputs": [
        {
          "name": "ein",
          "type": "uint256"
        }
      ],
      "payable": false,
      "stateMutability": "nonpayable",
      "type": "function"
    },
    {
      "constant": false,
      "inputs": [
        {
          "name": "approvingAddress",
          "type": "address"
        },
        {
          "name": "providers",
          "type": "address[]"
        },
        {
          "name": "v",
          "type": "uint8"
        },
        {
          "name": "r",
          "type": "bytes32"
        },
        {
          "name": "s",
          "type": "bytes32"
        },
        {
          "name": "timestamp",
          "type": "uint256"
        }
      ],
      "name": "addProvidersFor",
      "outputs": [],
      "payable": false,
      "stateMutability": "nonpayable",
      "type": "function"
    },
    {
      "constant": false,
      "inputs": [
        {
          "name": "approvingAddress",
          "type": "address"
        },
        {
          "name": "providers",
          "type": "address[]"
        },
        {
          "name": "v",
          "type": "uint8"
        },
        {
          "name": "r",
          "type": "bytes32"
        },
        {
          "name": "s",
          "type": "bytes32"
        },
        {
          "name": "timestamp",
          "type": "uint256"
        }
      ],
      "name": "removeProvidersFor",
      "outputs": [],
      "payable": false,
      "stateMutability": "nonpayable",
      "type": "function"
    },
    {
      "constant": false,
      "inputs": [
        {
          "name": "approvingAddress",
          "type": "address"
        },
        {
          "name": "newProviders",
          "type": "address[]"
        },
        {
          "name": "oldProviders",
          "type": "address[]"
        },
        {
          "name": "v",
          "type": "uint8[2]"
        },
        {
          "name": "r",
          "type": "bytes32[2]"
        },
        {
          "name": "s",
          "type": "bytes32[2]"
        },
        {
          "name": "timestamp",
          "type": "uint256[2]"
        }
      ],
      "name": "upgradeProvidersFor",
      "outputs": [],
      "payable": false,
      "stateMutability": "nonpayable",
      "type": "function"
    },
    {
      "constant": false,
      "inputs": [
        {
          "name": "resolver",
          "type": "address"
        },
        {
          "name": "isSnowflake",
          "type": "bool"
        },
        {
          "name": "withdrawAllowance",
          "type": "uint256"
        },
        {
          "name": "extraData",
          "type": "bytes"
        }
      ],
      "name": "addResolver",
      "outputs": [],
      "payable": false,
      "stateMutability": "nonpayable",
      "type": "function"
    },
    {
      "constant": false,
      "inputs": [
        {
          "name": "ein",
          "type": "uint256"
        },
        {
          "name": "resolver",
          "type": "address"
        },
        {
          "name": "isSnowflake",
          "type": "bool"
        },
        {
          "name": "withdrawAllowance",
          "type": "uint256"
        },
        {
          "name": "extraData",
          "type": "bytes"
        }
      ],
      "name": "addResolverAsProvider",
      "outputs": [],
      "payable": false,
      "stateMutability": "nonpayable",
      "type": "function"
    },
    {
      "constant": false,
      "inputs": [
        {
          "name": "approvingAddress",
          "type": "address"
        },
        {
          "name": "resolver",
          "type": "address"
        },
        {
          "name": "isSnowflake",
          "type": "bool"
        },
        {
          "name": "withdrawAllowance",
          "type": "uint256"
        },
        {
          "name": "extraData",
          "type": "bytes"
        },
        {
          "name": "v",
          "type": "uint8"
        },
        {
          "name": "r",
          "type": "bytes32"
        },
        {
          "name": "s",
          "type": "bytes32"
        },
        {
          "name": "timestamp",
          "type": "uint256"
        }
      ],
      "name": "addResolverFor",
      "outputs": [],
      "payable": false,
      "stateMutability": "nonpayable",
      "type": "function"
    },
    {
      "constant": false,
      "inputs": [
        {
          "name": "approvingAddress",
          "type": "address"
        },
        {
          "name": "resolvers",
          "type": "address[]"
        },
        {
          "name": "withdrawAllowances",
          "type": "uint256[]"
        },
        {
          "name": "v",
          "type": "uint8"
        },
        {
          "name": "r",
          "type": "bytes32"
        },
        {
          "name": "s",
          "type": "bytes32"
        }
      ],
      "name": "changeResolverAllowancesDelegated",
      "outputs": [],
      "payable": false,
      "stateMutability": "nonpayable",
      "type": "function"
    },
    {
      "constant": false,
      "inputs": [
        {
          "name": "resolvers",
          "type": "address[]"
        },
        {
          "name": "withdrawAllowances",
          "type": "uint256[]"
        }
      ],
      "name": "changeResolverAllowances",
      "outputs": [],
      "payable": false,
      "stateMutability": "nonpayable",
      "type": "function"
    },
    {
      "constant": false,
      "inputs": [
        {
          "name": "approvingAddress",
          "type": "address"
        },
        {
          "name": "resolver",
          "type": "address"
        },
        {
          "name": "isSnowflake",
          "type": "bool"
        },
        {
          "name": "extraData",
          "type": "bytes"
        },
        {
          "name": "v",
          "type": "uint8"
        },
        {
          "name": "r",
          "type": "bytes32"
        },
        {
          "name": "s",
          "type": "bytes32"
        },
        {
          "name": "timestamp",
          "type": "uint256"
        }
      ],
      "name": "removeResolverFor",
      "outputs": [],
      "payable": false,
      "stateMutability": "nonpayable",
      "type": "function"
    },
    {
      "constant": false,
      "inputs": [
        {
          "name": "resolver",
          "type": "address"
        },
        {
          "name": "isSnowflake",
          "type": "bool"
        },
        {
          "name": "extraData",
          "type": "bytes"
        }
      ],
      "name": "removeResolver",
      "outputs": [],
      "payable": false,
      "stateMutability": "nonpayable",
      "type": "function"
    },
    {
      "constant": false,
      "inputs": [
        {
          "name": "approvingAddress",
          "type": "address"
        },
        {
          "name": "newRecoveryAddress",
          "type": "address"
        },
        {
          "name": "v",
          "type": "uint8"
        },
        {
          "name": "r",
          "type": "bytes32"
        },
        {
          "name": "s",
          "type": "bytes32"
        }
      ],
      "name": "triggerRecoveryAddressChangeFor",
      "outputs": [],
      "payable": false,
      "stateMutability": "nonpayable",
      "type": "function"
    },
    {
      "constant": false,
      "inputs": [
        {
          "name": "sender",
          "type": "address"
        },
        {
          "name": "amount",
          "type": "uint256"
        },
        {
          "name": "_tokenAddress",
          "type": "address"
        },
        {
          "name": "_bytes",
          "type": "bytes"
        }
      ],
      "name": "receiveApproval",
      "outputs": [],
      "payable": false,
      "stateMutability": "nonpayable",
      "type": "function"
    },
    {
      "constant": false,
      "inputs": [
        {
          "name": "einTo",
          "type": "uint256"
        },
        {
          "name": "amount",
          "type": "uint256"
        }
      ],
      "name": "transferSnowflakeBalance",
      "outputs": [],
      "payable": false,
      "stateMutability": "nonpayable",
      "type": "function"
    },
    {
      "constant": false,
      "inputs": [
        {
          "name": "to",
          "type": "address"
        },
        {
          "name": "amount",
          "type": "uint256"
        }
      ],
      "name": "withdrawSnowflakeBalance",
      "outputs": [],
      "payable": false,
      "stateMutability": "nonpayable",
      "type": "function"
    },
    {
      "constant": false,
      "inputs": [
        {
          "name": "einFrom",
          "type": "uint256"
        },
        {
          "name": "einTo",
          "type": "uint256"
        },
        {
          "name": "amount",
          "type": "uint256"
        }
      ],
      "name": "transferSnowflakeBalanceFrom",
      "outputs": [],
      "payable": false,
      "stateMutability": "nonpayable",
      "type": "function"
    },
    {
      "constant": false,
      "inputs": [
        {
          "name": "einFrom",
          "type": "uint256"
        },
        {
          "name": "to",
          "type": "address"
        },
        {
          "name": "amount",
          "type": "uint256"
        }
      ],
      "name": "withdrawSnowflakeBalanceFrom",
      "outputs": [],
      "payable": false,
      "stateMutability": "nonpayable",
      "type": "function"
    },
    {
      "constant": false,
      "inputs": [
        {
          "name": "einFrom",
          "type": "uint256"
        },
        {
          "name": "via",
          "type": "address"
        },
        {
          "name": "einTo",
          "type": "uint256"
        },
        {
          "name": "amount",
          "type": "uint256"
        },
        {
          "name": "_bytes",
          "type": "bytes"
        }
      ],
      "name": "transferSnowflakeBalanceFromVia",
      "outputs": [],
      "payable": false,
      "stateMutability": "nonpayable",
      "type": "function"
    },
    {
      "constant": false,
      "inputs": [
        {
          "name": "einFrom",
          "type": "uint256"
        },
        {
          "name": "via",
          "type": "address"
        },
        {
          "name": "to",
          "type": "address"
        },
        {
          "name": "amount",
          "type": "uint256"
        },
        {
          "name": "_bytes",
          "type": "bytes"
        }
      ],
      "name": "withdrawSnowflakeBalanceFromVia",
      "outputs": [],
      "payable": false,
      "stateMutability": "nonpayable",
      "type": "function"
    },
    {
      "constant": false,
      "inputs": [
        {
          "name": "destination",
          "type": "address"
        },
        {
          "name": "amount",
          "type": "uint256"
        },
        {
          "name": "data",
          "type": "bytes"
        },
        {
          "name": "approvingAddress",
          "type": "address"
        },
        {
          "name": "v",
          "type": "uint8"
        },
        {
          "name": "r",
          "type": "bytes32"
        },
        {
          "name": "s",
          "type": "bytes32"
        }
      ],
      "name": "allowAndCallDelegated",
      "outputs": [
        {
          "name": "returnData",
          "type": "bytes"
        }
      ],
      "payable": false,
      "stateMutability": "nonpayable",
      "type": "function"
    },
    {
      "constant": false,
      "inputs": [
        {
          "name": "destination",
          "type": "address"
        },
        {
          "name": "amount",
          "type": "uint256"
        },
        {
          "name": "data",
          "type": "bytes"
        }
      ],
      "name": "allowAndCall",
      "outputs": [
        {
          "name": "returnData",
          "type": "bytes"
        }
      ],
      "payable": false,
      "stateMutability": "nonpayable",
      "type": "function"
    }
  ],
  "bytecode": "0x6080604052620151806009553480156200001857600080fd5b50604051604080620054c0833981018060405260408110156200003a57600080fd5b50805160209091015160008054600160a060020a0319163317808255604051600160a060020a039190911691907f8be0079c531659141344cd1fd0a4f28419497f9722a3daafe3b4186f6b6457e0908290a3620000a18282640100000000620000a9810204565b50506200012a565b620000bc64010000000062000119810204565b1515620000c857600080fd5b60038054600160a060020a0319908116600160a060020a0394851617918290556004805492851692821692909217909155600580548216928416929092179182905560068054929093169116179055565b600054600160a060020a0316331490565b615386806200013a6000396000f3fe608060405234801561001057600080fd5b506004361061020a5760003560e060020a900480638da5cb5b1161011e578063a759ee6f116100b1578063edda781511610080578063edda7815146111c8578063ef11f9da146111fa578063efd96fbf14611226578063f2fde38b14611303578063fe89e396146113295761020a565b8063a759ee6f146110b3578063b02c43d0146110bb578063badcfbcf146110d8578063c94dbd33146111045761020a565b80639675932e116100ed5780639675932e14610d2f5780639cd5421014610dea5780639d10bb3214610eb1578063a3e9ec7314610f6e5761020a565b80638da5cb5b14610c185780638f32d59b14610c205780638f4ffcb114610c3c57806390107afe14610d015761020a565b80635437b67c116101a1578063715018a611610170578063715018a614610a3757806375d7e4bd14610a3f578063856b414e14610a4757806385b118aa14610a6d57806387d6203814610b4f5761020a565b80635437b67c146105d45780635a967ea5146105dc578063659ab4c3146107345780636be4d9b0146109105761020a565b806327a0b6d8116101dd57806327a0b6d8146103da5780633b6da7651461041f5780633e63dcc11461044257806349a79a501461050d5761020a565b806309164f9c1461020f57806312f1dbc81461023a57806313954647146102695780631dfc99c4146103b6575b600080fd5b6102386004803603606081101561022557600080fd5b50803590602081013590604001356113f0565b005b6102576004803603602081101561025057600080fd5b5035611436565b60408051918252519081900360200190f35b610341600480360360e081101561027f57600080fd5b600160a060020a03823516916020810135918101906060810160408201356401000000008111156102af57600080fd5b8201836020820111156102c157600080fd5b803590602001918460018302840111640100000000831117156102e357600080fd5b91908080601f01602080910402602001604051908101604052809392919081815260200183838082843760009201919091525092955050600160a060020a0383351693505060ff602083013516916040810135915060600135611448565b6040805160208082528351818301528351919283929083019185019080838360005b8381101561037b578181015183820152602001610363565b50505050905090810190601f1680156103a85780820380516001836020036101000a031916815260200191505b509250505060405180910390f35b6103be61150f565b60408051600160a060020a039092168252519081900360200190f35b610238600480360360a08110156103f057600080fd5b50600160a060020a03813581169160208101359091169060ff604082013516906060810135906080013561151e565b6102386004803603604081101561043557600080fd5b50803590602001356117c6565b610238600480360360a081101561045857600080fd5b813591600160a060020a03602082013581169260408301359091169160608101359181019060a08101608082013564010000000081111561049857600080fd5b8201836020820111156104aa57600080fd5b803590602001918460018302840111640100000000831117156104cc57600080fd5b91908080601f016020809104026020016040519081016040528093929190818152602001838380828437600092019190915250929550611851945050505050565b610238600480360360c081101561052357600080fd5b600160a060020a03823516919081019060408101602082013564010000000081111561054e57600080fd5b82018360208201111561056057600080fd5b8035906020019184602083028401116401000000008311171561058257600080fd5b9190808060200260200160405190810160405280939291908181526020018383602002808284376000920191909152509295505060ff83351693505050602081013590604081013590606001356119b0565b610257611ce6565b61025760048036036101008110156105f357600080fd5b600160a060020a03823581169260208101359091169181019060608101604082013564010000000081111561062757600080fd5b82018360208201111561063957600080fd5b8035906020019184602083028401116401000000008311171561065b57600080fd5b91908080602002602001604051908101604052809392919081815260200183836020028082843760009201919091525092959493602081019350359150506401000000008111156106ab57600080fd5b8201836020820111156106bd57600080fd5b803590602001918460018302840111640100000000831117156106df57600080fd5b91908080601f0160208091040260200160405190810160405280939291908181526020018383808284376000920191909152509295505060ff8335169350505060208101359060408101359060600135611cec565b610238600480360361016081101561074b57600080fd5b600160a060020a03823516919081019060408101602082013564010000000081111561077657600080fd5b82018360208201111561078857600080fd5b803590602001918460208302840111640100000000831117156107aa57600080fd5b91908080602002602001604051908101604052809392919081815260200183836020028082843760009201919091525092959493602081019350359150506401000000008111156107fa57600080fd5b82018360208201111561080c57600080fd5b8035906020019184602083028401116401000000008311171561082e57600080fd5b919080806020026020016040519081016040528093929190818152602001838360200280828437600092019190915250506040805180820182529396959481810194935091506002908390839080828437600092019190915250506040805180820182529295949381810193925090600290839083908082843760009201919091525050604080518082018252929594938181019392509060029083908390808284376000920191909152505060408051808201825292959493818101939250906002908390839080828437600092019190915250919450611fd89350505050565b6102386004803603604081101561092657600080fd5b81019060208101813564010000000081111561094157600080fd5b82018360208201111561095357600080fd5b8035906020019184602083028401116401000000008311171561097557600080fd5b91908080602002602001604051908101604052809392919081815260200183836020028082843760009201919091525092959493602081019350359150506401000000008111156109c557600080fd5b8201836020820111156109d757600080fd5b803590602001918460208302840111640100000000831117156109f957600080fd5b91908080602002602001604051908101604052809392919081815260200183836020028082843760009201919091525092955061217c945050505050565b610238612206565b6103be612270565b61023860048036036020811015610a5d57600080fd5b5035600160a060020a031661227f565b6102386004803603610120811015610a8457600080fd5b600160a060020a038235811692602081013590911691604082013515159160608101359181019060a081016080820135640100000000811115610ac657600080fd5b820183602082011115610ad857600080fd5b80359060200191846001830284011164010000000083111715610afa57600080fd5b91908080601f0160208091040260200160405190810160405280939291908181526020018383808284376000920191909152509295505060ff83351693505050602081013590604081013590606001356122ce565b610238600480360360a0811015610b6557600080fd5b813591600160a060020a0360208201351691604082013515159160608101359181019060a081016080820135640100000000811115610ba357600080fd5b820183602082011115610bb557600080fd5b80359060200191846001830284011164010000000083111715610bd757600080fd5b91908080601f01602080910402602001604051908101604052809392919081815260200183838082843760009201919091525092955061237d945050505050565b6103be612466565b610c28612475565b604080519115158252519081900360200190f35b61023860048036036080811015610c5257600080fd5b600160a060020a038235811692602081013592604082013590921691810190608081016060820135640100000000811115610c8c57600080fd5b820183602082011115610c9e57600080fd5b80359060200191846001830284011164010000000083111715610cc057600080fd5b91908080601f016020809104026020016040519081016040528093929190818152602001838380828437600092019190915250929550612486945050505050565b61023860048036036040811015610d1757600080fd5b50600160a060020a0381358116916020013516612c54565b61034160048036036060811015610d4557600080fd5b600160a060020a0382351691602081013591810190606081016040820135640100000000811115610d7557600080fd5b820183602082011115610d8757600080fd5b80359060200191846001830284011164010000000083111715610da957600080fd5b91908080601f016020809104026020016040519081016040528093929190818152602001838380828437600092019190915250929550612cc5945050505050565b610238600480360360a0811015610e0057600080fd5b813591600160a060020a036020820135169160408201359160608101359181019060a081016080820135640100000000811115610e3c57600080fd5b820183602082011115610e4e57600080fd5b80359060200191846001830284011164010000000083111715610e7057600080fd5b91908080601f016020809104026020016040519081016040528093929190818152602001838380828437600092019190915250929550612d56945050505050565b61023860048036036060811015610ec757600080fd5b600160a060020a03823516916020810135151591810190606081016040820135640100000000811115610ef957600080fd5b820183602082011115610f0b57600080fd5b80359060200191846001830284011164010000000083111715610f2d57600080fd5b91908080601f016020809104026020016040519081016040528093929190818152602001838380828437600092019190915250929550612e9a945050505050565b610238600480360360c0811015610f8457600080fd5b600160a060020a038235169190810190604081016020820135640100000000811115610faf57600080fd5b820183602082011115610fc157600080fd5b80359060200191846020830284011164010000000083111715610fe357600080fd5b919080806020026020016040519081016040528093929190818152602001838360200280828437600092019190915250929594936020810193503591505064010000000081111561103357600080fd5b82018360208201111561104557600080fd5b8035906020019184602083028401116401000000008311171561106757600080fd5b9190808060200260200160405190810160405280939291908181526020018383602002808284376000920191909152509295505060ff8335169350505060208101359060400135612f21565b6103be613197565b610257600480360360208110156110d157600080fd5b50356131a6565b610238600480360360408110156110ee57600080fd5b50600160a060020a0381351690602001356131b8565b6102386004803603608081101561111a57600080fd5b600160a060020a038235169160208101351515916040820135919081019060808101606082013564010000000081111561115357600080fd5b82018360208201111561116557600080fd5b8035906020019184600183028401116401000000008311171561118757600080fd5b91908080601f01602080910402602001604051908101604052809392919081815260200183838082843760009201919091525092955061323e945050505050565b610238600480360360608110156111de57600080fd5b50803590600160a060020a0360208201351690604001356132c6565b6102576004803603604081101561121057600080fd5b5080359060200135600160a060020a031661330b565b610238600480360361010081101561123d57600080fd5b600160a060020a03823581169260208101359091169160408201351515919081019060808101606082013564010000000081111561127a57600080fd5b82018360208201111561128c57600080fd5b803590602001918460018302840111640100000000831117156112ae57600080fd5b91908080601f0160208091040260200160405190810160405280939291908181526020018383808284376000920191909152509295505060ff8335169350505060208101359060408101359060600135613328565b6102386004803603602081101561131957600080fd5b5035600160a060020a0316613421565b610238600480360360c081101561133f57600080fd5b600160a060020a03823516919081019060408101602082013564010000000081111561136a57600080fd5b82018360208201111561137c57600080fd5b8035906020019184602083028401116401000000008311171561139e57600080fd5b9190808060200260200160405190810160405280939291908181526020018383602002808284376000920191909152509295505060ff8335169350505060208101359060408101359060600135613440565b6113fa838261372d565b6114058383836138fd565b5060405133907f3bd0280dc67bfc5c83998b5eddebb84cb266dd5fea7c8552e43f1c55110e966790600090a2505050565b600a6020526000908152604090205481565b600480546040805160e060020a6305c62c2f028152600160a060020a0388811694820194909452905160609360009316916305c62c2f916024808301926020929190829003018186803b15801561149e57600080fd5b505afa1580156114b2573d6000803e3d6000fd5b505050506040513d60208110156114c857600080fd5b50516000818152600a602052604090208054600181019091559091506114f587838c8c8c868c8c8c613add565b611501828a8c8b613d1f565b9a9950505050505050505050565b600754600160a060020a031681565b600480546040805160e060020a6305c62c2f028152600160a060020a03898116948201949094529051600093909216916305c62c2f91602480820192602092909190829003018186803b15801561157457600080fd5b505afa158015611588573d6000803e3d6000fd5b505050506040513d602081101561159e57600080fd5b50516000818152600a60209081526040808320805460018101909155600454915160f860020a6019029381018481526021820186905230606060020a810260228401529697509195600160a060020a0390931694638677ebe8948d9490939192909189918e918a91603601602c6151bd8239602c0184815260200183600160a060020a0316600160a060020a0316606060020a0281526014018281526020019650505050505050604051602081830303815290604052805190602001208888886040518663ffffffff1660e060020a0281526004018086600160a060020a0316600160a060020a031681526020018581526020018460ff1660ff1681526020018381526020018281526020019550505050505060206040518083038186803b1580156116c957600080fd5b505afa1580156116dd573d6000803e3d6000fd5b505050506040513d60208110156116f357600080fd5b50511515611739576040805160e560020a62461bcd0281526020600482015260126024820152600080516020615102833981519152604482015290519081900360640190fd5b60048054604080517f2501faa5000000000000000000000000000000000000000000000000000000008152928301859052600160a060020a0389811660248501529051911691632501faa591604480830192600092919082900301818387803b1580156117a557600080fd5b505af11580156117b9573d6000803e3d6000fd5b5050505050505050505050565b600480546040805160e060020a6305c62c2f02815233938101939093525161184c92600160a060020a03909216916305c62c2f916024808301926020929190829003018186803b15801561181957600080fd5b505afa15801561182d573d6000803e3d6000fd5b505050506040513d602081101561184357600080fd5b505183836138fd565b505050565b61185b858361372d565b611866858584613f4e565b600084905080600160a060020a0316633aaaa8a033888787876040518663ffffffff1660e060020a0281526004018086600160a060020a0316600160a060020a0316815260200185815260200184600160a060020a0316600160a060020a0316815260200183815260200180602001828103825283818151815260200191508051906020019080838360005b8381101561190a5781810151838201526020016118f2565b50505050905090810190601f1680156119375780820380516001836020036101000a031916815260200191505b509650505050505050600060405180830381600087803b15801561195a57600080fd5b505af115801561196e573d6000803e3d6000fd5b5050604051600160a060020a03871692503391507f4bf145994459e88b08345bbe483ca295ac2305df746c75740dd9d837344a9acf90600090a3505050505050565b808042101580156119c45750600954810142105b1515611a08576040805160e560020a62461bcd0281526020600482015260176024820152600080516020615216833981519152604482015290519081900360640190fd5b600480546040805160e060020a6305c62c2f028152600160a060020a038b8116948201949094529051600093909216916305c62c2f91602480820192602092909190829003018186803b158015611a5e57600080fd5b505afa158015611a72573d6000803e3d6000fd5b505050506040513d6020811015611a8857600080fd5b505160045460405160f860020a6019026020820181815260006021840181905230606060020a81026022860152959650600160a060020a0390941694638677ebe8948e94909288918f918c9160360160396152f38239603901848152602001838051906020019060200280838360005b83811015611b10578181015183820152602001611af8565b505050509050018281526020019650505050505050604051602081830303815290604052805190602001208989896040518663ffffffff1660e060020a0281526004018086600160a060020a0316600160a060020a031681526020018581526020018460ff1660ff1681526020018381526020018281526020019550505050505060206040518083038186803b158015611ba957600080fd5b505afa158015611bbd573d6000803e3d6000fd5b505050506040513d6020811015611bd357600080fd5b50511515611c19576040805160e560020a62461bcd0281526020600482015260126024820152600080516020615102833981519152604482015290519081900360640190fd5b60048054604080517f960b11f5000000000000000000000000000000000000000000000000000000008152928301848152602484019182528a5160448501528a51600160a060020a039093169363960b11f59386938d939290916064909101906020808601910280838360005b83811015611c9e578181015183820152602001611c86565b505050509050019350505050600060405180830381600087803b158015611cc457600080fd5b505af1158015611cd8573d6000803e3d6000fd5b505050505050505050505050565b60095481565b600060608751600101604051908082528060200260200182016040528015611d1e578160200160208202803883390190505b50905030816000815181101515611d3157fe5b600160a060020a0390921660209283029091019091015260005b8851811015611d9c578881815181101515611d6257fe5b906020019060200201518282600101815181101515611d7d57fe5b600160a060020a03909216602092830290910190910152600101611d4b565b50600454604080516000808252602082019092529091600160a060020a0316906314fb5646908d908d9086908c8c8c8c6040518963ffffffff1660e060020a0281526004018089600160a060020a0316600160a060020a0316815260200188600160a060020a0316600160a060020a0316815260200180602001806020018760ff1660ff168152602001868152602001858152602001848152602001838103835289818151815260200191508051906020019060200280838360005b83811015611e70578181015183820152602001611e58565b50505050905001838103825288818151815260200191508051906020019060200280838360005b83811015611eaf578181015183820152602001611e97565b505050509050019a5050505050505050505050602060405180830381600087803b158015611edc57600080fd5b505af1158015611ef0573d6000803e3d6000fd5b505050506040513d6020811015611f0657600080fd5b8101908080519060200190929190505050905061150181600760009054906101000a9004600160a060020a0316600160008e8d6040516020018083600160a060020a0316600160a060020a0316815260200180602001828103825283818151815260200191508051906020019080838360005b83811015611f91578181015183820152602001611f79565b50505050905090810190601f168015611fbe5780820380516001836020036101000a031916815260200191505b50935050505060405160208183030381529060405261414d565b8351835183518351611ff2938b938b9391929091906119b0565b61201c87868660016020020151866001602002015186600160200201518660016020020151613440565b600480546040805160e060020a6305c62c2f028152600160a060020a038b8116948201949094529051600093909216916305c62c2f91602480820192602092909190829003018186803b15801561207257600080fd5b505afa158015612086573d6000803e3d6000fd5b505050506040513d602081101561209c57600080fd5b505160408051600160a060020a038b16918101919091526060808252895190820152885191925082917f9395986444296878f4ccc8a3e3a2d2d64a2988fb3cf2fd45fd7abe7449025626918a918a918d9181906020828101916080840191888101910280838360005b8381101561211d578181015183820152602001612105565b50505050905001838103825285818151815260200191508051906020019060200280838360005b8381101561215c578181015183820152602001612144565b505050509050019550505050505060405180910390a25050505050505050565b600480546040805160e060020a6305c62c2f02815233938101939093525161220292600160a060020a03909216916305c62c2f916024808301926020929190829003018186803b1580156121cf57600080fd5b505afa1580156121e3573d6000803e3d6000fd5b505050506040513d60208110156121f957600080fd5b5051838361455a565b5050565b61220e612475565b151561221957600080fd5b60008054604051600160a060020a03909116907f8be0079c531659141344cd1fd0a4f28419497f9722a3daafe3b4186f6b6457e0908390a36000805473ffffffffffffffffffffffffffffffffffffffff19169055565b600554600160a060020a031681565b612287612475565b151561229257600080fd5b6007805473ffffffffffffffffffffffffffffffffffffffff19908116600160a060020a03938416179182905560088054929093169116179055565b600480546040805160e060020a6305c62c2f028152600160a060020a038d8116948201949094529051600093909216916305c62c2f91602480820192602092909190829003018186803b15801561232457600080fd5b505afa158015612338573d6000803e3d6000fd5b505050506040513d602081101561234e57600080fd5b505190506123648a828b8b8b8b8b8b8b8b614780565b612371818a8a8a8a61414d565b50505050505050505050565b60048054604080517f53a9698a00000000000000000000000000000000000000000000000000000000815292830188905233602484015251600160a060020a03909116916353a9698a916044808301926020929190829003018186803b1580156123e657600080fd5b505afa1580156123fa573d6000803e3d6000fd5b505050506040513d602081101561241057600080fd5b505115156124525760405160e560020a62461bcd0281526004018080602001828103825260338152602001806150476033913960400191505060405180910390fd5b61245f858585858561414d565b5050505050565b600054600160a060020a031690565b600054600160a060020a0316331490565b33600160a060020a038316146124e6576040805160e560020a62461bcd02815260206004820152601160248201527f4d616c666f726d656420696e707574732e000000000000000000000000000000604482015290519081900360640190fd5b600554600160a060020a038381169116146125355760405160e560020a62461bcd02815260040180806020018281038252602d8152602001806151e9602d913960400191505060405180910390fd5b805160201061281857600654604080517f23b872dd000000000000000000000000000000000000000000000000000000008152600160a060020a03878116600483015230602483015260448201879052915191909216916323b872dd9160648083019260209291908290030181600087803b1580156125b357600080fd5b505af11580156125c7573d6000803e3d6000fd5b505050506040513d60208110156125dd57600080fd5b5051151561261f5760405160e560020a62461bcd0281526004018080602001828103825260238152602001806152736023913960400191505060405180910390fd5b60006020825110156126b257600480546040805160e060020a6305c62c2f028152600160a060020a0389811694820194909452905192909116916305c62c2f91602480820192602092909190829003018186803b15801561267f57600080fd5b505afa158015612693573d6000803e3d6000fd5b505050506040513d60208110156126a957600080fd5b5051905061279a565b8180602001905160208110156126c757600080fd5b505160048054604080517f5b5aed3a00000000000000000000000000000000000000000000000000000000815292830184905251929350600160a060020a031691635b5aed3a91602480820192602092909190829003018186803b15801561272e57600080fd5b505afa158015612742573d6000803e3d6000fd5b505050506040513d602081101561275857600080fd5b5051151561279a5760405160e560020a62461bcd0281526004018080602001828103825260218152602001806150266021913960400191505060405180910390fd5b6000818152600160205260409020546127b9908563ffffffff614a0416565b60016000838152602001908152602001600020819055508085600160a060020a03167fc03bd73422f0f423555852c3018d2296bec6c3fb71372de56d3ce8f5984d6812866040518082815260200191505060405180910390a350612c4e565b60008060008060608580602001905160a081101561283557600080fd5b81516020830151604084015160608501516080860180519496939592949193928301929164010000000081111561286b57600080fd5b8201602081018481111561287e57600080fd5b815164010000000081118282018710171561289857600080fd5b505092919050505094509450945094509450600660009054906101000a9004600160a060020a0316600160a060020a03166323b872dd8a858b6040518463ffffffff1660e060020a0281526004018084600160a060020a0316600160a060020a0316815260200183600160a060020a0316600160a060020a031681526020018281526020019350505050602060405180830381600087803b15801561293c57600080fd5b505af1158015612950573d6000803e3d6000fd5b505050506040513d602081101561296657600080fd5b505115156129a85760405160e560020a62461bcd0281526004018080602001828103825260238152602001806152736023913960400191505060405180910390fd5b828515612aed5780600160a060020a0316633c72e43986858c866040518563ffffffff1660e060020a0281526004018085600160a060020a0316600160a060020a0316815260200184815260200183815260200180602001828103825283818151815260200191508051906020019080838360005b83811015612a35578181015183820152602001612a1d565b50505050905090810190601f168015612a625780820380516001836020036101000a031916815260200191505b5095505050505050600060405180830381600087803b158015612a8457600080fd5b505af1158015612a98573d6000803e3d6000fd5b505050508284600160a060020a031686600160a060020a03167fedb6770cb1ac0722d4ee53b473075a9d9d9ada0726d38bfc29d7cefb278a6b508c6040518082815260200191505060405180910390a4612371565b600083905081600160a060020a031663e5a1309287838d876040518563ffffffff1660e060020a0281526004018085600160a060020a0316600160a060020a0316815260200184600160a060020a0316600160a060020a0316815260200183815260200180602001828103825283818151815260200191508051906020019080838360005b83811015612b8a578181015183820152602001612b72565b50505050905090810190601f168015612bb75780820380516001836020036101000a031916815260200191505b5095505050505050600060405180830381600087803b158015612bd957600080fd5b505af1158015612bed573d6000803e3d6000fd5b5050505083600160a060020a031685600160a060020a031687600160a060020a03167f0c00f14cabae1f33bca7bd1a7510da7d1188463c014549b4817ece9db32ce67d8d6040518082815260200191505060405180910390a4505050505050505b50505050565b612c5c612475565b1515612c6757600080fd5b6003805473ffffffffffffffffffffffffffffffffffffffff19908116600160a060020a0394851617918290556004805492851692821692909217909155600580548216928416929092179182905560068054929093169116179055565b600480546040805160e060020a6305c62c2f028152339381019390935251606092612d4e92600160a060020a0316916305c62c2f91602480820192602092909190829003018186803b158015612d1a57600080fd5b505afa158015612d2e573d6000803e3d6000fd5b505050506040513d6020811015612d4457600080fd5b5051848685613d1f565b949350505050565b612d60858361372d565b612d6b858584613f4e565b600084905080600160a060020a0316631c75edfe33888787876040518663ffffffff1660e060020a0281526004018086600160a060020a0316600160a060020a0316815260200185815260200184815260200183815260200180602001828103825283818151815260200191508051906020019080838360005b83811015612dfd578181015183820152602001612de5565b50505050905090810190601f168015612e2a5780820380516001836020036101000a031916815260200191505b509650505050505050600060405180830381600087803b158015612e4d57600080fd5b505af1158015612e61573d6000803e3d6000fd5b50506040518692503391507f1dd3c359182056ab5063bcdbab2346601270459beb53cabcbd39ca79f050336890600090a3505050505050565b600480546040805160e060020a6305c62c2f02815233938101939093525161184c92600160a060020a03909216916305c62c2f916024808301926020929190829003018186803b158015612eed57600080fd5b505afa158015612f01573d6000803e3d6000fd5b505050506040513d6020811015612f1757600080fd5b5051848484614a1d565b600480546040805160e060020a6305c62c2f028152600160a060020a038a8116948201949094529051600093909216916305c62c2f91602480820192602092909190829003018186803b158015612f7757600080fd5b505afa158015612f8b573d6000803e3d6000fd5b505050506040513d6020811015612fa157600080fd5b50516000818152600a60209081526040808320805460018101909155600454915160f860020a6019029381018481526021820186905230606060020a810260228401529697509195600160a060020a0390931694638677ebe8948e9490939192909189918f918f918b9190603601602f61532c8239602f01858152602001848051906020019060200280838360005b83811015613048578181015183820152602001613030565b50505050905001838051906020019060200280838360005b83811015613078578181015183820152602001613060565b50505050905001828152602001975050505050505050604051602081830303815290604052805190602001208888886040518663ffffffff1660e060020a0281526004018086600160a060020a0316600160a060020a031681526020018581526020018460ff1660ff1681526020018381526020018281526020019550505050505060206040518083038186803b15801561311257600080fd5b505afa158015613126573d6000803e3d6000fd5b505050506040513d602081101561313c57600080fd5b50511515613182576040805160e560020a62461bcd0281526020600482015260126024820152600080516020615102833981519152604482015290519081900360640190fd5b61318d82888861455a565b5050505050505050565b600354600160a060020a031681565b60016020526000908152604090205481565b600480546040805160e060020a6305c62c2f02815233938101939093525161220292600160a060020a03909216916305c62c2f916024808301926020929190829003018186803b15801561320b57600080fd5b505afa15801561321f573d6000803e3d6000fd5b505050506040513d602081101561323557600080fd5b50518383613f4e565b600480546040805160e060020a6305c62c2f028152339381019390935251612c4e92600160a060020a03909216916305c62c2f916024808301926020929190829003018186803b15801561329157600080fd5b505afa1580156132a5573d6000803e3d6000fd5b505050506040513d60208110156132bb57600080fd5b50518585858561414d565b6132d0838261372d565b6132db838383613f4e565b60405133907f8262975dcca6e765bc0c030d671a00379895d3f60ab5f0033ca4aa088074646b90600090a2505050565b600260209081526000928352604080842090915290825290205481565b8080421015801561333c5750600954810142105b1515613380576040805160e560020a62461bcd0281526020600482015260176024820152600080516020615216833981519152604482015290519081900360640190fd5b600480546040805160e060020a6305c62c2f028152600160a060020a038d8116948201949094529051600093909216916305c62c2f91602480820192602092909190829003018186803b1580156133d657600080fd5b505afa1580156133ea573d6000803e3d6000fd5b505050506040513d602081101561340057600080fd5b505190506134158a828b8b8b8b8b8b8b614dfe565b612371818a8a8a614a1d565b613429612475565b151561343457600080fd5b61343d81614f62565b50565b808042101580156134545750600954810142105b1515613498576040805160e560020a62461bcd0281526020600482015260176024820152600080516020615216833981519152604482015290519081900360640190fd5b600480546040805160e060020a6305c62c2f028152600160a060020a038b8116948201949094529051600093909216916305c62c2f91602480820192602092909190829003018186803b1580156134ee57600080fd5b505afa158015613502573d6000803e3d6000fd5b505050506040513d602081101561351857600080fd5b505160045460405160f860020a6019026020820181815260006021840181905230606060020a81026022860152959650600160a060020a0390941694638677ebe8948e94909288918f918c91603601603d6152368239603d01848152602001838051906020019060200280838360005b838110156135a0578181015183820152602001613588565b505050509050018281526020019650505050505050604051602081830303815290604052805190602001208989896040518663ffffffff1660e060020a0281526004018086600160a060020a0316600160a060020a031681526020018581526020018460ff1660ff1681526020018381526020018281526020019550505050505060206040518083038186803b15801561363957600080fd5b505afa15801561364d573d6000803e3d6000fd5b505050506040513d602081101561366357600080fd5b505115156136a9576040805160e560020a62461bcd0281526020600482015260126024820152600080516020615102833981519152604482015290519081900360640190fd5b60048054604080517f06c93c36000000000000000000000000000000000000000000000000000000008152928301848152602484019182528a5160448501528a51600160a060020a03909316936306c93c369386938d9392909160649091019060208086019102808383600083811015611c9e578181015183820152602001611c86565b600480546040805160e260020a63352c737302815292830185905233602484015251600160a060020a039091169163d4b1cdcc916044808301926020929190829003018186803b15801561378057600080fd5b505afa158015613794573d6000803e3d6000fd5b505050506040513d60208110156137aa57600080fd5b505115156137ec5760405160e560020a62461bcd02815260040180806020018281038252602e81526020018061507a602e913960400191505060405180910390fd5b60008281526002602090815260408083203384529091529020548111156138b25760008281526002602090815260408083203380855290835292819020548151908152918201849052805185927fe8197a2184c184c738bfd08f3ee78a377cde69118a3d580480d00a9208d6bdf392908290030190a36040805160e560020a62461bcd02815260206004820152601660248201527f496e73756666696369656e7420416c6c6f77616e636500000000000000000000604482015290519081900360640190fd5b60008281526002602090815260408083203384529091529020546138dc908263ffffffff614fdf16565b60009283526002602090815260408085203386529091529092209190915550565b60048054604080517f5b5aed3a0000000000000000000000000000000000000000000000000000000081529283018590525160009285926001928392600160a060020a0390921691635b5aed3a916024808301926020929190829003018186803b15801561396a57600080fd5b505afa15801561397e573d6000803e3d6000fd5b505050506040513d602081101561399457600080fd5b50511515146139ed576040805160e560020a62461bcd02815260206004820152601760248201527f5468652045494e20646f6573206e6f742065786973742e000000000000000000604482015290519081900360640190fd5b600086815260016020526040902054841115613a3d5760405160e560020a62461bcd0281526004018080602001828103825260368152602001806152966036913960400191505060405180910390fd5b600086815260016020526040902054613a5c908563ffffffff614fdf16565b600087815260016020526040808220929092558681522054613a84908563ffffffff614a0416565b600160008781526020019081526020016000208190555084867ffc1e758cdfd0000672c8f8e0557fdae32b207ab6040726e3e91a363ac1ea234a866040518082815260200191505060405180910390a350509392505050565b600460009054906101000a9004600160a060020a0316600160a060020a0316638677ebe88a601960f860020a02600060f860020a02308d8d8d8d8d6040516020018089600160f860020a031916600160f860020a031916815260010188600160f860020a031916600160f860020a031916815260010187600160a060020a0316600160a060020a0316606060020a028152601401807f4920617574686f72697a65207468697320616c6c6f7720616e642063616c6c2e81525060200186815260200185600160a060020a0316600160a060020a0316606060020a02815260140184815260200183805190602001908083835b60208310613bee5780518252601f199092019160209182019101613bcf565b6001836020036101000a03801982511681845116808217855250505050505090500182815260200198505050505050505050604051602081830303815290604052805190602001208686866040518663ffffffff1660e060020a0281526004018086600160a060020a0316600160a060020a031681526020018581526020018460ff1660ff1681526020018381526020018281526020019550505050505060206040518083038186803b158015613ca457600080fd5b505afa158015613cb8573d6000803e3d6000fd5b505050506040513d6020811015613cce57600080fd5b50511515613d14576040805160e560020a62461bcd0281526020600482015260126024820152600080516020615102833981519152604482015290519081900360640190fd5b505050505050505050565b600480546040805160e260020a63352c7373028152928301879052600160a060020a0385811660248501529051606093919092169163d4b1cdcc91604480820192602092909190829003018186803b158015613d7a57600080fd5b505afa158015613d8e573d6000803e3d6000fd5b505050506040513d6020811015613da457600080fd5b50511515613de65760405160e560020a62461bcd028152600401808060200182810382526031815260200180614ff56031913960400191505060405180910390fd5b8315613e43576000858152600260209081526040808320600160a060020a0387168452909152902054613e1f908563ffffffff614a0416565b6000868152600260209081526040808320600160a060020a03881684529091529020555b6000606084600160a060020a0316846040518082805190602001908083835b60208310613e815780518252601f199092019160209182019101613e62565b6001836020036101000a0380198251168184511680821785525050505050509050019150506000604051808303816000865af19150503d8060008114613ee3576040519150601f19603f3d011682016040523d82523d6000602084013e613ee8565b606091505b5091509150811515613f44576040805160e560020a62461bcd02815260206004820152601860248201527f43616c6c20776173206e6f74207375636365737366756c2e0000000000000000604482015290519081900360640190fd5b9695505050505050565b600160a060020a038216301415613f995760405160e560020a62461bcd0281526004018080602001828103825260378152602001806150a86037913960400191505060405180910390fd5b600083815260016020526040902054811115613fe95760405160e560020a62461bcd0281526004018080602001828103825260368152602001806152966036913960400191505060405180910390fd5b600083815260016020526040902054614008908263ffffffff614fdf16565b60008481526001602090815260408083209390935560065483517fa9059cbb000000000000000000000000000000000000000000000000000000008152600160a060020a038781166004830152602482018790529451949091169363a9059cbb93604480840194938390030190829087803b15801561408657600080fd5b505af115801561409a573d6000803e3d6000fd5b505050506040513d60208110156140b057600080fd5b50511515614108576040805160e560020a62461bcd02815260206004820152601960248201527f5472616e736665722077617320756e7375636365737366756c00000000000000604482015290519081900360640190fd5b604080518281529051600160a060020a0384169185917faaa7de357803e36044e97c4f0d438a72b371380bff06b41e9b921b8f61cb489e9181900360200190a3505050565b600480546040805160e260020a63352c7373028152928301889052600160a060020a038781166024850152905191169163d4b1cdcc916044808301926020929190829003018186803b1580156141a257600080fd5b505afa1580156141b6573d6000803e3d6000fd5b505050506040513d60208110156141cc57600080fd5b50511561420d5760405160e560020a62461bcd0281526004018080602001828103825260278152602001806151966027913960400191505060405180910390fd5b604080516001808252818301909252606091602080830190803883390190505090508481600081518110151561423f57fe5b600160a060020a03928316602091820290920181019190915260048054604080517f010887dc0000000000000000000000000000000000000000000000000000000081529283018b815260248401918252865160448501528651929095169463010887dc948c948894929392606490910191858101910280838360005b838110156142d45781810151838201526020016142bc565b505050509050019350505050600060405180830381600087803b1580156142fa57600080fd5b505af115801561430e573d6000803e3d6000fd5b505050508315614552576000868152600260209081526040808320600160a060020a0389168085529083529281902086905580517f71790251000000000000000000000000000000000000000000000000000000008152905188939263717902519260048082019391829003018186803b15801561438b57600080fd5b505afa15801561439f573d6000803e3d6000fd5b505050506040513d60208110156143b557600080fd5b505115614510576040517f90bfaf400000000000000000000000000000000000000000000000000000000081526004810188815260248201869052606060448301908152855160648401528551600160a060020a038516936390bfaf40938c938a938a9360840190602085019080838360005b83811015614440578181015183820152602001614428565b50505050905090810190601f16801561446d5780820380516001836020036101000a031916815260200191505b50945050505050602060405180830381600087803b15801561448e57600080fd5b505af11580156144a2573d6000803e3d6000fd5b505050506040513d60208110156144b857600080fd5b50511515614510576040805160e560020a62461bcd02815260206004820152601060248201527f5369676e207570206661696c7572652e00000000000000000000000000000000604482015290519081900360640190fd5b604080518581529051600160a060020a0388169189917fa5a2dcb81990508894586bccd9070af644f5b33c720292251377ad26fc26b8809181900360200190a3505b505050505050565b80518251146145b3576040805160e560020a62461bcd02815260206004820152601160248201527f4d616c666f726d656420696e707574732e000000000000000000000000000000604482015290519081900360640190fd5b60005b8251811015612c4e576004548351600160a060020a039091169063d4b1cdcc9086908690859081106145e457fe5b906020019060200201516040518363ffffffff1660e060020a0281526004018083815260200182600160a060020a0316600160a060020a031681526020019250505060206040518083038186803b15801561463e57600080fd5b505afa158015614652573d6000803e3d6000fd5b505050506040513d602081101561466857600080fd5b505115156146aa5760405160e560020a62461bcd0281526004018080602001828103825260238152602001806150df6023913960400191505060405180910390fd5b81818151811015156146b857fe5b9060200190602002015160026000868152602001908152602001600020600085848151811015156146e557fe5b6020908102909101810151600160a060020a0316825281019190915260400160002055825183908290811061471657fe5b90602001906020020151600160a060020a0316847ffb55528a8074c988c79fef57f3a73aebf780773d5152d785bbaf700c9e3532d3848481518110151561475957fe5b906020019060200201516040518082815260200191505060405180910390a36001016145b6565b808042101580156147945750600954810142105b15156147d8576040805160e560020a62461bcd0281526020600482015260176024820152600080516020615216833981519152604482015290519081900360640190fd5b600460009054906101000a9004600160a060020a0316600160a060020a0316638677ebe88c601960f860020a02600060f860020a02308f8f8f8f8f8c604051602001808a600160f860020a031916600160f860020a031916815260010189600160f860020a031916600160f860020a031916815260010188600160a060020a0316600160a060020a0316606060020a0281526014018061515f6037913960370187815260200186600160a060020a0316600160a060020a0316606060020a028152601401851515151560f860020a02815260010184815260200183805190602001908083835b602083106148dd5780518252601f1990920191602091820191016148be565b6001836020036101000a0380198251168184511680821785525050505050509050018281526020019950505050505050505050604051602081830303815290604052805190602001208888886040518663ffffffff1660e060020a0281526004018086600160a060020a0316600160a060020a031681526020018581526020018460ff1660ff1681526020018381526020018281526020019550505050505060206040518083038186803b15801561499457600080fd5b505afa1580156149a8573d6000803e3d6000fd5b505050506040513d60208110156149be57600080fd5b505115156117b9576040805160e560020a62461bcd0281526020600482015260126024820152600080516020615102833981519152604482015290519081900360640190fd5b600082820183811015614a1657600080fd5b9392505050565b600480546040805160e260020a63352c7373028152928301879052600160a060020a038681166024850152905191169163d4b1cdcc916044808301926020929190829003018186803b158015614a7257600080fd5b505afa158015614a86573d6000803e3d6000fd5b505050506040513d6020811015614a9c57600080fd5b50511515614ade5760405160e560020a62461bcd0281526004018080602001828103825260278152602001806152cc6027913960400191505060405180910390fd5b6000848152600260209081526040808320600160a060020a03871684529091528120558115614cfd57600083905080600160a060020a0316638f06492d6040518163ffffffff1660e060020a02815260040160206040518083038186803b158015614b4857600080fd5b505afa158015614b5c573d6000803e3d6000fd5b505050506040513d6020811015614b7257600080fd5b505115614cc557604080517f9182621a0000000000000000000000000000000000000000000000000000000081526004810187815260248201928352845160448301528451600160a060020a03851693639182621a938a93889390929160640190602085019080838360005b83811015614bf6578181015183820152602001614bde565b50505050905090810190601f168015614c235780820380516001836020036101000a031916815260200191505b509350505050602060405180830381600087803b158015614c4357600080fd5b505af1158015614c57573d6000803e3d6000fd5b505050506040513d6020811015614c6d57600080fd5b50511515614cc5576040805160e560020a62461bcd02815260206004820152601060248201527f52656d6f76616c206661696c7572652e00000000000000000000000000000000604482015290519081900360640190fd5b604051600160a060020a0385169086907fd1b5265e776cc74b7c19e1f79f0eb431189105741c07f3bb870f17ce3ba4aed890600090a3505b6040805160018082528183019092526060916020808301908038833901905050905083816000815181101515614d2f57fe5b600160a060020a03928316602091820290920181019190915260048054604080517f5726f6600000000000000000000000000000000000000000000000000000000081529283018a8152602484019182528651604485015286519290951694635726f660948b948894929392606490910191858101910280838360005b83811015614dc4578181015183820152602001614dac565b505050509050019350505050600060405180830381600087803b158015614dea57600080fd5b505af1158015613d14573d6000803e3d6000fd5b60045460405160f860020a6019026020820181815260006021840181905230606060020a81026022860152600160a060020a0390951694638677ebe8948f94938f918f918f918f918c91603601603d6151228239603d8101879052606060020a600160a060020a03871602605d82015260f860020a851515026071820152835160729091019060208501908083835b60208310614eac5780518252601f199092019160209182019101614e8d565b6001836020036101000a03801982511681845116808217855250505050505090500182815260200198505050505050505050604051602081830303815290604052805190602001208787876040518663ffffffff1660e060020a0281526004018086600160a060020a0316600160a060020a031681526020018581526020018460ff1660ff1681526020018381526020018281526020019550505050505060206040518083038186803b158015613ca457600080fd5b600160a060020a0381161515614f7757600080fd5b60008054604051600160a060020a03808516939216917f8be0079c531659141344cd1fd0a4f28419497f9722a3daafe3b4186f6b6457e091a36000805473ffffffffffffffffffffffffffffffffffffffff1916600160a060020a0392909216919091179055565b600082821115614fee57600080fd5b5090039056fe44657374696e6174696f6e20686173206e6f74206265656e207365742062792066726f6d20746f6b656e686f6c6465722e54686520726563697069656e742045494e20646f6573206e6f742065786973742e546865206d73672e73656e646572206973206e6f7420612050726f766964657220666f7220746865207061737365642045494e5265736f6c76657220686173206e6f74206265656e207365742062792066726f6d20746f6b656e686f6c6465722e43616e6e6f74207472616e7366657220746f2074686520536e6f77666c616b6520736d61727420636f6e747261637420697473656c662e4964656e7469747920686173206e6f74207365742074686973207265736f6c7665722e5065726d697373696f6e2064656e6965642e00000000000000000000000000004920617574686f72697a652074686174207468657365205265736f6c766572732062652072656d6f7665642066726f6d206d79204964656e746974792e4920617574686f72697a6520746861742074686973207265736f6c76657220626520616464656420746f206d79204964656e746974792e4964656e746974792068617320616c7265616479207365742074686973207265736f6c7665722e4920617574686f72697a652074686973206368616e6765206f66205265636f7665727920416464726573732e53656e646572206973206e6f742074686520485944524f20746f6b656e20736d61727420636f6e74726163742e54696d657374616d70206973206e6f742076616c69642e0000000000000000004920617574686f72697a6520746861742074686573652050726f7669646572732062652072656d6f7665642066726f6d206d79204964656e746974792e556e61626c6520746f207472616e7366657220746f6b656e206f776e6572736869702e43616e6e6f74207769746864726177206d6f7265207468616e207468652063757272656e74206465706f7369742062616c616e63652e4964656e7469747920686173206e6f7420796574207365742074686973207265736f6c7665722e4920617574686f72697a6520746861742074686573652050726f76696465727320626520616464656420746f206d79204964656e746974792e4920617574686f72697a652074686973206368616e676520696e205265736f6c76657220616c6c6f77616e6365732ea165627a7a7230582026fc4d165deb3a7dddfe9ea28878b18eba55c98a2ef09b42f3cbde0ebb5a84540029",
  "source": "pragma solidity ^0.5.0;\r\n\r\nimport \"./zeppelin/ownership/Ownable.sol\";\r\nimport \"./zeppelin/math/SafeMath.sol\";\r\n\r\nimport \"./interfaces/HydroInterface.sol\";\r\nimport \"./interfaces/SnowflakeResolverInterface.sol\";\r\nimport \"./interfaces/SnowflakeViaInterface.sol\";\r\nimport \"./interfaces/IdentityRegistryInterface.sol\";\r\nimport \"./interfaces/ClientRaindropInterface.sol\";\r\n\r\ncontract Snowflake is Ownable {\r\n    using SafeMath for uint;\r\n\r\n    // mapping of EIN to hydro token deposits\r\n    mapping (uint => uint) public deposits;\r\n    // mapping from EIN to resolver to allowance\r\n    mapping (uint => mapping (address => uint)) public resolverAllowances;\r\n\r\n    // SC variables\r\n    address public identityRegistryAddress;\r\n    IdentityRegistryInterface private identityRegistry;\r\n    address public hydroTokenAddress;\r\n    HydroInterface private hydroToken;\r\n    address public clientRaindropAddress;\r\n    ClientRaindropInterface private clientRaindrop;\r\n\r\n    // signature variables\r\n    uint public signatureTimeout = 1 days;\r\n    mapping (uint => uint) public signatureNonce;\r\n\r\n    constructor (address _identityRegistryAddress, address _hydroTokenAddress) public {\r\n        setAddresses(_identityRegistryAddress, _hydroTokenAddress);\r\n    }\r\n\r\n    // enforces that a particular EIN exists\r\n    modifier identityExists(uint ein, bool check) {\r\n        require(identityRegistry.identityExists(ein) == check, \"The EIN does not exist.\");\r\n        _;\r\n    }\r\n\r\n    // enforces signature timeouts\r\n    modifier ensureSignatureTimeValid(uint timestamp) {\r\n        require(\r\n            // solium-disable-next-line security/no-block-members\r\n            block.timestamp >= timestamp && block.timestamp < timestamp + signatureTimeout, \"Timestamp is not valid.\"\r\n        );\r\n        _;\r\n    }\r\n\r\n\r\n    // set the hydro token and identity registry addresses\r\n    function setAddresses(address _identityRegistryAddress, address _hydroTokenAddress) public onlyOwner {\r\n        identityRegistryAddress = _identityRegistryAddress;\r\n        identityRegistry = IdentityRegistryInterface(identityRegistryAddress);\r\n\r\n        hydroTokenAddress = _hydroTokenAddress;\r\n        hydroToken = HydroInterface(hydroTokenAddress);\r\n    }\r\n\r\n    function setClientRaindropAddress(address _clientRaindropAddress) public onlyOwner {\r\n        clientRaindropAddress = _clientRaindropAddress;\r\n        clientRaindrop = ClientRaindropInterface(clientRaindropAddress);\r\n    }\r\n\r\n    // wrap createIdentityDelegated and initialize the client raindrop resolver\r\n    function createIdentityDelegated(\r\n        address recoveryAddress, address associatedAddress, address[] memory providers, string memory casedHydroId,\r\n        uint8 v, bytes32 r, bytes32 s, uint timestamp\r\n    )\r\n        public returns (uint ein)\r\n    {\r\n        address[] memory _providers = new address[](providers.length + 1);\r\n        _providers[0] = address(this);\r\n        for (uint i; i < providers.length; i++) {\r\n            _providers[i + 1] = providers[i];\r\n        }\r\n\r\n        uint _ein = identityRegistry.createIdentityDelegated(\r\n            recoveryAddress, associatedAddress, _providers, new address[](0), v, r, s, timestamp\r\n        );\r\n\r\n        _addResolver(_ein, clientRaindropAddress, true, 0, abi.encode(associatedAddress, casedHydroId));\r\n\r\n        return _ein;\r\n    }\r\n\r\n    // permission addProvidersFor by signature\r\n    function addProvidersFor(\r\n        address approvingAddress, address[] memory providers, uint8 v, bytes32 r, bytes32 s, uint timestamp\r\n    )\r\n        public ensureSignatureTimeValid(timestamp)\r\n    {\r\n        uint ein = identityRegistry.getEIN(approvingAddress);\r\n        require(\r\n            identityRegistry.isSigned(\r\n                approvingAddress,\r\n                keccak256(\r\n                    abi.encodePacked(\r\n                        byte(0x19), byte(0), address(this),\r\n                        \"I authorize that these Providers be added to my Identity.\",\r\n                        ein, providers, timestamp\r\n                    )\r\n                ),\r\n                v, r, s\r\n            ),\r\n            \"Permission denied.\"\r\n        );\r\n\r\n        identityRegistry.addProvidersFor(ein, providers);\r\n    }\r\n\r\n    // permission removeProvidersFor by signature\r\n    function removeProvidersFor(\r\n        address approvingAddress, address[] memory providers, uint8 v, bytes32 r, bytes32 s, uint timestamp\r\n    )\r\n        public ensureSignatureTimeValid(timestamp)\r\n    {\r\n        uint ein = identityRegistry.getEIN(approvingAddress);\r\n        require(\r\n            identityRegistry.isSigned(\r\n                approvingAddress,\r\n                keccak256(\r\n                    abi.encodePacked(\r\n                        byte(0x19), byte(0), address(this),\r\n                        \"I authorize that these Providers be removed from my Identity.\",\r\n                        ein, providers, timestamp\r\n                    )\r\n                ),\r\n                v, r, s\r\n            ),\r\n            \"Permission denied.\"\r\n        );\r\n\r\n        identityRegistry.removeProvidersFor(ein, providers);\r\n    }\r\n\r\n    // permissioned addProvidersFor and removeProvidersFor by signature\r\n    function upgradeProvidersFor(\r\n        address approvingAddress, address[] memory newProviders, address[] memory oldProviders,\r\n        uint8[2] memory v, bytes32[2] memory r, bytes32[2] memory s, uint[2] memory timestamp\r\n    )\r\n        public\r\n    {\r\n        addProvidersFor(approvingAddress, newProviders, v[0], r[0], s[0], timestamp[0]);\r\n        removeProvidersFor(approvingAddress, oldProviders, v[1], r[1], s[1], timestamp[1]);\r\n        uint ein = identityRegistry.getEIN(approvingAddress);\r\n        emit SnowflakeProvidersUpgraded(ein, newProviders, oldProviders, approvingAddress);\r\n    }\r\n\r\n    // permission adding a resolver for identity of msg.sender\r\n    function addResolver(address resolver, bool isSnowflake, uint withdrawAllowance, bytes memory extraData) public {\r\n        _addResolver(identityRegistry.getEIN(msg.sender), resolver, isSnowflake, withdrawAllowance, extraData);\r\n    }\r\n\r\n    // permission adding a resolver for identity passed by a provider\r\n    function addResolverAsProvider(\r\n        uint ein, address resolver, bool isSnowflake, uint withdrawAllowance, bytes memory extraData\r\n    )\r\n        public\r\n    {\r\n        require(identityRegistry.isProviderFor(ein, msg.sender), \"The msg.sender is not a Provider for the passed EIN\");\r\n        _addResolver(ein, resolver, isSnowflake, withdrawAllowance, extraData);\r\n    }\r\n\r\n    // permission addResolversFor by signature\r\n    function addResolverFor(\r\n        address approvingAddress, address resolver, bool isSnowflake, uint withdrawAllowance, bytes memory extraData,\r\n        uint8 v, bytes32 r, bytes32 s, uint timestamp\r\n    )\r\n        public\r\n    {\r\n        uint ein = identityRegistry.getEIN(approvingAddress);\r\n\r\n        validateAddResolverForSignature(\r\n            approvingAddress, ein, resolver, isSnowflake, withdrawAllowance, extraData, v, r, s, timestamp\r\n        );\r\n\r\n        _addResolver(ein, resolver, isSnowflake, withdrawAllowance, extraData);\r\n    }\r\n\r\n    function validateAddResolverForSignature(\r\n        address approvingAddress, uint ein,\r\n        address resolver, bool isSnowflake, uint withdrawAllowance, bytes memory extraData,\r\n        uint8 v, bytes32 r, bytes32 s, uint timestamp\r\n    )\r\n        private view ensureSignatureTimeValid(timestamp)\r\n    {\r\n        require(\r\n            identityRegistry.isSigned(\r\n                approvingAddress,\r\n                keccak256(\r\n                    abi.encodePacked(\r\n                        byte(0x19), byte(0), address(this),\r\n                        \"I authorize that this resolver be added to my Identity.\",\r\n                        ein, resolver, isSnowflake, withdrawAllowance, extraData, timestamp\r\n                    )\r\n                ),\r\n                v, r, s\r\n            ),\r\n            \"Permission denied.\"\r\n        );\r\n    }\r\n\r\n    // common logic for adding resolvers\r\n    function _addResolver(uint ein, address resolver, bool isSnowflake, uint withdrawAllowance, bytes memory extraData)\r\n        private\r\n    {\r\n        require(!identityRegistry.isResolverFor(ein, resolver), \"Identity has already set this resolver.\");\r\n\r\n        address[] memory resolvers = new address[](1);\r\n        resolvers[0] = resolver;\r\n        identityRegistry.addResolversFor(ein, resolvers);\r\n\r\n        if (isSnowflake) {\r\n            resolverAllowances[ein][resolver] = withdrawAllowance;\r\n            SnowflakeResolverInterface snowflakeResolver = SnowflakeResolverInterface(resolver);\r\n            if (snowflakeResolver.callOnAddition())\r\n                require(snowflakeResolver.onAddition(ein, withdrawAllowance, extraData), \"Sign up failure.\");\r\n            emit SnowflakeResolverAdded(ein, resolver, withdrawAllowance);\r\n        }\r\n    }\r\n\r\n    // permission changing resolver allowances for identity of msg.sender\r\n    function changeResolverAllowances(address[] memory resolvers, uint[] memory withdrawAllowances) public {\r\n        changeResolverAllowances(identityRegistry.getEIN(msg.sender), resolvers, withdrawAllowances);\r\n    }\r\n\r\n    // change resolver allowances delegated\r\n    function changeResolverAllowancesDelegated(\r\n        address approvingAddress, address[] memory resolvers, uint[] memory withdrawAllowances,\r\n        uint8 v, bytes32 r, bytes32 s\r\n    )\r\n        public\r\n    {\r\n        uint ein = identityRegistry.getEIN(approvingAddress);\r\n\r\n        uint nonce = signatureNonce[ein]++;\r\n        require(\r\n            identityRegistry.isSigned(\r\n                approvingAddress,\r\n                keccak256(\r\n                    abi.encodePacked(\r\n                        byte(0x19), byte(0), address(this),\r\n                        \"I authorize this change in Resolver allowances.\",\r\n                        ein, resolvers, withdrawAllowances, nonce\r\n                    )\r\n                ),\r\n                v, r, s\r\n            ),\r\n            \"Permission denied.\"\r\n        );\r\n\r\n        changeResolverAllowances(ein, resolvers, withdrawAllowances);\r\n    }\r\n\r\n    // common logic to change resolver allowances\r\n    function changeResolverAllowances(uint ein, address[] memory resolvers, uint[] memory withdrawAllowances) private {\r\n        require(resolvers.length == withdrawAllowances.length, \"Malformed inputs.\");\r\n\r\n        for (uint i; i < resolvers.length; i++) {\r\n            require(identityRegistry.isResolverFor(ein, resolvers[i]), \"Identity has not set this resolver.\");\r\n            resolverAllowances[ein][resolvers[i]] = withdrawAllowances[i];\r\n            emit SnowflakeResolverAllowanceChanged(ein, resolvers[i], withdrawAllowances[i]);\r\n        }\r\n    }\r\n\r\n    // permission removing a resolver for identity of msg.sender\r\n    function removeResolver(address resolver, bool isSnowflake, bytes memory extraData) public {\r\n        removeResolver(identityRegistry.getEIN(msg.sender), resolver, isSnowflake, extraData);\r\n    }\r\n\r\n    // permission removeResolverFor by signature\r\n    function removeResolverFor(\r\n        address approvingAddress, address resolver, bool isSnowflake, bytes memory extraData,\r\n        uint8 v, bytes32 r, bytes32 s, uint timestamp\r\n    )\r\n        public ensureSignatureTimeValid(timestamp)\r\n    {\r\n        uint ein = identityRegistry.getEIN(approvingAddress);\r\n\r\n        validateRemoveResolverForSignature(approvingAddress, ein, resolver, isSnowflake, extraData, v, r, s, timestamp);\r\n\r\n        removeResolver(ein, resolver, isSnowflake, extraData);\r\n    }\r\n\r\n    function validateRemoveResolverForSignature(\r\n        address approvingAddress, uint ein, address resolver, bool isSnowflake, bytes memory extraData,\r\n        uint8 v, bytes32 r, bytes32 s, uint timestamp\r\n    )\r\n        private view\r\n    {\r\n        require(\r\n            identityRegistry.isSigned(\r\n                approvingAddress,\r\n                keccak256(\r\n                    abi.encodePacked(\r\n                        byte(0x19), byte(0), address(this),\r\n                        \"I authorize that these Resolvers be removed from my Identity.\",\r\n                        ein, resolver, isSnowflake, extraData, timestamp\r\n                    )\r\n                ),\r\n                v, r, s\r\n            ),\r\n            \"Permission denied.\"\r\n        );\r\n    }\r\n\r\n    // common logic to remove resolvers\r\n    function removeResolver(uint ein, address resolver, bool isSnowflake, bytes memory extraData) private {\r\n        require(identityRegistry.isResolverFor(ein, resolver), \"Identity has not yet set this resolver.\");\r\n    \r\n        delete resolverAllowances[ein][resolver];\r\n    \r\n        if (isSnowflake) {\r\n            SnowflakeResolverInterface snowflakeResolver = SnowflakeResolverInterface(resolver);\r\n            if (snowflakeResolver.callOnRemoval())\r\n                require(snowflakeResolver.onRemoval(ein, extraData), \"Removal failure.\");\r\n            emit SnowflakeResolverRemoved(ein, resolver);\r\n        }\r\n\r\n        address[] memory resolvers = new address[](1);\r\n        resolvers[0] = resolver;\r\n        identityRegistry.removeResolversFor(ein, resolvers);\r\n    }\r\n\r\n    function triggerRecoveryAddressChangeFor(\r\n        address approvingAddress, address newRecoveryAddress, uint8 v, bytes32 r, bytes32 s\r\n    )\r\n        public\r\n    {\r\n        uint ein = identityRegistry.getEIN(approvingAddress);\r\n        uint nonce = signatureNonce[ein]++;\r\n        require(\r\n            identityRegistry.isSigned(\r\n                approvingAddress,\r\n                keccak256(\r\n                    abi.encodePacked(\r\n                        byte(0x19), byte(0), address(this),\r\n                        \"I authorize this change of Recovery Address.\",\r\n                        ein, newRecoveryAddress, nonce\r\n                    )\r\n                ),\r\n                v, r, s\r\n            ),\r\n            \"Permission denied.\"\r\n        );\r\n\r\n        identityRegistry.triggerRecoveryAddressChangeFor(ein, newRecoveryAddress);\r\n    }\r\n\r\n    // allow contract to receive HYDRO tokens\r\n    function receiveApproval(address sender, uint amount, address _tokenAddress, bytes memory _bytes) public {\r\n        require(msg.sender == _tokenAddress, \"Malformed inputs.\");\r\n        require(_tokenAddress == hydroTokenAddress, \"Sender is not the HYDRO token smart contract.\");\r\n\r\n        // depositing to an EIN\r\n        if (_bytes.length <= 32) {\r\n            require(hydroToken.transferFrom(sender, address(this), amount), \"Unable to transfer token ownership.\");\r\n            uint recipient;\r\n            if (_bytes.length < 32) {\r\n                recipient = identityRegistry.getEIN(sender);\r\n            }\r\n            else {\r\n                recipient = abi.decode(_bytes, (uint));\r\n                require(identityRegistry.identityExists(recipient), \"The recipient EIN does not exist.\");\r\n            }\r\n            deposits[recipient] = deposits[recipient].add(amount);\r\n            emit SnowflakeDeposit(sender, recipient, amount);\r\n        }\r\n        // transferring to a via\r\n        else {\r\n            (\r\n                bool isTransfer, address resolver, address via, uint to, bytes memory snowflakeCallBytes\r\n            ) = abi.decode(_bytes, (bool, address, address, uint, bytes));\r\n            \r\n            require(hydroToken.transferFrom(sender, via, amount), \"Unable to transfer token ownership.\");\r\n\r\n            SnowflakeViaInterface viaContract = SnowflakeViaInterface(via);\r\n            if (isTransfer) {\r\n                viaContract.snowflakeCall(resolver, to, amount, snowflakeCallBytes);\r\n                emit SnowflakeTransferToVia(resolver, via, to, amount);\r\n            } else {\r\n                address payable payableTo = address(to);\r\n                viaContract.snowflakeCall(resolver, payableTo, amount, snowflakeCallBytes);\r\n                emit SnowflakeWithdrawToVia(resolver, via, address(to), amount);\r\n            }\r\n        }\r\n    }\r\n\r\n    // transfer snowflake balance from one snowflake holder to another\r\n    function transferSnowflakeBalance(uint einTo, uint amount) public {\r\n        _transfer(identityRegistry.getEIN(msg.sender), einTo, amount);\r\n    }\r\n\r\n    // withdraw Snowflake balance to an external address\r\n    function withdrawSnowflakeBalance(address to, uint amount) public {\r\n        _withdraw(identityRegistry.getEIN(msg.sender), to, amount);\r\n    }\r\n\r\n    // allows resolvers to transfer allowance amounts to other snowflakes (throws if unsuccessful)\r\n    function transferSnowflakeBalanceFrom(uint einFrom, uint einTo, uint amount) public {\r\n        handleAllowance(einFrom, amount);\r\n        _transfer(einFrom, einTo, amount);\r\n        emit SnowflakeTransferFrom(msg.sender);\r\n    }\r\n\r\n    // allows resolvers to withdraw allowance amounts to external addresses (throws if unsuccessful)\r\n    function withdrawSnowflakeBalanceFrom(uint einFrom, address to, uint amount) public {\r\n        handleAllowance(einFrom, amount);\r\n        _withdraw(einFrom, to, amount);\r\n        emit SnowflakeWithdrawFrom(msg.sender);\r\n    }\r\n\r\n    // allows resolvers to send withdrawal amounts to arbitrary smart contracts 'to' identities (throws if unsuccessful)\r\n    function transferSnowflakeBalanceFromVia(uint einFrom, address via, uint einTo, uint amount, bytes memory _bytes)\r\n        public\r\n    {\r\n        handleAllowance(einFrom, amount);\r\n        _withdraw(einFrom, via, amount);\r\n        SnowflakeViaInterface viaContract = SnowflakeViaInterface(via);\r\n        viaContract.snowflakeCall(msg.sender, einFrom, einTo, amount, _bytes);\r\n        emit SnowflakeTransferFromVia(msg.sender, einTo);\r\n    }\r\n\r\n    // allows resolvers to send withdrawal amounts 'to' addresses via arbitrary smart contracts\r\n    function withdrawSnowflakeBalanceFromVia(\r\n        uint einFrom, address via, address payable to, uint amount, bytes memory _bytes\r\n    )\r\n        public\r\n    {\r\n        handleAllowance(einFrom, amount);\r\n        _withdraw(einFrom, via, amount);\r\n        SnowflakeViaInterface viaContract = SnowflakeViaInterface(via);\r\n        viaContract.snowflakeCall(msg.sender, einFrom, to, amount, _bytes);\r\n        emit SnowflakeWithdrawFromVia(msg.sender, to);\r\n    }\r\n\r\n    function _transfer(uint einFrom, uint einTo, uint amount) private identityExists(einTo, true) returns (bool) {\r\n        require(deposits[einFrom] >= amount, \"Cannot withdraw more than the current deposit balance.\");\r\n        deposits[einFrom] = deposits[einFrom].sub(amount);\r\n        deposits[einTo] = deposits[einTo].add(amount);\r\n\r\n        emit SnowflakeTransfer(einFrom, einTo, amount);\r\n    }\r\n\r\n    function _withdraw(uint einFrom, address to, uint amount) internal {\r\n        require(to != address(this), \"Cannot transfer to the Snowflake smart contract itself.\");\r\n\r\n        require(deposits[einFrom] >= amount, \"Cannot withdraw more than the current deposit balance.\");\r\n        deposits[einFrom] = deposits[einFrom].sub(amount);\r\n        require(hydroToken.transfer(to, amount), \"Transfer was unsuccessful\");\r\n\r\n        emit SnowflakeWithdraw(einFrom, to, amount);\r\n    }\r\n\r\n    function handleAllowance(uint einFrom, uint amount) internal {\r\n        // check that resolver-related details are correct\r\n        require(identityRegistry.isResolverFor(einFrom, msg.sender), \"Resolver has not been set by from tokenholder.\");\r\n\r\n        if (resolverAllowances[einFrom][msg.sender] < amount) {\r\n            emit SnowflakeInsufficientAllowance(einFrom, msg.sender, resolverAllowances[einFrom][msg.sender], amount);\r\n            revert(\"Insufficient Allowance\");\r\n        }\r\n\r\n        resolverAllowances[einFrom][msg.sender] = resolverAllowances[einFrom][msg.sender].sub(amount);\r\n    }\r\n\r\n    // allowAndCall from msg.sender\r\n    function allowAndCall(address destination, uint amount, bytes memory data)\r\n        public returns (bytes memory returnData)\r\n    {\r\n        return allowAndCall(identityRegistry.getEIN(msg.sender), amount, destination, data);\r\n    }\r\n\r\n    // allowAndCall from approvingAddress with meta-transaction\r\n    function allowAndCallDelegated(\r\n        address destination, uint amount, bytes memory data, address approvingAddress, uint8 v, bytes32 r, bytes32 s\r\n    )\r\n        public returns (bytes memory returnData)\r\n    {\r\n        uint ein = identityRegistry.getEIN(approvingAddress);\r\n        uint nonce = signatureNonce[ein]++;\r\n        validateAllowAndCallDelegatedSignature(approvingAddress, ein, destination, amount, data, nonce, v, r, s);\r\n\r\n        return allowAndCall(ein, amount, destination, data);\r\n    }\r\n\r\n    function validateAllowAndCallDelegatedSignature(\r\n        address approvingAddress, uint ein, address destination, uint amount, bytes memory data, uint nonce,\r\n        uint8 v, bytes32 r, bytes32 s\r\n    )\r\n        private view\r\n    {\r\n        require(\r\n            identityRegistry.isSigned(\r\n                approvingAddress,\r\n                keccak256(\r\n                    abi.encodePacked(\r\n                        byte(0x19), byte(0), address(this),\r\n                        \"I authorize this allow and call.\", ein, destination, amount, data, nonce\r\n                    )\r\n                ),\r\n                v, r, s\r\n            ),\r\n            \"Permission denied.\"\r\n        );\r\n    }\r\n\r\n    // internal logic for allowAndCall\r\n    function allowAndCall(uint ein, uint amount, address destination, bytes memory data)\r\n        private returns (bytes memory returnData)\r\n    {\r\n        // check that resolver-related details are correct\r\n        require(identityRegistry.isResolverFor(ein, destination), \"Destination has not been set by from tokenholder.\");\r\n        if (amount != 0) {\r\n            resolverAllowances[ein][destination] = resolverAllowances[ein][destination].add(amount);\r\n        }\r\n\r\n        // solium-disable-next-line security/no-low-level-calls\r\n        (bool success, bytes memory _returnData) = destination.call(data);\r\n        require(success, \"Call was not successful.\");\r\n        return _returnData;\r\n    }\r\n\r\n    // events\r\n    event SnowflakeProvidersUpgraded(uint indexed ein, address[] newProviders, address[] oldProviders, address approvingAddress);\r\n\r\n    event SnowflakeResolverAdded(uint indexed ein, address indexed resolver, uint withdrawAllowance);\r\n    event SnowflakeResolverAllowanceChanged(uint indexed ein, address indexed resolver, uint withdrawAllowance);\r\n    event SnowflakeResolverRemoved(uint indexed ein, address indexed resolver);\r\n\r\n    event SnowflakeDeposit(address indexed from, uint indexed einTo, uint amount);\r\n    event SnowflakeTransfer(uint indexed einFrom, uint indexed einTo, uint amount);\r\n    event SnowflakeWithdraw(uint indexed einFrom, address indexed to, uint amount);\r\n\r\n    event SnowflakeTransferFrom(address indexed resolverFrom);\r\n    event SnowflakeWithdrawFrom(address indexed resolverFrom);\r\n    event SnowflakeTransferFromVia(address indexed resolverFrom, uint indexed einTo);\r\n    event SnowflakeWithdrawFromVia(address indexed resolverFrom, address indexed to);\r\n    event SnowflakeTransferToVia(address indexed resolverFrom, address indexed via, uint indexed einTo, uint amount);\r\n    event SnowflakeWithdrawToVia(address indexed resolverFrom, address indexed via, address indexed to, uint amount);\r\n\r\n    event SnowflakeInsufficientAllowance(\r\n        uint indexed ein, address indexed resolver, uint currentAllowance, uint requestedWithdraw\r\n    );\r\n}\r\n",
  "sourcePath": "C:/Users/Juan/Documents/JL/ETHER/HYDRO/hst/contracts/Snowflake.sol",
  "compiler": {
    "name": "solc",
    "version": "0.5.4+commit.9549d8ff.Emscripten.clang"
  },
  "schemaVersion": "3.0.6",
  "updatedAt": "2019-04-18T14:32:52.803Z",
  "devdoc": {
    "methods": {
      "isOwner()": {
        "return": "true if `msg.sender` is the owner of the contract.\r"
      },
      "owner()": {
        "return": "the address of the owner.\r"
      },
      "renounceOwnership()": {
        "details": "Allows the current owner to relinquish control of the contract.\r"
      },
      "transferOwnership(address)": {
        "details": "Allows the current owner to transfer control of the contract to a newOwner.\r",
        "params": {
          "newOwner": "The address to transfer ownership to.\r"
        }
      }
    }
  },
  "userdoc": {
    "methods": {
      "renounceOwnership()": {
        "notice": "Renouncing to ownership will leave the contract without an owner.\r It will not be possible to call the functions with the `onlyOwner`\r modifier anymore.\r"
      }
    }
  }
}