{
  "contractName": "SnowflakeOwnable",
  "abi": [
    {
      "constant": true,
      "inputs": [],
      "name": "identityRegistry",
      "outputs": [
        {
          "name": "",
          "type": "address"
        }
      ],
      "payable": false,
      "stateMutability": "view",
      "type": "function"
    },
    {
      "constant": true,
      "inputs": [],
      "name": "owner",
      "outputs": [
        {
          "name": "",
          "type": "address"
        }
      ],
      "payable": false,
      "stateMutability": "view",
      "type": "function"
    },
    {
      "inputs": [
        {
          "name": "_identityRegistryAddress",
          "type": "address"
        }
      ],
      "payable": false,
      "stateMutability": "nonpayable",
      "type": "constructor"
    },
    {
      "anonymous": false,
      "inputs": [
        {
          "indexed": false,
          "name": "_previousOwnerEIN",
          "type": "uint256"
        },
        {
          "indexed": false,
          "name": "_newOwnerEIN",
          "type": "uint256"
        }
      ],
      "name": "OwnershipTransferred",
      "type": "event"
    },
    {
      "anonymous": false,
      "inputs": [
        {
          "indexed": true,
          "name": "previousOwner",
          "type": "address"
        },
        {
          "indexed": true,
          "name": "newOwner",
          "type": "address"
        }
      ],
      "name": "OwnershipTransferred",
      "type": "event"
    },
    {
      "constant": false,
      "inputs": [
        {
          "name": "_identityRegistryAddress",
          "type": "address"
        }
      ],
      "name": "setIdentityRegistryAddress",
      "outputs": [],
      "payable": false,
      "stateMutability": "nonpayable",
      "type": "function"
    },
    {
      "constant": true,
      "inputs": [],
      "name": "getIdentityRegistryAddress",
      "outputs": [
        {
          "name": "",
          "type": "address"
        }
      ],
      "payable": false,
      "stateMutability": "view",
      "type": "function"
    },
    {
      "constant": true,
      "inputs": [],
      "name": "getOwnerEIN",
      "outputs": [
        {
          "name": "",
          "type": "uint256"
        }
      ],
      "payable": false,
      "stateMutability": "view",
      "type": "function"
    },
    {
      "constant": true,
      "inputs": [],
      "name": "isOwner",
      "outputs": [
        {
          "name": "",
          "type": "bool"
        }
      ],
      "payable": false,
      "stateMutability": "view",
      "type": "function"
    },
    {
      "constant": false,
      "inputs": [],
      "name": "renounceOwnership",
      "outputs": [],
      "payable": false,
      "stateMutability": "nonpayable",
      "type": "function"
    },
    {
      "constant": false,
      "inputs": [
        {
          "name": "_newOwner",
          "type": "uint256"
        }
      ],
      "name": "transferOwnership",
      "outputs": [],
      "payable": false,
      "stateMutability": "nonpayable",
      "type": "function"
    },
    {
      "constant": false,
      "inputs": [
        {
          "name": "newOwner",
          "type": "address"
        }
      ],
      "name": "transferOwnership",
      "outputs": [],
      "payable": false,
      "stateMutability": "nonpayable",
      "type": "function"
    }
  ],
  "bytecode": "0x608060405234801561001057600080fd5b506040516020806109a08339810180604052602081101561003057600080fd5b505160008054600160a060020a0319163317808255604051600160a060020a039190911691907f8be0079c531659141344cd1fd0a4f28419497f9722a3daafe3b4186f6b6457e0908290a361008d81640100000000610093810204565b506102af565b6100a46401000000006101fb810204565b15156100af57600080fd5b600160a060020a0381161515610110576040517f08c379a00000000000000000000000000000000000000000000000000000000081526004018080602001828103825260298152602001806109776029913960400191505060405180910390fd5b60028054600160a060020a031916600160a060020a038381169190911791829055604080517f05c62c2f000000000000000000000000000000000000000000000000000000008152336004820152905192909116916305c62c2f91602480820192602092909190829003018186803b15801561018b57600080fd5b505afa15801561019f573d6000803e3d6000fd5b505050506040513d60208110156101b557600080fd5b505160018190556040805160008152602081019290925280517f41545563b5478d4a04f861e33b36e455316904e9fe15096d35d14a5f9885212a9281900390910190a150565b600254600090600160a060020a0316151561021557600080fd5b600254604080517f05c62c2f0000000000000000000000000000000000000000000000000000000081523360048201529051600092600160a060020a0316916305c62c2f916024808301926020929190829003018186803b15801561027957600080fd5b505afa15801561028d573d6000803e3d6000fd5b505050506040513d60208110156102a357600080fd5b50516001541491505090565b6106b9806102be6000396000f3fe608060405234801561001057600080fd5b50600436106100b0576000357c0100000000000000000000000000000000000000000000000000000000900480638f32d59b116100835780638f32d59b14610111578063bec44a461461012d578063c44a5a3514610135578063d23e84891461014f578063f2fde38b1461016c576100b0565b806311d0e357146100b5578063134e18f4146100dd578063715018a6146101015780638da5cb5b14610109575b600080fd5b6100db600480360360208110156100cb57600080fd5b5035600160a060020a0316610192565b005b6100e56102fe565b60408051600160a060020a039092168252519081900360200190f35b6100db61030d565b6100e5610392565b6101196103a1565b604080519115158252519081900360200190f35b6100e5610455565b61013d610464565b60408051918252519081900360200190f35b6100db6004803603602081101561016557600080fd5b503561046a565b6100db6004803603602081101561018257600080fd5b5035600160a060020a03166104a0565b61019a6103a1565b15156101a557600080fd5b600160a060020a0381161515610206576040517f08c379a00000000000000000000000000000000000000000000000000000000081526004018080602001828103825260298152602001806106656029913960400191505060405180910390fd5b6002805473ffffffffffffffffffffffffffffffffffffffff1916600160a060020a038381169190911791829055604080517f05c62c2f000000000000000000000000000000000000000000000000000000008152336004820152905192909116916305c62c2f91602480820192602092909190829003018186803b15801561028e57600080fd5b505afa1580156102a2573d6000803e3d6000fd5b505050506040513d60208110156102b857600080fd5b505160018190556040805160008152602081019290925280517f41545563b5478d4a04f861e33b36e455316904e9fe15096d35d14a5f9885212a9281900390910190a150565b600254600160a060020a031681565b600254600160a060020a0316151561032457600080fd5b61032c6103a1565b151561033757600080fd5b600254600160a060020a0316151561034e57600080fd5b600154604080519182526000602083015280517f41545563b5478d4a04f861e33b36e455316904e9fe15096d35d14a5f9885212a9281900390910190a16000600155565b600054600160a060020a031690565b600254600090600160a060020a031615156103bb57600080fd5b600254604080517f05c62c2f0000000000000000000000000000000000000000000000000000000081523360048201529051600092600160a060020a0316916305c62c2f916024808301926020929190829003018186803b15801561041f57600080fd5b505afa158015610433573d6000803e3d6000fd5b505050506040513d602081101561044957600080fd5b50516001541491505090565b600254600160a060020a031690565b60015490565b600254600160a060020a0316151561048157600080fd5b6104896103a1565b151561049457600080fd5b61049d816104bc565b50565b6104a86103a1565b15156104b357600080fd5b61049d816105e7565b600254600160a060020a031615156104d357600080fd5b6104db6103a1565b15156104e657600080fd5b600254600160a060020a031615156104fd57600080fd5b600254604080517f5b5aed3a000000000000000000000000000000000000000000000000000000008152600481018490529051600160a060020a0390921691635b5aed3a91602480820192602092909190829003018186803b15801561056257600080fd5b505afa158015610576573d6000803e3d6000fd5b505050506040513d602081101561058c57600080fd5b5051151561059957600080fd5b8015156105a557600080fd5b600154604080519182526020820183905280517f41545563b5478d4a04f861e33b36e455316904e9fe15096d35d14a5f9885212a9281900390910190a1600155565b600160a060020a03811615156105fc57600080fd5b60008054604051600160a060020a03808516939216917f8be0079c531659141344cd1fd0a4f28419497f9722a3daafe3b4186f6b6457e091a36000805473ffffffffffffffffffffffffffffffffffffffff1916600160a060020a039290921691909117905556fe546865206964656e746974792072656769737472792061646472657373206973207265717569726564a165627a7a72305820db28ffb4feb6749304fdf6fba2077491467d372459e960cb2a696191b5cb1fe90029546865206964656e746974792072656769737472792061646472657373206973207265717569726564",
  "source": "pragma solidity ^0.5.0;\r\n\r\nimport '../interfaces/IdentityRegistryInterface.sol';\r\nimport '../zeppelin/ownership/Ownable.sol';\r\n\r\n// DONE\r\n// import relevant Snowflake contract\r\n// contructor\r\n// function isOwner()\r\n// add getter and setter for Identity Registry address\r\n// check that Identity Registry address cannot be zero for any operation to work\r\n\r\n// TO DO\r\n// verify that new EIN for Snowflake owner has at least one associated address \r\n\r\n/**\r\n * @title SnowflakeOwnable\r\n * @notice Snowflake-based authorizations\r\n * @dev The SnowflakeOwnable contract has an owner EIN, and provides basic authorization control functions, not based on an address as it is usual, but based on an EIN. This simplifies the implementation of \"user permissions\" when using Snowflakes.\r\n * @author Fatima Castiglione Maldonado <castiglionemaldonado@gmail.com>\r\n */\r\ncontract SnowflakeOwnable is Ownable {\r\n\r\n    //address private _owner;\r\n    uint ownerEIN;\r\n\r\n    // access identity registry to get EINs for addresses\r\n    IdentityRegistryInterface public identityRegistry;\r\n\r\n    /**\r\n    * @notice Emit when transferring ownership\r\n    * @param  _previousOwnerEIN The EIN of the previous owner\r\n    * @param  _newOwnerEIN The EIN of the new owner\r\n    */\r\n    event OwnershipTransferred(uint _previousOwnerEIN, uint _newOwnerEIN);\r\n\r\n    /**\r\n    * @notice Constructor\r\n    * @dev The Ownable constructor sets the original `owner` of the contract to the sender\r\n    * account\r\n    */\r\n    constructor(address _identityRegistryAddress) public {\r\n        setIdentityRegistryAddress(_identityRegistryAddress);\r\n    }\r\n\r\n    /**\r\n    * @notice Set the address for the Identity Registry\r\n    * @param _identityRegistryAddress The address of the IdentityRegistry contract\r\n    */\r\n    function setIdentityRegistryAddress(address _identityRegistryAddress) public onlyOwner {\r\n        require(_identityRegistryAddress != address(0), 'The identity registry address is required');\r\n        identityRegistry = IdentityRegistryInterface(_identityRegistryAddress);\r\n        ownerEIN = identityRegistry.getEIN(msg.sender);\r\n        emit OwnershipTransferred(0, ownerEIN);\r\n    }\r\n\r\n    /**\r\n    * @notice Get the address for the Identity Registry\r\n    * @return The address of the IdentityRegistry contract\r\n    */\r\n    function getIdentityRegistryAddress() public view returns(address) {\r\n        return(address(identityRegistry));\r\n    }\r\n\r\n    /**\r\n    * @notice Get EIN of the current owner\r\n    * @dev This contracts allows you to set ownership based on EIN instead of address\r\n    * @return the address of the owner\r\n    */\r\n    function getOwnerEIN() public view returns(uint) {\r\n        return ownerEIN;\r\n    }\r\n\r\n    /**\r\n    * @notice Throws if called by any account other than the owner\r\n    * @dev This works on EINs, not on addresses\r\n    */\r\n    modifier onlySnowflakeOwner() {\r\n        require(address(identityRegistry) != address(0));\r\n        require(isOwner());\r\n        _;\r\n    }\r\n\r\n    /**\r\n    * @notice Check if caller is owner\r\n    * @dev This works on EINs, not on addresses\r\n    * @return true if `msg.sender` is the owner of the contract\r\n    */\r\n    function isOwner() public view returns(bool) {\r\n        require(address(identityRegistry) != address(0));\r\n        uint caller = identityRegistry.getEIN(msg.sender);\r\n        return (caller == ownerEIN);\r\n    }\r\n\r\n    /**\r\n    * @notice Allows the current owner to relinquish control of the contract\r\n    * @dev Renouncing to ownership will leave the contract without an owner. It will not be possible to call the functions with the `onlyOwner modifier anymore.\r\n    */\r\n    function renounceOwnership() public onlySnowflakeOwner {\r\n        require(address(identityRegistry) != address(0));\r\n        emit OwnershipTransferred(ownerEIN, 0);\r\n        ownerEIN = 0;\r\n    }\r\n\r\n    /**\r\n    * @notice Allows the current owner to transfer control of the contract to a newOwner\r\n    * @dev This works on EINs, not on addresses\r\n    * @param _newOwner EIN to transfer ownership to\r\n    */\r\n    function transferOwnership(uint _newOwner) public onlySnowflakeOwner {\r\n        _transferOwnership(_newOwner);\r\n    }\r\n\r\n    /**\r\n    * @notice Transfers control of the contract to a newOwner\r\n    * @dev This works on EINs, not on addresses\r\n    * @param _newOwner EIN to transfer ownership to\r\n    */\r\n    function _transferOwnership(uint _newOwner) internal onlySnowflakeOwner {\r\n        require(address(identityRegistry) != address(0));\r\n        require(identityRegistry.identityExists(_newOwner));\r\n        require(_newOwner != 0);\r\n        emit OwnershipTransferred(ownerEIN, _newOwner);\r\n        ownerEIN = _newOwner;\r\n    }\r\n}\r\n",
  "sourcePath": "C:\\Users\\Juan\\Documents\\JL\\ETHER\\HYDRO\\hst\\contracts\\components\\SnowflakeOwnable.sol",
  "compiler": {
    "name": "solc",
    "version": "0.5.4+commit.9549d8ff.Emscripten.clang"
  },
  "schemaVersion": "3.0.6",
  "updatedAt": "2019-04-18T18:42:04.051Z",
  "devdoc": {
    "author": "Fatima Castiglione Maldonado <castiglionemaldonado@gmail.com>\r",
    "details": "The SnowflakeOwnable contract has an owner EIN, and provides basic authorization control functions, not based on an address as it is usual, but based on an EIN. This simplifies the implementation of \"user permissions\" when using Snowflakes.\r",
    "methods": {
      "constructor": {
        "details": "The Ownable constructor sets the original `owner` of the contract to the sender\r account\r"
      },
      "getIdentityRegistryAddress()": {
        "return": "The address of the IdentityRegistry contract\r"
      },
      "getOwnerEIN()": {
        "details": "This contracts allows you to set ownership based on EIN instead of address\r",
        "return": "the address of the owner\r"
      },
      "isOwner()": {
        "details": "This works on EINs, not on addresses\r",
        "return": "true if `msg.sender` is the owner of the contract\r"
      },
      "owner()": {
        "return": "the address of the owner.\r"
      },
      "renounceOwnership()": {
        "details": "Renouncing to ownership will leave the contract without an owner. It will not be possible to call the functions with the `onlyOwner modifier anymore.\r"
      },
      "setIdentityRegistryAddress(address)": {
        "params": {
          "_identityRegistryAddress": "The address of the IdentityRegistry contract\r"
        }
      },
      "transferOwnership(address)": {
        "details": "Allows the current owner to transfer control of the contract to a newOwner.\r",
        "params": {
          "newOwner": "The address to transfer ownership to.\r"
        }
      },
      "transferOwnership(uint256)": {
        "details": "This works on EINs, not on addresses\r",
        "params": {
          "_newOwner": "EIN to transfer ownership to\r"
        }
      }
    },
    "title": "SnowflakeOwnable\r"
  },
  "userdoc": {
    "methods": {
      "constructor": "Constructor\r",
      "getIdentityRegistryAddress()": {
        "notice": "Get the address for the Identity Registry\r"
      },
      "getOwnerEIN()": {
        "notice": "Get EIN of the current owner\r"
      },
      "isOwner()": {
        "notice": "Check if caller is owner\r"
      },
      "renounceOwnership()": {
        "notice": "Allows the current owner to relinquish control of the contract\r"
      },
      "setIdentityRegistryAddress(address)": {
        "notice": "Set the address for the Identity Registry\r"
      },
      "transferOwnership(uint256)": {
        "notice": "Allows the current owner to transfer control of the contract to a newOwner\r"
      }
    },
    "notice": "Snowflake-based authorizations\r"
  }
}