{
  "contractName": "Status",
  "abi": [
    {
      "constant": false,
      "inputs": [],
      "name": "renounceOwnership",
      "outputs": [],
      "payable": false,
      "stateMutability": "nonpayable",
      "type": "function"
    },
    {
      "constant": true,
      "inputs": [],
      "name": "callOnAddition",
      "outputs": [
        {
          "name": "",
          "type": "bool"
        }
      ],
      "payable": false,
      "stateMutability": "view",
      "type": "function"
    },
    {
      "constant": true,
      "inputs": [],
      "name": "snowflakeDescription",
      "outputs": [
        {
          "name": "",
          "type": "string"
        }
      ],
      "payable": false,
      "stateMutability": "view",
      "type": "function"
    },
    {
      "constant": true,
      "inputs": [],
      "name": "snowflakeName",
      "outputs": [
        {
          "name": "",
          "type": "string"
        }
      ],
      "payable": false,
      "stateMutability": "view",
      "type": "function"
    },
    {
      "constant": true,
      "inputs": [],
      "name": "owner",
      "outputs": [
        {
          "name": "",
          "type": "address"
        }
      ],
      "payable": false,
      "stateMutability": "view",
      "type": "function"
    },
    {
      "constant": true,
      "inputs": [],
      "name": "callOnRemoval",
      "outputs": [
        {
          "name": "",
          "type": "bool"
        }
      ],
      "payable": false,
      "stateMutability": "view",
      "type": "function"
    },
    {
      "constant": true,
      "inputs": [],
      "name": "isOwner",
      "outputs": [
        {
          "name": "",
          "type": "bool"
        }
      ],
      "payable": false,
      "stateMutability": "view",
      "type": "function"
    },
    {
      "constant": false,
      "inputs": [
        {
          "name": "_snowflakeAddress",
          "type": "address"
        }
      ],
      "name": "setSnowflakeAddress",
      "outputs": [],
      "payable": false,
      "stateMutability": "nonpayable",
      "type": "function"
    },
    {
      "constant": false,
      "inputs": [
        {
          "name": "newOwner",
          "type": "address"
        }
      ],
      "name": "transferOwnership",
      "outputs": [],
      "payable": false,
      "stateMutability": "nonpayable",
      "type": "function"
    },
    {
      "constant": true,
      "inputs": [],
      "name": "snowflakeAddress",
      "outputs": [
        {
          "name": "",
          "type": "address"
        }
      ],
      "payable": false,
      "stateMutability": "view",
      "type": "function"
    },
    {
      "inputs": [
        {
          "name": "snowflakeAddress",
          "type": "address"
        }
      ],
      "payable": false,
      "stateMutability": "nonpayable",
      "type": "constructor"
    },
    {
      "anonymous": false,
      "inputs": [
        {
          "indexed": false,
          "name": "ein",
          "type": "uint256"
        }
      ],
      "name": "StatusSignUp",
      "type": "event"
    },
    {
      "anonymous": false,
      "inputs": [
        {
          "indexed": false,
          "name": "ein",
          "type": "uint256"
        },
        {
          "indexed": false,
          "name": "status",
          "type": "string"
        }
      ],
      "name": "StatusUpdated",
      "type": "event"
    },
    {
      "anonymous": false,
      "inputs": [
        {
          "indexed": true,
          "name": "previousOwner",
          "type": "address"
        },
        {
          "indexed": true,
          "name": "newOwner",
          "type": "address"
        }
      ],
      "name": "OwnershipTransferred",
      "type": "event"
    },
    {
      "constant": false,
      "inputs": [
        {
          "name": "ein",
          "type": "uint256"
        },
        {
          "name": "",
          "type": "uint256"
        },
        {
          "name": "",
          "type": "bytes"
        }
      ],
      "name": "onAddition",
      "outputs": [
        {
          "name": "",
          "type": "bool"
        }
      ],
      "payable": false,
      "stateMutability": "nonpayable",
      "type": "function"
    },
    {
      "constant": false,
      "inputs": [
        {
          "name": "",
          "type": "uint256"
        },
        {
          "name": "",
          "type": "bytes"
        }
      ],
      "name": "onRemoval",
      "outputs": [
        {
          "name": "",
          "type": "bool"
        }
      ],
      "payable": false,
      "stateMutability": "nonpayable",
      "type": "function"
    },
    {
      "constant": true,
      "inputs": [
        {
          "name": "ein",
          "type": "uint256"
        }
      ],
      "name": "getStatus",
      "outputs": [
        {
          "name": "",
          "type": "string"
        }
      ],
      "payable": false,
      "stateMutability": "view",
      "type": "function"
    },
    {
      "constant": false,
      "inputs": [
        {
          "name": "status",
          "type": "string"
        }
      ],
      "name": "setStatus",
      "outputs": [],
      "payable": false,
      "stateMutability": "nonpayable",
      "type": "function"
    },
    {
      "constant": false,
      "inputs": [
        {
          "name": "to",
          "type": "address"
        }
      ],
      "name": "withdrawFees",
      "outputs": [],
      "payable": false,
      "stateMutability": "nonpayable",
      "type": "function"
    }
  ],
  "bytecode": "0x670de0b6b3a764000060055560c0604052601460808190527f4d792066697273742073746174757320f09f988e00000000000000000000000060a09081526200004c916006919062000232565b503480156200005a57600080fd5b5060405160208062001368833981018060405260208110156200007c57600080fd5b5051604080518082018252600681527f537461747573000000000000000000000000000000000000000000000000000060208281019190915282518084018452601081527f53657420796f7572207374617475732e000000000000000000000000000000009181019190915260008054600160a060020a0319163317808255935192939192859260019291600160a060020a03919091169082907f8be0079c531659141344cd1fd0a4f28419497f9722a3daafe3b4186f6b6457e0908290a384516200015090600190602088019062000232565b5083516200016690600290602087019062000232565b506200017b83640100000000620001df810204565b6003805491151575010000000000000000000000000000000000000000000260a860020a60ff0219931515740100000000000000000000000000000000000000000260a060020a60ff0219909316929092179290921617905550620002d492505050565b620001f264010000000062000220810204565b1515620001fe57600080fd5b60038054600160a060020a031916600160a060020a0392909216919091179055565b600054600160a060020a031633145b90565b828054600181600116156101000203166002900490600052602060002090601f016020900481019282601f106200027557805160ff1916838001178555620002a5565b82800160010185558215620002a5579182015b82811115620002a557825182559160200191906001019062000288565b50620002b3929150620002b7565b5090565b6200022f91905b80821115620002b35760008155600101620002be565b61108480620002e46000396000f3fe608060405234801561001057600080fd5b5060043610610112576000357c0100000000000000000000000000000000000000000000000000000000900480638da5cb5b116100b45780639182621a116100835780639182621a14610391578063c979b05a1461043e578063f2fde38b14610464578063f9f451b81461048a57610112565b80638da5cb5b146102ab5780638f06492d146102cf5780638f32d59b146102d757806390bfaf40146102df57610112565b806371790251116100f057806371790251146101d957806376acf1b6146101f55780637d2211d6146101fd57806388cdab94146102a357610112565b8063164e68de146101175780635c622a0e1461013f578063715018a6146101d1575b600080fd5b61013d6004803603602081101561012d57600080fd5b5035600160a060020a0316610492565b005b61015c6004803603602081101561015557600080fd5b50356105d4565b6040805160208082528351818301528351919283929083019185019080838360005b8381101561019657818101518382015260200161017e565b50505050905090810190601f1680156101c35780820380516001836020036101000a031916815260200191505b509250505060405180910390f35b61013d610675565b6101e16106df565b604080519115158252519081900360200190f35b61015c610700565b61013d6004803603602081101561021357600080fd5b81019060208101813564010000000081111561022e57600080fd5b82018360208201111561024057600080fd5b8035906020019184600183028401116401000000008311171561026257600080fd5b91908080601f01602080910402602001604051908101604052809392919081815260200183838082843760009201919091525092955061078b945050505050565b61015c610a49565b6102b3610aa3565b60408051600160a060020a039092168252519081900360200190f35b6101e1610ab3565b6101e1610ad5565b6101e1600480360360608110156102f557600080fd5b81359160208101359181019060608101604082013564010000000081111561031c57600080fd5b82018360208201111561032e57600080fd5b8035906020019184600183028401116401000000008311171561035057600080fd5b91908080601f016020809104026020016040519081016040528093929190818152602001838380828437600092019190915250929550610ae6945050505050565b6101e1600480360360408110156103a757600080fd5b813591908101906040810160208201356401000000008111156103c957600080fd5b8201836020820111156103db57600080fd5b803590602001918460018302840111640100000000831117156103fd57600080fd5b91908080601f016020809104026020016040519081016040528093929190818152602001838380828437600092019190915250929550610c4a945050505050565b61013d6004803603602081101561045457600080fd5b5035600160a060020a0316610c9f565b61013d6004803603602081101561047a57600080fd5b5035600160a060020a0316610ce1565b6102b3610d00565b61049a610ad5565b15156104a557600080fd5b600354604080517f75d7e4bd0000000000000000000000000000000000000000000000000000000081529051600160a060020a039092169160009183916375d7e4bd9160048082019260209290919082900301818787803b15801561050957600080fd5b505af115801561051d573d6000803e3d6000fd5b505050506040513d602081101561053357600080fd5b5051604080517f70a0823100000000000000000000000000000000000000000000000000000000815230600482015290519192506105cf918591600160a060020a038516916370a0823191602480820192602092909190829003018186803b15801561059e57600080fd5b505afa1580156105b2573d6000803e3d6000fd5b505050506040513d60208110156105c857600080fd5b5051610d0f565b505050565b60008181526004602090815260409182902080548351601f60026000196101006001861615020190931692909204918201849004840281018401909452808452606093928301828280156106695780601f1061063e57610100808354040283529160200191610669565b820191906000526020600020905b81548152906001019060200180831161064c57829003601f168201915b50505050509050919050565b61067d610ad5565b151561068857600080fd5b60008054604051600160a060020a03909116907f8be0079c531659141344cd1fd0a4f28419497f9722a3daafe3b4186f6b6457e0908390a36000805473ffffffffffffffffffffffffffffffffffffffff19169055565b60035474010000000000000000000000000000000000000000900460ff1681565b6002805460408051602060018416156101000260001901909316849004601f810184900484028201840190925281815292918301828280156107835780601f1061075857610100808354040283529160200191610783565b820191906000526020600020905b81548152906001019060200180831161076657829003601f168201915b505050505081565b600354604080517fa759ee6f0000000000000000000000000000000000000000000000000000000081529051600160a060020a0390921691600091839163a759ee6f9160048082019260209290919082900301818787803b1580156107ef57600080fd5b505af1158015610803573d6000803e3d6000fd5b505050506040513d602081101561081957600080fd5b5051604080517f05c62c2f0000000000000000000000000000000000000000000000000000000081523360048201529051919250600091600160a060020a038416916305c62c2f916024808301926020929190829003018186803b15801561088057600080fd5b505afa158015610894573d6000803e3d6000fd5b505050506040513d60208110156108aa57600080fd5b5051604080517fd4b1cdcc000000000000000000000000000000000000000000000000000000008152600481018390523060248201529051919250600160a060020a0384169163d4b1cdcc91604480820192602092909190829003018186803b15801561091657600080fd5b505afa15801561092a573d6000803e3d6000fd5b505050506040513d602081101561094057600080fd5b505115156109825760405160e560020a62461bcd0281526004018080602001828103825260228152602001806110166022913960400191505060405180910390fd5b600081815260046020908152604090912085516109a192870190610f08565b507fdc280875b120650ffe3edf5f724f07fd086361a32c2a387fe34b495f5679e77d81856040518083815260200180602001828103825283818151815260200191508051906020019080838360005b83811015610a085781810151838201526020016109f0565b50505050905090810190601f168015610a355780820380516001836020036101000a031916815260200191505b50935050505060405180910390a150505050565b60018054604080516020600284861615610100026000190190941693909304601f810184900484028201840190925281815292918301828280156107835780601f1061075857610100808354040283529160200191610783565b600054600160a060020a03165b90565b6003547501000000000000000000000000000000000000000000900460ff1681565b600054600160a060020a0316331490565b600354600090600160a060020a03163314610b355760405160e560020a62461bcd0281526004018080602001828103825260218152602001806110386021913960400191505060405180910390fd5b600354600160a060020a03168063edda781586610b50610aa3565b6005546040518463ffffffff167c01000000000000000000000000000000000000000000000000000000000281526004018084815260200183600160a060020a0316600160a060020a031681526020018281526020019350505050600060405180830381600087803b158015610bc557600080fd5b505af1158015610bd9573d6000803e3d6000fd5b505050600086815260046020526040902060068054610c0b935060026000196101006001841615020190911604610f86565b506040805186815290517fc252650b912104c77e420095a00de9a62cf950c897f73a39629aee5df63f97759181900360200190a1506001949350505050565b600354600090600160a060020a03163314610c995760405160e560020a62461bcd0281526004018080602001828103825260218152602001806110386021913960400191505060405180910390fd5b92915050565b610ca7610ad5565b1515610cb257600080fd5b6003805473ffffffffffffffffffffffffffffffffffffffff1916600160a060020a0392909216919091179055565b610ce9610ad5565b1515610cf457600080fd5b610cfd81610e8b565b50565b600354600160a060020a031681565b600354604080517f75d7e4bd0000000000000000000000000000000000000000000000000000000081529051600092600160a060020a0316916375d7e4bd91600480830192602092919082900301818787803b158015610d6e57600080fd5b505af1158015610d82573d6000803e3d6000fd5b505050506040513d6020811015610d9857600080fd5b5051604080517fa9059cbb000000000000000000000000000000000000000000000000000000008152600160a060020a0386811660048301526024820186905291519293509083169163a9059cbb916044808201926020929091908290030181600087803b158015610e0957600080fd5b505af1158015610e1d573d6000803e3d6000fd5b505050506040513d6020811015610e3357600080fd5b505115156105cf576040805160e560020a62461bcd02815260206004820152601660248201527f556e7375636365737366756c207472616e736665722e00000000000000000000604482015290519081900360640190fd5b600160a060020a0381161515610ea057600080fd5b60008054604051600160a060020a03808516939216917f8be0079c531659141344cd1fd0a4f28419497f9722a3daafe3b4186f6b6457e091a36000805473ffffffffffffffffffffffffffffffffffffffff1916600160a060020a0392909216919091179055565b828054600181600116156101000203166002900490600052602060002090601f016020900481019282601f10610f4957805160ff1916838001178555610f76565b82800160010185558215610f76579182015b82811115610f76578251825591602001919060010190610f5b565b50610f82929150610ffb565b5090565b828054600181600116156101000203166002900490600052602060002090601f016020900481019282601f10610fbf5780548555610f76565b82800160010185558215610f7657600052602060002091601f016020900482015b82811115610f76578254825591600101919060010190610fe0565b610ab091905b80821115610f82576000815560010161100156fe5468652045494e20686173206e6f74207365742074686973207265736f6c7665722e446964206e6f74206f726967696e6174652066726f6d20536e6f77666c616b652ea165627a7a72305820bb2ad75d6cb11848417ce100cd57f6b58ac4873a6f337631bdc133f4d921c3be0029",
  "source": "pragma solidity ^0.5.0;\r\n\r\nimport \"../SnowflakeResolver.sol\";\r\nimport \"../interfaces/IdentityRegistryInterface.sol\";\r\nimport \"../interfaces/HydroInterface.sol\";\r\nimport \"../interfaces/SnowflakeInterface.sol\";\r\n\r\ncontract Status is SnowflakeResolver {\r\n    mapping (uint => string) private statuses;\r\n\r\n    uint signUpFee = 1000000000000000000;\r\n    string firstStatus = \"My first status 😎\";\r\n\r\n    constructor (address snowflakeAddress)\r\n        SnowflakeResolver(\"Status\", \"Set your status.\", snowflakeAddress, true, false) public\r\n    {}\r\n\r\n    // implement signup function\r\n    function onAddition(uint ein, uint, bytes memory) public senderIsSnowflake() returns (bool) {\r\n        SnowflakeInterface snowflake = SnowflakeInterface(snowflakeAddress);\r\n        snowflake.withdrawSnowflakeBalanceFrom(ein, owner(), signUpFee);\r\n\r\n        statuses[ein] = firstStatus;\r\n\r\n        emit StatusSignUp(ein);\r\n\r\n        return true;\r\n    }\r\n\r\n    function onRemoval(uint, bytes memory) public senderIsSnowflake() returns (bool) {}\r\n\r\n    function getStatus(uint ein) public view returns (string memory) {\r\n        return statuses[ein];\r\n    }\r\n\r\n    function setStatus(string memory status) public {\r\n        SnowflakeInterface snowflake = SnowflakeInterface(snowflakeAddress);\r\n        IdentityRegistryInterface identityRegistry = IdentityRegistryInterface(snowflake.identityRegistryAddress());\r\n\r\n        uint ein = identityRegistry.getEIN(msg.sender);\r\n        require(identityRegistry.isResolverFor(ein, address(this)), \"The EIN has not set this resolver.\");\r\n\r\n        statuses[ein] = status;\r\n\r\n        emit StatusUpdated(ein, status);\r\n    }\r\n\r\n    function withdrawFees(address to) public onlyOwner() {\r\n        SnowflakeInterface snowflake = SnowflakeInterface(snowflakeAddress);\r\n        HydroInterface hydro = HydroInterface(snowflake.hydroTokenAddress());\r\n        withdrawHydroBalanceTo(to, hydro.balanceOf(address(this)));\r\n    }\r\n\r\n    event StatusSignUp(uint ein);\r\n    event StatusUpdated(uint ein, string status);\r\n}\r\n",
  "sourcePath": "C:/Users/Juan/Documents/JL/ETHER/HYDRO/hst/contracts/resolvers/Status.sol",
  "compiler": {
    "name": "solc",
    "version": "0.5.4+commit.9549d8ff.Emscripten.clang"
  },
  "schemaVersion": "3.0.6",
  "updatedAt": "2019-04-18T14:32:10.066Z",
  "devdoc": {
    "methods": {
      "isOwner()": {
        "return": "true if `msg.sender` is the owner of the contract.\r"
      },
      "owner()": {
        "return": "the address of the owner.\r"
      },
      "renounceOwnership()": {
        "details": "Allows the current owner to relinquish control of the contract.\r"
      },
      "transferOwnership(address)": {
        "details": "Allows the current owner to transfer control of the contract to a newOwner.\r",
        "params": {
          "newOwner": "The address to transfer ownership to.\r"
        }
      }
    }
  },
  "userdoc": {
    "methods": {
      "renounceOwnership()": {
        "notice": "Renouncing to ownership will leave the contract without an owner.\r It will not be possible to call the functions with the `onlyOwner`\r modifier anymore.\r"
      }
    }
  }
}